:1000000000400020B9010000914500009545000026
:1000100000000000000000000000000000000000E0
:1000200000000000000000000000000099450000F2
:1000300000000000000000009D450000A1450000F8
:10004000A5450000A9450000AD450000B1450000F0
:10005000B5450000B9450000BD450000C1450000A0
:10006000C5450000C9450000CD450000D145000050
:10007000D5450000D9450000DD450000E145000000
:10008000E5450000E9450000ED450000F1450000B0
:10009000F5450000F9450000D5010000FD450000D0
:1000A000014600000546000030B583B0314B324AAE
:1000B0001360324A1360324B3249002201E01A6069
:1000C00004338B42FBD32C4B1B68002B03D12B4BEF
:1000D0001B68002B00D0FEE7264B2B4A13602B4AEF
:1000E00013602B4B2B4A2C4903E010681860043333
:1000F00004328B42F9D3244B1A68284B9A4204D11C
:10010000224B1A681B689A4200D0FEE700F0CCF838
:1001100001A8694600F098F8214B224DED1AAD1068
:10012000002404E0A3001E4A9B5898470134A542CE
:10013000F8DC1D4B1D4DED1AAD10002404E0A300AA
:1001400019481B5898470134A542F8DC01980099DA
:1001500004F008FC051C164B164CE41AA41004E02D
:10016000013CA300124A9B589847002CF8DC281C3D
:1001700000F046F8BABADECACC0100207C17002095
:10018000CC0100208017002000000020C8010020C2
:1001900000000020E06C0000CC01002078563412F2
:1001A0000002000000020000000200000002000047
:1001B000000200000002000008B5FFF775FFC0460E
:1001C000FEE7C046FEE7C046FEE7C046FEE7C04683
:0801D000FEE7C046FEE7C04651
:1001D800E06C000000000020CC010020E06C000072
:1001E8000000001000000010CC0100208017002043
:0801F8000000001000000010DF
:10020000FEE7C04608B50D4B1B68002B02D10C4A17
:100210000A4B1A60094B1B680330032290431818DD
:10022000084A904206D904F0BFFC0C230360012069
:10023000404202E0014A1060181C08BDD0010020B5
:10024000801700200038002001230360014B0B6061
:100250007047C0460400002008B504F0A5FC5823F0
:1002600003600120404208BD08B504F09DFC5823FE
:1002700003600120404208BD08B504F095FC5823F6
:100280000360002008BDC04608B504F08DFC58236B
:1002900003600120404208BD08B504F085FC5823E6
:1002A00003600120404208BD08B500F013F808BD06
:1002B000014B18687047C046D8010020014B1868F0
:1002C0007047C046DC010020014B186A7047C046E9
:1002D0000010004110B5134B1A68134B1A60134BF2
:1002E0001A68134B1A60134B00221A625C690122D0
:1002F0001440A24059698907C90F141C8C405969E0
:10030000090A3F2211405869000C02400A48504334
:1003100004F0F4FBFF21214004F0F0FB074B1860D0
:1003200010BDC046B8FD030010120041BCFD030023
:10033000041000410010004100127A00D801002092
:1003400038B50C1C012803D101211F4B196203E0B1
:1003500000211D4B19621D4C101C211C04F0CEFB0A
:10036000C3B2012B08D8184B0122DA61184A5A612E
:100370000125012101221AE0134B0022DA613F22FC
:100380001040000480225200104358615D69012230
:100390001540AA4059698907C90F151C8D40EDB257
:1003A0005969090A3F2211405869000C0240094B63
:1003B0001C60101C604304F0A1FB291C04F09EFB90
:1003C000054B186038BDC0460010004100127A008D
:1003D00000010200DC010020D801002010B5054B0F
:1003E0001C68054B1C60054B1C68054B1C60FFF727
:1003F000A7FF10BDB8FD030010120041BCFD0300B3
:1004000004100041F0B55F4656464D464446F0B4F0
:1004100080468423DB05984205D08623DB0598427D
:1004200003D1354C02E0354C00E0354C0023012669
:10043000022081460422944640270325AA4653E021
:10044000321C9A400D68154095424CD10D79012D12
:1004500004D14546286902432A6101E045466A61A4
:100460004A79484610420BD09A001559281C554627
:10047000A84310511059051C48460543155108E082
:100480009A001559281C5546A84310511559354353
:1004900015514A796046104204D09A001559054317
:1004A000155105E09A001059051C60468543155109
:1004B0004A792025154205D09A0015592020054378
:1004C000155104E09A0015592020854315514A79A9
:1004D000174204D09A0015593D43155103E09A0084
:1004E0001559BD43155101330F2BA9D93CBC90467A
:1004F0009946A246AB46F0BD403000410030004175
:1005000080300041034B0360002303716223437179
:100510007047C046FFFF00000368081C1840431ED8
:1005200098417047CBB20133FF339B0019500B0A3F
:10053000802292009B189B0019507047CAB2CB438F
:100540000132FF3292001350090A8022920089186A
:1005500089000B507047C046F0B55F4656464D4681
:100560004446F0B4944600230125214A92460324D0
:10057000A346204FB946204E31E02C1C9C400C4233
:100580002CD000280BD19C00A259171C5A46974327
:10059000A751A7593A1C67463A43A2511EE00128C9
:1005A0000ED19C004A46A7583A1C5F46BA434F46B4
:1005B000E251E259171C624617434A46A7500DE024
:1005C0009C005746E259171C5A4697435246A7507B
:1005D000A7583A1C67463A435746E25101330F2B5E
:1005E000CBDD3CBC90469946A246AB46F0BDC0462A
:1005F000802000414020004100200041F0B583B040
:10060000041C0D1C161C1F1C6846FFF77BFF009581
:100610006B461E71201C6946FFF7F4FE8421C90554
:100620008C4205D10020291C3A1CFFF795FF0EE0F3
:100630008623DB059C4205D10120291C3A1CFFF7CB
:100640008BFF04E00220291C3A1CFFF785FF03B052
:10065000F0BDC04610B5041C094B1B6B022B03D028
:10066000074B1B6B032B02D1FFF728FE01E0FFF7BE
:100670001FFE211C04F042FA024B186110BDC04657
:10068000001000410060004008B5FFF7E3FF034B96
:10069000996803220A439A60002008BD0060004068
:1006A000034901224B681A42FCD1014B1860704784
:1006B00000600040014B186880B270470060004045
:1006C00010B5041CFFF7ECFF201C10BD08B5044951
:1006D00002224B681A42FCD0FFF7ECFFC0B208BD03
:1006E000006000400078C0B27047C046017070479B
:1006F00030B5002407E065182D042D0C2D182D7839
:1007000015550134A4B29C42F5D330BD70B5002418
:1007100007E065182D042D0C2D18165D2E70013480
:10072000A4B29C42F5D370BD70B50B1C141E11D041
:100730008504094AAD182E683604360C072210408D
:100740008004064A1043311C1A1C231CFFF7DEFFED
:10075000A4192C6070BDC0460C0201460000024680
:1007600070B50B1C141E11D08504094AAD182E68F3
:100770003604360C072210408004064A1043311C10
:100780001A1C231CFFF7B4FFA4192C6070BDC046CF
:10079000280201460000034610B500290FD083044B
:1007A000074A9B181A681204120C07242040800480
:1007B000044C204389180904090C0818186010BD5E
:1007C0002802014600000346F0B54F4680B4061CDF
:1007D000141C2025AD1AA9400D1C134B9946134F2C
:1007E0001CE0002D05DA104B1988301CFFF79AFE2B
:1007F00004E04B461988301CFFF7A0FE012004F0EE
:1008000059F93988301CFFF78DFE012004F052F9A8
:100810003988301CFFF792FE6D00013C002CE0D1BE
:1008200004BC9146F0BDC0460E0000200C00002024
:10083000F0B5474680B4051C002000240F4E104B35
:10084000984615E047003188281CFFF76BFE012011
:1008500004F030F93188281CFFF770FE012004F005
:1008600029F943461988281CFFF756FE38430134FE
:100870000F2CE7D904BC9046F0BDC0460C00002008
:100880000E00002038B5041C0A4B1B884361012070
:1008900004F010F9084D2988201CFFF743FE0120C1
:1008A00004F008F92988201CFFF748FE012004F015
:1008B00001F938BD0E0000200C00002038B5041CE2
:1008C000084B1B880361084D2988FFF72BFE012088
:1008D00004F0F0F82988201CFFF730FE012004F016
:1008E000E9F838BD0E0000200C000020F0B54746A6
:1008F00080B400258624E40501277F42184B9846E2
:1009000023E0201C391C2022FFF75EFF201C06215B
:100910000422FFF759FF201C291C0522FFF754FF72
:10092000201C01210522FFF74FFF201CFFF7AAFF23
:10093000201CFFF77DFF061C201CFFF7BFFF002EC9
:1009400002D0084B9E4207D10135082DD9DD404623
:1009500004F0CCF90025F8E7281C04BC9046F0BD53
:100960007C600000FFFF000070B582B0061C0D1C0B
:10097000141C6846FFF7C6FD2B1C2343009301237C
:100980006A461371301C6946FFF73CFD0120211CAB
:100990000122FFF7E1FD0120291C0122FFF7DCFD08
:1009A000044B1D80044B1C80FFF7A0FF034B186015
:1009B00002B070BD0C0000200E0000206407002073
:1009C00010B51A4C21781A48FFF790FE6178194843
:1009D000FFF78CFEA1781848FFF788FEE1781748EA
:1009E000FFF784FE164C21781648FFF77FFE6178EA
:1009F0001548FFF77BFEA1781448FFF777FEE178F2
:100A00001348FFF773FE134C21781348FFF76EFE6F
:100A100061781248FFF76AFEA1781148FFF766FE79
:100A2000E1781048FFF762FE10BDC046F4010020D7
:100A300013600046126000461160004610600046D8
:100A4000E40100200F6000460E6000460D60004685
:100A50000C600046F00100200B6000460A60004672
:100A6000096000460860004610B5124C201C802129
:100A7000FFF73CFE201CFFF735FEFFF7A1FF0E4CF1
:100A800021780E48FFF732FE61780D48FFF72EFE01
:100A9000A1780C48FFF72AFEE1780B48FFF726FE05
:100AA00021790A48FFF722FE61790948FFF71EFE07
:100AB00010BDC04600230046F80100200360004638
:100AC0000260004601600046006000460760004684
:100AD0000660004610B5114C201C8021FFF706FE71
:100AE000201CFFF7FFFD0E4C21780E48FFF7FEFD9E
:100AF00061780D48FFF7FAFDA1780C48FFF7F6FD85
:100B0000E1780B48FFF7F2FD21790A48FFF7EEFD87
:100B100061790948FFF7EAFD10BDC0460023004691
:100B2000F8010020036000460260004601600046B4
:100B300000600046076000460660004610B50B4C9A
:100B40000B4B1C600B4C0C4B1C600C4C0C4B1C607E
:100B5000002801D0064B1860002901D0064B19600F
:100B6000002A01D0064B1A6010BDC046C109000022
:100B700018000020690A000014000020D50A0000B7
:100B80001C00002010B5324A012311680B70116857
:100B90004B70062311688B70002000231168C87009
:100BA00011682C4A1268140E0C71140C4C71140A42
:100BB0008C71CA71088180228A720022CA720B73FA
:100BC0004B738B73CB730B744B748B74CB740B752F
:100BD0004B758B75CB750B764B768B76CB761E4B28
:100BE0001A780A775A784A779A788A77DA78CA77B9
:100BF0001879202288545A792123CA5406230020C8
:100C000003E0CA1810770133DBB20F2BF9D90023A8
:100C1000002004E0CA18283210710133DBB23F2BE8
:100C2000F8D90023002004E0CA186832107101339B
:100C3000DBB25AB2002AF7DA6323EC228B5482200B
:100C4000ED2288545320EE228854EF228B5410BD9D
:100C5000740700206C070020F8010020F0B547461B
:100C600080B484B0FFF78EFF524B19683522F02311
:100C7000CA540123F1228B54F2228B543D20F322DB
:100C800088540720F4228854F5228B544A4B187854
:100C9000F62288545878F72288549878F822885495
:100CA000D8788046F92288541A799446FA22604608
:100CB00088545F79FB23CF540C22FC23CA540022B2
:100CC000FD23CA54122200233C4D2E1C07E0501C69
:100CD000F45C8A18E832147101339BB282B2E85C8A
:100CE0000028F4D1551CADB28A18E8324046107184
:100CF000681C80B24D19E83562462A71421C92B2D6
:100D00000818E8300771D41A0C19E434033323713E
:100D1000531C9BB28A18E83237201071581C80B2DD
:100D2000CB18E83306221A71431C9BB20818E8302E
:100D300001240471581C80B2CB18E83303241C71C1
:100D4000431C9BB20818E83002715A1C92B2CB18AF
:100D5000E8330F201871531C9BB28A18E8323A20EE
:100D600010715A1C92B2CB18E8333B201871531CF7
:100D70009BB28A18E832FF2010713820FF3000241F
:100D800004E0CA18E832147101339BB28342F8D9E7
:100D900003ABFF221A705A709A70DA70084A107802
:100DA000432200928922920000F086FF04B004BC26
:100DB0009046F0BD74070020F801002024000020B8
:100DC00078070020F0B585B0FFF7DCFE7F4B1B787D
:100DD000033B012B18D87E4B1B6800229A72DA72F3
:100DE0007C4A117819735178597391789973D27834
:100DF000DA73794A117803AB197051785970917888
:100E00009970D278DA7005E003ABFF221A705A703D
:100E10009A70DA706E4B19683522F023CA54012398
:100E2000F1228B540320F22288543D20F32288546F
:100E30000720F4228854F5228B54684B1878F62248
:100E400088545878F72288549878F8228854D878AB
:100E50008446F92288541F79FA228F545E79FB2345
:100E6000CE5403ABDA781023FF2A2DD13222FC2393
:100E7000CA540422FD23CA54564B1C78FE200C543D
:100E80005C78FF200C549C78802040000C54D8786B
:100E90000223FF33C854362081235B00C854042347
:100EA000FF33CA544C4B1878822252008854587829
:100EB0000622FF3288549878832252008854DA78C8
:100EC0000823FF33CA541C23CA18E8320C201071BF
:100ED0009A1CCB18E933002018710023404D05E01F
:100EE000541C8A18E83210710133A2B2E85C002861
:100EF000F6D1541CA4B28A18E83260461071601C06
:100F000080B20C19E8342771421C92B20818E830FC
:100F10000671D01A0818E43003330371531C9BB2D6
:100F20008A18E832372010715A1C92B2CB18E83375
:100F300008201871531C9BB28A18E83201201071E6
:100F40005A1C92B2CB18E83303201871531C9BB281
:100F50008A18E832062010715A1C92B2CB18E83376
:100F60000F201871531C9BB28A18E8323A20107176
:100F70005A1C92B2CB18E8333B201871531C9BB219
:100F80008A18E8321F2010715A1C92B2CB18E8332D
:100F900021201871531C8A18E832FF2010719BB26F
:100FA0003820FF30002403E0CA18E83214710133FE
:100FB0008342F9DD0B4B187843230093892292007A
:100FC00003AB00F079FE05B0F0BDC046E0010020A3
:100FD00074070020F401002070070020F8010020B1
:100FE000240000207807002030B585B0FFF7CAFD47
:100FF000394B196800238B72CB723522F023CA5407
:101000000123F1228B540422F2200A543D24F320C0
:101010000C540724F4200C54F5200B542F4B1C784F
:10102000F6200C545C78F7200C549C78F8200C5473
:10103000DC78F9200C541C79FA200C545879FB23E5
:10104000C8543220FC23C854FD23CA54244B1C78B6
:10105000FE200C545C78FF200C549D7880246400A2
:101060000D55DC780223FF33CC54362481235B00FA
:10107000CC540423FF33CA541A4B1C7882225200EA
:101080008C545C780622FF328C549C788322520068
:101090008C54DA780823FF33CA5484235B00C85485
:1010A0001D233820FF30002403E0CA18E8321471F1
:1010B00001338342F9DD03ABFF221A705A709A7034
:1010C000DA70094A1078432200928922920000F0D7
:1010D000F3FD05B030BDC04674070020F8010020C4
:1010E000F40100207007002078070020F0B54F467B
:1010F0004646C0B487B05B4B187883045A4A9B18A5
:101100001A6892B20023002A00D1A5E0574B196853
:101110006D460E35009504AB00F0AEFE2B88432BD8
:1011200000D098E0514B1A68147F514B1978002376
:101130008C4200D090E0547F4D4B597800238C4274
:1011400000D089E0947F4A4B997800238C4200D0EC
:1011500082E0D47F464BD97800238C427CD1202377
:10116000D45C434B197900238C4275D12123D45C84
:101170003F4B597900238C426ED180B2111CF03163
:1011800012181C1C3B4F3C4E3C4B9C463C4D60E0B7
:101190000B78062B30D006D8012B14D0002B0DD0A5
:1011A000032B1AD050E0352B0AD002D8332B2FD086
:1011B0004AE0362B3ED0FF2B4AD045E0013148E0D3
:1011C0008C78033145E08B782B70CB786B700B7982
:1011D000AB704B79EB7006313BE0487881468B78F9
:1011E00028480370CB7843700879264B987048796B
:1011F000D870494402312CE048788B783B70CB782A
:101200007B700B79BB704B79FB700918023120E0C1
:101210008B78604603601B029846CB7843441B02E0
:1012200098460B7943441B0298464B79434403602C
:1012300006310EE08B783370CB7873700B79B37016
:101240004B79F370063104E08B1C4978591800E0A3
:10125000111C91429CD3E3B258B207B00CBC90462B
:101260009946F0BD7807002024020146740700204B
:10127000F80100200002002070070020200000205C
:10128000E4010020F001002008B5044B187800F0BC
:101290007FFA0622024B1A7008BDC046780700206C
:1012A000E001002070B582B0134C201CFFF71AFA41
:1012B000061C201C0321FFF719FA104B1878104B5D
:1012C000009310491122104B00F0F6FC051C201C65
:1012D000311CFFF70BFA01230D3509D0FFF784FE0F
:1012E0000A4B19681A1C13685B1A012BFBD90023DF
:1012F00058B202B070BDC046446000467807002076
:1013000088130000AC600000F4010020E801002018
:101310000023044A13600521034A1160034A137035
:101320007047C046E80100201000002004020020A1
:1013300010B5214B1B785BB2012B23DC1F4B1A68C5
:101340001F4B1B6801249A4233D21E4B1B78022B81
:1013500006D0042B07D0012B07D1FFF77FFC04E058
:10136000FFF730FD01E0FFF72DFD154B00221A605D
:101370001A680532114B1A600F4B1A7801321A7035
:10138000012416E00F4B1B78022B09D0042B07D049
:101390000124012B0BD100220A4B1A70002406E015
:1013A000FFF75CFC0122074B1A700124FFE7FFF7EF
:1013B000AFFF201C10BDC04604020020100000201A
:1013C000E8010020E001002010B5654B1B785BB2FE
:1013D0000520062B00D1C1E0624B18788004624AD8
:1013E0008018FFF77FF9222806D05E4B187802217B
:1013F0004422002300F006FAFFF778FEC0B2584BF3
:101400001A78042A00D9A5E09300584AD3589F4679
:10141000574B00221A705A709A70DA70FFF71EFC50
:1014200001224F4B1A70012497E0022811D1514B31
:101430001A68117C4E4B1970517C5970917C9970CF
:10144000D27CDA70FFF7BEFC0222454B1A700124F1
:1014500083E0FFF76DFF041C7FE0052817D1FFF73D
:1014600021FF002809D0444B1B689847FFF750FF25
:1014700003223B4B1A7001246FE0FFF749FF3F4BFB
:101480001B6898470022364B1A70012465E0062835
:1014900006D1FFF73DFF0122314B1A7001245CE0B9
:1014A000FFF746FF041C58E0354B1B685A1C53D00D
:1014B0005B08344A1268042493424ED22C4A1178B5
:1014C000314B19705178597091789970D278DA70DF
:1014D0002E4B1A6801321A60FFF774FCFFF718FFF1
:1014E00004221F4B1A7038E0052826D10022284B11
:1014F0001A70254B1A781E4B1B789A4211D1224B39
:101500005A781B4B5B789A420BD11F4B9A78184B39
:101510009B789A4205D11C4BDA78154BDB789A42BE
:1015200004D01C4B1B689847032400E00424FFF7F9
:10153000EFFE03220A4B1A700FE0062806D1FFF7D0
:10154000E7FE0122064B1A70042406E0FFF7F0FEC6
:10155000041C02E0012400E00424201C10BDC0464D
:10156000E00100207807002030000146986000006C
:10157000F401002074070020180000201C00002047
:1015800020000020E8010020EC0100206C07002072
:101590000402002014000020F8B5061C0D1C494868
:1015A000FFF7A0F8484C20704848FFF79BF86070A0
:1015B0004748FFF797F8A0704648FFF793F8E070A8
:1015C0004548FFF78FF820714448FFF78BF8031C5C
:1015D0006071227894466278A778E0782179644631
:1015E00022433A4302430A43134320D1364C23702B
:1015F00008226270DC22A270E370237163713148AB
:101600000021FFF773F861783048FFF76FF8A17891
:101610002F48FFF76BF8E1782E48FFF767F821793C
:101620002D48FFF763F861792C48FFF75FF82C4BE2
:101630001E702C4B1D60244BD9782B4A88181A79C0
:1016400080185B79C0184A405340C318274803608C
:10165000274F381C0021FFF749F8264E301C002187
:10166000FFF744F8244D281C0021FFF73FF8234CD6
:10167000201C0021FFF73AF8381C0021FFF736F84C
:10168000301C0021FFF732F8281C0021FFF72EF84C
:10169000201C0021FFF72AF819480021FFF726F83F
:1016A00018480021FFF722F817480021FFF71EF81D
:1016B00016480021FFF71AF8FFF72AFE0022144B04
:1016C0001A70F8BD03600046F80100200260004671
:1016D0000160004600600046076000460660004664
:1016E0007807002074070020785634126C07002019
:1016F000136000461260004611600046106000460C
:101700000B6000460A60004609600046086000461B
:10171000E0010020024B1A6801321A607047C0468F
:10172000E8010020044B1A7802705A7842709A78C7
:101730008270DB78C3707047F4010020044B1A7884
:1017400002705A7842709A788270DB78C370704762
:10175000F0010020044B1A7802705A7842709A788F
:101760008270DB78C3707047E4010020044B1A7864
:1017700002705A7842709A788270DB78C370704732
:1017800000020020014B18687047C046200000206E
:1017900070B5051E082D26D88604144BF418201C9D
:1017A0001021FEF7A3FF201CFEF79CFF0028FAD1B2
:1017B0000F4BF0181F21FEF799FF0121A9400D4B97
:1017C0001A888A431A806A0000210B4BD1520B4BB6
:1017D00000225A550A4BF418201CFEF783FF0028FC
:1017E000FAD1012000E0FF2040B270BD1000014698
:1017F0002800014608020020140200200C020020EC
:1018000030000146F0B5474680B4051C0E1C141C80
:101810001F1C082861D8002961D0022901D9042998
:101820005DD106233B425CD1002F0DD0012E02D0AA
:10183000022E04D008E021233B4205D153E0BA0632
:1018400002D57BB2002B50DA281CFFF7A1FFAB04B6
:101850009846284A101C40440F23391C99433143B1
:10186000FEF744FF002C0AD1234A1488631C9BB264
:101870001380224A934202D1214A1F4B1A80214AE7
:10188000131C43441C60204B1C1C4444201C01219D
:10189000FEF72CFF201CFEF725FF0028FAD10123BC
:1018A0001F40AF40194B1A8817431F800121A940E0
:1018B000174B1A888A431A806B000021154A9952E7
:1018C000154B00225A55154A141C4444201CFEF79F
:1018D00009FF0028FAD0E8B208E0FF2006E0FB206C
:1018E00004E0FA2002E0FA2000E0FA2040B204BC52
:1018F0009046F0BD000001462C000020F0FF0000E3
:1019000000C0FFFF1401014610000146060200203E
:1019100008020020140200200C02002030000146C2
:1019200070B5051E082D27D88404174BE018FEF764
:10193000D9FE0F231840012820D1144BE618301C83
:10194000FEF7D0FE13281BD1114BE418201C0221F6
:10195000FEF7CCFE201CFEF7C5FE0028FAD104E0FD
:10196000281CFFF715FFFC200BE0301CFEF7BAFE29
:101970001428F5D1012004E0FF2002E0FB2000E064
:10198000FD2040B270BDC046000001463000014657
:1019900010000146F8B5071E082F37D886041E4BE5
:1019A000F018FEF79FFE0F231840012830D11B4B83
:1019B000F418201C0821FEF799FE201CFEF792FE69
:1019C0000028FAD10123181CB840154A1188814318
:1019D0001180144A12883A41002013420AD018E0BC
:1019E000301CFEF77FFE054209D0381CFFF7D0FE01
:1019F000F3200EE00C4BF4180C4BF6180825201CB5
:101A0000FEF770FE0028EBD1012002E0FF2000E08D
:101A1000FB2040B2F8BDC046000001461000014660
:101A20000802002006020020300001462000014686
:101A3000F0B55F4656464D464446F0B483B0834603
:101A40000191141C082800D981E05F46BA04009275
:101A5000494BD018FEF746FE0F231840012879D1D4
:101A6000002C7AD0009A454BD618301CFEF73AFE6F
:101A7000172801D01C2873D1414B1B885A461341AB
:101A8000DA071ED5009B3F4A9818FEF72BFE031C71
:101A9000C2060DD5009B3C4A98181021FEF726FE81
:101AA00001215B469940364B1A888A431A8008E028
:101AB00000201A0758D55846FFF76AFE0D2040420D
:101AC00052E0009B314A9818FEF70CFE8502ADB239
:101AD000AC4200D8251C009B98462D4B98442D4ABB
:101AE00092460123994642461468A4B2301CFEF780
:101AF000F9FD172807D01C2805D05846FFF748FEE7
:101B00000720404230E0524613883B414A461A4281
:101B100001D0A54227D8A542E5D8584601992A1CEC
:101B2000FEF702FE009B1C4A9C18201C2021FEF799
:101B3000DDFD201CFEF7D6FD0028FAD101215B4611
:101B400099400F4B1A880A431A80281C0CE0012088
:101B5000404209E00520404206E00E20404203E0FA
:101B60000720404200E0002003B03CBC904699466C
:101B7000A246AB46F0BDC04600000146300001461B
:101B8000080200202000014628000146000201460C
:101B9000040201460602002010000146F0B55F462F
:101BA00056464D464446F0B483B083460191141C1A
:101BB000082860D8D9468504374AA818FEF792FD50
:101BC0000F231840012859D1002C5AD0334BE81864
:101BD000FEF788FD800280B20090A04200D30094FE
:101BE0002F4A521990462F4BEF182F4A92464346E0
:101BF0001C68A4B2381CFEF775FD17281BD01C28E2
:101C000013D1002C21D1294AAB181E683604360C9A
:101C1000274BE818FEF766FD800286420BD1584636
:101C2000FFF7B6FD072040422FE05846FFF7B0FD12
:101C30000720404229E0524613884A461341DA07FA
:101C400001D5002C20D0002CD1D0009BA34200D87D
:101C50001C1C58460199221CFEF782FD154AAD183E
:101C6000281C4021FEF742FD281CFEF73BFD002802
:101C7000FAD1201C09E00120404206E00520404244
:101C800003E00E20404200E0002003B03CBC904640
:101C90009946A246AB46F0BD00000146200201462F
:101CA00024020146300001460602002004020146DB
:101CB0000002014610000146F0B55F4656464D460B
:101CC0004446F0B483B000900191171C1C1C0CAB6F
:101CD0001D88082800D998E0804683049B46594A0D
:101CE000101C5844FEF7FEFC0F231840022802D0B7
:101CF000042800D08CE0002F00D18CE023781B0258
:101D000062789B181B02A2789B181B02E2789B1832
:101D1000002B00D182E0002D00D182E04A4B1E1C36
:101D20005E44301CFEF7DEFC422801D022287BD125
:101D30002178464A101C5844FEF7D8FC6178444B81
:101D4000181C5844FEF7D2FCA178424A101C584493
:101D5000FEF7CCFCE178404B181C5844FEF7C6FC5B
:101D60003E4A131C5B441D603D4B181C5844FEF753
:101D7000B9FC8502ADB2AF4200D83D1C394A171CF0
:101D80005F44394B9A46012291463C68A4B2301C0C
:101D9000FEF7A8FC00284AD0524613884246134159
:101DA0004A461A4201D0AC4244D3AC42EDD300982B
:101DB00001992A1CFEF7B8FC2C4B1C1C5C44201C0F
:101DC0002021FEF793FC201CFEF78CFC0028FAD1A2
:101DD000274A161C5E4410240827301CFEF782FC9C
:101DE000044207D0234B181C58441021FEF77EFCF8
:101DF000281C20E00742F0D01E4A101C584408213D
:101E0000FEF774FC0D20404215E00120404212E034
:101E1000052040420FE00E2040420CE00C204042E2
:101E200009E00B20404206E00720404203E0042086
:101E3000404200E0002003B03CBC90469946A246D8
:101E4000AB46F0BD000001463000014627010146C7
:101E500026010146250101462401014620010146D3
:101E6000000201460402014606020020100001465D
:101E70002000014628000146F0B55F4656464D4613
:101E80004446F0B487B0051C02919346039308289A
:101E900000D9D4E0061C800482467349081C5044D3
:101EA000FEF720FC01900F230340022B02D0042BED
:101EB00000D0C7E05A46002A00D1C6E06B006B4A4A
:101EC0009B5A002B1BD16A4B9846D0446948071C8B
:101ED00057446949894642461468A4B2381CFEF743
:101EE00001FC002800D1B3E0484603883341D907FC
:101EF00002D5002C00D1AEE0002CECD000E0002494
:101F000000225E4B5A550723019A1340022B02D040
:101F1000042B3CD071E06B00544A9B5A002B2AD111
:101F2000281C04A90822FEF71BFC554B1C1C54441A
:101F3000201C4021FEF7DAFB201CFEF7D3FB002813
:101F4000FAD16846037C03990B70437C4B70837C09
:101F50008B70C37CCB70037D427D1B02D318109A1B
:101F60001380827D6B00C17D120289183F4A99520D
:101F70008022424B5A556B003C4A9C5A5C4500D922
:101F80005C46281C0299221CFEF7EAFB3CE06B0031
:101F9000364A9B5A002B24D1281C04A90222FEF7A2
:101FA000DFFB374B1C1C5444201C4021FEF79EFBDA
:101FB000201CFEF797FB0028FAD16846037C6A00D4
:101FC000417C1B02CB189BB2284953522D4A9342A5
:101FD00004D9281CFFF7DCFB2B483DE08022274B6F
:101FE0005A556B00214A9C5A5C4500D95C46281C16
:101FF0000299221CFEF7B4FB06E0281C211CFEF708
:10200000CBFB6B00194A9C521D490E1C5644301CD8
:102010004021FEF76BFB301CFEF764FB0028FAD171
:10202000124A69008B5A1B1B9BB28B52002B04D0A7
:10203000124B595D01220A435A55201C0CE0012025
:10204000404209E00520404206E00E20404203E005
:102050000420404200E0002007B03CBC9046994676
:10206000A246AB46F0BDC046000001461402002067
:102070002402014630000146060200200C02002026
:1020800010000146EA05000017FCFFFFF0B55F46AF
:1020900056464D464446F0B493B0554B9A46181CEC
:1020A000FEF720FB0090534B9946181CFEF71AFBD5
:1020B0000190514B9846181CFEF714FB02904F48B4
:1020C000FEF710FB03904E48FEF70CFB04904D48C2
:1020D000FEF708FB05904C48FEF704FB06904B48C2
:1020E000FEF700FB07904A48FEF7FCFA08904948C3
:1020F000FEF7F8FA09904848FEF7F4FA0A904748C4
:10210000FEF7F0FA0B904648FEF7ECFA0C904548C3
:10211000FEF7E8FA0D90444F381CFEF7E3FA0E90F4
:10212000424E301CFEF7DEFA0F90414D281CFEF7A0
:10213000D9FA10903F4C201CFEF7D4FA11903E4B78
:102140009B46181C8021FEF7D1FA5846FEF7CAFAC2
:1021500050460099FEF7CAFA48460199FEF7C6FABA
:1021600040460299FEF7C2FA24480399FEF7BEFAE8
:1021700023480499FEF7BAFA22480599FEF7B6FA01
:1021800021480699FEF7B2FA20480799FEF7AEFA01
:102190001F480899FEF7AAFA1E480999FEF7A6FA01
:1021A0001D480A99FEF7A2FA1C480B99FEF79EFA01
:1021B0001B480C99FEF79AFA1A480D99FEF796FA01
:1021C000381C0E99FEF792FA301C0F99FEF78EFA22
:1021D000281C1099FEF78AFA201C1199FEF786FA3E
:1021E00013B03CBC90469946A246AB46F0BDC046F3
:1021F0000360004602600046016000460060004641
:1022000007600046066000460B6000460A60004614
:1022100009600046086000460F6000460E600046F8
:102220000D6000460C6000461360004612600046D8
:1022300011600046106000460023004670B5061C81
:102240000D1CFFF723FF002E07D11CE05AB2B25C31
:102250005118C9B20133DBB201E0002100235AB2A8
:10226000072AF3DD49B210292FDC002408E063B20D
:102270009804184A8018F15CFEF738FA0134E4B289
:1022800063B2072BF3DD002200230020002D1FD0B6
:1022900005E059B2695C8A18D2B20133DBB259B297
:1022A0000729F6DD52B2102A11DC002408E063B2DF
:1022B0009804094A8018E95CFEF718FA0134E4B280
:1022C00063B2072BF3DD002002E0FF2000E0FF20D7
:1022D00040B270BD000201462002014610B5041C48
:1022E00001782A48FEF702FA61782948FEF7FEF9DC
:1022F000A1782848FEF7FAF9E1782748FEF7F6F9C1
:1023000021792648FEF7F2F961792548FEF7EEF9C2
:10231000A17B2448FEF7EAF9E17B2348FEF7E6F9C2
:10232000217C2248FEF7E2F9617C2148FEF7DEF9C4
:10233000A17A2048FEF7DAF9E17A1F48FEF7D6F9CC
:10234000217B1E48FEF7D2F9617B1D48FEF7CEF9CE
:10235000A1791C48FEF7CAF9E1791B48FEF7C6F9D6
:10236000217A1A48FEF7C2F9617A1948FEF7BEF9D8
:10237000A27C184B1A70E27C5A70227D9A70627DA2
:10238000DA70A27D144B1A7010BDC046036000467F
:10239000026000460160004600600046076000469B
:1023A000066000460B6000460A6000460960004671
:1023B000086000460F6000460E6000460D60004653
:1023C0000C60004613600046126000461160004633
:1023D00010600046280200202402002010B5041CD2
:1023E0002A48FEF77FF920702948FEF77BF96070D4
:1023F0002848FEF777F9A0702748FEF773F9E070D8
:102400002648FEF76FF920712548FEF76BF96071D9
:102410002448FEF767F9A0732348FEF763F9E073D9
:102420002248FEF75FF920742148FEF75BF96074DB
:102430002048FEF757F9A0721F48FEF753F9E072E3
:102440001E48FEF74FF920731D48FEF74BF96073E5
:102450001C48FEF747F9A0711B48FEF743F9E071ED
:102460001A48FEF73FF920721948FEF73BF96072EF
:10247000184B1A78A2745A78E2749A782275DB782D
:102480006375154B1B78A37510BDC04603600046ED
:10249000026000460160004600600046076000469A
:1024A000066000460B6000460A6000460960004670
:1024B000086000460F6000460E6000460D60004652
:1024C0000C60004613600046126000461160004632
:1024D00010600046280200202402002038B5041CA9
:1024E0003823021C9A430AD1064D281CFEF7FAF83D
:1024F0000443E1B2281CFEF7F9F8002000E0FF20B9
:1025000040B238BD0023004608B50248FEF7EAF89D
:1025100008BDC0460023004610B5041C01780348DE
:10252000FEF7E4F86288024B1A6010BD4460004672
:102530004060004610B5041C0348FEF7D3F8207035
:10254000024B1B68638010BD44600046406000463B
:1025500010B50C1C052820D88000114B1B589F4635
:10256000081CFFF7BBFE002018E0081CFFF736FF31
:10257000002013E00878FFF7B1FF0FE0FFF7C4FF7A
:10258000207000200AE0081CFFF7C6FF002005E0CD
:10259000081CFFF7CFFF002000E0FF2040B210BD75
:1025A000C060000008B500F015FC00F051FD08BD4A
:1025B00008B50948FEF796F8172801D01C2803D162
:1025C0000220FFF7E7F902E00220FFF7E1F801201F
:1025D000FFF7DEF808BDC0463000094608B5FFF732
:1025E000E7FFBFF34F8F034A034BDA60BFF34F8F10
:1025F000FEE7C0460400FA0500ED00E0F0B54746EE
:1026000080B482B0041C884600F0E0FB071C002266
:1026100001AB1A80261CA504464AA818FEF762F8EA
:10262000172808D002D800286DD07CE018286AD07E
:102630001C2863D077E0404BE818FEF753F8C20738
:1026400007D501223D4B1A703D4BE8180121FEF7DA
:102650004DF83C4B1B78012B04D1201CFFF79AF955
:10266000002062E0384AAD182D68ADB2002D5BD075
:1026700080231B019D4200D91D1C344B1A68A918E8
:102680003B1CA833DE781879000230435E793604AB
:1026900030439B791B060343994201D99D1AADB281
:1026A000201C41462A1CFFF779FA85B2274E030405
:1026B0001B0C32689B1833602B0A01A90B70487001
:1026C000201C0222FFF7B4F90022214B1A80A83700
:1026D000FB783A7912021A437B791B041A43BB79BF
:1026E0001B061A4333689A421ED80022194B1A80DF
:1026F000124B1A70201CFFF74DF915E0201CFFF754
:1027000049F9002510E0201C0121134A2023FFF77E
:1027100079F80025864207D100220C4B1A60201C54
:10272000FFF7FEF800E00025281C02B004BC90462C
:10273000F0BDC04630000146200001462C020020BA
:10274000280001463D0200202402014638020020F4
:10275000300200202E02002052C300001F4B1B78C5
:10276000012B1AD11E4B1A8892B21E4B9A4205D0E9
:102770001B4B1A88013292B21A8002E00022184BD9
:102780001A80174B1A8892B2174B9A4205D9012228
:10279000164B1A700022124B1A80154B1B78012B16
:1027A0001AD1144B1A8892B20E4B9A4205D0114B93
:1027B0001A88013292B21A8002E000220D4B1A8070
:1027C0000C4B1A8892B2084B9A4205D901220A4B47
:1027D0001A700022074B1A807047C0462D02002055
:1027E0002E020020FFFF00003F1F00003C020020DF
:1027F0002C020020300200203D0200200023074A66
:102800001370074A1370002206490B8006490B809B
:10281000064B1A70064B1A707047C0462D020020F6
:102820002C0200202E020020300200203C0200205A
:102830003D020020F0B55F4656464D464446F0B492
:1028400083B0051C00F0C2FA041C00F0BFFA061C9D
:10285000A823E35C4020002B00D113E1231CA83304
:10286000DA781979090211435A79120411439B79D4
:102870001B0619434A1E874B9A420BD94536337AB9
:10288000012B00D0FEE08448C822120202F0B2F907
:102890004020F7E0042D58D1331C45331B7A012B1F
:1028A00002D17E4802F0A6F900227D4B1A60032077
:1028B00000F0B6F901227B4B1A707B4F784D042053
:1028C000391CFFF79BFE031E0FD028689C22520282
:1028D00081180320744A00F0DBF90004000C2B6817
:1028E000C01828600022714B1A80714B1B78012B95
:1028F0000AD1331C45331B7A4027012B00D0A7E0B7
:102900006C4802F0F3F9A3E06B4B1B78012B0AD162
:10291000331C45331B7A4027012B00D098E06748D1
:1029200002F0E4F994E0231CA833D9781A79120252
:102930000A43597909040A439B791B061A43584BE9
:102940001B689A42BBD8202782E0AB1E4027012B90
:102950007ED8022D08D1E023DB0101939C235B028A
:102960009B460320009007E09C235B020193E02339
:10297000DB019B4602220092331C45331B7A012B5C
:1029800002D14F4802F036F90022454B1A60281C4C
:1029900000F046F90122434B1A7080273F01444B57
:1029A00099463F488246331C5E46A8469B464A46A7
:1029B0001378012B0AD15E465B4645331B7A4027CC
:1029C000012B45D13B4802F091F941E0534619688B
:1029D000802000010A18231CA833DD781879000232
:1029E00028435D792D0428439B791B0603439A42B3
:1029F00001D95F1ABFB2711800982B4A3B1C00F036
:102A0000E3F883B2002B0FD0254D019A28681118E6
:102A10004046254A00F03CF903041B0C2A689B1829
:102A20002B600022214B1A8000F0B8F9231CA83338
:102A3000D9781A7912020A43597909040A439B7911
:102A40001B061A43164B1B689A42B0D85E462027D5
:102A5000A834E378227912021A4363791B041A43DB
:102A6000A3791B061A430E4B19688A4207D14536D3
:102A7000337A8027012B02D1124802F0BBF8FFF70E
:102A8000BDFE381C03B03CBC90469946A246AB46FE
:102A9000F0BDC046FFC70000D860000040610000E4
:102AA000340200202D0200207C0F00202E02002086
:102AB0003C0200207C6100003D020020B461000067
:102AC000EC6100002C62000030B5051C002302E020
:102AD0005C5DCC540133181E9042F9D330BDC04622
:102AE000F8B5054D802464002E5901277F422F51EF
:102AF000024FB8472E51F8BD00E100E00110FF1F62
:102B000008B5011CC303DB0B834210D00D4B984268
:102B100003D90D4B034083420BD00B4B994210D984
:102B20008B039B0B8B420CD10021112003E0122060
:102B300001E00021102072B600220023FFF7D0FF31
:102B400062B608BDFFFD0300FFFE030008B5011CCF
:102B5000C303DB0B834206D172B61320002200238D
:102B6000FFF7BEFF62B608BDF8B5041C0F1C151CAC
:102B7000114B984208D983039B0B834204D1002058
:102B800080235B009A4215D8002D04D163190020E0
:102B90000A4A93420ED80020094B0A4AA6189E42C0
:102BA00008D972B62220211C3A1C2B1CFFF798FF73
:102BB00062B6281CF8BDC046FFFD0300FFFF0300FE
:102BC000FFFD01000000FEFF20B501280DD0002808
:102BD00004D0022810D0032815D01AE00E48111C8A
:102BE0000622FFF771FF051C13E00C48111C1A1C8C
:102BF000FFF76AFF051C0CE0081C111C1A1CFFF7EC
:102C000063FF051C05E0081C111C1A1CFFF75CFF84
:102C1000051C281C20BDC04600FE030000FF030069
:102C200038B5041E012C0AD0002804D002280DD08B
:102C3000032808D00CE01448FFF762FF08E01348AF
:102C4000FFF75EFF04E09C256D0201E0E025ED0149
:102C5000023C012C17D806E020032818FFF776FF66
:102C60000134A4B200E000240B2CF5D9C0231B02D0
:102C7000ED18002405E020024019FFF741FF013460
:102C8000A4B2072CF7D938BD00FE030000FF0300F3
:102C9000E0B5151C1F1C012810D0002804D0022804
:102CA00016D003281BD020E00020FFF7B9FF104802
:102CB000291C0622FFF758FF061C16E00120FFF72B
:102CC000AFFF0C48291C3A1CFFF74EFF061C0CE016
:102CD000081C111C1A1CFFF747FF061C05E0081C06
:102CE000111C1A1CFFF740FF061C301CE0BDC0463B
:102CF00000FE030000FF03000022014B1A60704732
:102D00004C02002008B51F4B1A88013292B21A807B
:102D100001F0D8F9FFF722FD1B4B1B78002B0CD0DC
:102D20001A4A138801339BB21380632B05D9012201
:102D3000174B1A700022154B1A80124B188880B25C
:102D4000FA21890001F01EFF89B2002909D1002271
:102D50000C4B1A800F4B1A88013292B21A80FEF780
:102D6000D9FC0C4B188880B23C2101F00BFF89B2D2
:102D7000002906D10022074B1A80074B1A6801323E
:102D80001A6008BD3E0200205407002040020020C7
:102D90004A020020480200204402002008B5064AEA
:102DA0001368591C1160222B04D9FFF7ABFF0022D6
:102DB000014B1A6008BDC0464C0200207047C04657
:102DC00008B5E1204002FDF75FFC08BD00487047F0
:102DD00050020020F0B557464E464546E0B47B4CC5
:102DE000F92323800025A5700126E6702571671D53
:102DF000381C00210F2201F0F5FE381C744909220D
:102E000001F0E7FE072323756575A575C023637779
:102E1000A8218846A177E5777B212022A154212291
:102E2000A35422224146A1542322A5542422A6546D
:102E3000FF22252162542621625427216254282230
:102E4000A5542922A6542A22A6542B229146A354E3
:102E50002C234246E2542D23E55402222E23E25431
:102E600078235B422F22A354132213203021605475
:102E700031216354322162540020332160543421C3
:102E8000605448204042352160540B203621605464
:102E900000203721605438216054392165543A218B
:102EA00065543B2165543C2165543D2165543E21C8
:102EB00065543F2165544021665458204121605497
:102EC0001B2042216054432163544423E254452390
:102ED000E5540C239A4646235146E1544723E654D1
:102EE0004823E5544923E5544A23E5544B23E5544C
:102EF0004C23E5544D23E654231CA565E565583362
:102F000000271D81231C4E331D805D809D80DD8048
:102F10001D816223E7546323E7546423E7540823A5
:102F20006522A3546622A3546722A3546822A354A3
:102F3000201C69300021322201F054FE9B23E6540C
:102F40009C23E7549D234A46E2549E23E2549F2348
:102F5000E254A0230F22E252A223E652A4235146B8
:102F6000E152A623E5524246A7545222A923E25435
:102F70003D225242AA23E2540022AB23E254AC2366
:102F8000E1580A0E1206E2505022B023E252B22358
:102F90000122E254251CB335281C00211E2201F019
:102FA00021FE281C0B49132201F013FED134201CF2
:102FB0000021282201F016FE201C0749202201F0E2
:102FC00008FE1CBC90469946A246F0BD5002002067
:102FD00074620000806200009462000010B501F08D
:102FE0004DFA194C01200021221CF923FFF7ECFDBA
:102FF000221C1732002000210623FFF7E5FD22885E
:10300000013A92B2114B9A4207D9FFF7E3FE012031
:1030100000210D4AF923FFF73BFE0B4B07221A75DF
:1030200000225A759A754A229B5C033B012B04D8F7
:1030300001214523044AD15404E001F029FA452333
:10304000014AD05410BDC04650020020FDFF0000D0
:1030500008B501200021024AF923FFF719FE08BD37
:103060005002002008B501F0B4FD08BD08B501F01C
:10307000B0FD08BDF0B58BB0FFF7A8FE051C04AC91
:103080000120211CFFF764FA21786278A378E778A1
:1030900026796079009701960290384801F0AAFDE0
:1030A000A179E279237A667A2F202F5C3020285C80
:1030B0000002384300960190314801F09BFDA17B4E
:1030C000E27B237C607C00902E4801F093FDA17A86
:1030D000E27A237B607B00902B4801F08BFDA17C82
:1030E000E27C237D607D0090284801F083FD292348
:1030F000EB5C012B3DD06423EB5C012B0BD1291C35
:1031000069313123EB5C3222AA5C12021A43204857
:1031100001F070FD2DE02B23E95C2C23EA5C2D23CC
:10312000EB5C2E202C5C31202E5C3220285C0002CF
:10313000304300940190174801F05CFD2923EB5CBB
:10314000032B16D12B23EB5C002B0FD12C23EB5C34
:10315000002B0BD12D23EB5C002B07D12E23EB5C36
:10316000002B03D10C4801F0C1FD02E00B4801F037
:10317000BDFD0B4801F0BAFD0BB0F0BDB46200001C
:10318000DC62000000630000186300003063000090
:1031900048630000706300009C630000B06300009F
:1031A000E869000010B586B0FFF710FE041C011C92
:1031B000173168460622FFF755FF211C1D3168466E
:1031C00006300422FFF74EFF211C213168460E30E5
:1031D0000422FFF747FF211C253168460A300422EC
:1031E000FFF740FF211C6531684612300422FFF7CB
:1031F00039FF6323E35C002B03D002236A469375F7
:1032000002E001236A46937500206946FFF7A0F9A2
:1032100006B010BDF0B5474680B4061C0F1C002355
:103220000B70344D0AE0201C01F0F6FD021C301C2E
:10323000211C01F0F8FD002803D004352C68002C77
:10324000F1D1002C05D12C48311C01F0D3FCFF201A
:103250004DE0284BEB1A9B109846DCB22B2C0CD17E
:10326000337AFF200D2B42D1737A0A2B3FD1B11C48
:10327000381C062201F0ADFC1BE02C2C15D103E01C
:10328000FA540133DBB200E000239A1CB25C0D2A31
:10329000F6D1F618F278FF200A2A28D1F918002270
:1032A0000A700133FB181A7003E0B11C381C01F0DE
:1032B000ABFDFF21434619402A68104801F09AFCF3
:1032C0002B2C0CD106E0795D301C01F093FC01350C
:1032D000EDB201E000250A4E052DF4D903E00948BE
:1032E000391C01F087FC084801F000FD201C04BCDB
:1032F0009046F0BD540000207C6500009065000001
:10330000A0650000A8650000AC650000F0B55F4650
:1033100056464D464446F0B497B0041C8946FFF724
:1033200055FD8246E248211C01F064FC002348461A
:10333000037043708370C370201CDE4901F08AFD66
:10334000041C002500F087FDDB48211C01F052FC25
:10335000201C05A9FFF75EFF061C071EFF2F01D1E9
:1033600000F040FD05A98846081C01F055FD80B21B
:10337000834642461078002800D086E2B300CF4A48
:1033800099584846022201F024FC02239846C8447A
:10339000362E00D958E2B600C94B9B599F46564677
:1033A000F27D337E707E8446B67E5146C97E8B4662
:1033B0005046017F6046009001965E46029603915A
:1033C0004046C04901F09CFC4AE25046027D437DE4
:1033D000817D00914046BC4901F092FC40E251469B
:1033E0000531404601F010FD3AE263235146CA5CC4
:1033F0004046B64901F084FC32E229235646F25C8D
:103400004046B24901F07CFC2AE24046AF49002226
:1034100001F076FC24E24046AC49002201F070FC49
:103420001EE262235046C25C4046A84901F068FC97
:1034300016E24D235146CA5C4046A44901F060FCA7
:103440000EE240235646F25C4046A04901F058FC8B
:1034500006E241235046C35C4222825C12021A43B8
:1034600040469A4901F04CFCFAE143235146CB5CBB
:1034700044228A5C12021A434046944901F040FCFF
:10348000EEE135235246D35C36225646B25C120238
:103490001A4340468D4901F033FCE1E15046427F3A
:1034A000837FC07F20215646715C00900191404689
:1034B000874901F025FCD3E125235046C25C262331
:1034C000C35C2721405C28215646715C0090019125
:1034D00040467F4901F014FCC2E121235046C25C02
:1034E0002223C35C2321405C24215646715C00905A
:1034F00001914046764901F003FCB1E16523504655
:10350000C25C6623C35C6721405C68215646715CDF
:103510000090019140466E4901F0F2FBA0E1404667
:103520006C49202201F0ECFB9AE1404669492022D7
:1035300001F0E6FB94E140466449002201F0E0FB23
:103540008EE140466149644A01F0DAFB88E1404679
:103550006049202201F0D4FB82E140465D492022EF
:1035600001F0CEFB7CE150464379002B05D140466B
:103570005849202201F0C4FB72E1524605325146FF
:10358000837EC07E097F009001914046534901F03F
:10359000B7FB65E12F235246D35C30225646B25C1E
:1035A00012021A434046494901F0AAFB58E131236F
:1035B0005046C35C3222825C12021A4340464349A1
:1035C00001F09EFB4CE164235146CB5C002B0FD1F4
:1035D0002B23CA5C2C23CB5C2D215646705C2E21FC
:1035E000715C009001914046394901F089FB37E157
:1035F0006923CB5C002B05D140463649202201F0DF
:103600007FFB2DE140465146693101F0FDFB27E18A
:1036100046235146CA5C40462C4901F071FB1FE12C
:1036200047235646F25C4046284901F069FB17E102
:1036300048235046C25C4046244901F061FB0FE13B
:1036400049235146CA5C4046204901F059FB07E135
:103650004A235646F25C40461C4901F051FBFFE00C
:1036600033235046C35C3422825C12021A43404624
:10367000164901F045FBF3E037235146CB5C382275
:103680008A5C12021A434046104901F039FBE7E018
:1036900039235646F25C40460C4901F031FBDFE02D
:1036A0003A235046C25C40460D4901F029FBD7E061
:1036B000B0650000FC680000C465000054000020F4
:1036C000C4630000DC650000FC65000008660000C3
:1036D0000C66000018660000D60B00001C66000097
:1036E000346600009B235146CA5C4046C04901F045
:1036F00007FBB5E09D235646F25C9E23F35C9F21B9
:10370000715C00914046BB4901F0FAFAA8E04E23F3
:103710005046C35C002B05D14046B749202201F03A
:10372000EFFA9DE0404651464E3101F06DFB97E0C7
:1037300058235146CB5C002B05D14046AE49202290
:1037400001F0DEFA8CE051465831404601F05CFB56
:1037500086E081231B021D4382E082231B021D435E
:103760007EE0A64B1B787722934302D010231D43A3
:1037700076E086231B021D4372E0A04B1B78772264
:10378000934302D020231D436AE086231B021D437E
:1037900066E09A4B1B787722934302D080231D4327
:1037A0005EE086231B021D435AE045235646F25C29
:1037B0009200934BD158404601F026FB50E02A235B
:1037C0005046C25C92008F4BD158404601F01CFB22
:1037D00046E08A4B1B78772293430FD02F23514624
:1037E000CA5C3023CB5C1B021343012B03D184231F
:1037F0005B011D4334E088231D4331E086231B0217
:103800001D432DE09C235646F25C4046784901F06A
:1038100077FA25E084235B011D4321E0404674498B
:10382000002201F06DFA1BE0744B1B787722934362
:1038300006D001222A235046C25490231D430FE094
:1038400086231B021D430BE084231B021D432A23F6
:103850005146CA5C92006B4BD158404601F0D4FAF5
:10386000694B1D4203D000234A461370BDE2404617
:1038700001F0D2FA40446549032201F0AAF940461A
:1038800001F0CAFA8146C144AFE25C490B78772265
:10389000934300D1A2E2362E00D99BE2B6005C4AE7
:1038A00093599F465646F37D002B09D1337E082B52
:1038B00006D1737EDC2B03D183231B021D4394E2CC
:1038C00005A854495246173200F0F8FC002800D0F1
:1038D0008BE285231B021D4387E283231B021D43CA
:1038E00083E200F09DFC5946012901D1012803D94A
:1038F00085231B021D4378E263235246D05474E2B1
:1039000000F08EFC5E46012E01D1032803D98523E9
:103910001B021D4369E229235146C85465E200F0A9
:103920007FFC5A46012A02D1012800D85DE2852396
:103930001B021D4359E200F073FC5B46012B02D1D0
:10394000012800D851E285231B021D434DE200F0FF
:1039500067FC5E46012E01D1012803D985231B0295
:103960001D4342E262235146C8543EE200F058FC37
:103970005A46012A01D1012803D985231B021D4380
:1039800033E24D235646F0542FE200F049FC5946ED
:10399000012901D1012803D985231B021D4324E2FB
:1039A00040235246D05420E205A81149002201F0DC
:1039B000A7F9002241235646F2544223F25414E25E
:1039C00005A80B49002201F09BF900224323504631
:1039D000C2544423C25408E205A80549002201F05C
:1039E0008FF9002235235146CA543623CA54FCE1CC
:1039F000086600002C660000186600004D030020D9
:103A00003000002034010020B080FFFFFC6800007F
:103A1000A06400003C66000005A815A900F07CFB2E
:103A200000280BD015AB1A78564672775A78B277C1
:103A30009A78F277DA782023F254D6E185231B02B4
:103A40001D43D2E105A815A900F066FB00280ED0A1
:103A500015AB197825225046815459782622815475
:103A6000997827228154DA782823C254BDE185232E
:103A70001B021D43B9E105A815A900F04DFB002864
:103A80000ED015AB197821225646B154597822220E
:103A9000B15499782322B154DA782423F254A4E162
:103AA00085231B021D43A0E105A815A900F034FBE6
:103AB00000280ED015AB19786522504681545978EC
:103AC00066228154997867228154DA786823C25437
:103AD0008BE185231B021D4387E159460E2903D93B
:103AE00085231B021D4380E1202803D10023524679
:103AF00053717AE15146053105A801F085F974E169
:103B000005A8C749002201F0FBF800222F235646E2
:103B1000F2543023F25468E105A8C149002201F0B3
:103B2000EFF8002231235046C2543223C2545CE1E4
:103B300005A815A900F0F0FA002812D0002264238D
:103B40005146CA5415AB19782B225646B1545978B0
:103B50002C22B15499782D22B154DA782E23F254C4
:103B600043E1012264235046C25405AB1B78202B4D
:103B700003D100226923C25437E15046693005A9B8
:103B800001F042F931E105A8A549002201F0B8F899
:103B90005946022903D985231B021D4325E1002232
:103BA00046235646F25420E100F03AFB59460129DB
:103BB00001D1012803D985231B021D4315E14723A9
:103BC0005246D05411E100F02BFB5E46012E01D18C
:103BD000022803D985231B021D4306E148235146D1
:103BE000C85402E100F01CFB5A46012A01D1012809
:103BF00003D985231B021D43F7E049235646F054A1
:103C0000F3E000F00DFB5946012901D1022803D948
:103C100085231B021D43E8E045235246D35C012B5C
:103C200004D100224A235646F254DEE04A23D054FF
:103C3000DBE005A87A49002201F062F80022332374
:103C40005646F2543423F254CFE005A874490022BA
:103C500001F056F8002237235046C2543823C2548C
:103C6000C3E005A86E49002201F04AF8594603292D
:103C700003D985231B021D43B7E000223923564692
:103C8000F254B2E05846022804D105A800F0AEFA7A
:103C9000002803D185231B021D43A6E005A8614926
:103CA000002201F02DF800233A2251468B543E2287
:103CB0008B549AE000F0B4FA5A46012A01D1012847
:103CC00003D985231B021D438FE09B235646F054E6
:103CD0008BE0584606280BD105A800F087FA00288B
:103CE00006D005A851469D3100F0B6FA00287CD1D7
:103CF00085231B021D4378E05946092903D98523F2
:103D00001B021D4371E0202804D100224E23564699
:103D1000F2546AE04E235046C25605A8424900F0CC
:103D2000EFFF62E05946092903D985231B021D4391
:103D30005BE0202804D1002258235646F25454E078
:103D40005146583105A801F05FF84EE005A8344906
:103D5000002200F0D5FF0022AB235046C254AC2312
:103D6000C254AD23C254AE23C2540122A823C2546C
:103D700040231D43427F837FC07F20215646715CD4
:103D800000900191294902914846294900F0B8FF65
:103D9000284800F0ABFF28E000F042FA594601291C
:103DA00001D1012803D985231B021D431DE09C235B
:103DB0005246D05419E000F033FA5B46012B01D192
:103DC000012812D985231B021D430EE081231B020B
:103DD0001D430AE084231B021D4306E086231B02C9
:103DE0001D4302E084231B021D432BB2002B2DDA5E
:103DF0000023A370104EAA19121292000F4BD25832
:103E0000FF2F03D0BF000E4BFB5800E0231C484699
:103E10000C4900F075FF0C48494600F0EBFE22E02B
:103E20000866000040660000A865000052C300005C
:103E3000446600005C6600000080FFFF3800002040
:103E4000540000206C6600007466000000200A49DF
:103E500001F000F8041C002C01D0FFF775FA0748A8
:103E6000291C00F0C7FE281C17B03CBC90469946A0
:103E7000A246AB46F0BDC046FC6800008466000068
:103E8000F0B55F4656464D464446F0B499B0041C22
:103E90000E1CFEF79BFF051C00225C4B1A705C4851
:103EA000FCF720FC002800D19DE0222800D0A2E0F1
:103EB000584B1A6892B20027002A00D19EE06B4648
:103EC0005A3300930120211C17ABFDF7D5FF0304E3
:103ED0001B0C013BE31800221A70201C06A9FFF7F7
:103EE00099F9031C00202B2B00D088E006A84A4932
:103EF000062200F05FFE002806D1444B197880228C
:103F000052420A431A700DE006A8291C17310622F6
:103F100000F050FE002870D13C4B197878225242B4
:103F20000A431A70394B00229A560020002A66DA9A
:103F3000EB7D297E88466A7E9446AF7EE87E297FA7
:103F40008A46AC229346354959440A684146009155
:103F5000614601910297039051460491301C30490B
:103F600000F0CEFE0A340A2292199046201C06A9BF
:103F7000FFF750F900272C2840D106AB1B78202BE7
:103F800003D15823EB5CBB4207D0291C583106A84B
:103F900000F030FF0027002830D106A800F03CFFD9
:103FA000021D4046211C00F014FE06A800F034FF5C
:103FB000051D60194544291CFFF7A8F9071C06A830
:103FC00000F02AFF041C281C00F026FF22180E32E5
:103FD00092B26B465A331B8800930120311C114B5F
:103FE000FDF76AFE0AE0012002210F4A0023FDF7D7
:103FF00009FC002702E0002700E00027381C19B068
:104000003CBC90469946A246AB46F0BD4D0300200D
:104010003000054624020546B86600005400002022
:10402000C0660000D466000051C3000038B5FEF73A
:10403000CDFE051C1E481F49FFF722FF041C020489
:1040400008D54D23EB5C012B31D11B48211C00F01E
:10405000D1FD2CE000282AD0030702D5FEF7A2FAF2
:1040600012E0C20602D5FEF7F3FF0DE0C3040BD544
:10407000124800F03BFE124800F038FE0020FEF728
:10408000CFFD0120FEF7CCFD62060CD50420FEF723
:10409000D1FB80280BD101222A23EA54FEF7D8FF56
:1040A000FEF79CFA03E0230601D5FEF797FA38BD28
:1040B0005005002050030020DC660000F46600007C
:1040C000E86900000F4B1B78002B1AD00E4B1A88A2
:1040D00092B20E4B9A4205D00B4B1A88013292B223
:1040E0001A8002E00022084B1A80074B1A8892B20D
:1040F000074B9A4205D90122064B1A700022024B47
:104100001A8070475207002050070020FFFF000070
:10411000973A00004C030020F0B55F4656464D46E6
:104120004446F0B485B08046019100F075FEC0B2FF
:10413000009003AB00221A809A70031C073B0020FA
:10414000082B4AD800220025002427498A46042348
:10415000994603AE2DE047463B5D57463F68F91848
:1041600049784F460F420DD09100521852009A18CC
:10417000303A92B2FF2A27D8411CC9B233540329DE
:1041800014D923E02E2B23D1FF2A23D80135EDB2F9
:10419000042D21D86B1E019FFF18301C00F0FEFC7F
:1041A000387000233380B370002100220134E4B260
:1041B000081C009FBC42CED3019F7D1903A800F0CC
:1041C000EDFC2870012008E0002006E0002004E05B
:1041D000002002E0002000E0002005B03CBC90463A
:1041E0009946A246AB46F0BD60010020F8B5051C1B
:1041F00000240A4F442607E02B5D3A68D3185B7809
:104200001E4208D00134E4B2281C00F005FE8442AE
:10421000F2D3012000E00020F8BDC046600100207C
:10422000FF23102814D90B4B1B681B185B785A0707
:1042300002D53038C0B20AE0031C283B3E2B02D81E
:104240005138C0B203E0472801D93138C0B2031C4D
:10425000181C704760010020F8B5041C0E1C00F00B
:10426000DBFDC2B294460023C20724D46246102A62
:1042700021D82378002B1ED00022002318E0191C1F
:10428000E05C392802D93738C7B201E03038C7B20C
:1042900061184878392802D93738C1B201E030387E
:1042A000C1B2551C38010843B0540233DBB2EAB244
:1042B0006345E4D30123181CF8BDC046F0B557464A
:1042C0004E464546E0B484B0061C8846924600F04F
:1042D000A3FDC0B23378002B2ED0002311282BD1A0
:1042E000002401ADA1461DE0271C610009197118C9
:1042F000281C032200F06DFCA978002904D0404658
:1043000000F06CFD002816D04B46AB70281CFFF760
:104310006DFF031E10D002ABD919281CFFF79CFFBC
:104320000134E4B2052CDFD9504602A9062200F080
:1043300050FC012300E00023181C04B01CBC904674
:104340009946A246F0BDC04610B586B0FEF73EFDC8
:10435000041C68460630FDF7E5F968460E30FDF7A7
:10436000EDF968460A30FDF7F5F968461230FDF7B9
:10437000FDF9211C173168460622FEF773FE201C4A
:104380001D30694606310422FEF770FE201C2130E4
:1043900069460E310422FEF769FE201C253069466D
:1043A0000A310422FEF762FE201C65306946123194
:1043B0000422FEF75BFE6323E35C002B03D00223A1
:1043C0006A46937502E001236A46937500206946A8
:1043D000FEF7BEF806B010BD7047C04608B5012014
:1043E000FEF7ECFC6123084A1360084A136086203C
:1043F000C0058021C90180221202FCF7B5FA002015
:10440000FEF7DCFC08BDC04670300041543000416E
:104410000223024A1360024A136070477011004180
:104420000820004108B58420C005802189000022B1
:104430000123FCF7E3F808BD10B58424E405201C33
:10444000022100220123FCF7D9F80223636110BD89
:1044500038B500248425ED050AE0281C0221FCF76C
:104460005BF8002808D1052000F024FB0134E4B2F9
:10447000042CF2D9002000E0012038BD08B58820C6
:10448000C005402100220123FCF7B8F808BDC04652
:1044900008B58820C0054021FCF73EF808BDC0469D
:1044A00038B58824E4058025ED01201C291C002254
:1044B0000123FCF7A3F8656138BDC04608B5882024
:1044C000C0058021C901FCF727F808BDF0B583B00D
:1044D000041E012C17D842000C4BD55A009501231D
:1044E0006A4613710A4E8700B8596946FBF78AFF7E
:1044F000084B185D084B1A5D291CFCF72DF8B859BC
:10450000291CFCF70FF803B0F0BDC0466868000036
:1045100058010020500100205401002008B5FFF789
:104520005DFFFFF789FFFFF793FF42424241064BD1
:104530001A70FFF777FFFFF7B3FF0020FFF7C6FF02
:104540000120FFF7C3FF08BD5307002008B501286D
:1045500008D88200044BD3584000044A815A181CE2
:10456000FBF7ECFF08BDC04658010020686800005A
:10457000012808D88200044BD35859684000034AE8
:10458000825A4A405A60704758010020686800000B
:104590007047C0467047C0467047C0467047C04627
:1045A0007047C0467047C0467047C0467047C04617
:1045B0007047C0467047C0467047C0467047C04607
:1045C0007047C0467047C0467047C0467047C046F7
:1045D0007047C0467047C0467047C0467047C046E7
:1045E0007047C0467047C0467047C0467047C046D7
:1045F0007047C0467047C0467047C0467047C046C7
:104600007047C0467047C04610B5FFF701FF114A1A
:104610000020111CFBF7E2FEFEF76EFBFEF7D0FB5D
:104620000D4800F063FBFBF74FFE002801D00B495B
:1046300000E00B49074C0B48221C00F0DBFA0A484B
:10464000211C00F0D7FAFBF733FE011C074800F0ED
:10465000D1FA10BD00127A008C6800007468000066
:1046600080680000C0680000E06800000069000089
:1046700010B584B0164C02A8211C082200F0A9FA3B
:104680006846211C082200F0A4FAFBF711FE11492C
:1046900000F034FA104C2060FBF70AFE011C22687F
:1046A0001204120C23680D4800F0A4FA002008231D
:1046B00003700B4C4480FDF72FFF0A480821221C91
:1046C00000F098FA02A86946FDF7B8FD04B010BDE5
:1046D0006C680000102700000020004620690000E0
:1046E000C40900005069000008B54368026882F3FD
:1046F0000888984708BDC04638B5174800F0F6FA54
:1047000003201649FCF748FF1549081C154AFCF719
:1047100015FA0025FCF758FE041E042C03D112489C
:1047200000F0E4FA16E0002807D10135EDB2032DC0
:1047300003D80E48291C00F05DFA032D05D90C485A
:1047400000F0D4FAFCF7A0FD04E0FFF76FFCFEF7E1
:1047500025FBDFE760B238BD806900007C070020E0
:1047600049430000D943000098690000AC6900008B
:10477000D869000070B582B0FEF728FB041C0E4813
:1047800000F0B4FA0D4E0E4D301C291C00F032FA28
:104790000C4800F0ABFA0C4800F0A8FA217D627DCD
:1047A000A37D0A4800900A4800F024FA301C291C16
:1047B00000F020FA02B070BDE8690000D465000086
:1047C000EC690000206A00002C6A0000806A00008A
:1047D000546A000008B5FEF7F9FA6323C35C002BA6
:1047E0000DD0074B1B78012B06D1FCF7CBFF011C2A
:1047F000044800F0FFF902E0034800F077FA08BD32
:1048000055070020886A0000B06A0000F0B58FB03C
:10481000FEF7DCFA041C00230C930CAA938006A973
:1048200006930793089309930A938B82009301934D
:104830000293039304936A469382C37D0120FF2B66
:104840005BD1237EFF2B58D1637EFF2B55D10CAD5E
:10485000002000212A1C0023FEF7B6F92B78FF2B3D
:104860003ED10CAA5278FF2A3AD10CAA9278FF2A9C
:1048700036D18822224B1A70224F0026381C00F0B5
:1048800035FA351C05E0FBF721FF06AB585501351D
:10489000EDB2142DF7D906A86946FEF737FD0028BA
:1048A0000ED1FEF7BDF9221C17320020011C031C9B
:1048B000FEF7EEF9FEF78EFAFEF7CAFB01201CE0C8
:1048C0004D23E35C002B03D00F48694600F092F9BA
:1048D00006AB06960796089609960A969E82CDE73D
:1048E000E3750CAB5A7822769A786276DA78A276FB
:1048F0001A79E2765B79237700200FB0F0BDC046CD
:104900004D030020C06A0000D465000000B5C1B0AE
:10491000002303E01A786946CA540133072BF9D9FA
:10492000082304E0C21812786946CA540133A72B41
:10493000F8D9A82303E01A786946CA540133FF2B3B
:10494000F9D972B61220002100220023FEF7C8F820
:10495000222000216A4680235B00FEF7C1F862B680
:1049600041B000BDF8B5FEF731FA041CFFF74CFE6C
:10497000FFF77EFEFFF7D2FDFEF730FBFFF746FFA5
:10498000002803D0E020C001FFF7C0FFA823E35CAC
:10499000012B18D10220FDF74DFF802813D10022F2
:1049A000A823E254AB23E254AC23E254AD23E254F7
:1049B000AE23E25401222A23E254FEF749FBE02011
:1049C000C001FFF7A3FFE023DB011B68013306D121
:1049D0003348E021C90100F00DF9002505E0314818
:1049E000E021C90100F006F90125012D11D12A238A
:1049F000E35C002B06D101222A23E254FEF728FBB8
:104A0000002506E0FFF75AFD031C581E83415B4258
:104A10001D40012D03D1E020C001FFF765FE0022FB
:104A20002A23E2544D23E35C002B01D0FFF7A2FEC2
:104A30006323E35C002B0AD0FFF75EFE042803D15A
:104A40000122194B1A7004E0FEF7ACFB01E0FEF7FF
:104A5000A9FB4D23E35C002B03D0FEF70BFBFFF714
:104A6000B9FE0122114B1A700020FFF76FFD63267B
:104A70000F4D2F1CFFF7DAFAA35D002B01D0FCF7D6
:104A8000A3FC2B78002B07D00020FFF771FD01203D
:104A9000FFF76EFD00233B70FEF780F9EAE7C046A2
:104AA000D46A00000C6B000055070020540700205A
:104AB0004A02002000B585B00190FBF7F9FB0749D9
:104AC00000F01CF8019B5843039002E0039B013B5C
:104AD0000393039B002BF9D105B000BD1027000004
:104AE00070B50E1C151C002403E0305DFBF7E8FDDB
:104AF0000134A542F9D8281C70BDC046002934D025
:104B00000123002210B488422CD301242407A1429F
:104B100004D2814202D209011B01F8E7E400A1425C
:104B200004D2814202D249005B00F8E7884201D3F7
:104B3000401A1A434C08A04202D3001B5C082243CF
:104B40008C08A04202D3001B9C082243CC08A04240
:104B500002D3001BDC082243002803D01B0901D02C
:104B60000909E3E7101C10BC7047002801D00020A1
:104B7000C04307B4024802A14018029003BDC046DA
:104B8000190000000029F0D003B5FFF7B9FF0EBCF3
:104B90004243891A1847C0467047C04608B50021ED
:104BA0000A2200F041FA08BD014B18687047C04660
:104BB000C401002030B50023934208D0C55C013306
:104BC000CC18013C2478A542F6D0281B00E0002038
:104BD00030BD10B50023934203D0CC5CC4540133E4
:104BE000F9E710BD031C8218934202D019700133FB
:104BF000FAE770470FB40B4B13B51C68002C05D0B7
:104C0000A369002B02D1201C01F020F805ABA1689C
:104C1000201C049A019300F08DFB16BC08BC04B064
:104C20001847C046C401002070B5051C0E1C0028A2
:104C300004D08269002A01D101F008F8AC68A38988
:104C40001A0702D52369002B19D1281C211C00F05A
:104C50006FFE002813D00120404245E03178002B40
:104C60001BDAA269934211DA281C221C00F0F4FD21
:104C7000013043425841C0B20028ECD10136A3684C
:104C80003278013BA360002AE8D10CE02368197058
:104C9000236819780A2903D1E6E72268117023688E
:104CA00001332360EAE7002B17DAA269934208DB9D
:104CB00022680A231370236819780A2911D1281C45
:104CC00001E0281C0A21221C00F0C6FD01304342ED
:104CD0005841C0B2002806D0BDE722680A231370ED
:104CE0002368013323600A2070BD000008B5034B20
:104CF000011C1868FFF798FF08BDC046C4010020DA
:104D00000EB400B59CB01DAB04CB822202A9920068
:104D10008A810A4A02908A604A6101225242CA810B
:104D2000074A086110681D9A019300F0EBF9029A96
:104D3000002313701CB008BC03B01847FFFFFF7FAF
:104D4000C401002038B50C1C0E25495F01F042F962
:104D5000002803DB626D1318636503E0A289024B30
:104D60001340A38138BDC046FFEFFFFFF8B51E1CFE
:104D70008B89051C0C1C171CDA0505D50E23C95E92
:104D80000022022300F0D2FFA289054B281C134009
:104D9000A3810E22A15E331C3A1C00F0B5FDF8BDC4
:104DA000FFEFFFFF38B50C1C0E25495F00F0BEFF7A
:104DB000A389421C03D1054A1340A38104E0802249
:104DC00052011343A381606538BDC046FFEFFFFF6A
:104DD00008B50E23C95E00F01DFE08BDC9B20378F8
:104DE000002B03D08B4204D00130F8E7002900D01B
:104DF000181C704702780B7801300131002A01D06D
:104E00009A42F7D0D01A7047031C0A7801311A7001
:104E10000133002AF9D170470023C25C0133002A14
:104E2000FBD1581E7047031C002010B582420FD0E2
:104E30001C780878A04201D1012A03D118780B7898
:104E4000C01A05E0013A0028F8D001330131EFE73C
:104E500010BD0000F8B5174B071C1D680E1CAC6D8B
:104E6000002C1FD1502000F0C5FFA8658460AB6DF9
:104E7000046044601C61DC60AB6D9C615C61AB6D87
:104E8000DC629C62AB6D5C631C63AB6DDC639C633A
:104E9000AB6D5C641C64AB6DDC649C64AB6D1C77B7
:104EA000AB6D5C62AA6D381C311C012300F004F864
:104EB000F8BDC046C4010020F0B5002802D110683A
:104EC000002826D00578441C0E1C3778002F09D006
:104ED0000136BD42F9D1002B01D0201CF2E714604D
:104EE000037016E0002D09D11560281C11E02F7801
:104EF000B74207D00135002FF9D11C1C631C26785E
:104F00000D1CF4E7002E02D00021217000E0331CBC
:104F10001360F0BDF0B51D1C424B87B01B680590B7
:104F20000293039101920B1C1C78029F5E1C3A199C
:104F3000517808220A4001D0331CF5E72D2C04D10A
:104F400001279E1C5C78009704E000922B2C01D175
:104F50005C789E1C10232A1C9A4311D1302C08D156
:104F6000327820218A43582A07D174781D1C0236D2
:104F700006E0002D04D10A2502E0002D00D108250D
:104F8000009F291C7B427B4180273F06FF1A381C6B
:104F9000FFF7F8FD381C0491291CFFF7AFFD002333
:104FA000021C181C029F391949784F0701D5303C63
:104FB00007E003270F4017D05721012F00D13721D9
:104FC000641AAC4210DA591C0BD0904207D802D1B7
:104FD000049FBC4203DC68430123201801E0012345
:104FE0005B4234780136DDE7009F591C0BD18020ED
:104FF0007B427B410006059FC01A22233B60019F34
:10500000002F09D10BE0002F00D04042019F002F5C
:1050100005D0039A002B00D0721E019F3A6007B0A2
:10502000F0BDC0466001002038B5131C044A051CC1
:105030000C1C1068291C221CFFF76CFF38BDC046F1
:10504000C4010020F0B58D6885B0071C0C1C0392CC
:105050000193AB4245D390228B89D20013423DD0BD
:1050600062690326564309692068F20F401A9619AF
:105070000290021C0198013212187610964200D25A
:10508000161C381C5A050FD5311C00F029FF051ECF
:1050900013D0029A2169FFF79CFDA289184B134097
:1050A00080221343A38111E0321C00F06DFF051E26
:1050B0000CD1381C216900F0CBFE0C233B60A38986
:1050C000402213430120A381404217E0029B256147
:1050D000ED1825606661019DF61AA6600198A84248
:1050E00000D2019D2A1C2068039900F098FEA26856
:1050F0000020531BA36023685D19256005B0F0BD37
:105100007FFBFFFFF0B59FB0039005938B890E1CCA
:10511000171C19060FD53269002A0CD1402100F066
:10512000DFFE30603061002803D103990C230B604F
:10513000C9E04023736106AD00236B6120236B76C9
:105140003023AB763C1C2378002B03D1E21B029268
:1051500011D003E0252BF9D00134F4E70398311C7A
:105160003A1C029BFFF76EFF013000D1A6E069698F
:10517000029A8B186B612378002B00D19EE00122EC
:1051800052426A606A4600235B3201342B60EB6056
:10519000AB601370AB654E4F2178381C052200F0D0
:1051A00033FE002807D0C71B2B680120B8401843E6
:1051B00028600134EFE72B68D90603D56A46202121
:1051C0005B3211701A0703D56A462B215B321170CE
:1051D00022782A2A01D0099B0EE0059A111D126837
:1051E0000591002A01DB099204E05242EA600222A2
:1051F00013432B60013409E02278303A092A04D89D
:105200000A214B4301349B18F6E7099323782E2B90
:1052100018D163782A2B09D1059B02341A1D1B680B
:105220000592002B0DDA01235B420AE001340023D2
:105230002278303A092A04D80A214B4301349B18BA
:10524000F6E70793234F2178381C032200F0DCFD9A
:10525000002806D0C71B2B684020B84018432860A0
:10526000013421781C480622671C297600F0CCFD09
:10527000002812D0194B002B06D1059B07220733BB
:1052800093430833059314E005AB00930398291C5E
:10529000321C134B00E000BF07E005AB00930398FE
:1052A000291C321C0E4B00F0C1F904900499013105
:1052B00004D06A69049953186B6143E7B3895A06AD
:1052C00001D40B9801E0012040421FB0F0BDC04660
:1052D0004C6C0000526C0000566C00000000000096
:1052E00045500000936810B5013B9360002B05DA30
:1052F0009469A34208DBCBB20A2B05D01368581C73
:1053000010601970C8B201E000F0A6FA10BDF8B53F
:10531000061C0F1C141CD518AC4208D02178301C78
:105320003A1CFFF7DFFF0134431CF5D100E00020F9
:10533000F8BD0000F0B59FB0061C0F1C039205934A
:10534000002804D08169002901D100F07FFC754B51
:105350009F4201D1776808E0734B9F4201D1B76843
:1053600003E0724B9F4200D1F768BB891A070AD548
:105370003B69002B07D006AD00236B6120236B76C1
:105380003023AB763BE0301C391C00F0D1FA00280A
:10539000F1D001204042C2E0059A111D126805912A
:1053A000002A76DB0992013423782E2B00D181E08C
:1053B00021785F48032200F027FD002807D05C49D0
:1053C0002A68431A4020984010432860013421780D
:1053D000631C584806220393297600F015FD002827
:1053E00000D18AE0544B002B7ED1059B0722073366
:1053F0009343083305936A69049953186B61039CBE
:105400002378002B04D10399611A029110D003E094
:10541000252BF8D00134F3E7301C391C039A029B8A
:10542000FFF775FF013075D06A69029953186B61F7
:105430002378002B6ED0012252426A606A46002314
:105440005B3201342B60EB60AB601370AB6521788D
:105450003A48052200F0D8FC002808D0374A013429
:10546000831A012098402B6818432860EFE72B68C7
:10547000D90603D56A4620215B3211701A0703D57D
:105480006A462B215B32117022782A2A84D0099B2C
:1054900005E05242EA60022213432B6083E7227840
:1054A000303A092A04D80A214B4301349B18F6E705
:1054B000099379E763782A2B09D1059B02341A1DD9
:1054C0001B680592002B0DDA01235B420AE00134D0
:1054D00000232278303A092A04D80A214B430134A8
:1054E0009B18F6E7079363E705AB0093301C291C74
:1054F0003A1C134B00E000BF07E005AB0093301CE3
:10550000291C3A1C0E4B00F091F8049004990131CB
:1055100000D070E7BB895A0600D53AE70B981FB058
:10552000F0BDC046806C0000A06C0000C06C0000A4
:10553000526C0000566C0000000000004C6C000033
:105540000F530000F7B5151C01930A698B68061C00
:105550000C1C934200DA131C221C2B60433212787D
:10556000002A01D001332B602068800602D52B6809
:1055700002332B60216806270F401FD0231C4333C2
:105580001B785A1E9341226892061FD5E1184031BC
:105590003020C870211C5A1C45310978A2184032AD
:1055A0000233D17012E0221C301C01991932012300
:1055B000089FB847013011D0009F01370097E0687D
:1055C0002968009F431A9F42EDDBD7E7221C301C5D
:1055D00001994332089FB847013002D1012040426F
:1055E00023E0206806212B68E26801400025042999
:1055F00003D1D51AEB43DB171D40A26823699A42F9
:1056000001DDD31AED1800270097009FAF420BDA97
:10561000221C301C01991A320123089FB84701301F
:10562000DCD0009F0137EFE70020FEBDF0B50D1C78
:105630008BB0433506920590079304950B7E0C1CA6
:10564000109A6E2B00D1A7E011D8632B22D009D875
:10565000002B00D1B0E0582B00D0C0E045310B70DA
:105660007B4D4EE0642B1CD0692B1AD0B7E0732B16
:1056700000D1A5E009D86F2B29D0702B00D0AEE067
:105680000E68202333430B6036E0752B1FD0782B38
:1056900032D0A4E013680D1C191D423511601B683F
:1056A0009FE0216813680E0603D5191D11601E685E
:1056B00005E04806F9D5191D116000215E5E644BB6
:1056C000002E3BDA049D2D2276422A7036E02168B6
:1056D00013680E0603D5191D11601E6804E0480604
:1056E000F9D5191D1E881160594B227E0393082796
:1056F0006F2A1ED00A271CE0231C78214533554D04
:10570000197011682368081D039510601E0601D5E5
:105710000E6802E05806FBD50E88D90702D5202274
:10572000134323601027002E03D1226820239A43BD
:105730002260231C002243331A7001E003930A27DE
:105740006368A360002B03DB256804229543256072
:10575000002E02D1049D002B0ED0049D301C391C5C
:10576000FFF710FA0398013D435C301C2B70391C85
:10577000FFF7C4F9061EF1D1082F09D12168C90726
:1057800006D5626823699A4202DC013D30232B7002
:10579000049E731B23612AE00868136849690506A3
:1057A00004D5181D10601B68196005E04606F8D581
:1057B000181D10601B68198000232361049D16E0EA
:1057C0001368191D11601D68281CFFF725FB63680D
:1057D0002061984200D923612069606004E0251CA3
:1057E00042352B7001232361049E00233370079EF2
:1057F00005980096211C09AA069BFFF7A3FE01301D
:1058000002D10120404221E02A1C05980699236913
:10581000079DA8470130F4D02668B60705D4099B38
:10582000E068984212DA181C10E00025E068099937
:10583000431A9D42F3DA221C059806991932012376
:10584000079EB0470130DCD00135EFE70BB0F0BD6B
:105850005D6C00006E6C000070B5051C0E1C141C05
:10586000002804D08269002A01D100F0EFF9234B0F
:105870009C4201D16C6808E0214B9C4201D1AC688C
:1058800003E0204B9C4200D1EC68A369A360A3898C
:105890001A070AD52369002B07D022682369F6B2BC
:1058A000D01A626990420FDB08E0281C211C00F02E
:1058B0003FF80028F1D0012040421DE0281C211CA7
:1058C00000F044F90028F6D1A3680130013BA36041
:1058D00023685A1C22601E706369984205D0A38910
:1058E000301CDA0708D50A2E06D1281C211C00F02E
:1058F0002DF90028DFD1301C70BDC046806C00003F
:10590000A06C0000C06C000038B5084C051C0020DD
:105910002060081C111C1A1CFFF7E2F8431C03D17D
:105920002368002B00D02B6038BDC04660070020E4
:10593000344B70B51D68061C0C1C002D05D0A969E0
:10594000002902D1281C00F081F92F4B9C4201D183
:105950006C6808E02D4B9C4201D1AC6803E02C4BF5
:105960009C4200D1EC68A28993B2190721D4D906D0
:1059700005D40923336040231A43A2813FE05A072C
:1059800013D5616B002908D0231C4433994202D0FF
:10599000301C00F05DFA00236363A3892422934343
:1059A000A3810023636023692360A3890822134332
:1059B000A381216900290BD1A389A02292001A405A
:1059C00080239B009A4203D0301C211C00F0C2F9B6
:1059D000A38901221A4005D061690022A2604A42CF
:1059E000A26103E0990700D46269A26022690020E5
:1059F000824206D1190604D540221343A381012017
:105A0000404270BDC4010020806C0000A06C00000A
:105A1000C06C000038B5074C0023051C081C23602F
:105A2000FAF71AFC431C03D12368002B00D02B602B
:105A300038BDC04660070020F7B58B89051C0C1CDB
:105A400019075ED46268002A02DC276C002F1ADD79
:105A5000E76A002F17D000222E682A6080225201A8
:105A60001A4001D0626D15E0281C216A0123B84755
:105A7000021C411C0ED12B68002B0BD01D2B01D01A
:105A8000162B02D12E6000205EE0A38940210B433B
:105A9000A38159E0A3895F0706D56168636B521A39
:105AA000002B01D0276CD21B281C216A0023E76A37
:105AB000B847A289411C06D12B68002B03D01D2BAF
:105AC00001D0162B19D10023636023692360D7040A
:105AD00005D5411C02D12A68002A00D16065616B9E
