:1000000000400020C10100004547000049470000B2
:1000100000000000000000000000000000000000E0
:100020000000000000000000000000004D4700003C
:10003000000000000000000051470000554700008C
:10004000594700005D470000614700006547000018
:10005000694700006D4700007147000075470000C8
:10006000794700007D470000814700008547000078
:10007000894700008D470000914700009547000028
:10008000994700009D470000A1470000A5470000D8
:10009000A9470000AD47000011020000B147000071
:1000A000B5470000B947000030B583B000F070F9E3
:1000B000314B324A1360324A1360324B324A334971
:1000C00003E010681860043304328B42F9D32B4BE1
:1000D0001A682F4B9A4204D1294B1A682D4B9A4229
:1000E00000D0FEE7244B2C4A13602C4A13602C4BA3
:1000F0002C49002201E01A6004338B42FBD3264BCB
:100100001B68002B03D1254B1B68002B00D0FEE79A
:1001100000F042F901A8694600F0B4F8224B234DE3
:10012000ED1AAD10002404E0A3001F4A9B58984725
:100130000134A542F8DC1E4B1E4DED1AAD10002413
:1001400004E0A3001A481B5898470134A542F8DC84
:100150000198009904F092FC051C174B174CE41A07
:10016000A41004E0013CA300134A9B589847002CBC
:10017000F8DC281C00F062F8BABADECA00000020E1
:10018000C801002000000020E8740000CC0100201D
:100190007856341232547698CC010020FC17002097
:1001A000CC010020001800203C0200003C020000AE
:1001B0003C0200003C0200003C0200003C02000047
:1001C00008B5FFF771FFC04600BEFEE70420714688
:1001D000084202D0EFF3098001E0EFF30880714696
:1001E0000A4A104738B5051C0C1C044800F07AF880
:1001F000281C211C00F0D4F800BEFEE7F46A0000C1
:1002000000BEFEE700BEFEE770470000E50100000B
:04021000FEE7C046FF
:10021400E874000000000020CC010020E874000015
:100224000000001000000010CC0100200018002085
:080234000000001000000010A2
:10023C00FEE7C04608B50D4B1B68002B02D10C4ADB
:10024C000A4B1A60094B1B680330032290431818A1
:10025C00084A904206D904F01DFD0C2303600120CE
:10026C00404202E0014A1060181C08BDD001002079
:10027C00001800200038002001230360014B0B60A4
:10028C007047C0460400002008B504F003FD582355
:10029C0003600120404208BD08B504F0FBFC582364
:1002AC0003600120404208BD08B504F0F3FC58235C
:1002BC000360002008BDC04608B504F0EBFC5823D1
:1002CC0003600120404208BD08B504F0E3FC58234C
:1002DC0003600120404208BD0FB400B583B004ABED
:1002EC0004CB01930748802105F0D4FE011E03DDE9
:1002FC00044800F043F8011C081C03B008BC04B00F
:10030C001847C046D8010020F0B55F4656464D460A
:10031C004446F0B485B0041C8A46435C0E1C002B8A
:10032C001BD10425281C211CABBE041C1DE0351E52
:10033C00102D00D95D46434604E022786946CA5424
:10034C0001330134AB42F8D36F464246FA54484667
:10035C00391CABBE071C761B05E010239B46002105
:10036C00884604229146002EE1D1504605B03CBC93
:10037C0090469946A246AB46F0BDC04608B5FFF77D
:10038C00C3FF08BD08B500F055F808BD08B500F06E
:10039C0051F808BD38B5041C0D1C1548FFF79CFF1F
:1003AC0014482168FFF798FF13486168FFF794FF22
:1003BC001248A168FFF790FF1148E168FFF78CFF26
:1003CC0010482169FFF788FF0F486169FFF784FF28
:1003DC000E48A169FFF780FFE1690D48FFF77CFF2C
:1003EC000C48FFF779FF0C48291CFFF775FF38BD47
:1003FC00446A0000546A0000646A0000746A0000D9
:10040C00846A0000946A0000A46A0000B46A0000C8
:10041C00C46A0000D46A0000DC6A0000014B186852
:10042C007047C04658020020014B18687047C04600
:10043C005C02002010B5134B1A68134B1A60134B57
:10044C001A68134B1A60134B00221A625C69012262
:10045C001440A24059698907C90F141C8C40596972
:10046C00090A3F2211405869000C02400A485043C7
:10047C0004F0BAFBFF21214004F0B6FB074B1860D7
:10048C0010BDC046B8FD030010120041BCFD0300B6
:10049C00041000410010004100127A0058020020A4
:1004AC0038B50C1C012803D101211F4B196203E044
:1004BC0000211D4B19621D4C101C211C04F094FBD7
:1004CC00C3B2012B08D8184B0122DA61184A5A61C1
:1004DC000125012101221AE0134B0022DA613F228F
:1004EC001040000480225200104358615D690122C3
:1004FC001540AA4059698907C90F151C8D40EDB2EA
:10050C005969090A3F2211405869000C0240094BF5
:10051C001C60101C604304F067FB291C04F064FB96
:10052C00054B186038BDC0460010004100127A001F
:10053C00000102005C0200205802002010B5054B9F
:10054C001C68054B1C60054B1C68054B1C60FFF7B9
:10055C00A7FF10BDB8FD030010120041BCFD030045
:10056C0004100041F0B55F4656464D464446F0B483
:10057C0080468423DB05984205D08623DB05984210
:10058C0003D1354C02E0354C00E0354C00230126FC
:10059C00022081460422944640270325AA4653E0B4
:1005AC00321C9A400D68154095424CD10D79012DA5
:1005BC0004D14546286902432A6101E045466A6137
:1005CC004A79484610420BD09A001559281C5546BA
:1005DC00A84310511059051C48460543155108E015
:1005EC009A001559281C5546A843105115593543E6
:1005FC0015514A796046104204D09A0015590543AA
:10060C00155105E09A001059051C6046854315519B
:10061C004A792025154205D09A001559202005430A
:10062C00155104E09A0015592020854315514A793B
:10063C00174204D09A0015593D43155103E09A0016
:10064C001559BD43155101330F2BA9D93CBC90460C
:10065C009946A246AB46F0BD403000410030004107
:10066C0080300041034B036000230371622343710C
:10067C007047C046FFFF00000368081C1840431E6B
:10068C0098417047CBB20133FF339B0019500B0AD2
:10069C00802292009B189B0019507047CAB2CB4322
:1006AC000132FF3292001350090A802292008918FD
:1006BC0089000B507047C046F0B55F4656464D4614
:1006CC004446F0B4944600230125214A9246032463
:1006DC00A346204FB946204E31E02C1C9C400C42C6
:1006EC002CD000280BD19C00A259171C5A469743BA
:1006FC00A751A7593A1C67463A43A2511EE001285C
:10070C000ED19C004A46A7583A1C5F46BA434F4646
:10071C00E251E259171C624617434A46A7500DE0B6
:10072C009C005746E259171C5A4697435246A7500D
:10073C00A7583A1C67463A435746E25101330F2BF0
:10074C00CBDD3CBC90469946A246AB46F0BDC046BC
:10075C00802000414020004100200041F0B583B0D2
:10076C00041C0D1C161C1F1C6846FFF77BFF009514
:10077C006B461E71201C6946FFF7F4FE8421C905E7
:10078C008C4205D10020291C3A1CFFF795FF0EE086
:10079C008623DB059C4205D10120291C3A1CFFF75E
:1007AC008BFF04E00220291C3A1CFFF785FF03B0E5
:1007BC00F0BDC04610B5041C094B1B6B022B03D0BB
:1007CC00074B1B6B032B02D1FFF72EFE01E0FFF74B
:1007DC0025FE211C04F008FA024B186110BDC0461E
:1007EC00001000410060004008B5FFF7E3FF034B29
:1007FC00996803220A439A60002008BD00600040FB
:10080C00034901224B681A42FCD1014B1860704716
:10081C0000600040014B186880B2704700600040D7
:10082C0010B5041CFFF7ECFF201C10BD08B50449E3
:10083C0002224B681A42FCD0FFF7ECFFC0B208BD95
:10084C00006000400078C0B27047C046017070472D
:10085C0030B5002407E065182D042D0C2D182D78CB
:10086C0015550134A4B29C42F5D330BD70B50024AB
:10087C0007E065182D042D0C2D18165D2E70013413
:10088C00A4B29C42F5D370BD70B50B1C141E11D0D4
:10089C008504094AAD182E683604360C0722104020
:1008AC008004064A1043311C1A1C231CFFF7DEFF80
:1008BC00A4192C6070BDC0460C0201460000024613
:1008CC0070B50B1C141E11D08504094AAD182E6886
:1008DC003604360C072210408004064A1043311CA3
:1008EC001A1C231CFFF7B4FFA4192C6070BDC04662
:1008FC00280201460000034610B500290FD08304DE
:10090C00074A9B181A681204120C07242040800412
:10091C00044C204389180904090C0818186010BDF0
:10092C002802014600000346F0B54F4680B4061C71
:10093C00141C2025AD1AA9400D1C134B9946134FBE
:10094C001CE0002D05DA104B1988301CFFF79AFEBD
:10095C0004E04B461988301CFFF7A0FE012004F080
:10096C001FF93988301CFFF78DFE012004F018F9AF
:10097C003988301CFFF792FE6D00013C002CE0D151
:10098C0004BC9146F0BDC0460E0000200C000020B7
:10099C00F0B5474680B4051C002000240F4E104BC8
:1009AC00984615E047003188281CFFF76BFE0120A4
:1009BC0004F0F6F83188281CFFF770FE012004F0D3
:1009CC00EFF843461988281CFFF756FE38430134CC
:1009DC000F2CE7D904BC9046F0BDC0460C0000209B
:1009EC000E00002038B5041C0A4B1B884361012003
:1009FC0004F0D6F8084D2988201CFFF743FE01208F
:100A0C0004F0CEF82988201CFFF748FE012004F0E2
:100A1C00C7F838BD0E0000200C00002038B5041CAF
:100A2C00084B1B880361084D2988FFF72BFE01201A
:100A3C0004F0B6F82988201CFFF730FE012004F0E2
:100A4C00AFF838BD0E0000200C000020F0B5474672
:100A5C0080B400258624E40501277F42184B984674
:100A6C0023E0201C391C2022FFF75EFF201C0621EE
:100A7C000422FFF759FF201C291C0522FFF754FF05
:100A8C00201C01210522FFF74FFF201CFFF7AAFFB6
:100A9C00201CFFF77DFF061C201CFFF7BFFF002E5C
:100AAC0002D0084B9E4207D10135082DD9DD4046B6
:100ABC0004F092F90025F8E7281C04BC9046F0BD20
:100ACC00046B0000FFFF000070B582B0061C0D1C0B
:100ADC00141C6846FFF7C6FD2B1C2343009301230F
:100AEC006A461371301C6946FFF73CFD0120211C3E
:100AFC000122FFF7E1FD0120291C0122FFF7DCFD9B
:100B0C00044B1D80044B1C80FFF7A0FF034B1860A7
:100B1C0002B070BD0C0000200E000020E407002085
:100B2C0010B51A4C21781A48FFF790FE61781948D5
:100B3C00FFF78CFEA1781848FFF788FEE17817487C
:100B4C00FFF784FE164C21781648FFF77FFE61787C
:100B5C001548FFF77BFEA1781448FFF777FEE17884
:100B6C001348FFF773FE134C21781348FFF76EFE02
:100B7C0061781248FFF76AFEA1781148FFF766FE0C
:100B8C00E1781048FFF762FE10BDC04674020020E9
:100B9C00136000461260004611600046106000466B
:100BAC00640200200F6000460E6000460D60004697
:100BBC000C600046700200200B6000460A60004684
:100BCC00096000460860004610B5124C201C8021BC
:100BDC00FFF73CFE201CFFF735FEFFF7A1FF0E4C84
:100BEC0021780E48FFF732FE61780D48FFF72EFE94
:100BFC00A1780C48FFF72AFEE1780B48FFF726FE98
:100C0C0021790A48FFF722FE61790948FFF71EFE99
:100C1C0010BDC04600230046780200200360004649
:100C2C000260004601600046006000460760004616
:100C3C000660004610B5114C201C8021FFF706FE03
:100C4C00201CFFF7FFFD0E4C21780E48FFF7FEFD30
:100C5C0061780D48FFF7FAFDA1780C48FFF7F6FD17
:100C6C00E1780B48FFF7F2FD21790A48FFF7EEFD1A
:100C7C0061790948FFF7EAFD10BDC0460023004624
:100C8C0078020020036000460260004601600046C6
:100C9C0000600046076000460660004610B50B4C2D
:100CAC000B4B1C600B4C0C4B1C600C4C0C4B1C6011
:100CBC00002801D0064B1860002901D0064B1960A2
:100CCC00002A01D0064B1A6010BDC0462D0B000047
:100CDC0018000020D50B000014000020410C00006F
:100CEC001C00002010B5324A012311680B701168EA
:100CFC004B70062311688B70002000231168C8709C
:100D0C0011682C4A1268140E0C71140C4C71140AD4
:100D1C008C71CA71088180228A720022CA720B738C
:100D2C004B738B73CB730B744B748B74CB740B75C1
:100D3C004B758B75CB750B764B768B76CB761E4BBA
:100D4C001A780A775A784A779A788A77DA78CA774B
:100D5C001879202288545A792123CA54062300205A
:100D6C0003E0CA1810770133DBB20F2BF9D900233B
:100D7C00002004E0CA18283210710133DBB23F2B7B
:100D8C00F8D90023002004E0CA186832107101332E
:100D9C00DBB25AB2002AF7DA6323EC228B5482209E
:100DAC00ED2288545320EE228854EF228B5410BD30
:100DBC00F4070020EC07002078020020F0B547462D
:100DCC0080B484B0FFF78EFF524B19683522F023A4
:100DDC00CA540123F1228B54F2228B543D20F3226E
:100DEC0088540720F4228854F5228B544A4B1878E7
:100DFC00F62288545878F72288549878F822885428
:100E0C00D8788046F92288541A799446FA2260469A
:100E1C0088545F79FB23CF540C22FC23CA54002244
:100E2C00FD23CA54122200233C4D2E1C07E0501CFB
:100E3C00F45C8A18E832147101339BB282B2E85C1C
:100E4C000028F4D1551CADB28A18E8324046107116
:100E5C00681C80B24D19E83562462A71421C92B268
:100E6C000818E8300771D41A0C19E43403332371D1
:100E7C00531C9BB28A18E83237201071581C80B270
:100E8C00CB18E83306221A71431C9BB20818E830C1
:100E9C0001240471581C80B2CB18E83303241C7154
:100EAC00431C9BB20818E83002715A1C92B2CB1842
:100EBC00E8330F201871531C9BB28A18E8323A2081
:100ECC0010715A1C92B2CB18E8333B201871531C8A
:100EDC009BB28A18E832FF2010713820FF300024B2
:100EEC0004E0CA18E832147101339BB28342F8D97A
:100EFC0003ABFF221A705A709A70DA70084A107895
:100F0C00432200928922920000F086FF04B004BCB8
:100F1C009046F0BDF4070020780200202400002049
:100F2C00F8070020F0B585B0FFF7DCFE7F4B1B788F
:100F3C00033B012B18D87E4B1B6800229A72DA7285
:100F4C007C4A117819735178597391789973D278C6
:100F5C00DA73794A117803AB19705178597091781A
:100F6C009970D278DA7005E003ABFF221A705A70D0
:100F7C009A70DA706E4B19683522F023CA5401232B
:100F8C00F1228B540320F22288543D20F322885402
:100F9C000720F4228854F5228B54684B1878F622DB
:100FAC0088545878F72288549878F8228854D8783E
:100FBC008446F92288541F79FA228F545E79FB23D8
:100FCC00CE5403ABDA781023FF2A2DD13222FC2326
:100FDC00CA540422FD23CA54564B1C78FE200C54D0
:100FEC005C78FF200C549C78802040000C54D878FE
:100FFC000223FF33C854362081235B00C8540423DA
:10100C00FF33CA544C4B18788222520088545878BB
:10101C000622FF3288549878832252008854DA785A
:10102C000823FF33CA541C23CA18E8320C20107151
:10103C009A1CCB18E933002018710023404D05E0B1
:10104C00541C8A18E83210710133A2B2E85C0028F3
:10105C00F6D1541CA4B28A18E83260461071601C98
:10106C0080B20C19E8342771421C92B20818E8308F
:10107C000671D01A0818E43003330371531C9BB269
:10108C008A18E832372010715A1C92B2CB18E83308
:10109C0008201871531C9BB28A18E8320120107179
:1010AC005A1C92B2CB18E83303201871531C9BB214
:1010BC008A18E832062010715A1C92B2CB18E83309
:1010CC000F201871531C9BB28A18E8323A20107109
:1010DC005A1C92B2CB18E8333B201871531C9BB2AC
:1010EC008A18E8321F2010715A1C92B2CB18E833C0
:1010FC0021201871531C8A18E832FF2010719BB202
:10110C003820FF30002403E0CA18E8321471013390
:10111C008342F9DD0B4B187843230093892292000C
:10112C0003AB00F079FE05B0F0BDC04660020020B4
:10113C00F407002074020020F00700207802002041
:10114C0024000020F807002030B585B0FFF7CAFD59
:10115C00394B196800238B72CB723522F023CA5499
:10116C000123F1228B540422F2200A543D24F32053
:10117C000C540724F4200C54F5200B542F4B1C78E2
:10118C00F6200C545C78F7200C549C78F8200C5406
:10119C00DC78F9200C541C79FA200C545879FB2378
:1011AC00C8543220FC23C854FD23CA54244B1C7849
:1011BC00FE200C545C78FF200C549D788024640035
:1011CC000D55DC780223FF33CC54362481235B008D
:1011DC00CC540423FF33CA541A4B1C78822252007D
:1011EC008C545C780622FF328C549C7883225200FB
:1011FC008C54DA780823FF33CA5484235B00C85418
:10120C001D233820FF30002403E0CA18E832147183
:10121C0001338342F9DD03ABFF221A705A709A70C6
:10122C00DA70094A1078432200928922920000F069
:10123C00F3FD05B030BDC046F40700207802002055
:10124C0074020020F0070020F8070020F0B54F468C
:10125C004646C0B487B05B4B187883045A4A9B1837
:10126C001A6892B20023002A00D1A5E0574B1968E6
:10127C006D460E35009504AB00F0AEFE2B88432B6B
:10128C0000D098E0514B1A68147F514B1978002309
:10129C008C4200D090E0547F4D4B597800238C4207
:1012AC0000D089E0947F4A4B997800238C4200D07F
:1012BC0082E0D47F464BD97800238C427CD120230A
:1012CC00D45C434B197900238C4275D12123D45C17
:1012DC003F4B597900238C426ED180B2111CF031F6
:1012EC0012181C1C3B4F3C4E3C4B9C463C4D60E04A
:1012FC000B78062B30D006D8012B14D0002B0DD038
:10130C00032B1AD050E0352B0AD002D8332B2FD018
:10131C004AE0362B3ED0FF2B4AD045E0013148E065
:10132C008C78033145E08B782B70CB786B700B7914
:10133C00AB704B79EB7006313BE0487881468B788B
:10134C0028480370CB7843700879264B98704879FD
:10135C00D870494402312CE048788B783B70CB78BC
:10136C007B700B79BB704B79FB700918023120E054
:10137C008B78604603601B029846CB7843441B0273
:10138C0098460B7943441B0298464B7943440360BF
:10139C0006310EE08B783370CB7873700B79B370A9
:1013AC004B79F370063104E08B1C4978591800E036
:1013BC00111C91429CD3E3B258B207B00CBC9046BE
:1013CC009946F0BDF807002024020146F4070020DE
:1013DC007802002080020020F0070020200000206E
:1013EC00640200207002002008B5044B187800F04D
:1013FC007FFA0622024B1A7008BDC046F80700207F
:10140C006002002070B582B0134C201CFFF71AFA52
:10141C00061C201C0321FFF719FA104B1878104BEF
:10142C00009310491122104B00F0F6FC051C201CF7
:10143C00311CFFF70BFA01230D3509D0FFF784FEA1
:10144C000A4B19681A1C13685B1A012BFBD9002371
:10145C0058B202B070BDC04644600046F807002088
:10146C0088130000346B0000740200206802002016
:10147C000023044A13600521034A1160034A1370C8
:10148C007047C04668020020100000208402002033
:10149C0010B5214B1B785BB2012B23DC1F4B1A6858
:1014AC001F4B1B6801249A4233D21E4B1B78022B14
:1014BC0006D0042B07D0012B07D1FFF77FFC04E0EB
:1014CC00FFF730FD01E0FFF72DFD154B00221A60F0
:1014DC001A680532114B1A600F4B1A7801321A70C8
:1014EC00012416E00F4B1B78022B09D0042B07D0DC
:1014FC000124012B0BD100220A4B1A70002406E0A8
:10150C00FFF75CFC0122074B1A700124FFE7FFF781
:10151C00AFFF201C10BDC04684020020100000202C
:10152C00680200206002002010B5654B1B785BB28E
:10153C000520062B00D1C1E0624B18788004624A6A
:10154C008018FFF77FF9222806D05E4B187802210D
:10155C004422002300F006FAFFF778FEC0B2584B85
:10156C001A78042A00D9A5E09300584AD3589F460C
:10157C00574B00221A705A709A70DA70FFF71EFCE3
:10158C0001224F4B1A70012497E0022811D1514BC4
:10159C001A68117C4E4B1970517C5970917C997062
:1015AC00D27CDA70FFF7BEFC0222454B1A70012484
:1015BC0083E0FFF76DFF041C7FE0052817D1FFF7D0
:1015CC0021FF002809D0444B1B689847FFF750FFB8
:1015DC0003223B4B1A7001246FE0FFF749FF3F4B8E
:1015EC001B6898470022364B1A70012465E00628C8
:1015FC0006D1FFF73DFF0122314B1A7001245CE04C
:10160C00FFF746FF041C58E0354B1B685A1C53D09F
:10161C005B08344A1268042493424ED22C4A117847
:10162C00314B19705178597091789970D278DA7071
:10163C002E4B1A6801321A60FFF774FCFFF718FF83
:10164C0004221F4B1A7038E0052826D10022284BA3
:10165C001A70254B1A781E4B1B789A4211D1224BCB
:10166C005A781B4B5B789A420BD11F4B9A78184BCC
:10167C009B789A4205D11C4BDA78154BDB789A4251
:10168C0004D01C4B1B689847032400E00424FFF78C
:10169C00EFFE03220A4B1A700FE0062806D1FFF763
:1016AC00E7FE0122064B1A70042406E0FFF7F0FE59
:1016BC00041C02E0012400E00424201C10BDC046E0
:1016CC0060020020F807002030000146206B00006B
:1016DC0074020020F4070020180000201C000020D9
:1016EC0020000020680200206C020020EC07002083
:1016FC008402002014000020F8B5061C0D1C49487B
:10170C00FFF7A0F8484C20704848FFF79BF8607032
:10171C004748FFF797F8A0704648FFF793F8E0703A
:10172C004548FFF78FF820714448FFF78BF8031CEE
:10173C006071227894466278A778E07821796446C3
:10174C0022433A4302430A43134320D1364C2370BD
:10175C0008226270DC22A270E3702371637131483D
:10176C000021FFF773F861783048FFF76FF8A17824
:10177C002F48FFF76BF8E1782E48FFF767F82179CF
:10178C002D48FFF763F861792C48FFF75FF82C4B75
:10179C001E702C4B1D60244BD9782B4A88181A7953
:1017AC0080185B79C0184A405340C318274803601F
:1017BC00274F381C0021FFF749F8264E301C00211A
:1017CC00FFF744F8244D281C0021FFF73FF8234C69
:1017DC00201C0021FFF73AF8381C0021FFF736F8DF
:1017EC00301C0021FFF732F8281C0021FFF72EF8DF
:1017FC00201C0021FFF72AF819480021FFF726F8D2
:10180C0018480021FFF722F817480021FFF71EF8AF
:10181C0016480021FFF71AF8FFF72AFE0022144B96
:10182C001A70F8BD03600046780200200260004682
:10183C0001600046006000460760004606600046F6
:10184C00F8070020F407002078563412EC0700202B
:10185C00136000461260004611600046106000469E
:10186C000B6000460A6000460960004608600046AE
:10187C0060020020024B1A6801321A607047C046A1
:10188C0068020020044B1A7802705A7842709A78D9
:10189C008270DB78C370704774020020044B1A7896
:1018AC0002705A7842709A788270DB78C3707047F5
:1018BC0070020020044B1A7802705A7842709A78A1
:1018CC008270DB78C370704764020020044B1A7876
:1018DC0002705A7842709A788270DB78C3707047C5
:1018EC0080020020014B18687047C0462000002081
:1018FC0070B5051E082D26D88604144BF418201C30
:10190C001021FEF7A3FF201CFEF79CFF0028FAD144
:10191C000F4BF0181F21FEF799FF0121A9400D4B29
:10192C001A888A431A806A0000210B4BD1520B4B48
:10193C0000225A550A4BF418201CFEF783FF00288E
:10194C00FAD1012000E0FF2040B270BD100001462A
:10195C002800014688020020940200208C020020FE
:10196C0030000146F0B5474680B4051C0E1C141C13
:10197C001F1C082861D8002961D0022901D904292B
:10198C005DD106233B425CD1002F0DD0012E02D03D
:10199C00022E04D008E021233B4205D153E0BA06C5
:1019AC0002D57BB2002B50DA281CFFF7A1FFAB0449
:1019BC009846284A101C40440F23391C9943314344
:1019CC00FEF744FF002C0AD1234A1488631C9BB2F7
:1019DC001380224A934202D1214A1F4B1A80214A7A
:1019EC00131C43441C60204B1C1C4444201C012130
:1019FC00FEF72CFF201CFEF725FF0028FAD101234F
:101A0C001F40AF40194B1A8817431F800121A94072
:101A1C00174B1A888A431A806B000021154A995279
:101A2C00154B00225A55154A141C4444201CFEF731
:101A3C0009FF0028FAD0E8B208E0FF2006E0FB20FE
:101A4C0004E0FA2002E0FA2000E0FA2040B204BCE4
:101A5C009046F0BD000001462C000020F0FF000075
:101A6C0000C0FFFF14010146100001468602002051
:101A7C0088020020940200208C02002030000146D5
:101A8C0070B5051E082D27D88404174BE018FEF7F7
:101A9C00D9FE0F231840012820D1144BE618301C16
:101AAC00FEF7D0FE13281BD1114BE418201C022189
:101ABC00FEF7CCFE201CFEF7C5FE0028FAD104E090
:101ACC00281CFFF715FFFC200BE0301CFEF7BAFEBC
:101ADC001428F5D1012004E0FF2002E0FB2000E0F7
:101AEC00FD2040B270BDC0460000014630000146EA
:101AFC0010000146F8B5071E082F37D886041E4B78
:101B0C00F018FEF79FFE0F231840012830D11B4B15
:101B1C00F418201C0821FEF799FE201CFEF792FEFB
:101B2C000028FAD10123181CB840154A11888143AA
:101B3C001180144A12883A41002013420AD018E04E
:101B4C00301CFEF77FFE054209D0381CFFF7D0FE93
:101B5C00F3200EE00C4BF4180C4BF6180825201C47
:101B6C00FEF770FE0028EBD1012002E0FF2000E020
:101B7C00FB2040B2F8BDC0460000014610000146F3
:101B8C008802002086020020300001462000014619
:101B9C00F0B55F4656464D464446F0B483B0834696
:101BAC000191141C082800D981E05F46BA04009208
:101BBC00494BD018FEF746FE0F231840012879D167
:101BCC00002C7AD0009A454BD618301CFEF73AFE02
:101BDC00172801D01C2873D1414B1B885A4613413E
:101BEC00DA071ED5009B3F4A9818FEF72BFE031C04
:101BFC00C2060DD5009B3C4A98181021FEF726FE14
:101C0C0001215B469940364B1A888A431A8008E0BA
:101C1C0000201A0758D55846FFF76AFE0D2040429F
:101C2C0052E0009B314A9818FEF70CFE8502ADB2CB
:101C3C00AC4200D8251C009B98462D4B98442D4A4D
:101C4C0092460123994642461468A4B2301CFEF712
:101C5C00F9FD172807D01C2805D05846FFF748FE79
:101C6C000720404230E0524613883B414A461A4214
:101C7C0001D0A54227D8A542E5D8584601992A1C7F
:101C8C00FEF702FE009B1C4A9C18201C2021FEF72C
:101C9C00DDFD201CFEF7D6FD0028FAD101215B46A4
:101CAC0099400F4B1A880A431A80281C0CE001201B
:101CBC00404209E00520404206E00E20404203E08D
:101CCC000720404200E0002003B03CBC90469946FF
:101CDC00A246AB46F0BDC0460000014630000146AE
:101CEC00880200202000014628000146000201461F
:101CFC00040201468602002010000146F0B55F4642
:101D0C0056464D464446F0B483B083460191141CAC
:101D1C00082860D8D9468504374AA818FEF792FDE2
:101D2C000F231840012859D1002C5AD0334BE818F6
:101D3C00FEF788FD800280B20090A04200D3009490
:101D4C002F4A521990462F4BEF182F4A9246434672
:101D5C001C68A4B2381CFEF775FD17281BD01C2874
:101D6C0013D1002C21D1294AAB181E683604360C2D
:101D7C00274BE818FEF766FD800286420BD15846C9
:101D8C00FFF7B6FD072040422FE05846FFF7B0FDA5
:101D9C000720404229E0524613884A461341DA078D
:101DAC0001D5002C20D0002CD1D0009BA34200D810
:101DBC001C1C58460199221CFEF782FD154AAD18D1
:101DCC00281C4021FEF742FD281CFEF73BFD002895
:101DDC00FAD1201C09E00120404206E005204042D7
:101DEC0003E00E20404200E0002003B03CBC9046D3
:101DFC009946A246AB46F0BD0000014620020146C2
:101E0C0024020146300001468602002004020146ED
:101E1C000002014610000146F0B55F4656464D469D
:101E2C004446F0B483B000900191171C1C1C0CAB01
:101E3C001D88082800D998E0804683049B46594A9F
:101E4C00101C5844FEF7FEFC0F231840022802D049
:101E5C00042800D08CE0002F00D18CE023781B02EA
:101E6C0062789B181B02A2789B181B02E2789B18C5
:101E7C00002B00D182E0002D00D182E04A4B1E1CC9
:101E8C005E44301CFEF7DEFC422801D022287BD1B8
:101E9C002178464A101C5844FEF7D8FC6178444B14
:101EAC00181C5844FEF7D2FCA178424A101C584426
:101EBC00FEF7CCFCE178404B181C5844FEF7C6FCEE
:101ECC003E4A131C5B441D603D4B181C5844FEF7E6
:101EDC00B9FC8502ADB2AF4200D83D1C394A171C83
:101EEC005F44394B9A46012291463C68A4B2301C9F
:101EFC00FEF7A8FC00284AD05246138842461341EC
:101F0C004A461A4201D0AC4244D3AC42EDD30098BD
:101F1C0001992A1CFEF7B8FC2C4B1C1C5C44201CA1
:101F2C002021FEF793FC201CFEF78CFC0028FAD134
:101F3C00274A161C5E4410240827301CFEF782FC2E
:101F4C00044207D0234B181C58441021FEF77EFC8A
:101F5C00281C20E00742F0D01E4A101C58440821CF
:101F6C00FEF774FC0D20404215E00120404212E0C7
:101F7C00052040420FE00E2040420CE00C20404275
:101F8C0009E00B20404206E00720404203E0042019
:101F9C00404200E0002003B03CBC90469946A2466B
:101FAC00AB46F0BD0000014630000146270101465A
:101FBC002601014625010146240101462001014666
:101FCC000002014604020146860200201000014670
:101FDC002000014628000146F0B55F4656464D46A6
:101FEC004446F0B487B0051C02919346039308282D
:101FFC0000D9D4E0061C800482467349081C504466
:10200C00FEF720FC01900F230340022B02D0042B7F
:10201C0000D0C7E05A46002A00D1C6E06B006B4ADC
:10202C009B5A002B1BD16A4B9846D0446948071C1D
:10203C0057446949894642461468A4B2381CFEF7D5
:10204C0001FC002800D1B3E0484603883341D9078E
:10205C0002D5002C00D1AEE0002CECD000E0002426
:10206C0000225E4B5A550723019A1340022B02D0D3
:10207C00042B3CD071E06B00544A9B5A002B2AD1A4
:10208C00281C04A90822FEF71BFC554B1C1C5444AD
:10209C00201C4021FEF7DAFB201CFEF7D3FB0028A6
:1020AC00FAD16846037C03990B70437C4B70837C9C
:1020BC008B70C37CCB70037D427D1B02D318109AAE
:1020CC001380827D6B00C17D120289183F4A9952A0
:1020DC008022424B5A556B003C4A9C5A5C4500D9B5
:1020EC005C46281C0299221CFEF7EAFB3CE06B00C4
:1020FC00364A9B5A002B24D1281C04A90222FEF735
:10210C00DFFB374B1C1C5444201C4021FEF79EFB6C
:10211C00201CFEF797FB0028FAD16846037C6A0066
:10212C00417C1B02CB189BB2284953522D4A934237
:10213C0004D9281CFFF7DCFB2B483DE08022274B01
:10214C005A556B00214A9C5A5C4500D95C46281CA8
:10215C000299221CFEF7B4FB06E0281C211CFEF79A
:10216C00CBFB6B00194A9C521D490E1C5644301C6B
:10217C004021FEF76BFB301CFEF764FB0028FAD104
:10218C00124A69008B5A1B1B9BB28B52002B04D03A
:10219C00124B595D01220A435A55201C0CE00120B8
:1021AC00404209E00520404206E00E20404203E098
:1021BC000420404200E0002007B03CBC9046994609
:1021CC00A246AB46F0BDC04600000146940200207A
:1021DC002402014630000146860200208C020020B9
:1021EC0010000146EA05000017FCFFFFF0B55F4642
:1021FC0056464D464446F0B493B0554B9A46181C7F
:10220C00FEF720FB0090534B9946181CFEF71AFB67
:10221C000190514B9846181CFEF714FB02904F4846
:10222C00FEF710FB03904E48FEF70CFB04904D4854
:10223C00FEF708FB05904C48FEF704FB06904B4854
:10224C00FEF700FB07904A48FEF7FCFA0890494855
:10225C00FEF7F8FA09904848FEF7F4FA0A90474856
:10226C00FEF7F0FA0B904648FEF7ECFA0C90454856
:10227C00FEF7E8FA0D90444F381CFEF7E3FA0E9087
:10228C00424E301CFEF7DEFA0F90414D281CFEF733
:10229C00D9FA10903F4C201CFEF7D4FA11903E4B0B
:1022AC009B46181C8021FEF7D1FA5846FEF7CAFA55
:1022BC0050460099FEF7CAFA48460199FEF7C6FA4D
:1022CC0040460299FEF7C2FA24480399FEF7BEFA7B
:1022DC0023480499FEF7BAFA22480599FEF7B6FA94
:1022EC0021480699FEF7B2FA20480799FEF7AEFA94
:1022FC001F480899FEF7AAFA1E480999FEF7A6FA94
:10230C001D480A99FEF7A2FA1C480B99FEF79EFA93
:10231C001B480C99FEF79AFA1A480D99FEF796FA93
:10232C00381C0E99FEF792FA301C0F99FEF78EFAB4
:10233C00281C1099FEF78AFA201C1199FEF786FAD0
:10234C0013B03CBC90469946A246AB46F0BDC04685
:10235C0003600046026000460160004600600046D3
:10236C0007600046066000460B6000460A600046A7
:10237C0009600046086000460F6000460E6000468B
:10238C000D6000460C60004613600046126000466B
:10239C0011600046106000460023004670B5061C14
:1023AC000D1CFFF723FF002E07D11CE05AB2B25CC4
:1023BC005118C9B20133DBB201E0002100235AB23B
:1023CC00072AF3DD49B210292FDC002408E063B2A0
:1023DC009804184A8018F15CFEF738FA0134E4B21C
:1023EC0063B2072BF3DD002200230020002D1FD049
:1023FC0005E059B2695C8A18D2B20133DBB259B22A
:10240C000729F6DD52B2102A11DC002408E063B271
:10241C009804094A8018E95CFEF718FA0134E4B212
:10242C0063B2072BF3DD002002E0FF2000E0FF2069
:10243C0040B270BD000201462002014610B5041CDA
:10244C0001782A48FEF702FA61782948FEF7FEF96E
:10245C00A1782848FEF7FAF9E1782748FEF7F6F953
:10246C0021792648FEF7F2F961792548FEF7EEF955
:10247C00A17B2448FEF7EAF9E17B2348FEF7E6F955
:10248C00217C2248FEF7E2F9617C2148FEF7DEF957
:10249C00A17A2048FEF7DAF9E17A1F48FEF7D6F95F
:1024AC00217B1E48FEF7D2F9617B1D48FEF7CEF961
:1024BC00A1791C48FEF7CAF9E1791B48FEF7C6F969
:1024CC00217A1A48FEF7C2F9617A1948FEF7BEF96B
:1024DC00A27C184B1A70E27C5A70227D9A70627D35
:1024EC00DA70A27D144B1A7010BDC0460360004612
:1024FC00026000460160004600600046076000462E
:10250C00066000460B6000460A6000460960004603
:10251C00086000460F6000460E6000460D600046E5
:10252C000C600046136000461260004611600046C5
:10253C0010600046A8020020A402002010B5041C64
:10254C002A48FEF77FF920702948FEF77BF9607066
:10255C002848FEF777F9A0702748FEF773F9E0706A
:10256C002648FEF76FF920712548FEF76BF960716C
:10257C002448FEF767F9A0732348FEF763F9E0736C
:10258C002248FEF75FF920742148FEF75BF960746E
:10259C002048FEF757F9A0721F48FEF753F9E07276
:1025AC001E48FEF74FF920731D48FEF74BF9607378
:1025BC001C48FEF747F9A0711B48FEF743F9E07180
:1025CC001A48FEF73FF920721948FEF73BF9607282
:1025DC00184B1A78A2745A78E2749A782275DB78C0
:1025EC006375154B1B78A37510BDC0460360004680
:1025FC00026000460160004600600046076000462D
:10260C00066000460B6000460A6000460960004602
:10261C00086000460F6000460E6000460D600046E4
:10262C000C600046136000461260004611600046C4
:10263C0010600046A8020020A402002038B5041C3B
:10264C003823021C9A430AD1064D281CFEF7FAF8CF
:10265C000443E1B2281CFEF7F9F8002000E0FF204B
:10266C0040B238BD0023004608B50248FEF7EAF830
:10267C0008BDC0460023004610B5041C0178034871
:10268C00FEF7E4F86288024B1A6010BD4460004605
:10269C004060004610B5041C0348FEF7D3F82070C8
:1026AC00024B1B68638010BD4460004640600046CE
:1026BC0010B50C1C052820D88000114B1B589F46C8
:1026CC00081CFFF7BBFE002018E0081CFFF736FFC4
:1026DC00002013E00878FFF7B1FF0FE0FFF7C4FF0D
:1026EC00207000200AE0081CFFF7C6FF002005E060
:1026FC00081CFFF7CFFF002000E0FF2040B210BD08
:10270C00486B000008B501F01DFD01F059FE08BD35
:10271C0008B50948FEF796F8172801D01C2803D1F4
:10272C000220FFF7E7F902E00220FFF7E1F80120B1
:10273C00FFF7DEF808BDC0463000094608B5FFF7C4
:10274C00E7FFBFF34F8F034A034BDA60BFF34F8FA2
:10275C00C046FDE70400FA0500ED00E0F0B5474681
:10276C0080B482B0041C884601F0E8FC071C0022EF
:10277C0001AB1A80261CA504464AA818FEF762F87D
:10278C00172808D002D800286DD07CE018286AD011
:10279C001C2863D077E0404BE818FEF753F8C207CB
:1027AC0007D501223D4B1A703D4BE8180121FEF76D
:1027BC004DF83C4B1B78012B04D1201CFFF79AF9E8
:1027CC00002062E0384AAD182D68ADB2002D5BD008
:1027DC0080231B019D4200D91D1C344B1A68A9187B
:1027EC003B1CA833DE781879000230435E7936043E
:1027FC0030439B791B060343994201D99D1AADB214
:10280C00201C41462A1CFFF779FA85B2274E030497
:10281C001B0C32689B1833602B0A01A90B70487093
:10282C00201C0222FFF7B4F90022214B1A80A83792
:10283C00FB783A7912021A437B791B041A43BB7951
:10284C001B061A4333689A421ED80022194B1A8071
:10285C00124B1A70201CFFF74DF915E0201CFFF7E6
:10286C0049F9002510E0201C0121134A2023FFF711
:10287C0079F80025864207D100220C4B1A60201CE7
:10288C00FFF7FEF800E00025281C02B004BC9046BF
:10289C00F0BDC0463000014620000146AC020020CD
:1028AC0028000146BD02002024020146B00200208F
:1028BC00B4020020AE02002052C300001F4B1B7854
:1028CC00012B1AD11E4B1A8892B21E4B9A4205D07C
:1028DC001B4B1A88013292B21A8002E00022184B6C
:1028EC001A80174B1A8892B2174B9A4205D90122BB
:1028FC00164B1A700022124B1A80154B1B78012BA9
:10290C001AD1144B1A8892B20E4B9A4205D0114B25
:10291C001A88013292B21A8002E000220D4B1A8002
:10292C000C4B1A8892B2084B9A4205D901220A4BD9
:10293C001A700022074B1A807047C046AD02002067
:10294C00AE020020FFFF00003F1F0000BC02002071
:10295C00AC020020B4020020BD0200200023074A74
:10296C001370074A1370002206490B8006490B802E
:10297C00064B1A70064B1A707047C046AD02002009
:10298C00AC020020AE020020B4020020BC020020E9
:10299C00BD020020F0B55F4656464D464446F0B4A5
:1029AC0083B0051C01F0CAFB041C01F0C7FB061C1C
:1029BC00A823E35C4020002B00D113E1231CA83397
:1029CC00DA781979090211435A79120411439B7967
:1029DC001B0619434A1E874B9A420BD94536337A4C
:1029EC00012B00D0FEE08448C822120202F078F9D4
:1029FC004020F7E0042D58D1331C45331B7A012BB2
:102A0C0002D17E4802F06CF900227D4B1A60032043
:102A1C0000F0B6F901227B4B1A707B4F784D0420E5
:102A2C00391CFFF79BFE031E0FD028689C22520214
:102A3C0081180320744A00F0DBF90004000C2B68A9
:102A4C00C01828600022714B1A80714B1B78012B27
:102A5C000AD1331C45331B7A4027012B00D0A7E049
:102A6C006C4802F0B9F9A3E06B4B1B78012B0AD12F
:102A7C00331C45331B7A4027012B00D098E0674864
:102A8C0002F0AAF994E0231CA833D9781A7912021F
:102A9C000A43597909040A439B791B061A43584B7C
:102AAC001B689A42BBD8202782E0AB1E4027012B23
:102ABC007ED8022D08D1E023DB0101939C235B021D
:102ACC009B460320009007E09C235B020193E023CC
:102ADC00DB019B4602220092331C45331B7A012BEF
:102AEC0002D14F4802F0FCF80022454B1A60281C1A
:102AFC0000F046F90122434B1A7080273F01444BEA
:102B0C0099463F488246331C5E46A8469B464A4639
:102B1C001378012B0AD15E465B4645331B7A40275E
:102B2C00012B45D13B4802F057F941E05346196857
:102B3C00802000010A18231CA833DD7818790002C4
:102B4C0028435D792D0428439B791B0603439A4245
:102B5C0001D95F1ABFB2711800982B4A3B1C00F0C8
:102B6C00E3F883B2002B0FD0254D019A2868111879
:102B7C004046254A00F03CF903041B0C2A689B18BC
:102B8C002B600022214B1A8000F0B8F9231CA833CB
:102B9C00D9781A7912020A43597909040A439B79A4
:102BAC001B061A43164B1B689A42B0D85E46202768
:102BBC00A834E378227912021A4363791B041A436E
:102BCC00A3791B061A430E4B19688A4207D1453666
:102BDC00337A8027012B02D1124802F081F8FFF7DB
:102BEC00BDFE381C03B03CBC90469946A246AB4691
:102BFC00F0BDC046FFC70000606B0000C86B000052
:102C0C00B8020020AD020020FC0F0020AE02002014
:102C1C00BC020020046C0000BD0200203C6C0000D3
:102C2C00746C0000B46C000030B5051C002302E08D
:102C3C005C5DCC540133181E9042F9D330BDC046B4
:102C4C00F8B5054D802464002E5901277F422F5181
:102C5C00024FB8472E51F8BD00E100E00110FF1FF4
:102C6C0008B5011CC303DB0B834210D00D4B9842FB
:102C7C0003D90D4B034083420BD00B4B994210D917
:102C8C008B039B0B8B420CD10021112003E01220F3
:102C9C0001E00021102072B600220023FFF7D0FFC4
:102CAC0062B608BDFFFD0300FFFE030008B5011C62
:102CBC00C303DB0B834206D172B613200022002320
:102CCC00FFF7BEFF62B608BDF8B5041C0F1C151C3F
:102CDC00114B984208D983039B0B834204D10020EB
:102CEC0080235B009A4215D8002D04D16319002073
:102CFC000A4A93420ED80020094B0A4AA6189E4253
:102D0C0008D972B62220211C3A1C2B1CFFF798FF05
:102D1C0062B6281CF8BDC046FFFD0300FFFF030090
:102D2C00FFFD01000000FEFF20B501280DD000289A
:102D3C0004D0022810D0032815D01AE00E48111C1C
:102D4C000622FFF771FF051C13E00C48111C1A1C1E
:102D5C00FFF76AFF051C0CE0081C111C1A1CFFF77E
:102D6C0063FF051C05E0081C111C1A1CFFF75CFF17
:102D7C00051C281C20BDC04600FE030000FF0300FC
:102D8C0038B5041E012C0AD0002804D002280DD01E
:102D9C00032808D00CE01448FFF762FF08E0134842
:102DAC00FFF75EFF04E09C256D0201E0E025ED01DC
:102DBC00023C012C17D806E020032818FFF776FFF9
:102DCC000134A4B200E000240B2CF5D9C0231B0263
:102DDC00ED18002405E020024019FFF741FF0134F3
:102DEC00A4B2072CF7D938BD00FE030000FF030086
:102DFC00E0B5151C1F1C012810D0002804D0022897
:102E0C0016D003281BD020E00020FFF7B9FF104894
:102E1C00291C0622FFF758FF061C16E00120FFF7BD
:102E2C00AFFF0C48291C3A1CFFF74EFF061C0CE0A8
:102E3C00081C111C1A1CFFF747FF061C05E0081C98
:102E4C00111C1A1CFFF740FF061C301CE0BDC046CD
:102E5C0000FE030000FF03000022014B1A607047C4
:102E6C00CC02002008B51F4B1A88013292B21A808E
:102E7C0000F0D8FFFFF722FD1B4B1B78002B0CD06A
:102E8C001A4A138801339BB21380632B05D9012294
:102E9C00174B1A700022154B1A80124B188880B2EF
:102EAC00FA21890001F0E4FE89B2002909D100223F
:102EBC000C4B1A800F4B1A88013292B21A80FEF713
:102ECC00D9FC0C4B188880B23C2101F0D1FE89B2A0
:102EDC00002906D10022074B1A80074B1A680132D1
:102EEC001A6008BDBE020020D5070020C0020020D9
:102EFC00CA020020C8020020C402002008B5064AFD
:102F0C001368591C1160222B04D9FFF7ABFF002268
:102F1C00014B1A6008BDC046CC0200207047C04669
:102F2C0008B5E1204002FDF75FFC08BDF8B5061CB2
:102F3C000F1C00230B70224D0AE0201C02F00CF831
:102F4C00021C301C211C02F00EF8002803D00435A2
:102F5C002C68002CF1D1002C30D0194BED1AAD108F
:102F6C00EDB22B2D0CD1337AFF200D2B27D1737A98
:102F7C000A2B24D1B11C381C062201F0A0FE1BE048
:102F8C002C2D15D103E0FA540133DBB200E0002301
:102F9C009A1CB25C0D2AF6D1F618F278FF200A2A98
:102FAC000DD1F91800220A700133FF183A7003E0B2
:102FBC00B11C381C01F0C8FF281C00E0FF20F8BD34
:102FCC0054000020F0B55F4656464D464446F0B4DA
:102FDC0099B0041C894601F0B1F8834600236A4677
:102FEC005E32138016930022484602704370837041
:102FFC00C370201CE54901F0CDFF041C002500F036
:10300C00D9FD201C05A9FFF791FF061C071EFF2FF9
:10301C0001D100F0B0FD05A98846081C01F09CFF09
:10302C0080B2824642461078002800D084E2B30079
:10303C00D74A99584846022201F041FE022398468D
:10304C00C844362E00D956E2B600D24B9B599F4647
:10305C005E46F27D337E707E8446B67E5946C87ECF
:10306C00097F8A4661460091019602905646039666
:10307C004046C94901F0BAFE49E25846027D437DFB
:10308C00817D00914046C54901F0B0FE3FE25946B2
:10309C000531404601F058FF39E263235946CA5CBA
:1030AC004046BF4901F0A2FE31E229235E46F25CA4
:1030BC004046BB4901F09AFE29E24046B84900223D
:1030CC0001F094FE23E24046B549002201F08EFE49
:1030DC001DE262235846C25C4046B14901F086FEAF
:1030EC0015E24D235946CA5C4046AD4901F07EFEBF
:1030FC000DE240235E46F25C4046A94901F076FEA3
:10310C0005E241235846C35C4222825C12021A43F8
:10311C004046A34901F06AFEF9E143235946CB5CD2
:10312C0044228A5C12021A4340469D4901F05EFE1D
:10313C00EDE135235A46D35C36225E46B25C120270
:10314C001A434046964901F051FEE0E15846427F51
:10315C00837FC07F20215E46715C009001914046C8
:10316C00904901F043FED2E125235846C25C262348
:10317C00C35C2721405C28215E46715C0090019164
:10318C004046884901F032FEC1E121235846C25C19
:10319C002223C35C2321405C24215E46715C009099
:1031AC00019140467F4901F021FEB0E1652358466C
:1031BC00C25C6623C35C6721405C68215E46715C1F
:1031CC00009001914046774901F010FE9FE1404686
:1031DC007549202201F00AFE99E1404672492022ED
:1031EC0001F004FE93E140466D49002201F0FEFD22
:1031FC008DE140466A496D4A01F0F8FD87E1404691
:10320C006949202201F0F2FD81E140466649202205
:10321C0001F0ECFD7BE158464379002B05D140468B
:10322C006149202201F0E2FD71E15A46053259460E
:10323C00837EC07E097F0090019140465C4901F07D
:10324C00D5FD64E12F235A46D35C30225E46B25C36
:10325C0012021A434046524901F0C8FD57E131238E
:10326C005846C35C3222825C12021A4340464C49D7
:10327C0001F0BCFD4BE164235946CB5C002B0FD114
:10328C002B23CA5C2C23CB5C2D215E46705C2E213B
:10329C00715C009001914046424901F0A7FD36E176
:1032AC006923CB5C002B05D140463F49202201F01D
:1032BC009DFD2CE140465946693101F045FE26E161
:1032CC0046235946CA5C4046354901F08FFD1EE144
:1032DC0047235E46F25C4046314901F087FD16E11A
:1032EC0048235846C25C40462D4901F07FFD0EE153
:1032FC0049235946CA5C4046294901F077FD06E14D
:10330C004A235E46F25C4046254901F06FFDFEE023
:10331C0033235846C35C3422825C12021A43404663
:10332C001F4901F063FDF2E037235946CB5C38228C
:10333C008A5C12021A434046194901F057FDE6E037
:10334C0039235E46F25C4046154901F04FFDDEE044
:10335C003A235846C25C4046164901F047FDD6E078
:10336C009B235946CA5C40460D4901F03FFDCEE017
:10337C009D235E46F25C9E23F35C9F21715C009161
:10338C0040460D4901F032FDC1E0C046D871000045
:10339C0054000020FC6C0000B46E0000D46E0000E1
:1033AC00E06E0000E46E0000F06E0000D60B000032
:1033BC00F46E00000C6F0000046F00004E235846A2
:1033CC00C35C002B05D14046C249202201F00EFD02
:1033DC009DE0404659464E3101F0B6FD97E058232A
:1033EC005946CB5C002B05D14046BA49202201F04E
:1033FC00FDFC8CE059465831404601F0A5FD86E0B5
:10340C0081231B021D4382E082231B021D437EE0AD
:10341C00B14B1B787722934302D010231D4376E0E7
:10342C0086231B021D4372E0AB4B1B787722934320
:10343C0002D020231D436AE086231B021D4366E055
:10344C00A54B1B787722934302D080231D435EE06B
:10345C0086231B021D435AE045235E46F25C920014
:10346C009E4BD158404601F06FFD50E02A23584640
:10347C00C25C92009A4BD158404601F065FD46E083
:10348C00954B1B78772293430FD02F235946CA5C58
:10349C003023CB5C1B021343012B03D184235B0130
:1034AC001D4334E088231D4331E086231B021D435A
:1034BC002DE09C235E46F25C40468A4901F096FC66
:1034CC0025E084235B011D4321E040468549002211
:1034DC0001F08CFC1BE0804B1B787722934306D0C9
:1034EC0001222A235846C25490231D430FE0862301
:1034FC001B021D430BE084231B021D432A23594648
:10350C00CA5C9200764BD158404601F01DFD764BBB
:10351C001D4203D000234A4613702FE3404601F0AE
:10352C001BFD40447149032201F0C9FB404601F0E8
:10353C0013FD8146C14421E367490B7877229343FD
:10354C0000D114E3362E00D90DE3B600684A935926
:10355C009F465E46F37D002B09D1337E082B06D1A6
:10356C00737EDC2B03D183231B021D4306E305A8CA
:10357C0060495A46173200F051FD002800D0FDE298
:10358C0085231B021D43F9E283231B021D43F5E235
:10359C0000F0F6FC5146012901D1012803D98523FD
:1035AC001B021D43EAE263235A46D054E6E200F0C4
:1035BC00E7FC5646012E01D1032803D985231B02B3
:1035CC001D43DBE229235946C854D7E200F0D8FC4E
:1035DC005246012A02D1012800D8CFE285231B02D2
:1035EC001D43CBE200F0CCFC5346012B02D1012849
:1035FC0000D8C3E285231B021D43BFE200F0C0FCD0
:10360C005646012E01D1012803D985231B021D43E7
:10361C00B4E262235946C854B0E200F0B1FC524601
:10362C00012A01D1012803D985231B021D43A5E2E0
:10363C004D235E46F054A1E200F0A2FC5146012954
:10364C0001D1012803D985231B021D4396E2402397
:10365C005A46D05492E205A8274916AA01F0E8FB75
:10366C00169B264A934203D985231B021D4385E2F0
:10367C009BB241225E46B3541B0A4222B3547DE2F4
:10368C0005A81D4916AA01F0D3FB169B1B4A9342B1
:10369C0003D985231B021D4370E29BB2432258467B
:1036AC0083541B0A4422835468E205A8124916AAC3
:1036BC0001F0BEFB169B114A934203D985231B02D2
:1036CC001D435BE29BB2352259468B541B0A3622B2
:1036DC008B5453E2F06E0000D10200203000002029
:1036EC0034010020E06E0000B080FFFFD8710000B4
:1036FC00D86D0000146F0000186F0000FFFF000071
:10370C0005A815A900F0B8FB00280BD015AB1A784A
:10371C005E4672775A78B2779A78F277DA78202305
:10372C00F2542BE285231B021D4327E205A815A9A1
:10373C0000F0A2FB00280ED015AB197825225846B4
:10374C008154597826228154997827228154DA7829
:10375C002823C25412E285231B021D430EE205A846
:10376C0015A900F089FB00280ED015AB1978212281
:10377C005E46B15459782222B15499782322B1541F
:10378C00DA782423F254F9E185231B021D43F5E179
:10379C0005A815A900F070FB00280ED015AB197800
:1037AC00652258468154597866228154997867224B
:1037BC008154DA786823C254E0E185231B021D434F
:1037CC00DCE151460E2903D985231B021D43D5E1AB
:1037DC00202803D100235A465371CFE15A460532B3
:1037EC0005A8BD4901F024FBC8E105A8BB4916AAF0
:1037FC0001F01EFB169BBA4A934203D985231B0288
:10380C001D43BBE19BB22F225E46B3541B0A3022F0
:10381C00B354B3E105A8B14916AA01F009FB169BF4
:10382C00AF4A934203D985231B021D43A6E19BB2E9
:10383C003122584683541B0A322283549EE105A838
:10384C0015A900F019FB002812D000226423594658
:10385C00CA5415AB19782B225E46B15459782C22D8
:10386C00B15499782D22B154DA782E23F25485E193
:10387C00012264235846C25405AB1B78202B03D17C
:10388C0000226923C25479E15846693005A901F038
:10389C005BFB73E105A893496A465E3201F0C8FAF6
:1038AC005146022904D86B465E331B880D2B03D975
:1038BC0085231B021D4361E146225E46B3545DE144
:1038CC0000F05EFB5146012901D1012803D9852363
:1038DC001B021D4352E147235A46D0544EE100F0DF
:1038EC004FFB5646012E01D1022803D985231B021A
:1038FC001D4343E148235946C8543FE100F040FBC7
:10390C005246012A01D1012803D985231B021D43EC
:10391C0034E149235E46F05430E100F031FB51466E
:10392C00012901D1022803D985231B021D4325E15E
:10393C0045235A46D35C012B04D100224A235E4610
:10394C00F2541BE14A23D05418E105A8634916AA86
:10395C0001F06EFA169B624A934203D985231B022F
:10396C001D430BE19BB233225E46B3541B0A342237
:10397C00B35403E105A8594916AA01F059FA169B4C
:10398C00574A934203D985231B021D43F6E09BB291
:10399C003722584683541B0A38228354EEE005A87C
:1039AC0050496A465E3201F043FA5146032904D865
:1039BC006B465E331B88FF2B03D985231B021D43EB
:1039CC00DCE039225E46B354D8E05046022804D1DC
:1039DC0005A800F0BBFA002803D185231B021D4368
:1039EC00CCE06E465E3605A83F49321C01F020FA49
:1039FC0033783A2259468B54002B03D100223E23B4
:103A0C00CA54BBE001223E23CA54B7E000F0B8FA16
:103A1C005146012901D1012803D985231B021D43DD
:103A2C00ACE09B235A46D054A8E05346062B0CD14D
:103A3C0005A800F08BFA002807D005A859469D313F
:103A4C0000F0BAFA002800D098E085231B021D4331
:103A5C0094E05646092E03D985231B021D438DE0A5
:103A6C00202804D100224E235846C25486E005A8D3
:103A7C0019495A464E3201F0DBF97FE051460929CB
:103A8C0003D985231B021D4378E0202804D1002292
:103A9C0058235E46F25471E05A46583205A80E4936
:103AAC0001F0C6F96AE005A80C4916AA01F0C0F9A4
:103ABC00169BC8221202934218D90022AB235846F7
:103ACC00C254AC23C254AD23C254AE23C25485237A
:103ADC001B021D4352E0C0461C6F0000186F000013
:103AEC00FFFF0000E06E0000206F0000AB22594683
:103AFC008B541B0AAC228B540022AD23CA54AE2328
:103B0C00CA540122A823CA5440231D434A7F8B7FE9
:103B1C00C87F20215E46715C009001912B49029177
:103B2C0048462B4901F062F928E000F029FA514689
:103B3C00012901D1012803D985231B021D431DE056
:103B4C009C235A46D05419E000F01AFA5346012B24
:103B5C0001D1012812D985231B021D430EE08123BC
:103B6C001B021D430AE084231B021D4306E086232F
:103B7C001B021D4302E084231B021D432BB2002BAE
:103B8C0013DA0023A370134EAA1912129200124BCF
:103B9C00D258FF2F03D0BF00104BFB5800E0231C62
:103BAC0048460F4901F022F908E000200D4901F0C8
:103BBC00F1F9041C002C01D0FFF723FA281C19B0D2
:103BCC003CBC90469946A246AB46F0BD52C30000A1
:103BDC00246F00000080FFFF3800002054000020FC
:103BEC003C6F0000D8710000F0B55F4656464D465C
:103BFC004446F0B499B0041C0E1C00F09FFA051C4E
:103C0C0000225C4B1A705C48FCF71CFE002800D1AB
:103C1C009DE0222800D0A2E0584B1A6892B20027EF
:103C2C00002A00D19EE06B465A3300930120211CE0
:103C3C0017ABFEF7D1F903041B0C013BE318002270
:103C4C001A70201C06A9FFF771F9031C00202B2BFE
:103C5C0000D088E006A84A49062201F021F8002885
:103C6C0006D1444B1978802252420A431A700DE057
:103C7C0006A8291C1731062201F012F8002870D171
:103C8C003C4B1978782252420A431A70394B002265
:103C9C009A560020002A66DAEB7D297E88466A7ED9
:103CAC009446AF7EE87E297F8A46AC2293463549FE
:103CBC0059440A684146009161460191029703906C
:103CCC0051460491301C304901F090F80A340A2214
:103CDC0092199046201C06A9FFF728F900272C28DA
:103CEC0040D106AB1B78202B03D15823EB5CBB4295
:103CFC0007D0291C583106A801F01CF90027002810
:103D0C0030D106A801F028F9021D4046211C00F014
:103D1C00D6FF06A801F020F9051D60194544291CA1
:103D2C00FFF750F9071C06A801F016F9041C281C13
:103D3C0001F012F922180E3292B26B465A331B88DC
:103D4C0000930120311C114BFEF766F80AE00120AC
:103D5C0002210F4A0023FDF705FE002702E0002791
:103D6C0000E00027381C19B03CBC90469946A2468E
:103D7C00AB46F0BDD10200203000054624020546BA
:103D8C00446F0000540000204C6F0000606F000076
:103D9C0051C3000038B500F0D1F9051C1D481E496F
:103DAC00FFF722FF041C020408D54D23EB5C012B0A
:103DBC002ED11A48211C00F093FF29E0002827D0AF
:103DCC00030702D5FEF79EFC0FE0C20602D500F0F9
:103DDC00F7FA0AE0C30408D5114800F0FDFF0020F3
:103DEC00FEF7CEFF0120FEF7CBFF62060CD50420B8
:103DFC00FEF7D0FD80280BD101222A23EA5400F0D3
:103E0C00DFFAFEF79BFC03E0230601D5FEF796FCD8
:103E1C0038BDC046D4040020D4020020686F0000D6
:103E2C00207300000F4B1B78002B1AD00E4B1A88F6
:103E3C0092B20E4B9A4205D00B4B1A88013292B2B9
:103E4C001A8002E00022084B1A80074B1A8892B2A3
:103E5C00074B9A4205D90122064B1A700022024BDD
:103E6C001A807047D6060020D4060020FFFF000001
:103E7C00973A0000D0020020F0B55F4656464D46FA
:103E8C004446F0B485B08046019101F065F8C0B2AB
:103E9C00009003AB00221A809A70031C073B002091
:103EAC00082B4AD800220025002427498A460423DF
:103EBC00994603AE2DE047463B5D57463F68F918DF
:103ECC0049784F460F420DD09100521852009A1863
:103EDC00303A92B2FF2A27D8411CC9B23354032975
:103EEC0014D923E02E2B23D1FF2A23D80135EDB290
:103EFC00042D21D86B1E019FFF18301C00F0C4FE4E
:103F0C00387000233380B370002100220134E4B2F6
:103F1C00081C009FBC42CED3019F7D1903A800F062
:103F2C00B3FE2870012008E0002006E0002004E029
:103F3C00002002E0002000E0002005B03CBC9046D0
:103F4C009946A246AB46F0BD60010020F8B5051CB1
:103F5C0000240A4F442607E02B5D3A68D3185B789F
:103F6C001E4208D00134E4B2281C00F0F5FF844254
:103F7C00F2D3012000E00020F8BDC0466001002013
:103F8C00FF23102814D90B4B1B681B185B785A079E
:103F9C0002D53038C0B20AE0031C283B3E2B02D8B5
:103FAC005138C0B203E0472801D93138C0B2031CE4
:103FBC00181C704760010020F8B5041C0E1C00F0A2
:103FCC00CBFFC2B294460023C20724D46246102A07
:103FDC0021D82378002B1ED00022002318E0191CB6
:103FEC00E05C392802D93738C7B201E03038C7B2A3
:103FFC0061184878392802D93738C1B201E0303815
:10400C00C1B2551C38010843B0540233DBB2EAB2DA
:10401C006345E4D30123181CF8BDC046F0B55746E0
:10402C004E464546E0B484B0061C8846924600F0E5
:10403C0093FFC0B23378002B2ED0002311282BD144
:10404C00002401ADA1461DE0271C6100091971185F
:10405C00281C032200F033FEA978002904D0404626
:10406C0000F05CFF002816D04B46AB70281CFFF705
:10407C006DFF031E10D002ABD919281CFFF79CFF53
:10408C000134E4B2052CDFD9504602A9062200F017
:10409C0016FE012300E00023181C04B01CBC904643
:1040AC009946A246F0BDC04610B586B000F046F861
:1040BC00041C68460630FDF7E5FB68460E30FDF73C
:1040CC00EDFB68460A30FDF7F5FB68461230FDF74C
:1040DC00FDFB211C17316846062200F07BF9201CE1
:1040EC001D3069460631042200F078F9201C21307D
:1040FC0069460E31042200F071F9201C2530694606
:10410C000A31042200F06AF9201C6530694612312C
:10411C00042200F063F96323E35C002B03D0022339
:10412C006A46937502E001236A469375002069463E
:10413C00FEF7BEFA06B010BD7047C0460048704787
:10414C00D8060020F0B557464E464546E0B47B4CA9
:10415C00F92323800025A5700126E6702571671DC3
:10416C00381C00210F2200F0B3FD381C74490922C1
:10417C0000F0A5FD267566750221A175C022627737
:10418C00A8208046A0770B23E377202021542121FF
:10419C0062542221404660542321635424216654E6
:1041AC00FF21252021542620215427202154282169
:1041BC006554292166542A2166542B218946625460
:1041CC002C224146A1542D22A35403222E23E25427
:1041DC0078235B422F22A3541322132030216054E6
:1041EC003121635432216254002033216054342134
:1041FC006054482040423521605436210B206054D5
:10420C0000203721605438216054392165543A21FB
:10421C0065543B2165543C2165543D2165543E2138
:10422C0065543F2165544021665458204121605407
:10423C001B2042216054432163544423E254452300
:10424C00E5540C2292464623E2544723E654482375
:10425C00E5544923E5544A23E5544B23E5544C23B8
:10426C00E5544D23E654231CA565E565583300271A
:10427C001D81231C4E331D805D809D80DD801D8142
:10428C006223E7546323E7546423E754082365222D
:10429C00A3546622A3546722A3546822A354201C5F
:1042AC0069300021322200F013FD9B23E6549C233D
:1042BC00E7549D234946E1549E23E1549F23E15446
:1042CC00A0230F22E252A223E652A4235246E2522A
:1042DC00A623E5524346E7545222A923E2543D2239
:1042EC005242AA23E2540022AB23E254AC23E058FE
:1042FC00020E1206E2505022B023E252B2230122E7
:10430C00E254251CB335281C00211E2200F0E0FCD1
:10431C00281C0C49132200F0D2FCD134201C0021A3
:10432C00282200F0D5FC201C0749202200F0C7FCF5
:10433C001CBC90469946A246F0BDC046D80600204B
:10434C00E0700000EC7000000071000010B500F08F
:10435C0069F9194C01200021221CF923FEF7E4FC19
:10436C00221C1732002000210623FEF7DDFC2288D8
:10437C00013A92B2114B9A4207D9FFF7E3FE0120A2
:10438C0000210D4AF923FEF733FD0B4B01221A7560
:10439C005A7502229A754A229B5C033B012B04D866
:1043AC0001214523044AD15404E000F045F945238A
:1043BC00014AD05410BDC046D8060020FDFF0000B5
:1043CC0008B501200021024AF923FEF711FD08BDB2
:1043DC00D806002008B500F072FC08BD08B500F046
:1043EC006EFC08BDF0B58BB0FFF7A8FE051C04AC45
:1043FC000120211CFEF75CF921786278A378E7781C
:10440C0026796079009701960290384800F068FC94
:10441C00A179E279237A667A2F202F5C3020285CF0
:10442C000002384300960190314800F059FCA17B02
:10443C00E27B237C607C00902E4800F051FCA17A3A
:10444C00E27A237B607B00902B4800F049FCA17C36
:10445C00E27C237D607D0090284800F041FC2923FC
:10446C00EB5C012B3DD06423EB5C012B0BD1291CA5
:10447C0069313123EB5C3222AA5C12021A432048C8
:10448C0000F02EFC2DE02B23E95C2C23EA5C2D2381
:10449C00EB5C2E202C5C31202E5C3220285C000240
:1044AC00304300940190174800F01AFC2923EB5C70
:1044BC00032B16D12B23EB5C002B0FD12C23EB5CA5
:1044CC00002B0BD12D23EB5C002B07D12E23EB5CA7
:1044DC00002B03D10C4800F07FFC02E00B4800F0ED
:1044EC007BFC0B4800F078FC0BB0F0BD2071000099
:1044FC00487100006C710000847100009C71000018
:10450C00B4710000DC710000087200001C72000025
:10451C002073000010B586B0FFF710FE041C011CC0
:10452C00173168460622FFF755FF211C1D316846DE
:10453C0006300422FFF74EFF211C213168460E3055
:10454C000422FFF747FF211C253168460A3004225C
:10455C00FFF740FF211C6531684612300422FFF73B
:10456C0039FF6323E35C002B03D002236A46937567
:10457C0002E001236A46937500206946FEF798F81D
:10458C0006B010BD08B50120FEF7C8FC6123084A2F
:10459C001360084A13608620C0058021C90180225F
:1045AC001202FCF791FA0020FEF7B8FC08BDC046D9
:1045BC0070300041543000410223024A1360024A19
:1045CC0013607047701100410820004108B5842029
:1045DC00C0058021890000220123FCF7BFF808BD2B
:1045EC0010B58424E405201C022100220123FCF7D1
:1045FC00B5F80223636110BD38B500248425ED05A0
:10460C000AE0281C0221FCF737F8002808D1052005
:10461C0000F0C6FA0134E4B2042CF2D9002000E018
:10462C00012038BD08B58820C00540210022012397
:10463C00FCF794F808BDC04608B58820C005402199
:10464C00FCF71AF808BDC04638B58824E405802567
:10465C00ED01201C291C00220123FCF77FF8656169
:10466C0038BDC04608B58820C0058021C901FCF7BB
:10467C0003F808BDF0B583B0041E012C17D8420016
:10468C000C4BD55A009501236A4613710A4E8700CC
:10469C00B8596946FBF766FF084B185D084B1A5D65
:1046AC00291CFCF709F8B859291CFBF7EBFF03B0E0
:1046BC00F0BDC046307200005801002050010020AF
:1046CC005401002008B5FFF75DFFFFF789FFFFF7E6
:1046DC0093FF42424241064B1A70FFF777FFFFF7F8
:1046EC00B3FF0020FFF7C6FF0120FFF7C3FF08BD93
:1046FC00D407002008B5012808D88200044BD358F1
:10470C004000044A815A181CFBF7C8FF08BDC0467C
:10471C005801002030720000012808D88200044B98
:10472C00D35859684000034A825A4A405A6070472D
:10473C0058010020307200007047C0467047C046D8
:10474C007047C0467047C0467047C0467047C04669
:10475C007047C0467047C0467047C0467047C04659
:10476C007047C0467047C0467047C0467047C04649
:10477C007047C0467047C0467047C0467047C04639
:10478C007047C0467047C0467047C0467047C04629
:10479C007047C0467047C0467047C0467047C04619
:1047AC007047C0467047C0467047C0467047C04609
:1047BC0008B5FFF701FF054A0020111CFBF7BEFEF0
:1047CC00FEF74AFBFEF7ACFB08BDC04600127A00B0
:1047DC0010B584B00F4C02A8211C082200F06FFA0F
:1047EC006846211C082200F06AFAFBF717FE0A49FA
:1047FC0000F0FAF9094B1860002008230370084BED
:10480C004380FDF739FF02A86946FDF7C7FD04B0E8
:10481C0010BDC04634720000102700000020004676
:10482C00C409000008B54368026882F308889847F9
:10483C0008BDC04638B503200E49FCF75DFF0E4994
:10484C00081C0E4AFCF72AFA0025FCF76DFE041E24
:10485C00042C0DD0002801D10135EDB2032D02D965
:10486C00FCF7C2FD04E0FFF795FAFEF747FBECE717
:10487C0060B238BDFC070020B54000004541000087
:10488C0070B582B0FFF75AFC041C0E4800F0A4FA75
:10489C000D4E0E4D301C291C00F022FA0C4800F075
:1048AC009BFA0C4800F098FA217D627DA37D0A48A2
:1048BC0000900A4800F014FA301C291C00F010FA81
:1048CC0002B070BD20730000C87200003C72000082
:1048DC00707200007C720000D0720000A4720000A4
:1048EC0008B5FFF72BFC6323C35C002B0DD0074BE3
:1048FC001B78012B06D1FCF7F5FF011C044800F0D6
:10490C00EFF902E0034800F067FA08BDD607002073
:10491C00D872000000730000F0B58FB0FFF70EFCEA
:10492C00041C00230C930CAA938006A906930793EE
:10493C00089309930A938B82009301930293039338
:10494C0004936A469382C37D0120FF2B5BD1237EA7
:10495C00FF2B58D1637EFF2B55D10CAD00200021CD
:10496C002A1C0023FEF7E0F92B78FF2B3ED10CAA72
:10497C005278FF2A3AD10CAA9278FF2A36D1882293
:10498C00224B1A70224F0026381C00F025FA351CD9
:10499C0005E0FBF74BFF06AB58550135EDB2142D76
:1049AC00F7D906A86946FEF70DFB00280ED1FEF7D5
:1049BC00E7F9221C17320020011C031CFEF718FA21
:1049CC00FFF7C0FBFFF7FCFC01201CE04D23E35C70
:1049DC00002B03D00F48694600F082F906AB06960F
:1049EC000796089609960A969E82CDE7E3750CAB5E
:1049FC005A7822769A786276DA78A2761A79E27602
:104A0C005B79237700200FB0F0BDC046D1020020A7
:104A1C0010730000C872000000B5C1B0002303E0A1
:104A2C001A786946CA540133072BF9D9082304E0D4
:104A3C00C21812786946CA540133A72BF8D9A82397
:104A4C0003E01A786946CA540133FF2BF9D972B6C0
:104A5C001220002100220023FEF7F2F82220002170
:104A6C006A4680235B00FEF7EBF862B641B000BDEE
:104A7C00F8B5FFF763FB041CFFF79AFEFFF7A8FEDF
:104A8C00FFF720FEFFF762FCFFF746FF002803D07C
:104A9C00E020C001FFF7C0FFA823E35C012B18D175
:104AAC000220FDF777FF802813D10022A823E254BF
:104ABC00AB23E254AC23E254AD23E254AE23E254D4
:104ACC0001222A23E254FFF77BFCE020C001FFF710
:104ADC00A3FFE023DB011D6801356B1E9D41012DF9
:104AEC0011D12A23E35C002B06D101222A23E254A4
:104AFC00FFF766FC002506E0FFF7B4FD031C581E0B
:104B0C0083415B421D40012D03D1E020C001FFF722
:104B1C0089FE00222A23E2544D23E35C002B01D0B2
:104B2C00FFF7AEFE6323E35C002B0AD0FFF782FE97
:104B3C00042803D10122174B1A7004E0FFF7EAFC9A
:104B4C0001E0FFF7E7FC4D23E35C002B03D0FFF7FC
:104B5C0049FCFFF7C5FE01220F4B1A700020FFF72E
:104B6C00C9FD63260D4D2F1CFFF714F9A35D002B17
:104B7C0001D0FCF7D9FC2B78002B07D00020FFF7D5
:104B8C00CBFD0120FFF7C8FD00233B70FEF7B6F903
:104B9C00EAE7C046D6070020D5070020CA0200204D
:104BAC0000B585B00190FBF739FC074900F01CF803
:104BBC00019B5843039002E0039B013B0393039B2F
:104BCC00002BF9D105B000BD1027000070B50E1CEC
:104BDC00151C002403E0305DFBF722FE0134A542D6
:104BEC00F9D8281C70BDC046002934D001230022FE
:104BFC0010B488422CD301242407A14204D2814250
:104C0C0002D209011B01F8E7E400A14204D281425F
:104C1C0002D249005B00F8E7884201D3401A1A43DC
:104C2C004C08A04202D3001B5C0822438C08A04213
:104C3C0002D3001B9C082243CC08A04202D3001BC9
:104C4C00DC082243002803D01B0901D00909E3E743
:104C5C00101C10BC7047002801D00020C04307B4C2
:104C6C00024802A14018029003BDC0461900000082
:104C7C000029F0D003B5FFF7B9FF0EBC4243891AE7
:104C8C001847C0467047C04608B500210A2200F0FC
:104C9C006BFA08BD014B18687047C046C401002070
:104CAC0030B50023934208D0C55C0133CC18013CCD
:104CBC002478A542F6D0281B00E0002030BD10B5AA
:104CCC000023934203D0CC5CC4540133F9E710BDEC
:104CDC00031C8218934202D019700133FAE7704713
:104CEC000FB40B4B13B51C68002C05D0A369002B1B
:104CFC0002D1201C01F0D8FB05ABA168201C049A42
:104D0C00019300F0A9FD16BC08BC04B01847C046BE
:104D1C00C401002070B5051C0E1C002804D082694B
:104D2C00002A01D101F0C0FBAC68A3891A0702D597
:104D3C002369002B19D1281C211C01F027FA00280B
:104D4C0013D00120404245E03178002B1BDAA269D8
:104D5C00934211DA281C221C01F0ACF901304342B9
:104D6C005841C0B20028ECD10136A3683278013B1F
:104D7C00A360002AE8D10CE0236819702368197825
:104D8C000A2903D1E6E722681170236801332360F6
:104D9C00EAE7002B17DAA269934208DB22680A23A0
:104DAC001370236819780A2911D1281C01E0281CDA
:104DBC000A21221C01F07EF9013043425841C0B255
:104DCC00002806D0BDE722680A231370236801333C
:104DDC0023600A2070BD000008B5034B011C186845
:104DEC00FFF798FF08BDC046C40100200EB400B503
:104DFC009CB01DAB04CB822202A992008A810A4A84
:104E0C0002908A604A6101225242CA81074A0861B3
:104E1C0010681D9A019300F015FA029A0023137082
:104E2C001CB008BC03B01847FFFFFF7FC401002073
:104E3C000EB430B59CB01FAD08CD812302AC9B00E5
:104E4C00A3810290069000F087F80B4B60606362C0
:104E5C0000236363A36401235B42E381074B60611E
:104E6C00211C18681F9A2B1C019500F037FB1CB0F5
:104E7C0030BC08BC03B01847B54E0000C40100207C
:104E8C0038B50C1C0E25495F01F0D2FC002803DB61
:104E9C00626D1318636503E0A289024B1340A38172
:104EAC0038BDC046FFEFFFFF00207047F8B51E1C51
:104EBC008B89051C0C1C171CDA0505D50E23C95E45
:104ECC000022022301F060FBA289054B281C134031
:104EDC00A3810E22A15E331C3A1C01F043F9F8BDEC
:104EEC00FFEFFFFF38B50C1C0E25495F01F04CFBA2
:104EFC00A389421C03D1054A1340A38104E08022FC
:104F0C0052011343A381606538BDC046FFEFFFFF1C
:104F1C0008B50E23C95E01F0ABF908BDC9B2037820
:104F2C00002B03D08B4204D00130F8E7002900D0CD
:104F3C00181C704702780B7801300131002A01D01F
:104F4C009A42F7D0D01A7047031C0A7801311A70B4
:104F5C000133002AF9D170470023C25C0133002AC7
:104F6C00FBD1581E7047031C002010B582420FD095
:104F7C001C780878A04201D1012A03D118780B784B
:104F8C00C01A05E0013A0028F8D001330131EFE7EF
:104F9C0010BD0000F8B5174B071C1D680E1CAC6D3E
:104FAC00002C1FD1502001F053FBA8658460AB6D21
:104FBC00046044601C61DC60AB6D9C615C61AB6D3A
:104FCC00DC629C62AB6D5C631C63AB6DDC639C63ED
:104FDC00AB6D5C641C64AB6DDC649C64AB6D1C776A
:104FEC00AB6D5C62AA6D381C311C012300F004F817
:104FFC00F8BDC046C4010020F0B5002802D11068ED
:10500C00002826D00578441C0E1C3778002F09D0B8
:10501C000136BD42F9D1002B01D0201CF2E71460FF
:10502C00037016E0002D09D11560281C11E02F78B3
:10503C00B74207D00135002FF9D11C1C631C267810
:10504C000D1CF4E7002E02D00021217000E0331C6F
:10505C001360F0BDF0B51D1C424B87B01B6805906A
:10506C000293039101920B1C1C78029F5E1C3A194F
:10507C00517808220A4001D0331CF5E72D2C04D1BD
:10508C0001279E1C5C78009704E000922B2C01D128
:10509C005C789E1C10232A1C9A4311D1302C08D109
:1050AC00327820218A43582A07D174781D1C023685
:1050BC0006E0002D04D10A2502E0002D00D10825C0
:1050CC00009F291C7B427B4180273F06FF1A381C1E
:1050DC00FFF7CEFD381C0491291CFFF785FD00233A
:1050EC00021C181C029F391949784F0701D5303C16
:1050FC0007E003270F4017D05721012F00D137218C
:10510C00641AAC4210DA591C0BD0904207D802D169
:10511C00049FBC4203DC68430123201801E00123F7
:10512C005B4234780136DDE7009F591C0BD180209F
:10513C007B427B410006059FC01A22233B60019FE6
:10514C00002F09D10BE0002F00D04042019F002F0F
:10515C0005D0039A002B00D0721E019F3A6007B055
:10516C00F0BDC0466001002038B5131C044A051C74
:10517C000C1C1068291C221CFFF76CFF38BDC046A4
:10518C00C4010020F0B58D6885B0071C0C1C03927F
:10519C000193AB4245D390228B89D20013423DD070
:1051AC0062690326564309692068F20F401A961962
:1051BC000290021C0198013212187610964200D20D
:1051CC00161C381C5A050FD5311C01F0B7FA051EF8
:1051DC0013D0029A2169FFF772FDA289184B134074
:1051EC0080221343A38111E0321C01F0FBFA051E4F
:1051FC000CD1381C216901F059FA0C233B60A389AE
:10520C00402213430120A381404217E0029B2561F9
:10521C00ED1825606661019DF61AA6600198A842FA
:10522C0000D2019D2A1C2068039901F026FAA2687D
:10523C000020531BA36023685D19256005B0F0BDE9
:10524C007FFBFFFFF0B59FB0039005938B890E1C7D
:10525C00171C19060FD53269002A0CD1402101F018
:10526C006DFA30603061002803D103990C230B6078
:10527C00C9E04023736106AD00236B6120236B767C
:10528C003023AB763C1C2378002B03D1E21B02921B
:10529C0011D003E0252BF9D00134F4E70398311C2D
:1052AC003A1C029BFFF76EFF013000D1A6E0696942
:1052BC00029A8B186B612378002B00D19EE001229F
:1052CC0052426A606A4600235B3201342B60EB6009
:1052DC00AB601370AB654E4F2178381C052201F082
:1052EC00C1F9002807D0C71B2B680120B840184310
:1052FC0028600134EFE72B68D90603D56A462021D4
:10530C005B3211701A0703D56A462B215B32117080
:10531C0022782A2A01D0099B0EE0059A111D1268E9
:10532C000591002A01DB099204E05242EA60022254
:10533C0013432B60013409E02278303A092A04D84F
:10534C000A214B4301349B18F6E7099323782E2B43
:10535C0018D163782A2B09D1059B02341A1D1B68BE
:10536C000592002B0DDA01235B420AE00134002385
:10537C002278303A092A04D80A214B4301349B186D
:10538C00F6E70793234F2178381C032201F06AF9C2
:10539C00002806D0C71B2B684020B8401843286053
:1053AC00013421781C480622671C297601F05AF931
:1053BC00002812D0194B002B06D1059B072207336E
:1053CC0093430833059314E005AB00930398291C11
:1053DC00321C134B00E000BF07E005AB00930398B1
:1053EC00291C321C0E4B00F0B3FB049004990131C4
:1053FC0004D06A69049953186B6143E7B3895A0660
:10540C0001D40B9801E0012040421FB0F0BDC04612
:10541C002C74000032740000367400000000000090
:10542C009151000038B5141C4B1C02D10120404294
:10543C0034E0938920229343A381636BCDB26268DD
:10544C00002B0FD0A36B9A4206DA2368013B236032
:10545C001D70636801331FE0211C00F097F90028D0
:10546C00F3D0E3E721692368002909D08B4207D9DF
:10547C00591E0878A84203D10132216062600DE008
:10548C00E363231C443363630323A363231C46336A
:10549C0022641D70236001236360281C38BD10B585
:1054AC000C1C496B00290ED0231C4433994201D0AB
:1054BC0001F0FCF8236C002060636360834202D02F
:1054CC00E36B236009E023692022236000236360DF
:1054DC00A38901201343A381404210BDF0B5A54C14
:1054EC00071CA5440193002300924693A24A4793BC
:1054FC00BE235B000C1C43A9CA50A04AC02303A8BE
:10550C005B004890CA50009A1578002D00D128E114
:10551C009B4E306843195A78082313401FD061689A
:10552C0000290FDD236830681A7882185278110729
:10553C0011D5479A01330132479262682360013AD0
:10554C006260ECE7C0235B0043AAD358381C211CD3
:10555C0098470028E6D0009E01360096D3E7009EBF
:10556C000136252D4CD100984593439343782A2B33
:10557C0003D11023061C43930236351C29780B1CCF
:10558C00303B092B07D8459A0A235343303B591813
:10559C0045910135F2E77B4E0322301C01F062F895
:1055AC00002806D0861B439B0120B0401843439033
:1055BC0001356E1C2D78672D0FD8652D77D25B2D9C
:1055CC0051D005D8002D00D1CDE0252D18D070E09C
:1055DC00632D54D0642D3DD06BE0702D2FD007D8A7
:1055EC006E2D52D038D8692D63D10023449338E006
:1055FC00752D2FD0782D26D0732D5AD102233CE057
:10560C00606800280DDD23681A78AA4200D0A8E053
:10561C00013362682360479B013A01336260479310
:10562C009BE7C02343A95B00CB58381C211C98472F
:10563C000028E8D04698002800D08EE093E0439AEA
:10564C00202313434393439880239B0003434393AA
:10565C00102302E00A2300E00823449304236E2D58
:10566C000BDC032309E0311C03A801F007F9439973
:10567C0040230B434393061C012349931DE0439A9B
:10568C004023134343930023F7E74399CB0600D5FC
:10569C0063E7019B479AC80704D5191D01911B6844
:1056AC001A805AE7191D01911B681A6055E70523EA
:1056BC00E3E7032349930A2344936168002903DD3C
:1056CC00439A520614D51BE0C02343A85B00C35871
:1056DC00211C381C98470028F2D0ABE7479A0132BE
:1056EC0047926268013A6260002A13DD013323603D
:1056FC00236823491A7809688A1852781007EDD460
:10570C00499B022B10DC381C43A9221C01AB00F076
:10571C0035FB1CE0C02343A95B00CB58381C211C73
:10572C0098470028E4D085E7042B06DC381C43A9F5
:10573C00221C01AB00F086FB09E0134B002B00D1BF
:10574C000BE7381C43A9221C01AB00E000BF012869
:10575C0007D0022800D000E76CE7A389590604D5CE
:10576C0001E0469801E001204042A5239B009D44A6
:10577C00F0BDC0466CFDFFFF31540000AB5400007F
:10578C00600100203274000000000000F7B50B1C13
:10579C004D6B44330C1C9D421BD18026F600311CF2
:1057AC0000F0CCFF002802D10120404225E0231C50
:1057BC006063A66346331A78104BC254231C4533DE
:1057CC001A780F4BC2542A780E4BC254C018206062
:1057DC0012E08E6B291C73001A1C019301F002F865
:1057EC00051EE1D08719381C291C321CFFF767FAFB
:1057FC00019B27606563A3630020FEBDFF030000CF
:10580C00FE030000FD030000936810B5013B93609C
:10581C00002B05DA9469A34208DBCBB20A2B05D026
:10582C001368581C10601970C8B201E000F042FCFB
:10583C0010BDF8B5061C0F1C141CD518AC4208D0B2
:10584C002178301C3A1CFFF7DFFF0134431CF5D1E3
:10585C0000E00020F8BD0000F0B59FB0061C0F1C46
:10586C0003920593002804D08169002901D100F02E
:10587C001BFE754B9F4201D1776808E0734B9F422A
:10588C0001D1B76803E0724B9F4200D1F768BB8926
:10589C001A070AD53B69002B07D006AD00236B61B4
:1058AC0020236B763023AB763BE0301C391C00F0A8
:1058BC006DFC0028F1D001204042C2E0059A111D78
:1058CC0012680591002A76DB0992013423782E2B7D
:1058DC0000D181E021785F48032200F0C3FE00284C
:1058EC0007D05C492A68431A40209840104328602E
:1058FC0001342178631C584806220393297600F062
:10590C00B1FE002800D18AE0544B002B7ED1059BC0
:10591C00072207339343083305936A690499531894
:10592C006B61039C2378002B04D10399611A0291BB
:10593C0010D003E0252BF8D00134F3E7301C391CD0
:10594C00039A029BFFF775FF013075D06A690299C3
:10595C0053186B612378002B6ED0012252426A607F
:10596C006A4600235B3201342B60EB60AB60137032
:10597C00AB6521783A48052200F074FE002808D067
:10598C00374A0134831A012098402B681843286049
:10599C00EFE72B68D90603D56A4620215B321170DC
:1059AC001A0703D56A462B215B32117022782A2AFA
:1059BC0084D0099B05E05242EA60022213432B601B
:1059CC0083E72278303A092A04D80A214B43013460
:1059DC009B18F6E7099379E763782A2B09D1059B85
:1059EC0002341A1D1B680592002B0DDA01235B4251
:1059FC000AE0013400232278303A092A04D80A211B
:105A0C004B4301349B18F6E7079363E705AB009310
:105A1C00301C291C3A1C134B00E000BF07E005ABFF
:105A2C000093301C291C3A1C0E4B00F091F804908A
:105A3C000499013100D070E7BB895A0600D53AE7CA
:105A4C000B981FB0F0BDC04688740000A87400000D
:105A5C00C8740000327400003674000000000000AE
:105A6C002C7400003F580000F7B5151C01930A690F
:105A7C008B68061C0C1C934200DA131C221C2B6036
:105A8C0043321278002A01D001332B602068800643
:105A9C0002D52B6802332B60216806270F401FD0DC
:105AAC00231C43331B785A1E9341226892061FD540
:105ABC00E11840313020C870211C5A1C453109783E
:105ACC00A21840320233D17012E0221C301C019912
