:1000000000400020B9010000BD350000C1350000EE
:1000100000000000000000000000000000000000E0
:10002000000000000000000000000000C5350000D6
:100030000000000000000000C9350000CD350000C0
:10004000D1350000D5350000D9350000DD35000080
:10005000E1350000E5350000E9350000ED35000030
:10006000F1350000F5350000F9350000FD350000E0
:100070000136000005360000093600000D3600008C
:100080001136000015360000193600001D3600003C
:100090002136000025360000D50100002936000079
:1000A0002D3600003136000030B583B0314B324A76
:1000B0001360324A1360324B02E000221A600433AC
:1000C000304A9342F9D32C4B1B68002B03D12B4BA6
:1000D0001B68002B00D0FEE7264B2B4A13602B4AEF
:1000E00013602B4B2B4A03E0116819600433043270
:1000F00029498B42F8D3244B1A68284B9A4204D1E1
:10010000224B1A681B689A4200D0FEE700F0CCF838
:10011000694601A800F098F8214C224B1C1BA41042
:10012000002504E0AA001E4BD35898470135AC4285
:10013000F8DC1D4C1D4B1C1BA410002504E0AA007C
:10014000194BD35898470135AC42F8DC0099019817
:1001500003F092FB0500164C164B1C1BA41004E088
:10016000013CA200124BD3589847002CF8DC280021
:1001700000F046F8BABADECA9C0100201017002031
:100180009C0100201417002000000020980100208E
:1001900000000020B86200009C0100207856341254
:1001A0000002000000020000000200000002000047
:1001B000000200000002000010B5FFF775FFC04606
:1001C000FEE7C046FEE7C046FEE7C046FEE7C04683
:0801D000FEE7C046FEE7C04651
:1001D800B8620000000000209C010020B862000006
:1001E80000000010000000109C01002014170020DF
:0801F8000000001000000010DF
:10020000FEE7C04610B503000C4A1268002A02D16E
:100210000B490A4A1160094A1068033303229343C9
:10022000C318084A934206D903F052FC0C2303601A
:100230000120404201E0014A136010BDA0010020EE
:10024000141700200038002001230360014B0B60CD
:100250007047C0460400002010B503F039FC582355
:1002600003600120404210BD10B503F031FC58235B
:1002700003600120404210BD10B503F029FC582353
:100280000360002010BDC04610B503F021FC5823C8
:1002900003600120404210BD10B503F019FC582343
:1002A00003600120404210BD10B500F00DF810BDF4
:1002B000014B18687047C046A8010020014B186820
:1002C0007047C046AC01002010B5134B1A68134BA1
:1002D0001A60134B1A68134B1A60134B00221A62F0
:1002E0005A6901200240040094405A6952080240B1
:1002F00094405969090A3F2211405869000C104086
:100300000A4B584303F04CFBFF21214003F048FB0C
:10031000074B186010BDC046B8FD03001012004125
:10032000BCFD0300041000410010004100127A00DF
:10033000A801002070B50C00012803D101211F4B3A
:10034000196203E000211D4B19621D4C21001000B1
:1003500003F026FBC3B2012B08D8184B0122DA6147
:10036000184A5A610125012101201BE0134B00228C
:10037000DA610004FC2292031040802252001043F4
:1003800058615A6901210A400D0095405A69520886
:100390000A409540EDB25969090A3F221140586957
:1003A000000C1040084B1C60604303F0F9FA290070
:1003B00003F0F6FA054B186070BDC046001000410E
:1003C00000127A0000010200AC010020A801002008
:1003D00010B5054B1C68054B1C60054B1C68054B94
:1003E0001C60FFF7A7FF10BDB8FD0300101200410D
:1003F000BCFD03000410004170B58423DB05984266
:1004000005D08623DB05984203D12C4D02E02C4D0C
:1004100000E02C4D00224EE0012393400C681C406C
:10042000A34247D10C79012C03D104692343036112
:1004300000E043614B799B0709D593005C59032683
:10044000B4435C515E59022434435C5108E093008C
:100450005C590326B4435C515E59012434435C511A
:100460004B795B0705D594006659042333436351E8
:1004700004E0940063590426B34363514B799B060F
:1004800005D59400665920233343635104E094005A
:1004900063592026B34363514B795B0605D594001D
:1004A000665940233343635104E094006359402666
:1004B000B343635101320F2AAED970BD40300041C1
:1004C0000030004180300041034B03600023037182
:1004D000623343717047C046FFFF000003680B4260
:1004E00001D0012000E000207047C046CBB20133AC
:1004F000FF339B0019500B0A8022920094466344FC
:100500009B0019507047C046CBB2CA430133FF333A
:100510009B001A50090A80239B009C466144890075
:100520000A507047F0B5002325E001249C400C429E
:1005300020D0002809D1114C9D002E590327BE431D
:100540002E512E5916432E5114E0012809D10C4C7E
:100550009D002E590327BE432E512E5916432E516E
:1005600008E0084C9D002E590327BE432E512E59FA
:1005700016432E5101330F2BD7DDF0BD0020004173
:100580004020004180200041F0B583B004000D0000
:1005900017001E006846FFF797FF00956B461F7116
:1005A00069462000FFF728FF8423DB059C4205D124
:1005B000320029000020FFF7B5FF0EE08623DB059F
:1005C0009C4205D1320029000120FFF7ABFF04E077
:1005D000320029000220FFF7A5FF03B0F0BDC0469E
:1005E00010B50400094B1B6B022B03D0074B1B6B90
:1005F000032B02D1FFF762FE01E0FFF759FE210055
:1006000003F0CEF9024B186110BDC0460010004146
:100610000060004010B5FFF7E3FF04498A68032338
:100620009A4313438B60002010BDC0460060004019
:10063000034B5B68DB07FBD4014B18607047C04677
:1006400000600040014B186880B2704700600040B5
:1006500010B5040080B2FFF7EBFF200010BDC046CC
:1006600010B5044B5B689B07FBD5FFF7EBFFC0B2EF
:1006700010BDC046006000400078C0B27047C04660
:100680000170704730B5002507E06C182404240C75
:100690002418247854550135ADB29D42F5D330BDB0
:1006A00070B5002507E06C182404240C2418565D4E
:1006B00026700135ADB29D42F5D370BD70B5151EE3
:1006C00011D08004084BC61834682404240CE0239D
:1006D0005B031840054B184313000A002100FFF785
:1006E000DFFF2C19346070BD0C0201460000024689
:1006F00070B5151E11D08004084BC6183468240448
:10070000240CE0235B031840054B184313000A0038
:100710002100FFF7B7FF2C19346070BD2802014695
:100720000000034610B500290FD08004074BC41801
:1007300023681B041B0CE02252031040044A1043A0
:10074000C9180904090C4118216010BD280201468E
:1007500000000346F8B50600150020239B1A9940B7
:100760000C001DE0002C05DA0F4B19883000FFF754
:10077000BDFE04E00C4B19883000FFF7C5FE0120D8
:1007800003F064F8094F39883000FFF7AFFE01200D
:1007900003F05CF839883000FFF7B6FE6400013DD5
:1007A000002DDFD1F8BDC0460E0000200C00002057
:1007B000F8B506000020002516E044000C4F3988EB
:1007C0003000FFF793FE012003F040F83988300035
:1007D000FFF79AFE012003F039F8064B1988300024
:1007E000FFF77CFE204301350F2DE6D9F8BDC0464A
:1007F0000C0000200E00002070B504000A4B1B887E
:100800004361012003F022F8084D29882000FFF7FA
:100810006DFE012003F01AF829882000FFF774FE0E
:10082000012003F013F870BD0E0000200C00002022
:1008300070B50400084B1B880361084D2988FFF739
:1008400055FE012003F002F829882000FFF75CFE26
:10085000012002F0FBFF70BD0E0000200C00002004
:10086000F8B5002700252FE08624E4052022012189
:1008700049422000FFF76EFF042206212000FFF707
:1008800069FF052229002000FFF764FF05220121EE
:100890002000FFF75FFF2000FFF7AEFF2000FFF70B
:1008A00087FF06002000FFF7C3FF002E02D0084B91
:1008B0009E420BD1013500E00025082DD4DD013723
:1008C000FFB2044803F0A6F9012FF5D92800F8BDBE
:1008D000FFFF00002459000070B582B006000D0033
:1008E00014006846FFF7F0FD2B002343009301231B
:1008F0006A46137169463000FFF77EFD0122210030
:100900000120FFF70FFE012229000120FFF70AFE58
:10091000044B1D80044B1C80FFF7A2FF034B1860A3
:1009200002B070BD0C0000200E000020080700205F
:10093000024A1368013313607047C046B0010020BB
:1009400070B50600082825D88404144BE51810213A
:100950002800FFF795FE2800FFF78EFE0028FAD149
:100960001F210F4BE018FFF78BFE0122B2400D490B
:100970000B8893430B80720000210B4BD1520B4B21
:1009800000229A550A4BE018FFF776FE0028F9D1AD
:10099000013001E00120404270BDC0461000014618
:1009A00028000146B6010020C0010020B801002047
:1009B00030000146F0B5474680B407000D00904670
:1009C0001E0008285ED800295FD0022901D9042919
:1009D0005BD1062333425BD1002E0DD0012D02D016
:1009E000022D04D008E02123334205D153E0B306A1
:1009F00002D573B2002B51DA3800FFF7A1FFBC0417
:100A0000294BE0180F23310099432943FFF738FEA3
:100A10004346002B0BD1254A1388984601339BB2DD
:100A20001380234A934202D1224A204B1A80224B40
:100A3000E31842461A60214BE51801212800FFF710
:100A40001FFE2800FFF718FE0028FAD101231E40E0
:100A5000BE401B4B1A8816431E800122BA4019491A
:100A60000B8893430B807B000021174A9952174B48
:100A70000022DA55164BE018FFF7FEFD0028F9D0EA
:100A800078B20DE0012040420AE00520404207E034
:100A90000620404204E00620404201E00620404299
:100AA00004BC9046F0BDC046000001461000002086
:100AB000F0FF000000C0FFFF1401014610000146D6
:100AC000B4010020B6010020C0010020B8010020C0
:100AD0003000014670B50600082829D88404194B57
:100AE000E018FFF7C9FD0F231840012823D1164B4A
:100AF000E5182800FFF7C0FD13281FD1134B9C46B3
:100B0000644402212000FFF7BBFD2000FFF7B4FD85
:100B10000028FAD105E03000FFF712FF0420404220
:100B20000EE02800FFF7A8FD1428F4D1133807E0E1
:100B30000120404204E00520404201E00320404201
:100B400070BDC0460000014630000146100001465D
:100B500070B50600082834D884041E4BE018FFF74F
:100B60008BFD0F23184001282ED11B4BE5180821BF
:100B70002800FFF785FD2800FFF77EFD0028FAD149
:100B800001221000B04015490B8883430B80144BA1
:100B90001B8833411A420CD019E0124BE018FFF7C2
:100BA0006BFD030705D53000FFF7CAFE0D2040425C
:100BB0000EE00D4BE018FFF75FFD0028EDD101308E
:100BC00006E00120404203E00520404200E0002012
:100BD00070BDC0460000014610000146B60100206D
:100BE000B40100202000014630000146F0B5474620
:100BF00080B482B0804601911400082874D80600A1
:100C00008504434BE818FFF737FD0F2318400128F0
:100C10006DD1002C6ED03F4B9C46AC446346009394
:100C20006046FFF729FD172801D01C2865D13A4BF3
:100C30001B8842461341DB071AD5384BE818FFF7EB
:100C40001BFDC3060CD51021354BE818FFF718FD26
:100C5000012243469A4030490B8893430B8007E0BA
:100C600003074DD54046FFF76BFE0D2040424AE09A
:100C70002C4BE818FFF700FD800287B2BC4200D879
:100C80002700294BEB181C68A4B20098FFF7F4FC6E
:100C9000172807D01C2805D04046FFF751FE072033
:100CA000404230E0214B1B883341DB0701D5A7428E
:100CB00028D8A742E5D83A0001994046FFF7FEFC44
:100CC0001B4BEC1820212000FFF7DAFC2000FFF777
:100CD000D3FC0028FAD10123424693400E4A1188E2
:100CE0000B43138038000EE0012040420BE005204A
:100CF000404208E00E20404205E00720404202E06A
:100D0000002000E0002002B004BC9046F0BDC046C8
:100D10000000014630000146B601002020000146D7
:100D2000280001460002014604020146B4010020E9
:100D300010000146F0B54F464646C0B483B0814628
:100D40000191140008285AD807008604334BF01884
:100D5000FFF792FC0F231840012853D1002C54D0E8
:100D60002F4BF018FFF788FC800283B298469C4214
:100D700000D8A0462B4BF3181C68A4B22A4BF018DD
:100D8000FFF77AFC17281BD01C2813D1002C20D188
:100D9000264BF3181B681B041D0C254BF018FFF79E
:100DA0006BFC800285420BD14846FFF7C9FD072046
:100DB00040422EE04846FFF7C3FD0720404228E0AE
:100DC0001C4B1B883B41DB0701D5002C20D0002C9D
:100DD000D0D0A04500D84446220001994846FFF7EC
:100DE00087FC154B9C46664440213000FFF748FCC9
:100DF0003000FFF741FC0028FAD1200009E0012073
:100E0000404206E00520404203E00E20404200E060
:100E1000002003B00CBC90469946F0BD000001468E
:100E20002002014624020146300001460402014628
:100E300000020146B401002010000146F0B55F46F3
:100E40004646C0B483B08046019193461C000AAB6D
:100E50001F88082800D981E0050086044D4BF01852
:100E6000FFF70AFC0F231840022801D0042878D18C
:100E70005B46002B78D023781B0262789B181B02FC
:100E8000A2789B181B02E2789B18002B6FD0002FD2
:100E900070D0414B9C46B444634600936046FFF7D4
:100EA000EBFB422801D0222867D121783B4BF01878
:100EB000FFF7E6FB61783A4BF018FFF7E1FBA1780A
:100EC000384BF018FFF7DCFBE178374BF018FFF7F1
:100ED000D7FB364BF3181F60354BF018FFF7CCFBF0
:100EE000800287B2BB4500D85F46324BF3181C68BE
:100EF000A4B20098FFF7C0FB002841D02E4B1B88FE
:100F00002B41DB0701D5A7423DD8A742EDD83A00D7
:100F100001994046FFF7D2FB284BF418202120000E
:100F2000FFF7AEFB2000FFF7A7FB0028FAD1244B08
:100F3000F018FFF7A1FBC30606D5224BF0181021CD
:100F4000FFF79EFB38001FE00307F0D51D4BF0189C
:100F50000821FFF795FB0D20404215E0012040429B
:100F600012E0052040420FE00E2040420CE00C2031
:100F7000404209E00B20404206E00720404203E0E7
:100F80000420404200E0002003B00CBC90469B4689
:100F9000F0BDC04600000146300001462701014671
:100FA0002601014625010146240101462001014692
:100FB0000002014604020146B4010020100001466F
:100FC0002000014628000146F0B55F464646C0B401
:100FD00085B00600009190460193082800D9D2E020
:100FE00007008504714BE818FFF746FB83460F2383
:100FF0000340022B02D0042B00D0C7E04346002B55
:1010000000D1C6E073006A4A9B5A002B15D1694B88
:10101000EB181C68A4B2684BE818FFF72DFB0028FA
:1010200000D1B9E0654B1B883B41DB0702D5002CA2
:1010300000D1B4E0002CEAD000E000240022604B94
:101040009A5507235A461340022B02D0042B42D054
:1010500077E07300564A9B5A002B30D1082202A930
:101060003000FFF745FB574BEC1840212000FFF7FD
:1010700007FB2000FFF700FB0028FAD102AB1B782A
:10108000019A137002AB5B78537002AB9B7893703C
:1010900002ABDB78D37002AB1B7902AA52791B0238
:1010A0009B180C9A138002AB9A79730002A9C97934
:1010B000120252183E495A528022414B9A557300EF
:1010C0003B4A9C5AA04500D2444622000099300079
:1010D000FFF70EFB3CE07300354A9B5A002B24D1EE
:1010E000022202A93000FFF703FB364BEC18402127
:1010F0002000FFF7C5FA2000FFF7BEFA0028FAD15A
:1011000002AB1B78710002AA52781B029B189BB29B
:10111000274A8B522C4A934204D93000FFF710FC27
:101120002A483DE08022264B9A557300204A9C5A5B
:10113000A04500D24446220000993000FFF7D8FABB
:1011400006E021003000FFF7EDFA7300184A9C52C8
:101150001C4B9C46654440212800FFF791FA28006B
:10116000FFF78AFA0028FAD1114A71008B5A1B1B2B
:101170009BB28B52002B04D0114A915D01230B438B
:10118000935520000CE00120404209E00520404238
:1011900006E00E20404203E00420404200E0002030
:1011A00005B00CBC90469B46F0BDC0460000014611
:1011B000C00100202402014630000146B401002095
:1011C000B801002010000146EA05000017FCFFFFEF
:1011D000F0B593B04E48FFF74FFA00904D48FFF737
:1011E0004BFA01904C48FFF747FA02904B48FFF743
:1011F00043FA03904A48FFF73FFA04904948FFF743
:101200003BFA05904848FFF737FA06904748FFF742
:1012100033FA07904648FFF72FFA08904548FFF742
:101220002BFA09904448FFF727FA0A904348FFF742
:1012300023FA0B904248FFF71FFA0C904148FFF742
:101240001BFA0D904048FFF717FA0E903F4E300002
:10125000FFF712FA0F903E4D2800FFF70DFA10909D
:101260003C4C2000FFF708FA11903B4F80213800DA
:10127000FFF706FA3800FFF7FFF900992448FFF757
:10128000FFF901992348FFF7FBF902992248FFF77C
:10129000F7F903992148FFF7F3F904992048FFF77C
:1012A000EFF905991F48FFF7EBF906991E48FFF77C
:1012B000E7F907991D48FFF7E3F908991C48FFF77C
:1012C000DFF909991B48FFF7DBF90A991A48FFF77C
:1012D000D7F90B991948FFF7D3F90C991848FFF77C
:1012E000CFF90D991748FFF7CBF90E991648FFF77C
:1012F000C7F90F993000FFF7C3F910992800FFF7DD
:10130000BFF911992000FFF7BBF913B0F0BDC0463B
:10131000036000460260004601600046006000462F
:1013200007600046066000460B6000460A60004603
:1013300009600046086000460F6000460E600046E7
:101340000D6000460C6000461360004612600046C7
:1013500011600046106000460023004610B50400EE
:1013600001782A48FFF78CF961782948FFF788F956
:10137000A1782848FFF784F9E1782748FFF780F93A
:1013800021792648FFF77CF961792548FFF778F93C
:10139000A17B2448FFF774F9E17B2348FFF770F93C
:1013A000217C2248FFF76CF9617C2148FFF768F93E
:1013B000A17A2048FFF764F9E17A1F48FFF760F946
:1013C000217B1E48FFF75CF9617B1D48FFF758F948
:1013D000A1791C48FFF754F9E1791B48FFF750F950
:1013E000217A1A48FFF74CF9617A1948FFF748F952
:1013F000A27C184B1A70E27C5A70227D9A70627D32
:10140000DA70A27D144B1A7010BDC046036000460E
:10141000026000460160004600600046076000462A
:10142000066000460B6000460A6000460960004600
:10143000086000460F6000460E6000460D600046E2
:101440000C600046136000461260004611600046C2
:1014500010600046D4010020D001002010B5040027
:101460002A48FFF709F920702948FFF705F960704D
:101470002848FFF701F9A0702748FFF7FDF8E07052
:101480002648FFF7F9F820712548FFF7F5F8607155
:101490002448FFF7F1F8A0732348FFF7EDF8E07355
:1014A0002248FFF7E9F820742148FFF7E5F8607457
:1014B0002048FFF7E1F8A0721F48FFF7DDF8E0725F
:1014C0001E48FFF7D9F820731D48FFF7D5F8607361
:1014D0001C48FFF7D1F8A0711B48FFF7CDF8E07169
:1014E0001A48FFF7C9F820721948FFF7C5F860726B
:1014F000184B1A78A2745A78E2749A782275DB78BD
:101500006375154B1B78A37510BDC046036000467C
:101510000260004601600046006000460760004629
:10152000066000460B6000460A60004609600046FF
:10153000086000460F6000460E6000460D600046E1
:101540000C600046136000461260004611600046C1
:1015500010600046D4010020D001002070B50500C5
:10156000382302009A430AD1064C2000FFF784F882
:101570002843C1B22000FFF783F8002001E00120DA
:10158000404270BD0023004610B50248FFF774F8D2
:1015900010BDC0460023004610B5040001780029A4
:1015A00002D00348FFF76CF86288024B1A6010BD46
:1015B000446000464060004610B504000348FFF751
:1015C0005BF82070024B1B68638010BD44600046CE
:1015D0004060004610B50C00052820D88000114B53
:1015E0001B589F460800FFF7B9FE002019E00800CD
:1015F000FFF734FF002014E00878FFF7AFFF10E09A
:10160000FFF7C2FF207000200BE00800FFF7C4FFC7
:10161000002006E00800FFF7CFFF002001E00120D6
:10162000404210BD4059000010B500F099FB00F099
:10163000D7FC10BD10B50948FFF71EF8172801D0D8
:101640001C2803D10220FFF783FA02E00220FFF7F3
:1016500077F90120FFF774F910BDC0463000094644
:1016600010B5FFF7E7FFBFF34F8F034A034BDA6074
:10167000BFF34F8FFEE7C0460400FA0500ED00E01F
:10168000F0B5474680B484B00400019100F064FBDB
:101690000500002203AB1A802600A7044C4BF81863
:1016A000FEF7EAFF172808D002D8002874D083E09C
:1016B000182871D01C286AD07EE0464BF818FEF737
:1016C000DBFFC3070AD50122434B1A70022000F04A
:1016D00079FA0121414BF818FEF7D2FF404B1B78F5
:1016E000012B04D12000FFF733FA00206BE03D4BC3
:1016F000FB18186882B2002A60D080231B019A422E
:1017000000D91A00384B1F68D31998462800A83012
:10171000C67803791B023343190043791B040B433A
:10172000807900061843804501D9C01B82B2019917
:101730002000FFF7FFFA86B22B4F03041B0C3A6818
:10174000944663443B60330A03A90B70487002223D
:101750002000FFF74BFA0022244B1A80A835E878C6
:101760002A79120202436B791B0413431A00AB79E6
:101770001B0613433A68934222D800221C4B1A805E
:10178000154B1A702000FFF7E3F930001BE0200032
:10179000FFF7DEF9002016E02023164A0121200081
:1017A000FFF708F986420DD100220F4B1A60200086
:1017B000FFF790F9002006E0002004E0100002E0AE
:1017C000300000E0002004B004BC9046F0BDC046EC
:1017D0003000014620000146D801002028000146C3
:1017E000E901002024020146DC010020E201002082
:1017F000E001002052C300001F4B1B78012B1AD1BF
:101800001E4B1B889BB21E4A934205D01B4A13886D
:1018100001339BB2138002E00022184B1A80174B51
:101820001B889BB2174A934205D90122164B1A70A6
:101830000022124B1A80154B1B78012B1AD1144B26
:101840001B889BB20E4A934205D0114A138801337C
:101850009BB2138002E000220D4B1A800C4B1B88B8
:101860009BB2084A934205D901220A4B1A70002202
:10187000074B1A807047C046D9010020E0010020C4
:10188000FFFF000087130000E8010020D8010020BE
:10189000E2010020E90100200023074A1370074AF3
:1018A0001370002206490B8006490B80064B1A7004
:1018B000064B1A707047C046D9010020D80100209D
:1018C000E0010020E2010020E8010020E901002001
:1018D000F8B5060000F040FA050000F03DFA0400FB
:1018E000A823EB5C002B00D1A4E02F00A837F878E8
:1018F0003B791B0203431A00797909040B00134357
:10190000B979090619434A1E4C4B9A420BD9453402
:10191000237A012B00D08FE0C8225202484802F0FF
:10192000FDF8402089E0022E59D1230045331B7A6F
:10193000012B02D1434802F0F1F80022424B1A6019
:101940000132424B1A7042490420FFF799FE0028E9
:1019500014D03D4E3368E022D2019446634419000E
:1019600003003B4A022000F059F90004000C3368E0
:101970009C46604430600022364B1A80364B1B7800
:10198000012B09D1230045331B7A012B2ED133487B
:1019900002F040F940262EE0314B1B78012B09D193
:1019A000230045331B7A012B22D12E4802F032F955
:1019B000402620E000F0B8F92E00A836F078327901
:1019C0001202024373791B0413431A00B3791B06F6
:1019D00013431D4A12689342B5D820260BE0042E0B
:1019E00008D1214802F016F9402026E0402602E006
:1019F000402600E04026A835E8782B791B020343F7
:101A000019006A79120413000B43AA7912061A43CB
:101A10000D4B19688A4209D14534237A012B04D130
:101A2000124802F07BF8802600E08026FFF734FFA2
:101A3000300002E0402000E04020F8BDFF8F0100B0
:101A400058590000C0590000E4010020D9010020CD
:101A5000100F0020E0010020E8010020FC590000E8
:101A6000E9010020345A00006C5A0000B45A00000A
:101A700010B5002302E01C5CCC5401339342FAD32E
:101A8000180010BDF8B5054D802464002E590127BB
:101A90007F422F51024FB8472E51F8BD00E100E0C0
:101AA0000110FF1F10B5C303DB0B984210D00F4B82
:101AB000984203D90E4B034098420BD00C4B9842EE
:101AC00012D983039B0B98420ED10020112403E00E
:101AD000122401E00020102472B60023002201002D
:101AE0002000FFF7CFFF62B610BDC046FFFD030028
:101AF000FFFE030010B5C303DB0B984207D172B69B
:101B00000023002201001320FFF7BCFF62B610BDC6
:101B100010B51400124B984207D983039B0B9842CF
:101B200003D180235B009A4214D8002C03D10319FF
:101B30000C4A934210D80C4A0C4BC31893420DD94F
:101B400072B623000A0001002220FFF79BFF62B655
:101B5000200004E0002002E0002000E0002010BD92
:101B6000FFFD0300FFFF0300FFFD01000000FEFF7B
:101B700070B50D00110001280CD0002804D00228F7
:101B80000ED0032812D016E006220C48FFF770FF93
:101B9000040010E01A000A48FFF76AFF04000AE098
:101BA0001A002800FFF764FF040004E01A00280070
:101BB000FFF75EFF0400200070BDC04600FE03007A
:101BC00000FF030070B5040001280AD0002804D0EB
:101BD00002280DD0032808D00CE00E48FFF762FF62
:101BE00008E00D48FFF75EFF04E08025AD0201E04C
:101BF000E025ED01023CE4B2012C0AD806E0200306
:101C00004019FFF777FF0134A4B200E00024182C3C
:101C1000F5D970BD00FE030000FF0300F8B50F000A
:101C200015001E00012810D0002804D0022816D06C
:101C300003281BD020E00020FFF7C4FF0622290064
:101C40000E48FFF765FF040016E00120FFF7BAFF1A
:101C5000320029000A48FFF75BFF04000CE01A007D
:101C600029003800FFF754FF040005E01A0029009E
:101C70003800FFF74DFF04002000F8BD00FE030010
:101C800000FF03000022014B1A607047F80100209A
:101C900010B51F4A138801339BB2138001F074FA08
:101CA000FFF7AAFD1B4B1B78002B0CD01A4A138898
:101CB00001339BB21380632B05D90122174B1A7095
:101CC0000022154B1A80124B188880B2FA21890025
:101CD00001F0ECFE89B2002909D100220C4B1A80D8
:101CE0000F4A138801339BB21380FEF721FE0C4B81
:101CF000188880B23C2101F0D9FE89B2002906D1B2
:101D00000022074B1A80074A13680133136010BD85
:101D1000EA010020F9060020EC010020F601002075
:101D2000F4010020F001002010B5064A1368591C88
:101D30001160222B04D9FFF7ABFF0022014B1A6080
:101D400010BDC046F80100207047C04610B5E12024
:101D50004002FEF75FFC10BD00487047FC01002008
:101D6000F0B557464E464546E0B47C4CF9232380F7
:101D70000025A5700126E6702571671D0F22002140
:101D8000380001F0C3FE09227549380001F0B5FEA4
:101D9000267502216175A175C0226277A823984635
:101DA000A3770B23E377202021541F3162540131A4
:101DB000404660540131635401316654DB312520C3
:101DC00021540130215401302154D7396554013157
:101DD000665401316654013189466254943A414651
:101DE000A1540132A3542A3A2333E25421002F3163
:101DF000A63B0B70132214384870210031310B7050
:101E00004A702100333100200870487021003531BC
:101E1000483808700B2048702100373100200870C6
:101E200048703921655401316554013165540131DF
:101E300065540131655401316554013165540131F6
:101E40006654583001316054210041313D384870AA
:101E500043216354230043335A704523E554393BEF
:101E60009A463A335246E2540133E6540133E5547C
:101E70000133E5540133E5540133E5540133E554AE
:101E80000133E654200058300A22002101F03EFEC2
:101E900020004E300A22002101F038FE6223E55472
:101EA0000133E5540133E55408270133E754013386
:101EB000E7540133E7540133E754200069303222FC
:101EC000002101F023FE9A23E7540133E654013345
:101ED000E55401334A46E2540133E2540133E254FB
:101EE00001330F22E2520233E65202335246E252EB
:101EF0000233E55200234246A354563AA923E25442
:101F00002300A9338F3A5A700022AB23E2542300F6
:101F1000AB335A709A70DA705032B023E252023307
:101F20000122E2542500B3351E220021280001F0D1
:101F3000EDFD13220B49280001F0DFFDD1342822EA
:101F40000021200001F0E2FD20220749200001F0DD
:101F5000D4FD1CBC90469946A246F0BDFC01002071
:101F6000FC5A0000085B00001C5B000010B501F08B
:101F70009DFA194CF923220000210120FFF7F8FDFA
:101F800022001732062300210020FFF7F1FD2388ED
:101F9000013B9BB2114A934207D9FFF7E1FEF923B7
:101FA0000D4A00210120FFF739FE0B4B01221A7563
:101FB00001325A759A7548329B5C033BDBB2012BA8
:101FC00004D801214523044AD15404E001F078FAF1
:101FD0004523014AD05410BDFC010020FDFF000044
:101FE00070B5C0B000240026154DF9232A00002149
:101FF0000120FFF713FEF92301AA00210120FFF7BA
:10200000B7FDF92201A9280001F068FD00280BD0D6
:102010000134E4B24D230A4AD35C002B05D02100E1
:10202000084801F07BFD00E00126FA20800001F065
:102030000DFC042C01D8012ED6D140B070BDC04695
:10204000FC0100203C5B000010B501F056FD10BD06
:10205000F0B58BB0FFF780FE050004AC2100012035
:10206000FFF7B8FA21786278A378E0782679677963
:10207000029701960090384801F050FDA179E2796D
:10208000237A677A2F202E5C0130285C00023043CF
:1020900001900097314801F041FDA17BE27B237C58
:1020A000607C00902E4801F039FDA17AE27A237B12
:1020B000607B00902B4801F031FDA17CE27C237D08
:1020C000607D0090284801F029FD2923EB5C012B5D
:1020D0003DD06423EB5C012B0BD1290069313033F7
:1020E000EB5C3222AA5C12021A43204801F016FD72
:1020F0002DE02B23E95C0133EA5C0133EB5C2E20FD
:102100002E5C03302C5C0130285C000220430190DF
:102110000096174801F002FD2923EB5C032B16D132
:102120002833EB5C002B0FD12C33EB5C002B0BD155
:102130002D33EB5C002B07D12E33EB5C002B03D14E
:102140000C4801F067FD02E00B4801F063FD0B480D
:1021500001F060FD0BB0F0BD645B00008C5B000023
:10216000B05B0000C85B0000E05B0000F85B0000B3
:10217000205C00004C5C0000605C0000F06000002F
:1021800010B586B0FFF7E8FD040001001731062204
:102190006846FFF759FF21001D3104226B46981D48
:1021A000FFF752FF2100213104220E206844FFF77F
:1021B0004BFF2100253104220A206844FFF744FF29
:1021C00021006531042212206844FFF73DFF63239C
:1021D000E35C002B03D002236A46937502E00123DF
:1021E0006A46937569460020FFF7F4F906B010BD02
:1021F000F8B506000F0000230B70254D0AE0200003
:1022000001F0CAFD02002100300001F0CCFD0028E1
:1022100003D004352C68002CF1D1002C30D01C4B9D
:10222000ED1AAD10EDB22B2D0CD1337A0D2B29D137
:10223000737A0A2B28D1B11C0622380001F05DFC0C
:10224000280024E02C2D15D103E0FA540133DBB231
:1022500000E000239A1CB25C0D2AF6D1F618F27841
:102260000A2A13D1F91800220A700133FF183A70B4
:1022700028000CE0B11C380001F086FD280006E0C3
:10228000FF2004E0FF2002E0FF2000E0FF20F8BD77
:102290001C000020F0B557464E464546E0B496B0C7
:1022A00004008846FFF758FD8146002357226A4400
:1022B000137015AA138004220021404601F026FC69
:1022C000E449200001F082FD002700F00DFE04A982
:1022D000FFF78EFF0400FF2801D100F0FEFD04AEE1
:1022E000300001F059FD83B29A463078002800D0C2
:1022F000A9E2A300D84A99580222404601F0FDFB0A
:1023000043469E1C382C00D97CE2A400D34B1B59B9
:102310009F464B46DA7D1B7E4946497E4846807E75
:102320004C46E47E4D462D7F03950294019000912A
:10233000CB49300001F078FC70E24B461A7D5B7DA2
:102340004946897D0091C749300001F06DFC65E286
:102350004B46591D300001F017FD5FE263234A46EA
:10236000D25CC149300001F05FFC57E229234A46A4
:10237000D25CBD49300001F057FC4FE20022BA495F
:10238000300001F051FC49E20022B749300001F071
:102390004BFC43E262234A46D25CB349300001F071
:1023A00043FC3BE24D234A46D25CAF49300001F08A
:1023B0003BFC33E240234A46D25CAB49300001F09B
:1023C00033FC2BE241234A46D35C422249468A5CD5
:1023D00012021A43A449300001F026FC1EE24323F6
:1023E0004A46D35C442249468A5C12021A439E49FB
:1023F000300001F019FC11E235234A46D35C362245
:1024000049468A5C12021A439749300001F00CFCDD
:1024100004E24B465A7F9B7F4946C97F20204C46A9
:10242000205C019000919149300001F0FDFBF5E145
:1024300025234A46D25C01334946CB5C27214846D6
:10244000415C28204C46205C019000918749300077
:1024500001F0EAFBE2E121234A46D25C013349461E
:10246000CB5C23214846415C24204C46205C0190F3
:1024700000917E49300001F0D7FBCFE165234A4649
:10248000D25C01334946CB5C67214846415C6820F9
:102490004C46205C019000917449300001F0C4FB6F
:1024A000BCE120227249300001F0BEFBB6E12022DF
:1024B0006F49300001F0B8FBB0E100226A493000FA
:1024C00001F0B2FBAAE16B4A6749300001F0ACFBB6
:1024D000A4E120226649300001F0A6FB9EE1202203
:1024E0006349300001F0A0FB98E14B465B79002B7B
:1024F00005D120225E49300001F096FB8EE14B466B
:102500005A1D9B7E4946C97E4846007F0190009136
:102510005949300001F088FB80E12F234A46D35C03
:10252000302249468A5C12021A434F49300001F0BA
:102530007BFB73E131234A46D35C322249468A5CF5
:1025400012021A434849300001F06EFB66E1642331
:102550004A46D35C002B11D12B33D25C0133494660
:10256000CB5C2D214846415C2E204C46205C0190DE
:1025700000913E49300001F057FB4FE169234A4684
:10258000D356002B05D120223949300001F04CFBF5
:1025900044E149466931300001F0F6FB3EE1462353
:1025A0004A46D25C3049300001F03EFB36E1472319
:1025B0004A46D25C2C49300001F036FB2EE148231C
:1025C0004A46D25C2849300001F02EFB26E149231F
:1025D0004A46D25C2449300001F026FB1EE14A2322
:1025E0004A46D25C2049300001F01EFB16E133233D
:1025F0004A46D35C342249468A5C12021A431A497D
:10260000300001F011FB09E137234A46D35C382240
:1026100049468A5C12021A431349300001F004FB58
:10262000FCE039234A46D25C0F49300001F0FCFA45
:10263000F4E03A234A46D25C1049300001F0F4FA43
:10264000ECE09B234A46D25C0749300001F0ECFAEB
:10265000E4E0C0461C5C00001C000020745C00002C
:102660003C5E00005C5E0000685E00006C5E000086
:10267000785E0000D60B00007C5E0000945E0000D7
:102680009D234A46D25C01334946CB5C9F21484694
:10269000415C0091C449300001F0C6FABEE04E230F
:1026A0004A46D356002B05D12022C049300001F004
:1026B000BBFAB3E049464E31300001F065FBADE0B6
:1026C00058234A46D356002B05D12022B749300063
:1026D00001F0AAFAA2E049465831300001F054FB5B
:1026E0009CE0B34B1F43BFB298E0B24B1F43BFB255
:1026F00094E0B14B1B787722934303D010231F4300
:10270000BFB28BE0AD4B1F43BFB287E0AA4B1B7833
:102710007722934303D020231F43BFB27EE0A74B11
:102720001F43BFB27AE0A44B1B787722934303D0B8
:1027300080231F43BFB271E0A04B1F43BFB26DE0C7
:1027400045234A46D35C9B009D4A9958300001F0CE
:102750001BFB63E045234A46D25C9A49300001F0F6
:1027600063FA5BE02A234A46D35C9B00964A995859
:10277000300001F009FB51E08F4B1B787722934327
:1027800011D02F234A46D25C01334946CB5C1B0251
:102790001343012B03D184235B011F433EE08823B5
:1027A0001F43BFB23AE0854B1F43BFB236E09C23C4
:1027B0004A46D25C8349300001F036FA2EE0842389
:1027C0005B011F432AE000227E49300001F02CFA11
:1027D00024E0794B1B787722934307D0763A2A235B
:1027E0004946CA5490231F43BFB217E0734B1F439F
:1027F000BFB213E09A234A46D25C7249300001F01E
:1028000013FA0BE0714B1F43BFB22A234A46D35C35
:102810009B006D4A9958300001F0B6FA6C4B1F428C
:1028200003D00023424613705AE3300001F0B4FA9B
:1028300030180322674901F060F9300001F0ACFA6A
:10284000B04680444CE35C4B1B787722934300D125
:102850003FE3382C00D938E3A4005F4B1B599F4657
:102860004B46DB7D002B0BD14B461B7E082B07D143
:102870004B465B7EDC2B03D1584B1F43BFB22FE38B
:102880004A461732564904A800F078FD002800D0C7
:1028900026E3544B1F43BFB222E3504B1F43BFB24A
:1028A0001EE300F0F5FC57236B4418705346012BD0
:1028B00001D1012803D94B4B1F43BFB210E363235F
:1028C0004A46D0540CE300F0E3FC57236B441870E5
:1028D0005346012B01D1032803D9424B1F43BFB2FA
:1028E000FEE229234A46D054FAE200F0D1FC5723F5
:1028F0006B4418705346012B02D1012800D8EFE237
:10290000384B1F43BFB2EBE200F0C2FC57236B44CD
:1029100018705346012B02D1012800D8E0E2314B58
:102920001F43BFB2DCE200F0B3FC57236B441870C6
:102930005346012B01D1012803D92A4B1F43BFB2B3
:10294000CEE262234A46D054CAE200F0A1FC5723EB
:102950006B4418705346012B01D1012803D9214B38
:102960001F43BFB2BCE24D234A46D054B8E200F048
:102970008FFC57236B4418705346012B01D101285B
:1029800003D9184B1F43BFB2AAE240234A46D05492
:10299000A6E204A801F096F8134B984226D9114BF1
:1029A0001F43BFB29CE2C0468C5E0000785E000010
:1029B0000081FFFF0082FFFFF50200200086FFFF7D
:1029C00014000020685E0000040100200084FFFF66
:1029D000B080FFFF1C5C0000585D00000083FFFF1B
:1029E0009C5E00000085FFFFFFFF000080B24123D6
:1029F0004A46D054000A4B464133587070E204A84E
:102A000001F060F8C74B984203D9C74B1F43BFB2D0
:102A100066E280B243234A46D054000A4B46433311
:102A200058705DE204A801F04DF8BE4B984203D9FE
:102A3000BD4B1F43BFB253E280B24B4635331870D3
:102A4000000A58704CE214A904A800F09FFB00286B
:102A50000BD014AB1A7849464A775A788A779A7815
:102A6000CA77DA782023CA543AE2AF4B1F43BFB289
:102A700036E214A904A800F089FB00280ED014AB9C
:102A80001978252248468154597801328154997821
:102A900001328154DA782823C25421E2A24B1F4329
:102AA000BFB21DE214A904A800F070FB00280ED0EC
:102AB00014AB197821224846815459780132815447
:102AC000997801328154DA782423C25408E2964B73
:102AD0001F43BFB204E214A904A800F057FB00286A
:102AE0000ED014AB197865224846815459780132CA
:102AF0008154997801328154DA786823C254EFE125
:102B0000894B1F43BFB2EBE153460E2B03D9864BD3
:102B10001F43BFB2E4E1202803D100234A4653718A
:102B2000DEE14B46581D04A901F02EF9D8E104A8B6
:102B300000F0C8FF7B4B984203D97B4B1F43BFB2C9
:102B4000CEE180B24B462F331870000A5870C7E1AF
:102B500004A800F0B7FF734B984203D9724B1F4390
:102B6000BFB2BDE180B24B4631331870000A5870D5
:102B7000B6E114A904A800F009FB002812D0002235
:102B800064234946CA5414AB19782B324846815401
:102B9000597801328154997801328154DA782E23A0
:102BA000C2549DE1012264234946CA5404AB1B78F8
:102BB000202B03D100224933CA5491E104A948468D
:102BC000693001F0E1F88BE104A800F075FF80B2F4
:102BD00015AB18805346022B01D80E2803D9524B4F
:102BE0001F43BFB27CE146234A46D05478E100F04F
:102BF0004FFB57236B4418705346012B01D101281A
:102C000003D9494B1F43BFB26AE147234A46D05418
:102C100066E100F03DFB57236B4418705346012BCF
:102C200001D1022803D9404B1F43BFB258E14823CA
:102C30004A46D05454E100F02BFB57236B441870E4
:102C40005346012B01D1012803D9374B1F43BFB293
:102C500046E149234A46D05442E100F019FB57238C
:102C60006B4418705346012B01D1042803D92E4B15
:102C70001F43BFB234E145234A46D35C012B0CD13C
:102C8000C31EDBB2012B04D900224A234946CA5491
:102C900026E14A234A46D05422E14A234A46D054E8
:102CA0001EE104A800F00EFF1E4B984203D91E4BF4
:102CB0001F43BFB214E180B24B4633331870000A91
:102CC00058700DE104A800F0FDFE164B984203D9A0
:102CD000154B1F43BFB203E180B24B463733187028
:102CE000000A5870FCE004A800F0E6FE80B215ABC4
:102CF00018805346032B01D8FF2803D90A4B1F43E2
:102D0000BFB2EDE039234A46D054E9E05346022BE6
:102D100004D104A800F0A2FA002807D1024B1F43F7
:102D2000BFB2DDE0FFFF00000085FFFF57246C44C9
:102D3000210004A800F0C8FA23783A2249468B54AF
:102D4000002B03D100223E33CA54C9E001223E23A6
:102D50004946CA54C4E000F09BFA57236B441870EC
:102D60005346012B01D1012803D9654B1F43BFB244
:102D7000B6E09B234A46D054B2E05346062B0CD112
:102D800004A800F06BFA002807D049469D3104A83A
:102D900000F09AFA002800D0A2E0594B1F43BFB2BE
:102DA0009EE05346092B03D9554B1F43BFB297E012
:102DB000202804D100224E234946CA5490E004A999
:102DC00048464E3000F0E0FF8AE05346092B03D915
:102DD0004B4B1F43BFB283E0202804D1002258236D
:102DE0004946CA547CE04846583004A900F0CCFF5C
:102DF00076E004A800F066FEC8235B0298420CD976
:102E00000022AB234946CA544B46AB335A709A70E2
:102E1000DA703B4B1F43BFB262E0AB234A46D0544B
:102E2000020A4B46AB335A70020C9A70000ED870EF
:102E30000122A8234946CA5440231F43BFB24A7FF8
:102E40008B7FC97F20204C46205C2E4C0294019041
:102E500000912D49404600F0E7FE41E000F018FAED
:102E600057236B4418705346012B01D1012803D915
:102E7000234B1F43BFB233E09C234A46D0542FE07C
:102E800000F006FA57236B4418705346012B01D10A
:102E9000012825D91A4B1F43BFB221E015AA1B49AF
:102EA00004A800F0E3FE5346032B03D815AB1B88A0
:102EB000FF2B03D9124B1F43BFB202E09A224946AF
:102EC0008B54134B1F43BFB20AE0124B1F43BFB2D8
:102ED00006E0114B1F43BFB202E00E4B1F43BFB2CF
:102EE0000E49002000F072FF002801D0FFF7EFF933
:102EF000380016B01CBC90469946A246F0BDC046AC
:102F00000085FFFF52C30000A05E0000685E000065
:102F10000081FFFF0084FFFF0086FFFF1C5C0000B4
:102F2000F0B557464E464546E0B498B004000E0052
:102F3000FEF712FF050000225C4B1A705C48FDF79B
:102F40009BFB002800D196E0222800D09BE0594B43
:102F50001A6892B2002A00D197E05A236B4400937A
:102F600017AB21002138FEF72FF80004000C0138C0
:102F700020180023037006A92000FFF739F92B2839
:102F800000D084E006224C4906A800F0A7FD0028E6
:102F900006D1464A1378802149420B4313700DE055
:102FA00006222900173106A800F098FD002870D1EC
:102FB0003E4A1378782149420B4313703B4B1B78F0
:102FC0005BB2002B67DAEB7D9A46297E687EAF7E86
:102FD000EA7E94462A7F9046AC22384B9A58434664
:102FE000049363460393029701900091534634493A
:102FF000300000F019FE0A3437000A3706A9200015
:10300000FFF7F6F82C2848D106AB1B78202B03D10C
:103010003833EB56002B06D02900583106A800F0B3
:10302000A9FE00283BD106A800F0B6FE021D210033
:10303000380000F062FD06A800F0AEFE043024184F
:103040003F1839002000FFF725F9040006A800F01A
:10305000A3FE0500380000F09FFE2A180E3292B23F
:103060005A236B441B880093164B31000120FDF757
:10307000E5FE200014E00023134A02210120FDF7A1
:1030800099FC00200CE000200AE0002008E000206D
:1030900006E0002004E0002002E0002000E0002024
:1030A00018B01CBC90469946A246F0BDF50200201F
:1030B0003000054624020546B45E00001C000020D6
:1030C000BC5E0000D05E000051C3000070B5FEF78A
:1030D00043FE050029492A48FFF722FF04000204A5
:1030E0004BD4002849D0030702D5FEF79DFA0FE024
:1030F000C30602D5FEF774FF0AE0C30408D52148D1
:1031000000F088FD0020FEF75DFD0120FEF75AFD6E
:1031100063062ED50220FEF7DBFB802819D10022A2
:10312000A823EA540333EA542B00AB335A709A7045
:10313000DA7001322A23EA54FEF752FFE020C00180
:1031400000F058FBFA20400000F080FBFEF788FA00
:1031500013E00022A823EA540333EA54AB350023DA
:103160006B70AB70EB70FEF73BFF0420FDF7E8FBE4
:1031700003E0230601D5FEF773FA70BDF8020020C4
:10318000F8040020F06000007047C046F0B55746D4
:103190004E464546E0B482B08246884600F0FCFDCB
:1031A000C6B20322002101A800F0B0FCF31FDBB27D
:1031B000082B3FD8002000230025002431E0524690
:1031C000115D254A12685218527852070FD59A009D
:1031D0009B185A00521893B2303B9BB2FF2B2BD84E
:1031E000421CD2B201AF3954032A17D926E02E2946
:1031F00026D1FF2B26D80135EDB2042D24D86B1E25
:103200004344994601A800F057FC4B46187003222E
:10321000002101A800F07AFC002200230134E4B26E
:103220001000B442CBD3454401A800F045FC2870FF
:1032300001200AE0002008E0002006E0002004E071
:10324000002002E0002000E0002002B01CBC9046FC
:103250009946A246F0BDC0463001002070B5050079
:10326000002409E02B5D094A1268D3185B784422D8
:103270001A4208D00134E4B2280000F08DFD8442E7
:10328000F0D3012000E0002070BDC04630010020D6
:10329000102815D90B4B1B681B185B785B0702D5F0
:1032A0003038C0B20DE00300283BDBB23E2B02D821
:1032B0005138C0B205E0472803D93138C0B200E028
:1032C000FF20704730010020F0B557464E46454676
:1032D000E0B482B004008A4600F05EFDC3B29946B5
:1032E000C30740D44B46102B3FD8207800283DD050
:1032F0000020002133E00B00625C1F4F3F68BD18C7
:103300006D78AC460325A846654646463540022DF5
:1033100000D1203AD2B20133E35CFF187F78032555
:103320002F40022F00D1203BDBB2392A02D9373A95
:10333000D7B201E0303AD7B2392B02D9373BDAB2F3
:1033400001E0303BDAB2431C9C463B01134352463A
:1033500013540231C9B263466A46D371D0794945E4
:10336000C9D3012002E0002000E0002002B01CBC14
:1033700090469946A246F0BD30010020F0B587B0D6
:1033800006000091019200F007FDC3B230780028DA
:103390002ED0112B29D100241EE02700610009192D
:1033A000711803AD0322280000F0A7FBA9780029BB
:1033B00004D0009800F0D0FC002818D003A8002307
:1033C0008370FFF74BFF002812D004ABD91903A874
:1033D000FFF77AFF0134E4B2052CDED9062204A9F6
:1033E000019800F08AFB012002E0002000E00020AC
:1033F00007B0F0BD10B50120FEF7A6FC61230E4A10
:1034000013600E4A13608624E405603B00222021ED
:103410002000FDF7B9F80123002240212000FDF72C
:10342000B3F8802212028021C9012000FDF754FA6E
:103430000020FEF789FC10BD70300041543000417F
:103440000223024A1360024A136070477011004160
:103450000820004110B5012300228021890084202A
:10346000C005FDF791F810BD10B58424E4050123D3
:10347000002202212000FDF787F80223636110BDBE
:1034800010B500240BE002218420C005FDF726F8CA
:10349000002808D1053000F0D9F90134E4B2042C39
:1034A000F1D9002000E0012010BDC04610B5012375
:1034B000002240218820C005FDF766F810BDC046F7
:1034C00010B540218820C005FDF708F810BDC046A2
:1034D00070B58025ED018824E40501230022290030
:1034E0002000FDF751F8656170BDC04610B5802120
:1034F000C9018820C005FCF7F1FF10BDF0B583B00D
:103500000400012817D842000C4BD55A009501231E
:103510006A4613710A4E87006946B859FCF76CFF7A
:10352000084B1A5D084B185D2900FCF7FBFFB859E2
:103530002900FCF7DBFF03B0F0BDC046406000008F
:1035400028010020240100202001002010B5FFF7F1
:1035500051FFFFF789FFFFF793FF43424341064ABC
:103560001370FFF777FFFFF7B3FF0020FFF7C6FFE9
:103570000120FFF7C3FF10BDF806002010B5012899
:1035800007D84200034BD15A8000034BC058FCF7C8
:10359000BBFF10BD4060000028010020012808D8B2
:1035A0008200044BD258536840000349415A4B40B3
:1035B0005360704728010020406000007047C046FB
:1035C0007047C0467047C0467047C0467047C04607
:1035D0007047C0467047C0467047C0467047C046F7
:1035E0007047C0467047C0467047C0467047C046E7
:1035F0007047C0467047C0467047C0467047C046D7
:103600007047C0467047C0467047C0467047C046C6
:103610007047C0467047C0467047C0467047C046B6
:103620007047C0467047C0467047C0467047C046A6
:103630007047C04610B5FFF703FF05490A00002098
:10364000FCF7C6FEFEF71EFBFEF780FB10BDC04672
:1036500000127A0000B583B0FDF7BAFDFCF728FE32
:10366000064900F09DF9064B186001A80823037075
:10367000044B4380FDF790FF03B000BD102700000E
:1036800000200046C409000010B54368026882F3B8
:103690000888984710BDC04670B582B0FEF75CFB45
:1036A00004000E4800F0B6FA0D4E0E4D3100280011
:1036B00000F034FA0C4800F0ADFA0C4800F0AAFA19
:1036C000217D627DA37D0A4800900A4800F026FA19
:1036D0003100280000F022FA02B070BDF060000056
:1036E00044600000D060000078600000846000004A
:1036F000D8600000AC60000030B58FB0FEF72CFB46
:103700000400062200210CA800F000FA1622002175
:1037100006A800F0FBF916220021684600F0F6F931
:10372000E37DFF2B58D1237EFF2B57D1637EFF2BE8
:1037300056D10CAD00232A0000210020FEF718FA14
:103740002B78FF2B3AD10CAA5278FF2A36D10CAA3B
:103750009278FF2A32D1773A234B1A70234800F02F
:1037600059FA002505E0FCF77BFF06AB58550135FB
:10377000EDB2142DF7D9694606A8FEF78BFD002897
:103780000ED1FEF71FFA220017320023190018008D
:10379000FEF744FAFEF7E4FAFEF722FC012020E0EF
:1037A0004D23E35C002B03D06946114800F0B6F9C5
:1037B0001622002106A800F0A9F9CFE7E3750CABAB
:1037C0005A7822769A786276DA78A2761A79E27650
:1037D0005B792377002004E0012002E0012000E073
:1037E00001200FB030BDC046F5020020E0600000AF
:1037F000D060000000B5C1B0002303E01A7869462C
:10380000CA540133072BF9D9082304E01A18127897
:103810006946CA540133A72BF8D9A82303E01A78C4
:103820006946CA540133FF2BF9D972B6002300222E
:1038300000211220FEF726F980235B006A46002152
:103840002220FEF71FF962B641B000BD00B585B079
:103850000190FCF72DFD074900F0A2F8019B5843A9
:10386000039002E0039B013B0393039B002BF9D1E0
:1038700005B000BD1027000070B5FEF76DFA04001A
:10388000FFF7D8FEFFF7E6FEFFF760FEFEF76EFBE0
:10389000FFF732FF002807D0E020C001FFF7AAFFA2
:1038A000FA204000FFF7D2FFA823E35C012B1CD1D4
:1038B0000220FEF70DF805000022A823E25403338E
:1038C000E2542300AB335A709A70DA7001322A2323
:1038D000E254FEF785FB802D07D1E020C001FFF701
:1038E00089FFFA204000FFF7B1FFE023DB011B68EE
:1038F000013301D1002500E00125012D0FD12A233C
:10390000E35C002B06D101222A33E254FEF768FB68
:10391000002504E0FFF7EAFD002800D10025012D75
:1039200003D1E020C001FFF7AFFE00222A23E254BA
:103930002333E35C002B01D0FFF7AEFEFEF720FC43
:103940004D23E35C002B01D0FEF782FB01220B4BE1
:103950001A700020FFF712FEFFF7B8FB084B1B7828
:10396000002B08D00020FFF719FE0120FFF716FEFC
:103970000022034B1A70FEF7D7F9EDE7F906002095
:10398000F601002070B50E001500002403E0305D44
:10399000FCF75EFE0134AC42F9D3280070BDC0468E
:1039A000002243088B4274D303098B425FD3030A7E
:1039B0008B4244D3030B8B4228D3030C8B420DD391
:1039C000FF22090212BA030C8B4202D3121209021F
:1039D00065D0030B8B4219D300E0090AC30B8B425D
:1039E00001D3CB03C01A5241830B8B4201D38B030B
:1039F000C01A5241430B8B4201D34B03C01A5241B0
:103A0000030B8B4201D30B03C01A5241C30A8B42F2
:103A100001D3CB02C01A5241830A8B4201D38B02DD
:103A2000C01A5241430A8B4201D34B02C01A524181
:103A3000030A8B4201D30B02C01A5241CDD2C309F3
:103A40008B4201D3CB01C01A524183098B4201D36F
:103A50008B01C01A524143098B4201D34B01C01A5A
:103A6000524103098B4201D30B01C01A5241C308D2
:103A70008B4201D3CB00C01A524183088B4201D341
:103A80008B00C01A524143088B4201D34B00C01A2D
:103A90005241411A00D20146524110467047FFE799
:103AA00001B5002000F006F802BDC0460029F7D09D
:103AB00076E770477047C04610B50A22002100F033
:103AC00079FA10BD10B50A22002100F073FA10BD7A
:103AD000014B18687047C0469401002030B500249F
:103AE000A24208D0035D651C0C5DA34201D0181BE7
:103AF00002E02C00F4E7002030BD002310B59A420C
:103B000003D0CC5CC4540133F9E710BD0300821824
:103B1000934202D019700133FAE770470FB40B4B90
:103B200013B51C68002C05D0A369002B02D120001E
:103B300000F034FC05AB049AA1682000019301F069
:103B400051F916BC08BC04B01847C04694010020C7
:103B500070B505000E00002804D08369002B01D148
:103B600000F01CFCAB69AC68002B02D1280000F00F
:103B700015FC254B9C4201D16C6808E0234B9C420C
:103B800001D1AC6803E0224B9C4200D1EC68A389D0
:103B90001B0702D52369002B11D12100280000F05A
:103BA00081FA00280BD0012040422BE0013B013676
:103BB000A360002B08DB23685A1C2260197031783F
:103BC000A3680029F2D10BE0A269934201DB0A2924
:103BD000F1D12200280000F0F9F9431CEFD1E2E70F
:103BE000013BA360002B08DA22000A31280000F014
:103BF000EDF9431CD7D00A2004E00A2023685A1CA0
:103C00002260187070BDC046FC6100001C6200009C
:103C10003C62000010B5034B01001868FFF798FFE5
:103C200010BDC046940100200EB410B59DB002A98D
:103C3000029008610B48822488604861012040425C
:103C40001FABC881084804CBA400006801938C8195
:103C500000F0C8FD0023029A13701DB010BC08BC10
:103C600003B01847FFFFFF7F940100200EB48123AB
:103C700070B59DB002AC21AD9B0040CDA3810290F8
:103C8000069000F089F80B4B60606362002360616E
:103C900009486363A364013BE38132002B002100E8
:103CA0000068019500F0F8FE1DB070BC08BC03B0C0
:103CB0001847C046E53C00009401002070B50C0098
:103CC0000E25495F01F09CFC002803DB636D1B1887
:103CD000636503E0A289024B1340A38170BDC04617
:103CE000FFEFFFFF00207047F8B51F008B8905002C
:103CF0000C001600DB0505D50E23C95E0022022349
:103D000000F0E0FBA289054B28001340A38132009C
:103D10000E23E15E3B0000F0B1F9F8BDFFEFFFFFBD
:103D200070B50C000E25495F00F0CCFBA389421C46
:103D300003D1054A1340A38104E0802252011343BA
:103D4000A381606570BDC046FFEFFFFF10B50E2375
:103D5000C95E00F01DFA10BD0200C9B21378002B35
:103D600003D0994204D00132F8E71800002900D1AD
:103D70001000704702780B78002A03D0013001311F
:103D80009A42F7D0D01A7047031C0A7801311A7092
:103D90000133002AF9D170470023C25C0133002AA5
:103DA000FBD1581E7047002330B59A420BD0013A20
:103DB000C45CCD5CAC4205D19A4202D00133002CE8
:103DC000F6D12500631B180030BD0000F8B5174B75
:103DD00006001D680F00AC6D002C1FD1502000F0B4
:103DE000E9FBA8658460AB6D046044601C61DC6025
:103DF000AB6D9C615C61AB6DDC629C62AB6D5C63C6
:103E00001C63AB6DDC639C63AB6D5C641C64AB6D6D
:103E1000DC649C64AB6D1C77AB6D5C62AA6D390091
:103E20003000012300F004F8F8BDC04694010020E2
:103E3000F0B5041E0CD11468201E09D126E0377895
:103E4000002F0CD00136B842F9D1002B04D02C0041
:103E5000651C20780E00F2E71560237015E000283D
:103E600008D1106012E00778BE4207D00130002F61
:103E7000F9D11D006B1C2E780800F4E7002E02D04B
:103E80000021297000E0330013602000F0BD000025
:103E9000F0B51E00454B87B01B68019202930822C3
:103EA0000B00059003911C7802995D1C0919487854
:103EB000104001D02B00F6E72D2C04D19D1C5C781E
:103EC0000123009304E000902B2C01D15C789D1C11
:103ED000002E02D0102E0AD162E0302C5ED12022BA
:103EE0002B789343582B54D110266C780235009FC1
:103EF00031007B1E9F412E4BFF183800FFF7D6FD87
:103F0000380004913100FFF74BFD00230322070026
:103F100094461800029A121951780422114201D0D5
:103F2000303C07E06246114017D03722012900D00B
:103F30002032A41AA64210DD5A1C0BD0B84207D872
:103F400002D1049B9C4203DC70430123201801E052
:103F500001235B422C780135DCE75A1C0BD1009819
:103F6000059A431E9841124BC01822231360019BEF
:103F7000002B0AD117E0009A002A00D04042019A93
:103F8000002A10D0039A002B00D06A1E019B1A60F1
:103F900009E03024002EAAD10826A8E70A26A6E7C1
:103FA000302C9CD0A3E707B0F0BDC0463001002004
:103FB000FFFFFF7F10B513000A00010002480068F0
:103FC000FFF766FF10BDC04694010020F8B505005C
:103FD0000F001400002804D08369002B01D100F0E9
:103FE000DDF9234B9C4201D16C6808E0214B9C42D7
:103FF00001D1AC6803E0204B9C4200D1EC68A3697E
:10400000A360A3891B070AD52369002B07D0236867
:104010002269FEB2981A636998420FDB08E021001A
:10402000280000F03FF80028F1D0012040421DE0B8
:104030002100280000F044F90028F6D1A3680130DF
:10404000013BA36023685A1C22601F706369984279
:1040500005D0A3893000DB0708D50A2E06D1210040
:10406000280000F02DF90028DFD13000F8BDC0464F
:10407000FC6100001C6200003C62000070B505009D
:10408000080011000022064C22601A00FFF77AFC9B
:10409000431C03D12368002B00D02B6070BDC046A9
:1040A00004070020364B70B51D6806000C00002D7B
:1040B00005D0AB69002B02D1280000F06FF9314B1D
:1040C0009C4201D16C6808E02F4B9C4201D1AC6846
:1040D00003E02E4B9C4200D1EC680C22A35E9AB206
:1040E000110723D4D10607D40922012032603732C8
:1040F0001343A381404242E0530713D5616B00296B
:1041000008D023004433994202D0300000F05CFA1A
:10411000002363632422A3899343A3810023636064
:10412000236923600822A3891343A3812369002BF9
:104130000BD1A0238022A1899B0092000B409342C7
:1041400003D02100300000F0F7F90123A2891340C9
:1041500005D00023A36063695B42A36103E092077B
:1041600000D46369A36000202369834207D10C2235
:10417000A35E1A0603D540221343A381013870BD04
:1041800094010020FC6100001C6200003C62000001
:10419000002370B5064C050008002360FCF75CF8AE
:1041A000431C03D12368002B00D02B6070BDC04698
:1041B00004070020F7B58A8905000C0013075AD4BC
:1041C0004B68002B02DC0B6C002B19DDE76A002F1B
:1041D00016D000232E682B6080235B011A4001D08B
:1041E000606D14E00123216A2800B847431C0ED1FA
:1041F0002B68002B0BD01D2B01D0162B02D12E606B
:1042000000205AE04022A3891343A38155E0A389EB
:104210005B0706D56368C01A636B002B01D0236C63
:10422000C01A00230200216A2800E76AB847A38960
:10423000421C06D129681D293AD8204ACA40D20713
:1042400036D50022626022692260DB0405D5431C5A
:1042500002D12B68002B00D16065616B2E600029B4
:10426000CED023004433994202D0280000F0ACF9AC
:104270000020606321E00F69002FC1D00B680F6040
:10428000DB1B01930023920700D14B69A36003E07D
:10429000019B3F181B1A0193019B002BB0DD019B72
:1042A0003A00216A2800A66AB0470028F0DCA389FA
:1042B000402201201343A3814042FEBD0100402063
:1042C0000B6970B505000C00002B01D100201CE02B
:1042D000002804D08369002B01D100F05FF80B4B5C
:1042E0009C4201D16C6808E0094B9C4201D1AC684A
:1042F00003E0084B9C4200D1EC680C22A35E002B2B
:10430000E4D021002800FFF755FF70BDFC610000DC
:104310001C6200003C62000010B5024900F0B0F8D9
:1043200010BDC046C1420000002310B50400036068
:104330004360836081814366C2810361436183611D
:10434000190008225C30FFF7E1FB054B2462636231
:10435000044BA362044BE362044B236310BDC046CD
:10436000BD3C0000E93C0000213D00004D3D000047
:1043700070B568254B1E5D430E002900743100F0B6
:104380006FF9041E08D000212A00016046600C303D
:10439000A0606832FFF7BAFB200070BD836913B5D7
:1043A0000400002B28D18364C3640365134B144AB3
:1043B0001B6882620193984201D10123836120002E
:1043C00000F020F86060200000F01CF8A0602000E1
:1043D00000F018F80022E06004216068FFF7A4FFF5
:1043E00001220921A068FFF79FFF02221221E06845
:1043F000FFF79AFF0123A36113BDC046F8610000D7
:1044000019430000F8B51D4B06001D68AB69002B71
:1044100002D12800FFF7C2FF4835AC686B68013B4A
:1044200005D40C22A75E002F10D06834F7E72B6864
:10443000002B01D02D68F0E704213000FFF798FF32
:1044400028600028F6D10C23336016E001232000F9
:104450005B42E3810233A38167662760A7606760E0
:1044600027616761A7615C3008223900FFF74EFBC6
:1044700020006763A763A764E764F8BDF8610000E4
:10448000F7B504000700002601914834002C16D02F
:104490006368A5680093009B013B00930DD4AB8932
:1044A000012B08D90E22AB5E013304D0290038005D
:1044B000019B984706436835EDE72468E6E730003E
:1044C000FEBD000070B50500080011000022064C7A
:1044D00022601A00FBF7D8FE431C03D12368002B8F
:1044E00000D02B6070BDC0460407002070B50E00E0
:1044F0001D000E23C95E90B01400002906DA0023C7
:104500002B60B3891B060FD540230FE001AA01F0F1
:1045100091F90028F3DBF023029A1B021340054AAD
:104520009B185A4253412B608023DB0000202360FC
:1045300010B070BD00E0FFFFF7B502268B890500C3
:104540000C00334210D101AB6A46FFF7CFFF009950
:104550000700280000F084F800280CD10C22A35E8C
:104560009A0523D43343A381230047332360236177
:10457000012363611AE080220D4BAB62A3892060A6
:104580001343A381009B20616361019B002B0AD030
:104590000E23E15E280001F05FF9002803D001221C
:1045A000A3891343A381A3891F43A781F7BDC046F5
:1045B0001943000010B5034B0100186800F050F8D3
:1045C00010BDC0469401002070B50500002944D0FC
:1045D0000C1F2368002B00DAE418280001F06EF9A4
:1045E0001E4A13681100002B02D16360146031E091
:1045F000A3420DD92268A018834203D118685B68D2
:104600008218226063600C6024E0A24203D8130089
:104610005A68002AF9D11E689819A0420BD1216866
:10462000711858181960824214D1106852684118E4
:1046300019605A600EE0A04202D90C232B6009E0F9
:1046400021686018824203D11068526841182160C5
:1046500062605C60280001F032F970BD0007002044
:10466000032370B5CD1C9D43083506000C2D01D2E7
:104670000C2501E0002D01DBA94202D90C23336097
:1046800048E0300001F01AF9234B1C681A002100A1
:10469000002913D00B685B1B0DD40B2B02D90B60C8
:1046A000CC181EE08C4202D1636813601AE04B689C
:1046B00063600C0016E00C004968E9E7174C2368BA
:1046C000002B03D1300000F0AFFF20602900300044
:1046D00000F0AAFF431C18D00323C41C9C43A04233
:1046E0000DD12560300001F0EAF8200007220B30E0
:1046F000231D9043C31A0ED05A42E2500BE0211AF8
:10470000300000F091FF431CEBD10C2330003360EC
:1047100001F0D5F8002070BD00070020FC06002045
:10472000F0B58E6885B007000C00039201939E429D
:1047300043D890238A89DB001A423ED003250969B9
:10474000236801985B1A029363695D43EB0F5D195F
:10475000029B6D1001331B18AB4200D91D0053059D
:1047600010D529003800FFF77BFF061E14D0029AEF
:104770002169FFF7C2F9A289194B13408022134324
:10478000A38112E02A00380001F09AF8061E0CD12D
:1047900021693800FFF718FF0C23402201203B60FD
:1047A000A38940421343A38117E0029B2661F618B8
:1047B00026606561019EED1AA560019BB34200D29F
:1047C0001E0032000399206801F063F80020A368FE
:1047D0009B1BA36023689E19266005B0F0BDC046F0
:1047E0007FFBFFFFF0B59FB0029005938B890F0010
:1047F00016001B0610D50B69002B0DD14021FFF7C9
:104800002FFF38603861002804D10C23029A013848
:104810001360D8E040237B61002306AD6B61203339
:104820006B761033AB7634002378002B03D1A31BB7
:10483000049312D003E0252BF9D00134F4E7A31B35
:10484000320039000298FFF76BFF431C00D1B4E03F
:104850006A69049B944663446B612378002B00D102
:10486000ABE00122002352426A6002A9543252187E
:1048700001342B60EB60AB601370AB65534E217855
:104880000522300000F0FAFF002807D00123801B2A
:1048900083402A68013413432B60EFE72B68DA0664
:1048A00004D55322202102A8121811701A0704D52A
:1048B00053222B2102A81218117022782A2A03D021
:1048C000099B00200A210EE0059A111D126805912E
:1048D000002A01DB099204E05242EA6002221343FB
:1048E0002B6001340BE02278303A092A04D84B437C
:1048F00001349B180120F6E7002800D009932378A3
:104900002E2B1ED163782A2B0AD1059B02341A1D47
:104910001B680592002B01DA01235B42079310E02C
:1049200000230A201A0001346B60217830390929EC
:1049300004D84243013452180123F6E7002B00D07B
:104940000792234E21780322300000F097FF0028C1
:1049500006D04023801B83402A68013413432B6018
:10496000217806221B48661C297600F087FF002864
:1049700012D0194B002B06D10722059B0733934316
:104980000833059314E005AB00933A00134B29005C
:10499000029800E000BF07E005AB00933A000F4B20
:1049A0002900029800F0A8FB0390039B013304D078
:1049B0006B69039A9B186B6135E7BB890B985B06A3
:1049C00001D5012040421FB0F0BDC0465C6200002E
:1049D00062620000666200000000000021470000E3
:1049E00070B50E0014004B1C02D10120404232E091
:1049F000938920229343626BA381CDB26368002A1E
:104A00000ED0A26B934205DA2368013B23601E702F
:104A1000636810E0210000F0CFFE0028F4D0E4E746
:104A200021692268002908D0914206D2511E0878D7
:104A3000854202D1216001330BE02364230044331B
:104A400063630323A36323004633E2631E70236082
:104A500001232800636070BD10B50C00496B00296C
:104A60000ED023004433994201D0FFF7ADFD002062
:104A7000236C60636360834202D0E36B236009E0D0
:104A8000236920222360002301206360A389404220
:104A90001343A38110BD0000F0B5B84C0D00A54430
:104AA00003930023009048934993862005AB4A93D3
:104AB000BE234000019202A9B14A5B000918CA5006
:104AC00004331E00AF4A02A90918CA50019B1A7884
:104AD000002A00D149E10821AB4C23689B185B7880
:104AE0000B4023D06B68002B11DD2B6821681A78EE
:104AF0008A18082152780A4214D0499A0133029246
:104B0000013249926A682B60013A6A60EAE78622BC
:104B100002AB52009B189B592900009802939847BA
:104B20000028E2D0019F01370197CFE701991400D7
:104B30004F1C252A55D1479345934B782A2B02D1F8
:104B40001A3B459301373C000A2221780B00303B89
:104B5000092B07D8479B013401935343303B591825
:104B60004791F2E7894F0322380000F087FE0028C2
:104B700007D00123C01B8340459A0134134301929F
:104B80004593671C2478672C18D8652C00D38BE0DC
:104B9000472C08D8452C00D386E0002C00D1E6E055
:104BA000252C1ED082E05B2C56D002D8582C41D048
:104BB0007CE0632C5ED0642C45D077E0702C33D041
:104BC00007D86E2C5ED040D8692C6FD10023469355
:104BD00040E0752C37D0782C2CD00223732C47D092
:104BE00064E06B68002B0EDD2B681A78944200D0CD
:104BF000BBE001336A682B60499B013A01930133A2
:104C00006A60499390E7862202AB52009B189B5939
:104C100029000098019398470028E5D0489800287B
:104C200000D09EE00138A4E0459B01932023019A27
:104C300013434593459B01938023019A9B001343A3
:104C40004593102302E00A2300E00823469304233F
:104C50006E2C0DDC03230BE0390005A800F0F6FCF8
:104C6000459B070001934023019A13434593012379
:104C70004B931FE0459B01934023019A13434593B7
:104C80000023F5E74599CB0600D54DE7039B499AEC
:104C9000C80704D5191D03911B681A8044E7191D24
:104CA00003911B681A603FE70523E1E703234B9359
:104CB000073346936B68002B04DD459B01935B062D
:104CC00017D51FE0862202AB52009B189B59290082
:104CD0000098019398470028EFD09FE7499A0192E6
:104CE000013249926A68013A6A60002A14DD013390
:104CF0002B602B6824491A7809688A180821527891
:104D00000A42EBD14B9B022B12DC03AB2A0045A9D4
:104D1000009800F013FB1EE0862202AB52009B18A5
:104D20009B5929000098019398470028E1D075E726
:104D3000042B06DC03AB2A0045A9009800F060FBB9
:104D400009E0134B002B00D1EEE603AB2A0045A986
:104D5000009800E000BF012807D0022800D0E3E659
:104D60005CE7AB895B0604D501E0489801E00120CF
:104D70004042A7239B009D44F0BDC04664FDFFFF59
:104D8000E1490000594A0000300100206262000041
:104D900000000000936810B5013B9360002B05DA1A
:104DA0009469A34208DBCBB20A2B05D01368581CC8
:104DB00010601970C8B201E0FFF708F910BDF8B52E
:104DC00006000F001400D518AC4208D021783A0034
:104DD0003000FFF7DFFF0134431CF5D100E0002075
:104DE000F8BD0000F0B59FB006000F0002920593D9
:104DF000002804D08369002B01D1FFF7CFFA7F4B45
:104E00009F4201D1776808E07D4B9F4201D1B7688E
:104E100003E07C4B9F4200D1F768BB891B070AD592
:104E20003B69002B07D0002306AD6B6120336B7606
:104E30001033AB763DE039003000FFF733F900283E
:104E4000F1D001204042D6E0059A111D126805916B
:104E5000002A00DA7FE00992013423782E2B00D15A
:104E60008DE021780322684800F008FD002807D073
:104E7000654B2A68C01A4023834013432B600134DA
:104E80002178631C062261480293297600F0F6FC23
:104E9000002800D19DE05E4B002B00D090E007225F
:104EA000059B07339343083305936B69039A9B185B
:104EB0006B61029C2378002B04D1029BE31A0493BC
:104EC00012D003E0252BF8D00134F3E7049B029ABB
:104ED00039003000FFF773FF431C00D186E06A6998
:104EE000049B944663446B612378002B7ED001229F
:104EF000002352426A6002A95432521801342B60D6
:104F0000EB60AB601370AB6521780522414800F07F
:104F1000B5FC002808D03F4B2A68C01A0123834003
:104F200013432B600134EFE72B68DA0604D55322D4
:104F3000202102A8121811701A0704D553222B2120
:104F400002A81218117022782A2A00D17CE7099B46
:104F500000200A2105E05242EA60022213432B603E
:104F60007AE72278303A092A04D84B4301349B1857
:104F70000120F6E7002800D16FE709936DE7637819
:104F80002A2B0AD1059B02341A1D1B680592002B9F
:104F900001DA01235B42079363E700230A201A002A
:104FA00001346B6021783039092904D84243013437
:104FB00052180123F6E7002B00D152E7079250E781
:104FC00005AB00933A00144B2900300000E000BF0D
:104FD00007E005AB00933A000F4B2900300000F0CA
:104FE0008BF80390039B013300D05EE7BB895B061F
:104FF00000D526E70B981FB0F0BDC046FC6100004D
:105000001C6200003C6200006262000066620000F8
:10501000000000005C620000BF4D0000F7B5170003
:1050200001938A680B6900900C00934200DA130028
:1050300022003B6043321278002A01D001333B60EA
:1050400023689B0602D53B6802333B600625236834
:105050001D401ED0230043331B785A1E9341226803
:1050600092061CD53020E1184331087021005A1CEB
:1050700045310978A2184332023311700FE0220043
:105080000123193201990098089EB047431C0ED0A5
:105090000135E3683A689B1A9D42F0DBDAE72200AB
:1050A000019943320098089DA847431C02D1012072
:1050B000404220E006232068E1683A68034000256A
:1050C000042B03D18D1AEB43DB171D40A368226923
:1050D000934201DD9B1AED180027BD420AD0220041
:1050E00001231A3201990098089EB047431CDED074
:1050F0000137F2E70020FEBDF0B58BB006920A0042
:1051000043320793059004920A7E0C00109B6E2A8E
:1051100000D1ABE011D8632A22D009D8002A00D1EF
:10512000B5E0582A00D0C5E045310A70814A4FE009
:10513000642A1DD0692A1BD0BCE0732A00D1AAE0E2
:1051400009D86F2A29D0702A00D0B3E0202209683C
:105150000A43226037E0752A1FD0782A33D0A9E0AD
:105160000E001A684236111D196013683370A4E0EE
:1051700021681A68080606D4490604D5111D19606D
:105180000023D55E02E0111D19601568002D3BDA81
:105190002D23049A6D42137036E021681A680806C0
:1051A00006D4490604D51568111D1960ADB202E098
:1051B000111D196015685F4B227E039308276F2A23
:1051C0001DD00A271BE022007821453211705A4A6F
:1051D00019680392081D226818600D68100602D431
:1051E000500600D5ADB2D30702D520231A43226062
:1051F0001027002D03D1202322689A432260230028
:10520000002243331A7002E00A274A4B0393636873
:10521000A360002B09DB0422216891432160002D4B
:1052200005D1049E002B11D07BE0002D79D0049E87
:1052300028003900FEF73AFC039B013E5B5C280026
:1052400033703900FEF7ACFB051EF1D1082F09D1F0
:105250002368DB0706D563682269934202DC3023AA
:10526000013E3370049B9B1B23612BE009681A6885
:10527000080607D4490605D5111D19601368A28ACE
:105280001A8004E0111D1960136862691A60002316
:10529000049E236116E01A68111D1960166800212A
:1052A0006268300000F0EAFA002801D0801B6060DC
:1052B000636803E026004236327001232361002335
:1052C000049A1370079B09AA00932100069B059876
:1052D000FFF7A4FE431C02D10120404227E02369CE
:1052E000320006990598079DA847431CF4D023680F
:1052F00000259B070FD4099BE068984217DA180035
:1053000015E022000123193206990598079EB0473F
:10531000431CE1D00135E368099A9B1A9D42F0DBFA
:10532000E9E72600039B42361B7833708EE70BB00B
:10533000F0BDC0466D6200007E620000F7B515004A
:105340008A6801900C00002A06D18A69511E8A41A0
:10535000012152420A43A2602268D20603D41A688D
:10536000111D196017680026A06900281ED110229F
:1053700023680136134203D12B681B783B70013739
:105380002A686B6801322A60A268013B013A6B60AF
:10539000A260002A1ED0002BE6DCC0235B00E3588D
:1053A0002900019898470028DED013E0012806D193
:1053B0002B6862691B78D35C002BD8D11AE00228D5
:1053C00008D12B680D4A1B781268D31808225B7825
:1053D0001342CCD010232268134006D1E268013278
:1053E000E260A269002A00D03B70236900209E1968
:1053F000266101E0002EEDD1FEBDC0463001002047
:10540000F0B50C008DB00293774B0590160009AAF9
:1054100023CB23C2754B0693A369032B01D0744B96
:105420000693AE220020A3685200591E04909142B8
:1054300005D95E3BFF3B04935E23FF33A36023004B
:105440001C330193D023002722681B0113432360E0
:10545000019B0393336809A81978BB0002221858EE
:1054600000F00CFA00283BD0012F0DD16368002B0F
:1054700006D1083322686360F933FF331343236096
:105480005C4B226813400EE0022F0DD1C021802218
:105490002368C90019409200914224D1F13AFF3AA1
:1054A0006260F03213432360A3685A1EA260002B8F
:1054B00016D0039B5D1C33685A1C32601B78039A1C
:1054C000039513707368013B7360002B08DCC023E5
:1054D0005B00E3583100059807939847002847D1AF
:1054E0000137032FB6D16368002B01D10A33636003
:1054F0001021002763686069C91A3F4BC91800F082
:10550000A5F8039DA368002B33D032686069117839
:10551000405C00282DD030290DD180202168000169
:10552000014208D0049A0137002A0BD0013A013316
:105530000492A36006E02168304B0B40236013788F
:105540002B7001357368013B7360002B03DD3368FA
:105550000133336008E0C0235B00E3583100059855
:1055600003939847002804D1A368013BA360C9E7CF
:1055700000272368DB050ED5019B9D4207D9BE237A
:10558000013D5B002978E358320005989847019B5C
:1055900001209D4225D0102223681A401AD12A707A
:1055A000636801990598069EB047029B22681B68B4
:1055B000910607D4D10705D502991A1D0A601B6808
:1055C000188004E002991A1D0A601B681860E368DD
:1055D0000133E3600020019BED1A2369ED195D1989
:1055E00025610DB0F0BDC04690620000913E000004
:1055F000B1560000FFFAFFFF9C620000FFF6FFFFBC
:1056000070B50500080011000022064C22601A0047
:10561000FAF742FE431C03D12368002B00D02B6015
:1056200070BDC04604070020002370B5064C05007D
:1056300008002360FAF7E6FD431C03D12368002B22
:1056400000D02B6070BDC0460407002070B50B78F9
:105650005E2B02D04A1C002502E001254B788A1CF3
:105660000100441CFF340D700131A142FBD1002B1D
:1056700001D1501E1BE001214D401100C5540C7892
:105680004A1C2D2C07D05D2C10D0002C01D02300FB
:10569000F3E708000BE04E785D2EF8D0B342F6DC5D
:1056A00002310133C5549E42FBDCE8E7100070BDB7
:1056B000F0B51E003F4B87B01B68049102931700A2
:1056C0000B00082105901C78029A5D1C1219527873
:1056D0000A4001D02B00F6E72D2C04D19D1C5C78EC
:1056E0000123019304E001922B2C01D15C789D1CD5
:1056F000002E02D0102E0AD157E0302C53D1202298
:105700002B789343582B49D110266C780235012011
:1057100031004042FEF744F903900120310040423D
:10572000FEF7C4F900238C461800029A121951782A
:105730000422114201D0303C07E00322114017D06F
:105740003432012900D02032A41AA64210DD002BE9
:1057500009DB039B984206D801D1644503DC704302
:105760000123201801E001235B422C780135DCE79E
:10577000002B07DA22230120059A40421360002FF4
:1057800009D115E0019A002A00D04042002F0FD025
:10579000049A002B00D06A1E3A6009E03024002EE3
:1057A000B5D10826B3E70A26B1E7302CA7D0AEE77B
:1057B00007B0F0BD300100200B00F7B54D6B44334E
:1057C0000C009D421BD18026F6003100FEF748FFF9
:1057D000002802D10120404225E023006063A66337
:1057E00046331A78104BC254230045331A780F4BB6
:1057F000C2542A780E4BC254C018206012E08E6B3F
:10580000290073001A00019300F05AF8051EE1D038
:105810008719010032003800FEF76FF9019B2760FD
:105820006563A3630020FEBDFF030000FE030000CC
:10583000FD030000002370B5064C050008001100B0
:105840002360FAF711FD431C03D12368002B00D01D
:105850002B6070BD04070020002370B5064C0500C6
:1058600008002360FAF708FD431C03D12368002BCE
:1058700000D02B6070BDC04604070020C9B282185A
:10588000904204D003788B4202D00130F8E7002028
:10589000704710B5884202D98B18984201D3002373
:1058A00005E09B1A013A08D3995C8154FAE79342C8
:1058B00003D0CC5CC4540133F9E710BD7047704786
:1058C000F8B506000C001500002904D11100FEF700
:1058D000C7FE040018E0002A03D1FEF775FE2C0075
:1058E00012E000F013F885420ED929003000FEF7CF
:1058F000B7FE071E07D021002A00FEF7FEF82100A0
:105900003000FEF761FE3C002000F8BD0B1F1A6856
:10591000101F002A04DA891804390B68D0180438DB
:10592000704700000D0A706879206964206465740E
:10593000656374206572726F7221210D0000000092
:10594000E4150000EE150000F81500000016000038
:105950000A16000014160000203E2053454743500D
:105960003A46575F5550444154453A4641494C45A3
:1059700044202D20496E76616C6964206669726DE1
:10598000776172652073697A653A202564206279AF
:1059900074657320284669726D776172652073693A
:1059A0007A65206D75737420626520776974686903
:1059B0006E202564206279746573290D0A00000049
:1059C000203E2053454743503A46575F5550444187
:1059D00054453A4E4554574F524B202D204669723C
:1059E0006D776172652073697A653A205B25645D25
:1059F0002062797465730D0A00000000203E205378
:105A0000454743503A46575F5550444154453A46FE
:105A100041494C4544202D204669726D776172657D
:105A2000207570646174652074696D656F75740D9F
:105A300000000000203E2053454743503A46575F40
:105A40005550444154453A4641494C4544202D2047
:105A50004E6574776F726B20646F776E6C6F6164E4
:105A60002074696D656F75740D000000203E205331
:105A7000454743503A46575F5550444154453A468E
:105A800041494C4544202D20506C6561736520745C
:105A9000727920746F2046572055706461746520B8
:105AA000617420415050424F4F54206D6F64650D1A
:105AB00000000000203E2053454743503A46575FC0
:105AC0005550444154453A53554343455353202D73
:105AD000202564202F2025642062797465730D0AC7
