:1000000000400020B9010000F9350000FD35000076
:1000100000000000000000000000000000000000E0
:100020000000000000000000000000000136000099
:100030000000000000000000053600000936000046
:100040000D3600001136000015360000193600008C
:100050001D3600002136000025360000293600003C
:100060002D360000313600003536000039360000EC
:100070003D3600004136000045360000493600009C
:100080004D3600005136000055360000593600004C
:100090005D36000061360000D501000065360000C5
:1000A000693600006D36000030B583B0314B324AFE
:1000B0001360324A1360324B3249002201E01A6069
:1000C00004338B42FBD32C4B1B68002B03D12B4BEF
:1000D0001B68002B00D0FEE7264B2B4A13602B4AEF
:1000E00013602B4B2B4A2C4903E010681860043333
:1000F00004328B42F9D3244B1A68284B9A4204D11C
:10010000224B1A681B689A4200D0FEE700F0CCF838
:1001100001A8694600F098F8214B224DED1AAD1068
:10012000002404E0A3001E4A9B5898470134A542CE
:10013000F8DC1D4B1D4DED1AAD10002404E0A300AA
:1001400019481B5898470134A542F8DC01980099DA
:1001500003F0B2FB051C164B164CE41AA41004E085
:10016000013CA300124A9B589847002CF8DC281C3D
:1001700000F046F8BABADECA9C010020141700202D
:100180009C0100201817002000000020980100208A
:10019000000000205C6100009C01002078563412B1
:1001A0000002000000020000000200000002000047
:1001B000000200000002000008B5FFF775FFC0460E
:1001C000FEE7C046FEE7C046FEE7C046FEE7C04683
:0801D000FEE7C046FEE7C04651
:1001D8005C610000000000209C0100205C610000C0
:1001E80000000010000000109C01002018170020DB
:0801F8000000001000000010DF
:10020000FEE7C04608B50D4B1B68002B02D10C4A17
:100210000A4B1A60094B1B680330032290431818DD
:10022000084A904206D903F037FC0C2303600120F2
:10023000404202E0014A1060181C08BDA0010020E5
:10024000181700200038002001230360014B0B60C9
:100250007047C0460400002008B503F01DFC582379
:1002600003600120404208BD08B503F015FC582387
:1002700003600120404208BD08B503F00DFC58237F
:100280000360002008BDC04608B503F005FC5823F4
:1002900003600120404208BD08B503F0FDFB582370
:1002A00003600120404208BD08B500F00DF808BD0C
:1002B000014B18687047C046A8010020014B186820
:1002C0007047C046AC01002010B5134B1A68134BA1
:1002D0001A60134B1A68134B1A60134B00221A62F0
:1002E0005C6901221440A24059698907C90F141C96
:1002F0008C405969090A3F2211405869000C02409C
:100300000A48504303F06CFBFF21214003F068FBD7
:10031000074B186010BDC046B8FD03001012004125
:10032000BCFD0300041000410010004100127A00DF
:10033000A801002038B50C1C012803D101211F4B56
:10034000196203E000211D4B19621D4C101C211C79
:1003500003F046FBC3B2012B08D8184B0122DA6127
:10036000184A5A610125012101221AE0134B00228B
:10037000DA613F221040000480225200104358618D
:100380005D6901221540AA4059698907C90F151CEA
:100390008D40EDB25969090A3F2211405869000C9D
:1003A0000240094B1C60101C604303F019FB291C20
:1003B00003F016FB054B186038BDC0460010004125
:1003C00000127A0000010200AC010020A801002008
:1003D00010B5054B1C68054B1C60054B1C68054B94
:1003E0001C60FFF7A7FF10BDB8FD0300101200410D
:1003F000BCFD030004100041F0B55F4656464D4673
:100400004446F0B480468423DB05984205D0862319
:10041000DB05984203D1354C02E0354C00E0354C09
:10042000002301260220814604229446402703250A
:10043000AA4653E0321C9A400D68154095424CD1B3
:100440000D79012D04D14546286902432A6101E056
:1004500045466A614A79484610420BD09A001559C0
:10046000281C5546A84310511059051C4846054301
:10047000155108E09A001559281C5546A8431051FB
:100480001559354315514A796046104204D09A00F7
:1004900015590543155105E09A001059051C604691
:1004A000854315514A792025154205D09A001559E2
:1004B00020200543155104E09A001559202085435A
:1004C00015514A79174204D09A0015593D431551E8
:1004D00003E09A001559BD43155101330F2BA9D9DB
:1004E0003CBC90469946A246AB46F0BD4030004128
:1004F0000030004180300041034B03600023037152
:10050000622343717047C046FFFF00000368081C68
:100510001840431E98417047CBB20133FF339B0014
:1005200019500B0A802292009B189B0019507047AB
:10053000CAB2CB430132FF3292001350090A802223
:100540009200891889000B507047C046F0B55F468D
:1005500056464D464446F0B4944600230125214AB0
:1005600092460324A346204FB946204E31E02C1C6E
:100570009C400C422CD000280BD19C00A259171C87
:100580005A469743A751A7593A1C67463A43A25186
:100590001EE001280ED19C004A46A7583A1C5F462F
:1005A000BA434F46E251E259171C624617434A4686
:1005B000A7500DE09C005746E259171C5A46974336
:1005C0005246A750A7583A1C67463A435746E2514D
:1005D00001330F2BCBDD3CBC90469946A246AB467F
:1005E000F0BDC04680200041402000410020004175
:1005F000F0B583B0041C0D1C161C1F1C6846FFF7C9
:100600007BFF00956B461E71201C6946FFF7F4FEC8
:100610008421C9058C4205D10020291C3A1CFFF712
:1006200095FF0EE08623DB059C4205D10120291CA5
:100630003A1CFFF78BFF04E00220291C3A1CFFF74D
:1006400085FF03B0F0BDC04610B5041C094B1B6B01
:10065000022B03D0074B1B6B032B02D1FFF72EFE9F
:1006600001E0FFF725FE211C03F0BAF9024B1861E7
:1006700010BDC046001000410060004008B5FFF703
:10068000E3FF034B996803220A439A60002008BDE8
:1006900000600040034901224B681A42FCD1014B23
:1006A0001860704700600040014B186880B27047C6
:1006B0000060004010B5041CFFF7ECFF201C10BDCB
:1006C00008B5044902224B681A42FCD0FFF7ECFF40
:1006D000C0B208BD006000400078C0B27047C0469C
:1006E0000170704730B5002407E065182D042D0C0B
:1006F0002D182D7815550134A4B29C42F5D330BD88
:1007000070B5002407E065182D042D0C2D18165D1A
:100710002E700134A4B29C42F5D370BD70B50B1C91
:10072000141E11D08504094AAD182E683604360C03
:10073000072210408004064A1043311C1A1C231C57
:10074000FFF7DEFFA4192C6070BDC0460C02014605
:100750000000024670B50B1C141E11D08504094A16
:10076000AD182E683604360C072210408004064A65
:100770001043311C1A1C231CFFF7B4FFA4192C6072
:1007800070BDC046280201460000034610B500298E
:100790000FD08304074A9B181A681204120C07240E
:1007A00020408004044C204389180904090C0818CF
:1007B000186010BD2802014600000346F0B54F4600
:1007C00080B4061C141C2025AD1AA9400D1C134B27
:1007D0009946134F1CE0002D05DA104B1988301C88
:1007E000FFF79AFE04E04B461988301CFFF7A0FE85
:1007F000012003F04BF83988301CFFF78DFE0120F3
:1008000003F044F83988301CFFF792FE6D00013C7C
:10081000002CE0D104BC9146F0BDC0460E00002083
:100820000C000020F0B5474680B4051C00200024D1
:100830000F4E104B984615E047003188281CFFF7F3
:100840006BFE012003F022F83188281CFFF770FEB0
:10085000012003F01BF843461988281CFFF756FEB9
:10086000384301340F2CE7D904BC9046F0BDC04694
:100870000C0000200E00002038B5041C0A4B1B8819
:100880004361012003F002F8084D2988201CFFF77E
:1008900043FE012002F0FAFF2988201CFFF748FEE2
:1008A000012002F0F3FF38BD0E0000200C000020F4
:1008B00038B5041C084B1B880361084D2988FFF7D5
:1008C0002BFE012002F0E2FF2988201CFFF730FEFA
:1008D000012002F0DBFF38BD0E0000200C000020DC
:1008E000F0B5474680B400258624E40501277F4201
:1008F000184B984623E0201C391C2022FFF75EFF8E
:10090000201C06210422FFF759FF201C291C052268
:10091000FFF754FF201C01210522FFF74FFF201C89
:10092000FFF7AAFF201CFFF77DFF061C201CFFF726
:10093000BFFF002E02D0084B9E4207D10135082D83
:10094000D9DD404603F04AF90025F8E7281C04BC2D
:100950009046F0BDC8570000FFFF000070B582B0A0
:10096000061C0D1C141C6846FFF7C6FD2B1C2343F8
:10097000009301236A461371301C6946FFF73CFD62
:100980000120211C0122FFF7E1FD0120291C012289
:10099000FFF7DCFD044B1D80044B1C80FFF7A0FF1C
:1009A000034B186002B070BD0C0000200E00002048
:1009B0000C070020024B1A6801321A607047C046CB
:1009C000B001002070B5051E082D26D88604144BF2
:1009D000F418201C1021FFF783FE201CFFF77CFE7B
:1009E0000028FAD10F4BF0181F21FFF779FE0121E3
:1009F000A9400D4B1A888A431A806A0000210B4BCC
:100A0000D1520B4B00225A550A4BF418201CFFF709
:100A100063FE0028FAD1012000E0FF2040B270BD43
:100A20001000014628000146B6010020C001002048
:100A3000B801002030000146F0B5474680B4051CDF
:100A40000E1C141C1F1C082861D8002961D0022923
:100A500001D904295DD106233B425CD1002F0DD082
:100A6000012E02D0022E04D008E021233B4205D102
:100A700053E0BA0602D57BB2002B50DA281CFFF7F0
:100A8000A1FFAB049846284A101C40440F23391C90
:100A900099433143FFF724FE002C0AD1234A1488DE
:100AA000631C9BB21380224A934202D1214A1F4BFE
:100AB0001A80214A131C43441C60204B1C1C4444D4
:100AC000201C0121FFF70CFE201CFFF705FE00286B
:100AD000FAD101231F40AF40194B1A8817431F80DA
:100AE0000121A940174B1A888A431A806B00002104
:100AF000154A9952154B00225A55154A141C444464
:100B0000201CFFF7E9FD0028FAD0E8B208E0FF203A
:100B100006E0FB2004E0FA2002E0FA2000E0FA20E0
:100B200040B204BC9046F0BD000001461000002019
:100B3000F0FF000000C0FFFF140101461000014655
:100B4000B4010020B6010020C0010020B80100203F
:100B50003000014670B5051E082D27D88404174BB8
:100B6000E018FFF7B9FD0F231840012820D1144BDE
:100B7000E618301CFFF7B0FD13281BD1114BE41809
:100B8000201C0221FFF7ACFD201CFFF7A5FD00286B
:100B9000FAD104E0281CFFF715FFFC200BE0301C05
:100BA000FFF79AFD1428F5D1012004E0FF2002E0B0
:100BB000FB2000E0FD2040B270BDC04600000146B1
:100BC0003000014610000146F8B5071E082F37D83F
:100BD00086041E4BF018FFF77FFD0F2318400128F5
:100BE00030D11B4BF418201C0821FFF779FD201C85
:100BF000FFF772FD0028FAD10123181CB840154AEE
:100C0000118881431180144A12883A41002013420E
:100C10000AD018E0301CFFF75FFD054209D0381CF0
:100C2000FFF7D0FEF3200EE00C4BF4180C4BF61837
:100C30000825201CFFF750FD0028EBD1012002E021
:100C4000FF2000E0FB2040B2F8BDC0460000014696
:100C500010000146B6010020B4010020300001461A
:100C600020000146F0B55F4656464D464446F0B476
:100C700083B083460191141C082800D981E05F46A7
:100C8000BA040092494BD018FFF726FD0F231840F5
:100C9000012879D1002C7AD0009A454BD618301C07
:100CA000FFF71AFD172801D01C2873D1414B1B8870
:100CB0005A461341DA071ED5009B3F4A9818FFF7A2
:100CC0000BFD031CC2060DD5009B3C4A9818102151
:100CD000FFF706FD01215B469940364B1A888A438F
:100CE0001A8008E000201A0758D55846FFF76AFE18
:100CF0000D20404252E0009B314A9818FFF7ECFC6F
:100D00008502ADB2AC4200D8251C009B98462D4B05
:100D100098442D4A92460123994642461468A4B24B
:100D2000301CFFF7D9FC172807D01C2805D05846DF
:100D3000FFF748FE0720404230E0524613883B410F
:100D40004A461A4201D0A54227D8A542E5D85846BE
:100D500001992A1CFFF7E2FC009B1C4A9C18201CEE
:100D60002021FFF7BDFC201CFFF7B6FC0028FAD1BC
:100D700001215B4699400F4B1A880A431A80281CB0
:100D80000CE00120404209E00520404206E00E2030
:100D9000404203E00720404200E0002003B03CBC9A
:100DA00090469946A246AB46F0BDC04600000146BB
:100DB00030000146B601002020000146280001460F
:100DC0000002014604020146B40100201000014661
:100DD000F0B55F4656464D464446F0B483B0834670
:100DE0000191141C082860D8D9468504374AA818F0
:100DF000FFF772FC0F231840012859D1002C5AD05C
:100E0000334BE818FFF768FC800280B20090A042E4
:100E100000D300942F4A521990462F4BEF182F4AB7
:100E2000924643461C68A4B2381CFFF755FC1728AD
:100E30001BD01C2813D1002C21D1294AAB181E68C5
:100E40003604360C274BE818FFF746FC8002864232
:100E50000BD15846FFF7B6FD072040422FE0584619
:100E6000FFF7B0FD0720404229E0524613884A466A
:100E70001341DA0701D5002C20D0002CD1D0009BE3
:100E8000A34200D81C1C58460199221CFFF762FCA3
:100E9000154AAD18281C4021FFF722FC281CFFF73B
:100EA0001BFC0028FAD1201C09E00120404206E08A
:100EB0000520404203E00E20404200E0002003B045
:100EC0003CBC90469946A246AB46F0BD00000146A8
:100ED000200201462402014630000146B4010020F0
:100EE000040201460002014610000146F0B55F46CB
:100EF00056464D464446F0B483B000900191171C0D
:100F00001C1C0CAB1D88082800D998E0804683047F
:100F10009B46594A101C5844FFF7DEFB0F2318402C
:100F2000022802D0042800D08CE0002F00D18CE0F1
:100F300023781B0262789B181B02A2789B181B0265
:100F4000E2789B18002B00D182E0002D00D182E0D6
:100F50004A4B1E1C5E44301CFFF7BEFB422801D0EA
:100F600022287BD12178464A101C5844FFF7B8FB51
:100F70006178444B181C5844FFF7B2FBA178424AF1
:100F8000101C5844FFF7ACFBE178404B181C584448
:100F9000FFF7A6FB3E4A131C5B441D603D4B181C2B
:100FA0005844FFF799FB8502ADB2AF4200D83D1C13
:100FB000394A171C5F44394B9A46012291463C68D6
:100FC000A4B2301CFFF788FB00284AD05246138891
:100FD000424613414A461A4201D0AC4244D3AC4285
:100FE000EDD3009801992A1CFFF798FB2C4B1C1C91
:100FF0005C44201C2021FFF773FB201CFFF76CFBD7
:101000000028FAD1274A161C5E4410240827301CF9
:10101000FFF762FB044207D0234B181C58441021F1
:10102000FFF75EFB281C20E00742F0D01E4A101C90
:1010300058440821FFF754FB0D20404215E00120E1
:10104000404212E0052040420FE00E2040420CE0FA
:101050000C20404209E00B20404206E007204042BD
:1010600003E00420404200E0002003B03CBC904676
:101070009946A246AB46F0BD00000146300001464D
:1010800027010146260101462501014624010146AA
:10109000200101460002014604020146B40100207D
:1010A000100001462000014628000146F0B55F46C9
:1010B00056464D464446F0B487B0051C029193460F
:1010C0000393082800D9D4E0061C800482467349A3
:1010D000081C5044FFF700FB01900F230340022B34
:1010E00002D0042B00D0C7E05A46002A00D1C6E047
:1010F0006B006B4A9B5A002B1BD16A4B9846D0441D
:101100006948071C57446949894642461468A4B295
:10111000381CFFF7E1FA002800D1B3E04846038805
:101120003341D90702D5002C00D1AEE0002CECD021
:1011300000E0002400225E4B5A550723019A134019
:10114000022B02D0042B3CD071E06B00544A9B5A16
:10115000002B2AD1281C04A90822FFF7FBFA554BC3
:101160001C1C5444201C4021FFF7BAFA201CFFF736
:10117000B3FA0028FAD16846037C03990B70437CCC
:101180004B70837C8B70C37CCB70037D427D1B02D4
:10119000D318109A1380827D6B00C17D12028918CA
:1011A0003F4A99528022424B5A556B003C4A9C5A06
:1011B0005C4500D95C46281C0299221CFFF7CAFA3C
:1011C0003CE06B00364A9B5A002B24D1281C04A912
:1011D0000222FFF7BFFA374B1C1C5444201C40214D
:1011E000FFF77EFA201CFFF777FA0028FAD168464D
:1011F000037C6A00417C1B02CB189BB228495352E6
:101200002D4A934204D9281CFFF7DCFB2B483DE014
:101210008022274B5A556B00214A9C5A5C4500D9C5
:101220005C46281C0299221CFFF794FA06E0281C51
:10123000211CFFF7ABFA6B00194A9C521D490E1C8A
:101240005644301C4021FFF74BFA301CFFF744FA9C
:101250000028FAD1124A69008B5A1B1B9BB28B5291
:10126000002B04D0124B595D01220A435A55201C11
:101270000CE00120404209E00520404206E00E203B
:10128000404203E00420404200E0002007B03CBCA4
:1012900090469946A246AB46F0BDC04600000146C6
:1012A000C00100202402014630000146B4010020A4
:1012B000B801002010000146EA05000017FCFFFFFE
:1012C000F0B55F4656464D464446F0B493B0554B94
:1012D0009A46181CFFF700FA0090534B9946181CC9
:1012E000FFF7FAF90190514B9846181CFFF7F4F9F3
:1012F00002904F48FFF7F0F903904E48FFF7ECF9E2
:1013000004904D48FFF7E8F905904C48FFF7E4F9E1
:1013100006904B48FFF7E0F907904A48FFF7DCF9E1
:1013200008904948FFF7D8F909904848FFF7D4F9E1
:101330000A904748FFF7D0F90B904648FFF7CCF9E1
:101340000C904548FFF7C8F90D90444F381CFFF743
:10135000C3F90E90424E301CFFF7BEF90F90414D7D
:10136000281CFFF7B9F910903F4C201CFFF7B4F987
:1013700011903E4B9B46181C8021FFF7B1F958464F
:10138000FFF7AAF950460099FFF7AAF948460199D4
:10139000FFF7A6F940460299FFF7A2F924480399FE
:1013A000FFF79EF923480499FFF79AF92248059917
:1013B000FFF796F921480699FFF792F92048079917
:1013C000FFF78EF91F480899FFF78AF91E48099917
:1013D000FFF786F91D480A99FFF782F91C480B9917
:1013E000FFF77EF91B480C99FFF77AF91A480D9917
:1013F000FFF776F9381C0E99FFF772F9301C0F9938
:10140000FFF76EF9281C1099FFF76AF9201C119953
:10141000FFF766F913B03CBC90469946A246AB462E
:10142000F0BDC04603600046026000460160004611
:101430000060004607600046066000460B600046FC
:101440000A60004609600046086000460F600046DA
:101450000E6000460D6000460C60004613600046BA
:1014600012600046116000461060004600230046EE
:1014700010B5041C01782A48FFF732F96178294831
:10148000FFF72EF9A1782848FFF72AF9E1782748D5
:10149000FFF726F921792648FFF722F961792548D7
:1014A000FFF71EF9A17B2448FFF71AF9E17B2348D7
:1014B000FFF716F9217C2248FFF712F9617C2148D9
:1014C000FFF70EF9A17A2048FFF70AF9E17A1F48E1
:1014D000FFF706F9217B1E48FFF702F9617B1D48E3
:1014E000FFF7FEF8A1791C48FFF7FAF8E1791B48ED
:1014F000FFF7F6F8217A1A48FFF7F2F8617A1948EF
:10150000FFF7EEF8A27C184B1A70E27C5A70227D2D
:101510009A70627DDA70A27D144B1A7010BDC046BD
:10152000036000460260004601600046006000461D
:1015300007600046066000460B6000460A600046F1
:1015400009600046086000460F6000460E600046D5
:101550000D6000460C6000461360004612600046B5
:101560001160004610600046D4010020D001002028
:1015700010B5041C2A48FFF7AFF820702948FFF780
:10158000ABF860702848FFF7A7F8A0702748FFF76E
:10159000A3F8E0702648FFF79FF820712548FFF771
:1015A0009BF860712448FFF797F8A0732348FFF772
:1015B00093F8E0732248FFF78FF820742148FFF773
:1015C0008BF860742048FFF787F8A0721F48FFF778
:1015D00083F8E0721E48FFF77FF820731D48FFF77D
:1015E0007BF860731C48FFF777F8A0711B48FFF782
:1015F00073F8E0711A48FFF76FF820721948FFF787
:101600006BF86072184B1A78A2745A78E2749A7860
:101610002275DB786375154B1B78A37510BDC0462A
:10162000036000460260004601600046006000461C
:1016300007600046066000460B6000460A600046F0
:1016400009600046086000460F6000460E600046D4
:101650000D6000460C6000461360004612600046B4
:101660001160004610600046D4010020D001002027
:1016700038B5041C3823021C9A430AD1064D281C95
:10168000FFF72AF80443E1B2281CFFF729F80020ED
:1016900000E0FF2040B238BD0023004608B50248F4
:1016A000FFF71AF808BDC0460023004610B5041C19
:1016B00001780348FFF714F86288024B1A6010BDE6
:1016C000446000464060004610B5041C0348FFF724
:1016D00003F82070024B1B68638010BD4460004615
:1016E0004060004610B50C1C052820D88000114B26
:1016F0001B589F46081CFFF7BBFE002018E0081C83
:10170000FFF736FF002013E00878FFF7B1FF0FE086
:10171000FFF7C4FF207000200AE0081CFFF7C6FF97
:10172000002005E0081CFFF7CFFF002000E0FF20AD
:1017300040B210BDE457000008B500F081FB00F096
:10174000C3FC08BD08B50948FEF7C6FF172801D03D
:101750001C2803D10220FFF737FA02E00220FFF72E
:1017600031F90120FFF72EF908BDC04630000946C7
:1017700008B5FFF7E7FFBFF34F8F034A034BDA606B
:10178000BFF34F8FFEE7C0460400FA0500ED00E00E
:10179000F0B5474680B482B0041C884600F04CFB8C
:1017A000071C002201AB1A80261CA504464AA81873
:1017B000FEF792FF172808D002D800286DD07CE0F1
:1017C00018286AD01C2863D077E0404BE818FEF751
:1017D00083FFC20707D501223D4B1A703D4BE81825
:1017E0000121FEF77DFF3C4B1B78012B04D1201C0F
:1017F000FFF7EAF9002062E0384AAD182D68ADB273
:10180000002D5BD080231B019D4200D91D1C344B51
:101810001A68A9183B1CA833DE78187900023043F7
:101820005E79360430439B791B060343994201D904
:101830009D1AADB2201C41462A1CFFF7C9FA85B299
:10184000274E03041B0C32689B1833602B0A01A936
:101850000B704870201C0222FFF704FA0022214B73
:101860001A80A837FB783A7912021A437B791B0455
:101870001A43BB791B061A4333689A421ED80022CA
:10188000194B1A80124B1A70201CFFF79DF915E0B6
:10189000201CFFF799F9002510E0201C0121134AB4
:1018A0002023FFF7C9F80025864207D100220C4B00
:1018B0001A60201CFFF74EF900E00025281C02B03A
:1018C00004BC9046F0BDC0463000014620000146F1
:1018D000DC01002028000146E90100202402014625
:1018E000D8010020E0010020DE01002052C30000EA
:1018F0001F4B1B78012B1AD11E4B1A8892B21E4B1C
:101900009A4205D01B4B1A88013292B21A8002E02B
:101910000022184B1A80174B1A8892B2174B9A4222
:1019200005D90122164B1A700022124B1A80154B52
:101930001B78012B1AD1144B1A8892B20E4B9A4283
:1019400005D0114B1A88013292B21A8002E00022AF
:101950000D4B1A800C4B1A8892B2084B9A4205D94B
:1019600001220A4B1A700022074B1A807047C046AA
:10197000DD010020DE010020FFFF000087130000D2
:10198000E8010020DC010020E0010020E901002046
:101990000023074A1370074A1370002206490B8080
:1019A00006490B80064B1A70064B1A707047C046EA
:1019B000DD010020DC010020DE010020E00100202C
:1019C000E8010020E9010020F8B5051C00F034FA18
:1019D000041C00F031FA061CA823E25C4020002A17
:1019E00000D198E0231CA833DA7819790902114351
:1019F0005A79120411439B791B0619434A1E464B20
:101A00009A420BD94536327A012A00D083E0434806
:101A1000C822520202F066F840207CE0022D58D124
:101A2000331C45331B7A012B02D13D4802F05AF892
:101A300000223C4B1A60022000F034F901223A4B9C
:101A40001A703A4F374D0420391CFFF7A1FE031ED0
:101A50000FD02868E022D20181180220334A00F01A
:101A60004DF90004000C2B68C01828600022304B90
:101A70001A80304B1B78012B09D1331C45331B7A5C
:101A80004027012B2DD12C4802F0A8F829E02B4B40
:101A90001B78012B09D1331C45331B7A4027012BBE
:101AA0001FD1274802F09AF81BE000F0ADF9231C83
:101AB000A833D9781A7912020A43597909040A43DA
:101AC0009B791B061A43174B1B689A42BBD82027E9
:101AD00007E04027042D04D11A4802F07FF8402087
:101AE00019E0A834E378227912021A4363791B04BF
:101AF0001A43A3791B061A430A4B19688A4207D175
:101B00004536337A8027012B02D10F4801F0EAFFD6
:101B1000FFF73EFF381CF8BDFF8F0100FC570000A7
:101B200064580000E4010020DD010020140F0020B3
:101B3000DE010020E8010020A0580000E90100209B
:101B4000D8580000105900005859000030B5051C45
:101B5000002302E05C5DCC540133181E9042F9D39F
:101B600030BDC046F8B5054D802464002E590127CC
:101B70007F422F51024FB8472E51F8BD00E100E0DF
:101B80000110FF1F08B5011CC303DB0B834210D0FB
:101B90000D4B984203D90D4B034083420BD00B4BA6
:101BA000994210D98B039B0B8B420CD10021112041
:101BB00003E0122001E00021102072B60022002371
:101BC000FFF7D0FF62B608BDFFFD0300FFFE030074
:101BD00008B5011CC303DB0B834206D172B6132088
:101BE00000220023FFF7BEFF62B608BDF8B5041C53
:101BF0000F1C151C114B984208D983039B0B834281
:101C000004D1002080235B009A4215D8002D04D116
:101C1000631900200A4A93420ED80020094B0A4A51
:101C2000A6189E4208D972B62220211C3A1C2B1CF1
:101C3000FFF798FF62B6281CF8BDC046FFFD030001
:101C4000FFFF0300FFFD01000000FEFF20B501289B
:101C50000DD0002804D0022810D0032815D01AE097
:101C60000E48111C0622FFF771FF051C13E00C48FB
:101C7000111C1A1CFFF76AFF051C0CE0081C111C44
:101C80001A1CFFF763FF051C05E0081C111C1A1C39
:101C9000FFF75CFF051C281C20BDC04600FE0300AA
:101CA00000FF030038B5041E012C0AD0002804D020
:101CB00002280DD0032808D00CE00E48FFF762FF81
:101CC00008E00D48FFF75EFF04E08025AD0201E06B
:101CD000E025ED01023C012C0AD806E0200328187B
:101CE000FFF776FF0134A4B200E00024182CF5D9E8
:101CF00038BDC04600FE030000FF0300E0B5151C20
:101D00001F1C012810D0002804D0022816D0032858
:101D10001BD020E00020FFF7C5FF1048291C062239
:101D2000FFF764FF061C16E00120FFF7BBFF0C481D
:101D3000291C3A1CFFF75AFF061C0CE0081C111C5A
:101D40001A1CFFF753FF061C05E0081C111C1A1C87
:101D5000FFF74CFF061C301CE0BDC04600FE030030
:101D600000FF03000022014B1A607047F8010020B9
:101D700008B51F4B1A88013292B21A8001F048FA56
:101D8000FFF7B6FD1B4B1B78002B0CD01A4A1388AB
:101D900001339BB21380632B05D90122174B1A70B4
:101DA0000022154B1A80124B188880B2FA21890044
:101DB00001F05AFE89B2002909D100220C4B1A8089
:101DC0000F4B1A88013292B21A80FEF7F3FD0C4BCA
:101DD000188880B23C2101F047FE89B2002906D163
:101DE0000022074B1A80074B1A6801321A6008BD9F
:101DF000EA010020FD060020EC010020F601002091
:101E0000F4010020F001002008B5064A1368591CAF
:101E10001160222B04D9FFF7ABFF0022014B1A609F
:101E200008BDC046F80100207047C04608B5E12053
:101E30004002FEF723FC08BD00487047FC0100206B
:101E4000F8B55F4656464D464446F0B47D4CF923FE
:101E500023800025A5700126E6702571671D381CBA
:101E600000210F2201F036FE381C7749092201F0CB
:101E700028FE267502216175A575C0226277A8200B
:101E80008146A0770B23E37720202154212162543F
:101E90002221484660542321635424216654FF21A3
:101EA00025202154262021542720215428216554FF
:101EB000292166542A2166542B218A4662542C22F9
:101EC0004946A1542D22A35403222E23E254782301
:101ED0005B422F22A354132213203021605431215E
:101EE0006354322162540020332160543421605401
:101EF000482040423521605436210B206054002098
:101F00003721605438216054392165543A21655491
:101F10003B2165543C2165543D2165543E21655467
:101F20003F216554402166545820412160541B20B4
:101F300042216054432163544423E2544523E55431
:101F40000C2293464623E2544723E6544823E554A3
:101F50004923E5544A23E5544B23E5544C23E554E7
:101F60004D23E654231CA565E565583300271D81E4
:101F7000231C4E331D805D809D80DD801D8162238A
:101F8000E7546323E7546423E75408218846652314
:101F9000E1546623E1546723E1546823E154201C93
:101FA00069300021322201F095FD9A234046E05429
:101FB0009B23E6549C23E7549D235146E1549E23E2
:101FC000E1549F23E154A0230F22E252A223E652C0
:101FD000A4235A46E252A623E5524B46E754522226
:101FE000A923E2543D225242AA23E2540022AB2309
:101FF000E254AC23E058020E1206E2505022B02305
:10200000E252B2230122E254251CB335281C0021E0
:102010001E2201F05FFD281C0C49132201F051FD26
:10202000D134201C0021282201F054FD201C084935
:10203000202201F046FD3CBC90469946A246AB46A4
:10204000F8BDC046FC010020A0590000AC590000BA
:10205000C059000010B501F045FA194C01200021CB
:10206000221CF923FFF7F2FD221C17320020002169
:102070000623FFF7EBFD2288013A92B2114B9A42F8
:1020800007D9FFF7DDFE012000210D4AF923FFF7F4
:1020900035FE0B4B01221A7502225A7500229A75E1
:1020A0004A229B5C033B012B04D801214523044AAF
:1020B000D15404E001F020FA4523014AD05410BD68
:1020C000FC010020FDFF0000F0B5C1B00024002796
:1020D000154D2E1C012000212A1CF923FFF70EFEAE
:1020E0000120002101AAF923FFF7B0FD281C01A956
:1020F000F92201F0D7FC00280AD00134E4B24D23C4
:10210000F35C002B05D00948211C01F0EBFC00E03A
:102110000127FA20800001F0B9FB042C01D8012F1F
:10212000D8D141B0F0BDC046FC010020E05900000C
:1021300008B501F0C6FC08BDF0B58BB0FFF77CFE1A
:10214000051C04AC0120211CFFF7CCFA2178627831
:10215000A378E7782679607900970196029038484D
:1021600001F0C0FCA179E279237A667A2F202F5CF6
:102170003020285C0002384300960190314801F07D
:10218000B1FCA17BE27B237C607C00902E4801F0B7
:10219000A9FCA17AE27A237B607B00902B4801F0B6
:1021A000A1FCA17CE27C237D607D0090284801F0A9
:1021B00099FC2923EB5C012B3DD06423EB5C012BC4
:1021C0000BD1291C69313123EB5C3222AA5C12024B
:1021D0001A43204801F086FC2DE02B23E95C2C23D8
:1021E000EA5C2D23EB5C2E202C5C31202E5C32200F
:1021F000285C0002304300940190174801F072FC03
:102200002923EB5C032B16D12B23EB5C002B0FD186
:102210002C23EB5C002B0BD12D23EB5C002B07D187
:102220002E23EB5C002B03D10C4801F0D7FC02E01D
:102230000B4801F0D3FC0B4801F0D0FC0BB0F0BD13
:10224000085A0000305A0000545A00006C5A00002E
:10225000845A00009C5A0000C45A0000F05A000042
:10226000045B0000945F000010B586B0FFF7E4FD4A
:10227000041C011C173168460622FFF759FF211C78
:102280001D31684606300422FFF752FF211C213120
:1022900068460E300422FFF74BFF211C25316846AB
:1022A0000A300422FFF744FF211C653168461230D2
:1022B0000422FFF73DFF6323E35C002B03D00223DE
:1022C0006A46937502E001236A46937500206946C9
:1022D000FFF708FA06B010BDF8B5061C0F1C002366
:1022E0000B70224D0AE0201C01F038FD021C301C4E
:1022F000211C01F03AFD002803D004352C68002C85
:10230000F1D1002C30D0194BED1AAD10EDB22B2DC0
:102310000CD1337AFF200D2B27D1737A0A2B24D1CD
:10232000B11C381C062201F0CCFB1BE02C2D15D172
:1023300003E0FA540133DBB200E000239A1CB25CE4
:102340000D2AF6D1F618F278FF200A2A0DD1F918D5
:1023500000220A700133FF183A7003E0B11C381CE8
:1023600001F0F4FC281C00E0FF20F8BD1C00002058
:10237000F0B55F4656464D464446F0B497B0041C4F
:102380008846FFF759FD83460022002369465731EE
:102390000A7015A90A804046027043708370C370AA
:1023A000201CE24901F0F8FC0027E1498A4600F0D0
:1023B000E4FD04A9FFF790FF041EFF2C01D100F0FB
:1023C000D5FD04AE301C01F0C9FC80B281463078E6
:1023D000002800D092E2A300D64A99584046022233
:1023E00001F06FFB46460236382C00D965E2A400A6
:1023F000D14B1B599F465B46DA7D1B7E5C46657E52
:10240000A47E5946C87E097F0095019402900391ED
:10241000301CCA4901F0ECFB5BE25B461A7D5B7D38
:102420005C46A17D0091301CC54901F0E1FB50E202
:1024300059460531301C01F089FC4AE263235846B5
:10244000C25C301CBF4901F0D3FB42E2292359464C
:10245000CA5C301CBB4901F0CBFB3AE2301CB949E5
:10246000002201F0C5FB34E2301CB649002201F025
:10247000BFFB2EE262235C46E25C301CB14901F0F6
:10248000B7FB26E24D235846C25C301CAD4901F033
:10249000AFFB1EE240235946CA5C301CA94901F03B
:1024A000A7FB16E241235A46D35C42225C46A25C5B
:1024B00012021A43301CA34901F09AFB09E243239C
:1024C0005846C35C4422825C12021A43301C9D4968
:1024D00001F08EFBFDE135235946CB5C36228A5C48
:1024E00012021A43301C974901F082FBF1E15B466E
:1024F0005A7F9B7F5C46E07F2021615C00900191C8
:10250000301C914901F074FBE3E125235846C25C7D
:102510002623C35C2721405C28215C46615C009037
:102520000191301C884901F063FBD2E12123584618
:10253000C25C2223C35C2321405C24215C46615C95
:1025400000900191301C804901F052FBC1E16523EC
:102550005846C25C6623C35C6721405C68215C46C8
:10256000615C00900191301C774901F041FBB0E1C2
:10257000301C7649202201F03BFBAAE1301C734954
:10258000202201F035FBA4E1301C6E49002201F04D
:102590002FFB9EE1301C6B496D4A01F029FB98E14D
:1025A000301C6A49202201F023FB92E1301C67496C
:1025B000202201F01DFB8CE158464379002B05D108
:1025C000301C6249202201F013FB82E15A46053299
:1025D0005946837EC07E097F00900191301C5D4981
:1025E00001F006FB75E12F235A46D35C30225C468E
:1025F000A25C12021A43301C524901F0F9FA68E158
:1026000031235846C35C3222825C12021A43301CCA
:102610004C4901F0EDFA5CE164235946CB5C002B98
:102620000FD12B23CA5C2C23CB5C2D215C46605C34
:102630002E21615C00900191301C434901F0D8FAD1
:1026400047E16923CB5C002B05D1301C3F49202298
:1026500001F0CEFA3DE1301C5946693101F076FBBC
:1026600037E146235946CA5C301C364901F0C0FAAE
:102670002FE147235C46E25C301C324901F0B8FA96
:1026800027E148235846C25C301C2E4901F0B0FABD
:102690001FE149235946CA5C301C2A4901F0A8FAB7
:1026A00017E14A235C46E25C301C264901F0A0FA9F
:1026B0000FE133235846C35C3422825C12021A4372
:1026C000301C204901F094FA03E137235946CB5CD2
:1026D00038228A5C12021A43301C1A4901F088FA27
:1026E000F7E039235C46E25C301C164901F080FAC1
:1026F000EFE03A235846C25C301C174901F078FAE3
:10270000E7E09B235946CA5C301C0E4901F070FA81
:10271000DFE09D235C46E25C9E23E35C9F21615CDD
:102720000091301C0D4901F063FAD2E0C05A00005C
:10273000F80200201C000020185B0000E05C000094
:10274000005D00000C5D0000105D00001C5D0000DD
:10275000D60B0000205D0000385D0000305D0000F9
:102760004E235846C35C002B05D1301CC74920229C
:1027700001F03EFAADE0301C59464E3101F0E6FA68
:10278000A7E058235946CB5C002B05D1301CBF492C
:10279000202201F02DFA9CE059465831301C01F0FE
:1027A000D5FA96E081231B021F4392E082231B028D
:1027B0001F438EE0B64B1B787722934302D0102341
:1027C0001F4386E086231B021F4382E0B04B1B7829
:1027D0007722934302D020231F437AE086231B02F3
:1027E0001F4376E0AA4B1B787722934302D08023C5
:1027F0001F436EE086231B021F436AE045235C46AD
:10280000E25C9200A34BD158301C01F09FFA60E0CB
:1028100045235846C25C301C9F4901F0E9F958E055
:102820002A235946CA5C92009C4BD158301C01F0B7
:102830008DFA4EE0964B1B78772293430FD02F23CF
:102840005C46E25C3023E35C1B021343012B03D1A3
:1028500084235B011F433CE088231F4339E0862328
:102860001B021F4335E09C235846C25C301C8A493A
:1028700001F0BEF92DE084235B011F4329E0301CE9
:102880008549002201F0B4F923E0814B1B787722BF
:10289000934306D001222A235946CA5490231F434A
:1028A00017E086231B021F4313E09A235C46E25C79
:1028B000301C794901F09CF90BE084231B021F4373
:1028C0002A235846C25C9200744BD158301C01F048
:1028D0003DFA734B1F4203D0002341460B7048E37F
:1028E000301C01F03BFA30186E49032201F0E9F880
:1028F000301C01F033FA3618B0463AE352461378EA
:102900007722934300D12DE3382C00D926E3A4008D
:1029100065490B599F465A46D37D002B09D1137E3A
:10292000082B06D1537EDC2B03D183231B021F43CC
:102930001FE304A85D495A46173200F03DFD002808
:1029400000D016E385231B021F4312E383231B02DF
:102950001F430EE300F0E2FC6B46573318704B4602
:10296000012B01D1012803D985231B021F4300E35A
:1029700063235C46E054FCE200F0D0FC6B46573326
:1029800018704946012901D1032803D985231B0268
:102990001F43EEE229235A46D054EAE200F0BEFC7F
:1029A0006B46573318704B46012B02D1012800D8D3
:1029B000DFE285231B021F43DBE200F0AFFC6B4626
:1029C000573318704C46012C02D1012800D8D0E2B0
:1029D00085231B021F43CCE200F0A0FC6B4657335B
:1029E00018704946012901D1012803D985231B020A
:1029F0001F43BEE262235A46D054BAE200F08EFC76
:102A00006B46573318704B46012B01D1012803D96F
:102A100085231B021F43ACE24D235C46E054A8E231
:102A200000F07CFC6B46573318704946012901D1F0
:102A3000012803D985231B021F439AE240235A46EB
:102A4000D05496E204A801F021F8194B984203D91A
:102A500085231B021F438CE280B241235C46E05475
:102A6000000A4223E05484E204A801F00FF8104B5E
:102A7000984203D985231B021F437AE280B2432385
:102A80005946C854000A4423C85472E21C5D000031
:102A9000F8020020140000200C5D0000040100205A
:102AA000B080FFFFC05A0000FC5B0000405D0000EA
:102AB000FFFF000004A800F0E9FFCA4B984203D9C9
:102AC00085231B021F4354E280B235235A46D0545B
:102AD000000A3623D0544CE204A814A900F09AFB53
:102AE00000280BD014AB1A785C4662775A78A2772C
:102AF0009A78E277DA782023E2543AE285231B02BF
:102B00001F4336E204A814A900F084FB00280ED06D
:102B100014AB1978252258468154597826228154BD
:102B2000997827228154DA782823C25421E2852318
:102B30001B021F431DE204A814A900F06BFB002830
:102B40000ED014AB197821225C46A1545978222268
:102B5000A15499782322A154DA782423E25408E27C
:102B600085231B021F4304E204A814A900F052FBB2
:102B700000280ED014AB1978652258468154597834
:102B800066228154997867228154DA786823C25486
:102B9000EFE185231B021F43EBE149460E2903D9D0
:102BA00085231B021F43E4E1202803D100235A465A
:102BB0005371DEE15846053004A901F0C7F8D8E1A9
:102BC00004A800F063FF874B984203D985231B02BA
:102BD0001F43CEE180B22F235C46E054000A30232D
:102BE000E054C6E104A800F051FF7E4B984203D99F
:102BF00085231B021F43BCE180B231235946C854D0
:102C0000000A3223C854B4E104A814A900F002FB5E
:102C1000002811D0002264235C46E25414AB1978DA
:102C20002B22A15459782C22A15499782D22A154F9
:102C3000DA782E23E2549CE1012264235846C254E0
:102C400004AB1B78202B03D100226923C25490E1EE
:102C50005846693004A901F079F88AE104A800F027
:102C60000FFF80B215AB18804946022901D80E2803
:102C700003D985231B021F437BE146235A46D054C8
:102C800077E100F04BFB6B46573318704B46012B36
:102C900001D1012803D985231B021F4369E1472382
:102CA0005C46E05465E100F039FB6B465733187021
:102CB0004946012901D1022803D985231B021F435C
:102CC00057E148235A46D05453E100F027FB6B46A6
:102CD000573318704B46012B01D1012803D98523A6
:102CE0001B021F4345E149235C46E05441E100F0EB
:102CF00015FB6B46573318704946012901D104284A
:102D000003D985231B021F4333E145235A46D35C75
:102D1000012B0BD1C31EDBB2012B04D900224A23A5
:102D20005C46E25425E14A23D05422E14A235A4624
:102D3000D0541EE104A800F0A9FE2A4B984203D902
:102D400085231B021F4314E180B233235C46E05409
:102D5000000A3423E0540CE104A800F097FE214B54
:102D6000984203D985231B021F4302E180B2372317
:102D70005946C854000A3823C854FAE004A800F0A1
:102D80007FFE80B215AB18804A46032A01D8FF287F
:102D900003D985231B021F43EBE039235C46E05433
:102DA000E7E04846022804D104A800F09DFA002874
:102DB00003D185231B021F43DBE06C46573404A874
:102DC000211C00F0C7FA23783A2259468B54002B75
:102DD00003D100223E23CA54CBE001223E23CA5431
:102DE000C7E0C046FFFF000000F098FA6B4657337B
:102DF00018704946012901D1012803D985231B02F6
:102E00001F43B6E09B235A46D054B2E04B46062BF4
:102E10000CD104A800F068FA002807D004A859468D
:102E20009D3100F097FA002800D0A2E085231B0214
:102E30001F439EE04C46092C03D985231B021F43E8
:102E400097E0202804D100224E235846C25490E037
:102E500058464E3004A900F079FF8AE04946092916
:102E600003D985231B021F4383E0202804D10022BD
:102E700058235C46E2547CE05846583004A900F0E0
:102E800065FF76E004A800F001FEC8235B029842CB
:102E90000DD90022AB235846C254AC23C254AD23F3
:102EA000C254AE23C25485231B021F4361E0AB23EF
:102EB0005946C854020AAC23CA54020CAD23CA5462
:102EC000000EAE23C8540122A823CA5440231F4336
:102ED0004A7F8B7FC87F20215C46615C0090019116
:102EE0002C49029140462C4900F082FE41E000F05E
:102EF00015FA6B46573318704946012901D101284C
:102F000003D985231B021F4333E09C235A46D05428
:102F10002FE000F003FA6B46573318704B46012B35
:102F200001D1012825D985231B021F4321E004A8D4
:102F30001A4915AA00F07EFE4C46032C03D815ABA7
:102F40001B88FF2B03D985231B021F4302E09A2213
:102F50005846835481231B021F430AE084231B022B
:102F60001F4306E086231B021F4302E084231B024B
:102F70001F4300200A4900F00FFF002801D0FFF78F
:102F800018FA381C17B03CBC90469946A246AB468E
:102F9000F0BDC04652C30000445D00000C5D00005F
:102FA000C05A0000F0B55F4656464D464446F0B460
:102FB00099B0041C0E1CFEF73FFF051C00225C4B61
:102FC0001A705C48FDF788FB002800D19DE022289C
:102FD00000D0A2E0584B1A6892B20027002A00D114
:102FE0009EE06B465A3300930120211C17ABFEF77D
:102FF0005DF803041B0C013BE31800221A70201C2F
:1030000006A9FFF769F9031C00202B2B00D088E0EC
:1030100006A84A49062200F045FD002806D1444B87
:103020001978802252420A431A700DE006A8291C22
:103030001731062200F036FD002870D13C4B19787C
:10304000782252420A431A70394B00229A560020C5
:10305000002A66DAEB7D297E88466A7E9446AF7E3A
:10306000E87E297F8A46AC229346354959440A684E
:1030700041460091614601910297039051460491A7
:10308000301C304900F0B4FD0A340A2292199046EF
:10309000201C06A9FFF720F900272C2840D106ABF9
:1030A0001B78202B03D15823EB5CBB4207D0291C93
:1030B000583106A800F040FE0027002830D106A8AD
:1030C00000F04CFE021D4046211C00F0FAFC06A850
:1030D00000F044FE051D60194544291CFFF748F91E
:1030E000071C06A800F03AFE041C281C00F036FE5F
:1030F00022180E3292B26B465A331B88009301207D
:10310000311C114BFDF7F2FE0AE0012002210F4AAB
:103110000023FDF791FC002702E0002700E00027D4
:10312000381C19B03CBC90469946A246AB46F0BD4F
:10313000F80200203000054624020546585D0000D4
:103140001C000020605D0000745D000051C30000A1
:1031500038B5FEF771FE051C2A482B49FFF722FF00
:10316000041C02044DD400284BD0030702D5FEF7FF
:10317000E3FA0FE0C20602D5FEF7A6FF0AE0C30499
:1031800008D5224800F02AFD0020FEF78BFD012023
:10319000FEF788FD620630D50220FEF715FC802878
:1031A0001AD10022A823EA54AB23EA54AC23EA54F0
:1031B000AD23EA54AE23EA5401222A23EA54FEF74F
:1031C00083FFE020C00100F035FBFA20400000F052
:1031D0005DFBFEF7CDFA14E00022A823EA54AB23EE
:1031E000EA54AC23EA54AD23EA54AE23EA54FEF782
:1031F0006BFF0420FDF7E6FB03E0230601D5FEF795
:10320000B7FA38BDFC040020FC020020945F0000E7
:103210007047C046F0B55F4656464D464446F0B44A
:1032200085B08046019100F099FDC0B2009003ABDB
:1032300000221A809A70031C073B0020082B4AD8F2
:1032400000220025002427498A460423994603AE1C
:103250002DE047463B5D57463F68F91849784F4691
:103260000F420DD09100521852009A18303A92B283
:10327000FF2A27D8411CC9B23354032914D923E0AB
:103280002E2B23D1FF2A23D80135EDB2042D21D8CE
:103290006B1E019FFF18301C00F0F2FB38700023FA
:1032A0003380B370002100220134E4B2081C009F77
:1032B000BC42CED3019F7D1903A800F0E1FB28702A
:1032C000012008E0002006E0002004E0002002E0E9
:1032D000002000E0002005B03CBC90469946A24684
:1032E000AB46F0BD30010020F8B5051C00240A4FA4
:1032F000442607E02B5D3A68D3185B781E4208D05D
:103300000134E4B2281C00F029FD8442F2D30120EC
:1033100000E00020F8BDC04630010020FF23102847
:1033200014D90B4B1B681B185B785A0702D5303831
:10333000C0B20AE0031C283B3E2B02D85138C0B271
:1033400003E0472801D93138C0B2031C181C70476C
:1033500030010020F8B5041C0E1C00F0FFFCC2B2C6
:1033600094460023C20724D46246102A21D8237829
:10337000002B1ED00022002318E0191CE05C392825
:1033800002D93738C7B201E03038C7B2611848787F
:10339000392802D93738C1B201E03038C1B2551CE2
:1033A00038010843B0540233DBB2EAB26345E4D3D8
:1033B0000123181CF8BDC046F0B557464E46454699
:1033C000E0B484B0061C8846924600F0C7FCC0B248
:1033D0003378002B2ED0002311282BD1002401ADEF
:1033E000A1461DE0271C610009197118281C032241
:1033F00000F067FBA978002904D0404600F090FC5B
:10340000002816D04B46AB70281CFFF76DFF031E3B
:1034100010D002ABD919281CFFF79CFF0134E4B28D
:10342000052CDFD9504602A9062200F04AFB0123F1
:1034300000E00023181C04B01CBC90469946A2462C
:10344000F0BDC04608B50120FEF7EEFC6123084A36
:103450001360084A13608620C0058021C9018022BC
:103460001202FDF77BFA0020FEF7DEFC08BDC04625
:1034700070300041543000410223024A1360024A76
:1034800013607047701100410820004108B5842086
:10349000C0058021890000220123FDF7A9F808BD9D
:1034A00010B58424E405201C022100220123FDF72D
:1034B0009FF80223636110BD38B500248425ED0513
:1034C0000AE0281C0221FDF721F8002808D1052078
:1034D00000F0DCF90134E4B2042CF2D9002000E061
:1034E000012038BD08B58820C005402100220123F5
:1034F000FDF77EF808BDC04608B58820C00540210C
:10350000FDF704F808BDC04638B58824E4058025D9
:10351000ED01201C291C00220123FDF769F86561DB
:1035200038BDC04608B58820C0058021C901FCF718
:10353000EDFF08BDF0B583B0041E012C17D8420082
:103540000C4BD55A009501236A4613710A4E870029
:10355000B8596946FCF750FF084B185D084B1A5DD7
:10356000291CFCF7F3FFB859291CFCF7D5FF03B061
:10357000F0BDC046E45E00002801002020010020CC
:103580002401002008B5FFF75DFFFFF789FFFFF773
:1035900093FF42424241064B1A70FFF777FFFFF755
:1035A000B3FF0020FFF7C6FF0120FFF7C3FF08BDF0
:1035B000FC06002008B5012808D88200044BD35827
:1035C0004000044A815A181CFCF7B2FF08BDC046EF
:1035D00028010020E45E0000012808D88200044B86
:1035E000D35859684000034A825A4A405A6070478B
:1035F00028010020E45E00007047C0467047C046C6
:103600007047C0467047C0467047C0467047C046C6
:103610007047C0467047C0467047C0467047C046B6
:103620007047C0467047C0467047C0467047C046A6
:103630007047C0467047C0467047C0467047C04696
:103640007047C0467047C0467047C0467047C04686
:103650007047C0467047C0467047C0467047C04676
:103660007047C0467047C0467047C0467047C04666
:1036700008B5FFF701FF054A0020111CFCF7A8FE62
:10368000FEF770FBFEF7D2FB08BDC04600127A00C1
:1036900000B583B0FDF714FEFCF70AFE064900F002
:1036A0009FF9064B186001A808230370044B438060
:1036B000FDF7FCFF03B000BD10270000002000460E
:1036C000C409000008B54368026882F30888984777
:1036D00008BDC04670B582B0FEF7AEFB041C0E48B4
:1036E00000F07CFA0D4E0E4D301C291C00F0FAF94A
:1036F0000C4800F073FA0C4800F070FA217D627DEE
:10370000A37D0A4800900A4800F0ECF9301C291CFF
:1037100000F0E8F902B070BD945F0000745F000033
:10372000E85E00001C5F0000285F00007C5F000076
:10373000505F0000F0B58FB0FEF77EFB041C002345
:103740000C930CAA938006A90693079308930993F8
:103750000A938B82009301930293039304936A4626
:103760009382C37D0120FF2B5BD1237EFF2B58D199
:10377000637EFF2B55D10CAD002000212A1C0023B5
:10378000FEF764FA2B78FF2B3ED10CAA5278FF2A61
:103790003AD10CAA9278FF2A36D18822224B1A708D
:1037A000224F0026381C00F019FA351C05E0FCF702
:1037B00087FF06AB58550135EDB2142DF7D906A891
:1037C0006946FEF7D5FD00280ED1FEF76BFA221CE4
:1037D00017320020011C031CFEF790FAFEF730FBA5
:1037E000FEF772FC01201CE04D23E35C002B03D0AC
:1037F0000F48694600F076F906AB069607960896DC
:1038000009960A969E82CDE7E3750CAB5A7822762C
:103810009A786276DA78A2761A79E2765B792377FB
:1038200000200FB0F0BDC046F8020020845F000009
:10383000745F000000B5C1B0002303E01A78694648
:10384000CA540133072BF9D9082304E0C2181278AF
:103850006946CA540133A72BF8D9A82303E01A7884
:103860006946CA540133FF2BF9D972B612200021E0
:1038700000220023FEF776F9222000216A468023E9
:103880005B00FEF76FF962B641B000BD00B585B0D0
:103890000190FCF70DFD074900F0A2F8019B584389
:1038A000039002E0039B013B0393039B002BF9D1A0
:1038B00005B000BD1027000038B5FEF7BDFA041CA6
:1038C000FFF7D6FEFFF7E4FEFFF75CFEFEF7C2FB54
:1038D000FFF730FF002807D0E020C001FFF7AAFF64
:1038E000FA204000FFF7D2FFA823E35C012B1CD194
:1038F0000220FEF769F8802817D10022A823E2549D
:10390000AB23E254AC23E254AD23E254AE23E254A1
:1039100001222A23E254FEF7D7FBE020C001FFF783
:1039200089FFFA204000FFF7B1FFE023DB011D68AB
:1039300001356B1E9D41012D11D12A23E35C002B23
:1039400006D101222A23E254FEF7BEFB002506E041
:10395000FFF7E8FD031C581E83415B421D40012D0B
:1039600003D1E020C001FFF7ADFE00222A23E2547C
:103970004D23E35C002B01D0FFF7ACFEFEF774FC97
:103980004D23E35C002B01D0FEF7D6FB01220B4B4D
:103990001A700020FFF70EFE094C251CFFF7D8FB1C
:1039A0002378002B07D00020FFF716FE0120FFF739
:1039B00013FE00232B70FEF727FAEFE7FD06002029
:1039C000F601002070B50E1C151C002403E0305DCC
:1039D000FCF770FE0134A542F9D8281C70BDC04622
:1039E000002934D00123002210B488422CD30124B2
:1039F0002407A14204D2814202D209011B01F8E747
:103A0000E400A14204D2814202D249005B00F8E7FF
:103A1000884201D3401A1A434C08A04202D3001B2B
:103A20005C0822438C08A04202D3001B9C0822435E
:103A3000CC08A04202D3001BDC082243002803D09C
:103A40001B0901D00909E3E7101C10BC70470028CE
:103A500001D00020C04307B4024802A140180290E0
:103A600003BDC046190000000029F0D003B5FFF7E0
:103A7000B9FF0EBC4243891A1847C0467047C0467A
:103A800008B500210A2200F071FA08BD08B500212E
:103A90000A2200F06BFA08BD014B18687047C04657
:103AA0009401002030B50023934208D0C55C013357
:103AB000CC18013C2478A542F6D0281B00E0002059
:103AC00030BD10B50023934203D0CC5CC454013305
:103AD000F9E710BD031C8218934202D0197001331C
:103AE000FAE770470FB40B4B13B51C68002C05D0D8
:103AF000A369002B02D1201C01F09EFB05ABA1683D
:103B0000201C049A019300F0A9FD16BC08BC04B067
:103B10001847C0469401002070B5051C0E1C0028F3
:103B200004D08269002A01D101F086FBAC68A38928
:103B30001A0702D52369002B19D1281C211C01F07A
:103B4000EDF9002813D00120404245E03178002BE8
:103B50001BDAA269934211DA281C221C01F072F9C7
:103B6000013043425841C0B20028ECD10136A3686D
:103B70003278013BA360002AE8D10CE02368197079
:103B8000236819780A2903D1E6E7226811702368AF
:103B900001332360EAE7002B17DAA269934208DBBE
:103BA00022680A231370236819780A2911D1281C66
:103BB00001E0281C0A21221C01F044F90130434293
:103BC0005841C0B2002806D0BDE722680A2313700E
:103BD0002368013323600A2070BD000008B5034B41
:103BE000011C1868FFF798FF08BDC046940100202B
:103BF0000EB400B59CB01DAB04CB822202A992008A
:103C00008A810A4A02908A604A6101225242CA812C
:103C1000074A086110681D9A019300F015FA029A8C
:103C2000002313701CB008BC03B01847FFFFFF7FD0
:103C3000940100200EB430B59CB01FAD08CD812397
:103C400002AC9B00A3810290069000F087F80B4B1A
:103C50006060636200236363A36401235B42E381CA
:103C6000074B6061211C18681F9A2B1C019500F0FE
:103C700037FB1CB030BC08BC03B01847AD3C00009B
:103C80009401002038B50C1C0E25495F01F098FC0A
:103C9000002803DB626D1318636503E0A289024B01
:103CA0001340A38138BDC046FFEFFFFF00207047DF
:103CB000F8B51E1C8B89051C0C1C171CDA0505D5D4
:103CC0000E23C95E0022022301F026FBA289054BC8
:103CD000281C1340A3810E22A15E331C3A1C01F064
:103CE00009F9F8BDFFEFFFFF38B50C1C0E25495F41
:103CF00001F012FBA389421C03D1054A1340A381A2
:103D000004E0802252011343A381606538BDC046A0
:103D1000FFEFFFFF08B50E23C95E01F071F908BD82
:103D2000C9B20378002B03D08B4204D00130F8E7EE
:103D3000002900D0181C704702780B78013001313F
:103D4000002A01D09A42F7D0D01A7047031C0A7893
:103D500001311A700133002AF9D170470023C25C87
:103D60000133002AFBD1581E7047031C002010B5F8
:103D700082420FD01C780878A04201D1012A03D1D9
:103D800018780B78C01A05E0013A0028F8D0013302
:103D90000131EFE710BD0000F8B5174B071C1D6897
:103DA0000E1CAC6D002C1FD1502001F019FBA86532
:103DB0008460AB6D046044601C61DC60AB6D9C6131
:103DC0005C61AB6DDC629C62AB6D5C631C63AB6D74
:103DD000DC639C63AB6D5C641C64AB6DDC649C64F5
:103DE000AB6D1C77AB6D5C62AA6D381C311C012376
:103DF00000F004F8F8BDC04694010020F0B500289A
:103E000002D11068002826D00578441C0E1C377893
:103E1000002F09D00136BD42F9D1002B01D0201C62
:103E2000F2E71460037016E0002D09D11560281C1C
:103E300011E02F78B74207D00135002FF9D11C1CB3
:103E4000631C26780D1CF4E7002E02D0002121709F
:103E500000E0331C1360F0BDF0B51D1C424B87B071
:103E60001B6805900293039101920B1C1C78029F22
:103E70005E1C3A19517808220A4001D0331CF5E73C
:103E80002D2C04D101279E1C5C78009704E0009241
:103E90002B2C01D15C789E1C10232A1C9A4311D133
:103EA000302C08D1327820218A43582A07D17478DF
:103EB0001D1C023606E0002D04D10A2502E0002D6B
:103EC00000D10825009F291C7B427B4180273F06AB
:103ED000FF1A381CFFF7C8FD381C0491291CFFF796
:103EE0007FFD0023021C181C029F391949784F07D7
:103EF00001D5303C07E003270F4017D05721012F91
:103F000000D13721641AAC4210DA591C0BD0904210
:103F100007D802D1049FBC4203DC68430123201868
:103F200001E001235B4234780136DDE7009F591C34
:103F30000BD180207B427B410006059FC01A2223C3
:103F40003B60019F002F09D10BE0002F00D04042C1
:103F5000019F002F05D0039A002B00D0721E019FF5
:103F60003A6007B0F0BDC0463001002038B5131CE0
:103F7000044A051C0C1C1068291C221CFFF76CFF4E
:103F800038BDC04694010020F0B58D6885B0071C8F
:103F90000C1C03920193AB4245D390228B89D20033
:103FA00013423DD062690326564309692068F20F27
:103FB000401A96190290021C0198013212187610CC
:103FC000964200D2161C381C5A050FD5311C01F040
:103FD0007DFA051E13D0029A2169FFF772FDA289AE
:103FE000184B134080221343A38111E0321C01F0CF
:103FF000C1FA051E0CD1381C216901F01FFA0C23EF
:104000003B60A389402213430120A381404217E073
:10401000029B2561ED1825606661019DF61AA66078
:104020000198A84200D2019D2A1C2068039901F042
:10403000ECF9A2680020531BA36023685D1925607A
:1040400005B0F0BD7FFBFFFFF0B59FB00390059377
:104050008B890E1C171C19060FD53269002A0CD14A
:10406000402101F033FA30603061002803D1039918
:104070000C230B60C9E04023736106AD00236B6124
:1040800020236B763023AB763C1C2378002B03D1A6
:10409000E21B029211D003E0252BF9D00134F4E7A2
:1040A0000398311C3A1C029BFFF76EFF013000D1D0
:1040B000A6E06969029A8B186B612378002B00D106
:1040C0009EE0012252426A606A4600235B3201345C
:1040D0002B60EB60AB601370AB654E4F2178381CE2
:1040E000052201F087F9002807D0C71B2B680120A3
:1040F000B840184328600134EFE72B68D90603D590
:104100006A4620215B3211701A0703D56A462B21BB
:104110005B32117022782A2A01D0099B0EE0059AA1
:10412000111D12680591002A01DB099204E0524238
:10413000EA60022213432B60013409E02278303A0E
:10414000092A04D80A214B4301349B18F6E7099346
:1041500023782E2B18D163782A2B09D1059B0234A2
:104160001A1D1B680592002B0DDA01235B420AE041
:10417000013400232278303A092A04D80A214B431B
:1041800001349B18F6E70793234F2178381C03224C
:1041900001F030F9002806D0C71B2B684020B8403A
:1041A00018432860013421781C480622671C2976B0
:1041B00001F020F9002812D0194B002B06D1059BE5
:1041C0000722073393430833059314E005AB0093AC
:1041D0000398291C321C134B00E000BF07E005AB1D
:1041E00000930398291C321C0E4B00F0B3FB049083
:1041F0000499013104D06A69049953186B6143E74B
:10420000B3895A0601D40B9801E0012040421FB047
:10421000F0BDC046A0600000A6600000AA600000DB
:1042200000000000893F000038B5141C4B1C02D16F
:104230000120404234E0938920229343A381636BA1
:10424000CDB26268002B0FD0A36B9A4206DA2368C6
:10425000013B23601D70636801331FE0211C00F0E7
:1042600097F90028F3D0E3E721692368002909D0F2
:104270008B4207D9591E0878A84203D10132216028
:1042800062600DE0E363231C443363630323A36391
:10429000231C463322641D70236001236360281CA5
:1042A00038BD10B50C1C496B00290ED0231C4433BB
:1042B000994201D001F0C2F8236C00206063636072
:1042C000834202D0E36B236009E02369202223604C
:1042D00000236360A38901201343A381404210BDE2
:1042E000F0B5A54C071CA54401930023009246930A
:1042F000A24A4793BE235B000C1C43A9CA50A04AA4
:10430000C02303A85B004890CA50009A1578002D7E
:1043100000D128E19B4E306843195A780823134096
:104320001FD0616800290FDD236830681A78821871
:104330005278110711D5479A0133013247926268CA
:104340002360013A6260ECE7C0235B0043AAD358C4
:10435000381C211C98470028E6D0009E01360096A4
:10436000D3E7009E0136252D4CD100984593439309
:1043700043782A2B03D11023061C43930236351CA5
:1043800029780B1C303B092B07D8459A0A23534345
:10439000303B591845910135F2E77B4E0322301C22
:1043A00001F028F8002806D0861B439B0120B0406E
:1043B0001843439001356E1C2D78672D0FD8652D5D
:1043C00077D25B2D51D005D8002D00D1CDE0252D21
:1043D00018D070E0632D54D0642D3DD06BE0702D6B
:1043E0002FD007D86E2D52D038D8692D63D1002335
:1043F000449338E0752D2FD0782D26D0732D5AD1C7
:1044000002233CE0606800280DDD23681A78AA4288
:1044100000D0A8E0013362682360479B013A013372
:10442000626047939BE7C02343A95B00CB58381CCD
:10443000211C98470028E8D04698002800D08EE03C
:1044400093E0439A202313434393439880239B0094
:1044500003434393102302E00A2300E0082344931C
:1044600004236E2D0BDC032309E0311C03A801F0AB
:10447000CDF8439940230B434393061C01234993F2
:104480001DE0439A4023134343930023F7E74399E6
:10449000CB0600D563E7019B479AC80704D5191DD1
:1044A00001911B681A805AE7191D01911B681A6057
:1044B00055E70523E3E7032349930A2344936168FF
:1044C000002903DD439A520614D51BE0C02343A8FC
:1044D0005B00C358211C381C98470028F2D0ABE77A
:1044E000479A013247926268013A6260002A13DDFE
:1044F00001332360236823491A7809688A1852789F
:104500001007EDD4499B022B10DC381C43A9221C58
:1045100001AB00F035FB1CE0C02343A95B00CB5886
:10452000381C211C98470028E4D085E7042B06DCC2
:10453000381C43A9221C01AB00F086FB09E0134B99
:10454000002B00D10BE7381C43A9221C01AB00E073
:1045500000BF012807D0022800D000E76CE7A3893C
:10456000590604D501E0469801E001204042A52308
:104570009B009D44F0BDC0466CFDFFFF294200003A
:10458000A342000030010020A660000000000000EF
:10459000F7B50B1C4D6B44330C1C9D421BD1802680
:1045A000F600311C00F092FF002802D101204042A9
:1045B00025E0231C6063A66346331A78104BC2546F
:1045C000231C45331A780F4BC2542A780E4BC25421
:1045D000C018206012E08E6B291C73001A1C019316
:1045E00000F0C8FF051EE1D08719381C291C321CB9
:1045F000FFF767FA019B27606563A3630020FEBD98
:10460000FF030000FE030000FD030000936810B5E7
:10461000013B9360002B05DA9469A34208DBCBB21F
:104620000A2B05D01368581C10601970C8B201E03D
:1046300000F008FC10BDF8B5061C0F1C141CD518A2
:10464000AC4208D02178301C3A1CFFF7DFFF013460
:10465000431CF5D100E00020F8BD0000F0B59FB08C
:10466000061C0F1C03920593002804D081690029C1
:1046700001D100F0E1FD754B9F4201D1776808E060
:10468000734B9F4201D1B76803E0724B9F4200D148
:10469000F768BB891A070AD53B69002B07D006AD1E
:1046A00000236B6120236B763023AB763BE0301C1C
:1046B000391C00F033FC0028F1D001204042C2E058
:1046C000059A111D12680591002A76DB09920134C2
:1046D00023782E2B00D181E021785F48032200F05F
:1046E00089FE002807D05C492A68431A4020984078
:1046F0001043286001342178631C58480622039334
:10470000297600F077FE002800D18AE0544B002B78
:104710007ED1059B072207339343083305936A69CB
:10472000049953186B61039C2378002B04D10399DF
:10473000611A029110D003E0252BF8D00134F3E781
:10474000301C391C039A029BFFF775FF013075D0AE
:104750006A69029953186B612378002B6ED001228D
:1047600052426A606A4600235B3201342B60EB6080
:10477000AB601370AB6521783A48052200F03AFE31
:10478000002808D0374A0134831A012098402B684A
:1047900018432860EFE72B68D90603D56A46202125
:1047A0005B3211701A0703D56A462B215B321170F8
:1047B00022782A2A84D0099B05E05242EA6002222C
:1047C00013432B6083E72278303A092A04D80A2160
:1047D0004B4301349B18F6E7099379E763782A2B5A
:1047E00009D1059B02341A1D1B680592002B0DDAB6
:1047F00001235B420AE0013400232278303A092A7F
:1048000004D80A214B4301349B18F6E7079363E76A
:1048100005AB0093301C291C3A1C134B00E000BF71
:1048200007E005AB0093301C291C3A1C0E4B00F02E
:1048300091F804900499013100D070E7BB895A06C1
:1048400000D53AE70B981FB0F0BDC046FC600000F1
:104850001C6100003C610000A6600000AA6000002E
:1048600000000000A060000037460000F7B5151CEE
:1048700001930A698B68061C0C1C934200DA131C16
:10488000221C2B6043321278002A01D001332B60A6
:104890002068800602D52B6802332B60216806272A
:1048A0000F401FD0231C43331B785A1E93412268AC
:1048B00092061FD5E11840313020C870211C5A1CC7
:1048C00045310978A21840320233D17012E0221C1F
:1048D000301C019919320123089FB847013011D0CB
:1048E000009F01370097E0682968009F431A9F42A4
:1048F000EDDBD7E7221C301C01994332089FB847F3
:10490000013002D10120404223E0206806212B68BB
:10491000E26801400025042903D1D51AEB43DB17D7
:104920001D40A26823699A4201DDD31AED180027C1
:104930000097009FAF420BDA221C301C01991A32FB
:104940000123089FB8470130DCD0009F0137EFE713
:104950000020FEBDF0B50D1C8BB0433506920590CE
:10496000079304950B7E0C1C109A6E2B00D1A7E0C8
:1049700011D8632B22D009D8002B00D1B0E0582BDE
:1049800000D0C0E045310B707B4D4EE0642B1CD055
:10499000692B1AD0B7E0732B00D1A5E009D86F2B93
:1049A00029D0702B00D0AEE00E68202333430B607B
:1049B00036E0752B1FD0782B32D0A4E013680D1C85
:1049C000191D423511601B689FE0216813680E06AF
:1049D00003D5191D11601E6805E04806F9D5191D9B
:1049E000116000215E5E644B002E3BDA049D2D2297
:1049F00076422A7036E0216813680E0603D5191D29
:104A000011601E6804E04806F9D5191D1E88116062
:104A1000594B227E039308276F2A1ED00A271CE0D9
:104A2000231C78214533554D197011682368081DE2
:104A3000039510601E0601D50E6802E05806FBD5EE
:104A40000E88D90702D52022134323601027002E99
:104A500003D1226820239A432260231C002243337F
:104A60001A7001E003930A276368A360002B03DB3D
:104A70002568042295432560002E02D1049D002B59
:104A80000ED0049D301C391CFEF7EEFF0398013D4B
:104A9000435C301C2B70391CFEF7A2FF061EF1D1BF
:104AA000082F09D12168C90706D5626823699A428F
:104AB00002DC013D30232B70049E731B23612AE02E
:104AC000086813684969050604D5181D10601B683D
:104AD000196005E04606F8D5181D10601B6819809E
:104AE00000232361049D16E01368191D11601D68E1
:104AF000281CFFF733F963682061984200D92361CD
:104B00002069606004E0251C42352B70012323617D
:104B1000049E00233370079E05980096211C09AA65
:104B2000069BFFF7A3FE013002D10120404221E0A5
:104B30002A1C059806992369079DA8470130F4D0DF
:104B40002668B60705D4099BE068984212DA181C5B
:104B500010E00025E0680999431A9D42F3DA221C0F
:104B60000598069919320123079EB0470130DCD021
:104B70000135EFE70BB0F0BDB1600000C26000008E
:104B8000F7B5151C8A6801900C1C002A06D18A69A9
:104B9000511E8A41524201210A43A2602268D20674
:104BA00003D41A68111D196017680026A06900282F
:104BB0001DD123680136DB0603D42A6813783B70C5
:104BC00001372A686B6801322A60A268013B013A0A
:104BD0006B60A260002A25D0002BE7DCC0235B00BD
:104BE000E3580198291C98470028DFD01AE00128D3
:104BF00008D12A6813786269D35C002BD9D1002EC2
:104C00001FD00FE0022802D0002E09D00AE02A6847
:104C100013780C4A1268D3185B781A07C9D5F3E7E2
:104C200001280ED022681023134006D1E268013219
:104C3000E260A269002A00D03B70236900209E191F
:104C40002661FEBD30010020F0B5151C8BB0774AFF
:104C50000490029307ABC1CAC1C388690C1C032826
:104C600002D1734E059601E0724F0597A3680026A6
:104C7000AE22591E03965200914205D95E3BFF3B7E
:104C800003935E23FF33A3602068D023271C1B01FE
:104C90001C370343019700972360002707AABB0036
:104CA00098582A681178022200F0A4FB00283AD014
:104CB000012F0DD16368002B06D10823266863609D
:104CC00080239B00334323605B4B206803400EE04E
:104CD000022F0DD12368C021C90080221940920003
:104CE000914223D11022626080225200134323603C
:104CF000A3685A1EA260002B15D02B6800995A1C7D
:104D00002A601B78009E0B706B680136013B6B605C
:104D10000096002B07DCC0235B00E3580498291C95
:104D20009847002843D10137032FB7D16268002A82
:104D300001D10A23636063681021C91A3F4B60697F
:104D4000C91800F063FC009E0027A368002B2FD039
:104D50002A6861691078095C002929D02168302807
:104D60000AD1080508D50399013700290AD001396D
:104D700001330391A36005E0314B194021601378A2
:104D8000337001366B68013B6B60002B03DD2B68D1
:104D900001332B6007E0C0235B00E3580498291C13
:104DA0009847002804D1A368013BA360CDE7002702
:104DB0002268D2050DD5019B9E4207D9BE23013E34
:104DC0005B003178E35804982A1C9847019DAE4255
:104DD00028D02068102202401CD132706368059DE3
:104DE00004980199A847029D22682B68910601D575
:104DF0001A1D09E0D50705D5029D1A1D2A601B68FA
:104E0000188004E0029D1A1D2A601B681860E36880
:104E10000133E360019D0020761BF7192669F7191D
:104E2000276100E001200BB0F0BDC046D460000057
:104E3000593E000075560000FFFAFFFFE0600000D9
:104E4000FFF6FFFF70B5051C0E1C141C002804D0D3
:104E50008269002A01D100F0EFF9234B9C4201D175
:104E60006C6808E0214B9C4201D1AC6803E0204B08
:104E70009C4200D1EC68A369A360A3891A070AD5F4
:104E80002369002B07D022682369F6B2D01A626921
:104E900090420FDB08E0281C211C00F03FF800289E
:104EA000F1D0012040421DE0281C211C00F044F9F3
:104EB0000028F6D1A3680130013BA36023685A1C87
:104EC00022601E706369984205D0A389301CDA07FE
:104ED00008D50A2E06D1281C211C00F02DF9002827
:104EE000DFD1301C70BDC046FC6000001C610000BA
:104EF0003C61000038B5084C051C00202060081CEF
:104F0000111C1A1CFEF75EFD431C03D12368002B05
:104F100000D02B6038BDC04608070020344B70B568
:104F20001D68061C0C1C002D05D0A969002902D1A2
:104F3000281C00F081F92F4B9C4201D16C6808E0DD
:104F40002D4B9C4201D1AC6803E02C4B9C4200D11C
:104F5000EC68A28993B2190721D4D90605D4092394
:104F6000336040231A43A2813FE05A0713D5616B97
:104F7000002908D0231C4433994202D0301C00F091
:104F80005DFA00236363A38924229343A381002352
:104F9000636023692360A38908221343A3812169E5
:104FA00000290BD1A389A02292001A4080239B00E4
:104FB0009A4203D0301C211C00F0C2F9A3890122BF
:104FC0001A4005D061690022A2604A42A26103E052
:104FD000990700D46269A26022690020824206D14A
:104FE000190604D540221343A3810120404270BD1D
:104FF00094010020FC6000001C6100003C61000086
:1050000038B5074C0023051C081C2360FBF724F966
:10501000431C03D12368002B00D02B6038BDC04651
:1050200008070020F7B58B89051C0C1C19075ED4F6
:105030006268002A02DC276C002F1ADDE76A002F65
:1050400017D000222E682A60802252011A4001D017
:10505000626D15E0281C216A0123B847021C411C1F
:105060000ED12B68002B0BD01D2B01D0162B02D19B
:105070002E6000205EE0A38940210B43A38159E00C
:10508000A3895F0706D56168636B521A002B01D0B4
:10509000276CD21B281C216A0023E76AB847A28923
:1050A000411C06D12B68002B03D01D2B01D0162BE1
:1050B00019D10023636023692360D70405D5411CFF
:1050C00002D12A68002A00D16065616B2E60002938
:1050D000CFD0231C4433994202D0281C00F0AEF9F3
:1050E0000020606326E040231A43A28122E0266963
:1050F000002EBED027680022BF1B019726609907AB
:1051000000D16269A260019F002FB2DD281C216AD4
:10511000321C019BA76AB847002806DCA3894022FD
:1051200013430120A381404204E0019F36183F1A37
:105130000197E8E7FEBD00000A6938B5051C0C1CA4
:10514000002A01D100201CE0002804D08369002B34
:1051500001D100F071F80B4B9C4201D16C6808E062
:10516000094B9C4201D1AC6803E0084B9C4200D142
:10517000EC680C22A35E002BE4D0281C211CFFF756
:1051800051FF38BDFC6000001C6100003C61000064
:10519000F8B5041C071C4834002C12D0A5686668BA
:1051A000013E0CD4AB89012B07D90E22AB5E013333
:1051B00003D0381C291CFFF7BFFF6835F0E72468CF
:1051C000EAE7F8BD002310B5041C03604360836068
:1051D00081814366C281036143618361191C082296
:1051E0005C30FEF777FC054B24626362044BA362DC
:1051F000044BE362044B236310BDC046853C0000B2
:10520000B13C0000E93C0000153D000070B54B1EAC
:1052100068255D430E1C291C743100F057F9041EEB
:1052200008D00021016046602A1C0C30A060683262
:10523000FEF750FC201C70BD836913B5041C002BC5
:1052400027D18364C3640365124B134A1B688262CF
:10525000984201D101238361201C00F01FF8606097
:10526000201C00F01BF8A060201C00F017F804219F
:10527000E06000226068FFF7A5FFA0680921012215
:10528000FFF7A0FFE06812210222FFF79BFF012336
:10529000A36113BD9C60000091510000F8B51D4B47
:1052A000071C1E68B269002A02D1301CFFF7C4FF38
:1052B0004836B4687368013B05D40C22A55E002D06
:1052C00010D06834F7E73368002B06D1381C04216E
:1052D000FFF79CFF3060002801D03668E9E70C2317
:1052E0003B6016E001235B42E381201C0123A38184
:1052F00065662560A560656025616561A5615C30B6
:10530000291C0822FEF7E6FB6563A563A564E56436
:10531000201CF8BD9C60000038B5084C051C00201E
:105320002060081C111C1A1CFAF7AEFF431C03D1A5
:105330002368002B00D02B6038BDC0460807002032
:10534000F0B58B8991B0051C0C1C9A0725D40E234F
:10535000C95E002906DAA78980231F400FD00027E5
:1053600040260EE001AA00F001FA0028F3DB029BC0
:10537000F0273F02184A1F40BF187B425F4180263A
:10538000F600281C311C00F0A1F800280CD1A389DC
:105390009A051FD402221343A381231C47332360A1
:1053A00023610123636115E00C4B8022AB62A3896A
:1053B00020601343A38120616661002F0AD00E2371
:1053C000E15E281C00F0E4F9002803D0A389012243
:1053D0001343A38111B0F0BD00E0FFFF9151000025
:1053E00008B5034B011C186800F070F808BDC046F2
:1053F00094010020C9B28218904204D003788B42F5
:1054000002D00130F8E70020704770B5814201D327
:1054100000230CE08C18A042FAD28518131C013B23
:105420000BD351426618F65C6918CE54F7E79342E5
:1054300003D0CC5CC4540133F9E770BD30B500290A
:1054400040D004390B68002B00DAC9181E4A1368D3
:10545000141C002B02D14B60116033E099420FD233
:1054600008680A189A4205D113685268C018086083
:105470004A6000E04B60216024E08A4203D8131C9C
:105480005A68002AF9D11D685C198C420BD1096851
:10549000691858181960904214D114685268091993
:1054A00019605A600EE08C4202D90C23036009E0B7
:1054B00008680C18944203D11468526800190860F7
:1054C0004A60596030BDC0460407002070B5032310
:1054D000CD1C9D430835061C0C2D01D20C2501E086
:1054E000002D3FDB8D423DD3204B1C681A1C211C34
:1054F000002913D00868431B0DD40B2B02D90B6075
:10550000CC181EE08C4202D1636813601AE0486830
:1055100060600C1C16E00C1C4968E9E7144C20681C
:10552000002803D1301C00F05FF82060301C291CDB
:1055300000F05AF8431C15D0C41C03239C4384423A
:105540000AD12560201C0B300722231D9043C31A6B
:105550000BD05A42E25008E0211A301C00F044F807
:105560000130EED10C233360002070BD0407002011
:1055700000070020F8B5061C0C1C151C002904D1DE
:10558000111CFFF7A3FF041C18E0002A03D1FFF74A
:1055900055FF2C1C12E000F00DF9A8420ED2301C71
:1055A000291CFFF793FF071E07D0211C2A1CFEF7BA
:1055B00088FA301C211CFFF741FF3C1C201CF8BD61
:1055C00038B5084C051C00202060081C111C1A1C52
:1055D000FAF762FE431C03D12368002B00D02B6036
:1055E00038BDC0460807002038B5074C0023051C0D
:1055F000081C2360FAF706FE431C03D12368002B26
:1056000000D02B6038BDC04608070020F0B50B78ED
:105610005E2B02D04C1C002102E08C1C4B78012137
:1056200000228154802501326D00AA42F9D1002B5D
:1056300001D1601E1CE001277F1AFEB2C654221C55
:105640001178541C2D2905D05D290ED000290ED0CB
:105650000B1CF2E755785D2DFAD09D42F8DB023243
:105660000133C654AB42FBDBEAE7201C00E0101C10
:10567000F0BD0000F0B51D1C3B4B87B01B680590CA
:1056800002930491171C0B1C02991C785E1C0A19CA
:10569000517808220A4001D0331CF5E72D2C04D1A3
:1056A00001229E1C5C78019204E001922B2C01D116
:1056B0005C789E1C10232A1C9A4311D1302C08D1EF
:1056C000327820218A43582A07D174781D1C02366B
:1056D00006E0002D04D10A2502E0002D00D10825A6
:1056E0000120291C4042FEF77BF903900120404233
:1056F000291CFEF7B9F900238C46181C02990A19D7
:105700005278510701D5303C07E00321114017D0F2
:105710005722012900D13722A41AAC4210DA002BFB
:1057200009DB039A904206D801D1644503DC684343
:105730000123201801E001235B4234780136DDE7C4
:10574000002B04DA059922220A60012002E0019A66
:10575000002A00D04042002F04D0049A002B00D031
:10576000721E3A6007B0F0BD3001002038B5074C1A
:105770000023051C081C111C2360FAF775FD431C4F
:1057800003D12368002B00D02B6038BD0807002010
:1057900038B5074C0023051C081C2360FAF76CFD84
:1057A000431C03D12368002B00D02B6038BDC046BA
:1057B0000807002004390B68181F002B02DAC858AC
:1057C0001B18181F704700000D0A70687920696463
:1057D00020646574656374206572726F7221210D97
:1057E00000000000F4160000FE160000081700007C
:1057F000101700001A17000024170000203E205345
:10580000454743503A46575F5550444154453A4600
:1058100041494C4544202D20496E76616C696420D5
:105820006669726D776172652073697A653A2025C1
:105830006420627974657320284669726D7761729D
:10584000652073697A65206D7573742062652077B1
:10585000697468696E202564206279746573290D06
:105860000A000000203E2053454743503A46575F08
:105870005550444154453A4E4554574F524B202DB4
:10588000204669726D776172652073697A653A2086
:105890005B25645D2062797465730D0A0000000069
:1058A000203E2053454743503A46575F55504441A8
:1058B00054453A4641494C4544202D204669726D75
:1058C00077617265207570646174652074696D65B7
:1058D0006F75740D00000000203E20534547435073
:1058E0003A46575F5550444154453A4641494C4524
:1058F00044202D204E6574776F726B20646F776E35
:105900006C6F61642074696D656F75740D000000C3
:10591000203E2053454743503A46575F5550444137
:1059200054453A4641494C4544202D20506C656110
:1059300073652074727920746F2046572055706407
:1059400061746520617420415050424F4F54206D66
:105950006F64650D00000000203E20534547435012
:105960003A46575F5550444154453A535543434591
:105970005353202D202564202F2025642062797424
:1059800065730D0A0000000052532D3233322F543C
:10599000544C000052532D3432322F34383500002D
:1059A00057495A3735305352000000006465766914
:1059B00063652E77697A77696B692E6E657400006E
:1059C0002F77697A37353073722F66772F573735CF
:1059D0003030785F5332455F4170702E62696E00DF
:1059E000203E20446576436F6E666967207570645B
:1059F000617465206661696C65642C2052657472FF
:105A0000793A2025640D0A002023204D41433A2095
:105A1000253032583A253032583A253032583A2516
:105A20003032583A253032583A253032580D0A0073
:105A30002023204950203A2025642E25642E2564F9
:105A40002E2564202F20506F72743A2025640D0A91
:105A5000000000002023204757203A2025642E25EF
:105A6000642E25642E25640D0A0000002023205397
:105A70004E203A2025642E25642E25642E25640DA3
:105A80000A000000202320444E533A2025642E258E
:105A9000642E25642E25640D0A0000002023204476
:105AA000657374696E6174696F6E20446F6D6169AE
:105AB0006E3A202573202F20506F72743A2025648F
:105AC0000D0A000020232044657374696E617469B7
:105AD0006F6E2049503A2025642E25642E25642EB1
