:1000000000400020B9010000E1350000E5350000A6
:1000100000000000000000000000000000000000E0
:10002000000000000000000000000000E9350000B2
:100030000000000000000000ED350000F135000078
:10004000F5350000F9350000FD35000001360000EF
:1000500005360000093600000D360000113600009C
:1000600015360000193600001D360000213600004C
:1000700025360000293600002D36000031360000FC
:1000800035360000393600003D36000041360000AC
:100090004536000049360000D50100004D3600000D
:1000A000513600005536000030B583B0314B324A2E
:1000B0001360324A1360324B02E000221A600433AC
:1000C000304A9342F9D32C4B1B68002B03D12B4BA6
:1000D0001B68002B00D0FEE7264B2B4A13602B4AEF
:1000E00013602B4B2B4A03E0116819600433043270
:1000F00029498B42F8D3244B1A68284B9A4204D1E1
:10010000224B1A681B689A4200D0FEE700F0CCF838
:10011000694601A800F098F8214C224B1C1BA41042
:10012000002504E0AA001E4BD35898470135AC4285
:10013000F8DC1D4C1D4B1C1BA410002504E0AA007C
:10014000194BD35898470135AC42F8DC0099019817
:1001500003F09AFB0500164C164B1C1BA41004E080
:10016000013CA200124BD3589847002CF8DC280021
:1001700000F046F8BABADECAA00100201417002029
:10018000A001002018170020000000209C01002082
:10019000000000201C5A0000A001002078563412F4
:1001A0000002000000020000000200000002000047
:1001B000000200000002000010B5FFF775FFC04606
:1001C000FEE7C046FEE7C046FEE7C046FEE7C04683
:0801D000FEE7C046FEE7C04651
:1001D8001C5A000000000020A00100201C5A00004A
:1001E8000000001000000010A001002018170020D7
:0801F8000000001000000010DF
:10020000FEE7C04610B503000C4A1268002A02D16E
:100210000B490A4A1160094A1068033303229343C9
:10022000C318084A934206D903F068FC0C23036004
:100230000120404201E0014A136010BDA4010020EA
:10024000181700200038002001230360014B0B60C9
:100250007047C0460400002010B503F04FFC58233F
:1002600003600120404210BD10B503F047FC582345
:1002700003600120404210BD10B503F03FFC58233D
:100280000360002010BDC04610B503F037FC5823B2
:1002900003600120404210BD10B503F02FFC58232D
:1002A00003600120404210BD10B500F00DF810BDF4
:1002B000014B18687047C046AC010020014B18681C
:1002C0007047C046B001002010B5134B1A68134B9D
:1002D0001A60134B1A68134B1A60134B00221A62F0
:1002E0005A6901200240040094405A6952080240B1
:1002F00094405969090A3F2211405869000C104086
:100300000A4B584303F062FBFF21214003F05EFBE0
:10031000074B186010BDC046B8FD03001012004125
:10032000BCFD0300041000410010004100127A00DF
:10033000AC01002070B50C00012803D101211F4B36
:10034000196203E000211D4B19621D4C21001000B1
:1003500003F03CFBC3B2012B08D8184B0122DA6131
:10036000184A5A610125012101201BE0134B00228C
:10037000DA610004FC2292031040802252001043F4
:1003800058615A6901210A400D0095405A69520886
:100390000A409540EDB25969090A3F221140586957
:1003A000000C1040084B1C60604303F00FFB290059
:1003B00003F00CFB054B186070BDC04600100041F7
:1003C00000127A0000010200B0010020AC01002000
:1003D00010B5054B1C68054B1C60054B1C68054B94
:1003E0001C60FFF7A7FF10BDB8FD0300101200410D
:1003F000BCFD03000410004170B58423DB05984266
:1004000005D08623DB05984203D12C4D02E02C4D0C
:1004100000E02C4D00224EE0012393400C681C406C
:10042000A34247D10C79012C03D104692343036112
:1004300000E043614B799B0709D593005C59032683
:10044000B4435C515E59022434435C5108E093008C
:100450005C590326B4435C515E59012434435C511A
:100460004B795B0705D594006659042333436351E8
:1004700004E0940063590426B34363514B799B060F
:1004800005D59400665920233343635104E094005A
:1004900063592026B34363514B795B0605D594001D
:1004A000665940233343635104E094006359402666
:1004B000B343635101320F2AAED970BD40300041C1
:1004C0000030004180300041034B03600023037182
:1004D000623343717047C046FFFF000003680B4260
:1004E00001D0012000E000207047C046CBB20133AC
:1004F000FF339B0019500B0A8022920094466344FC
:100500009B0019507047C046CBB2CA430133FF333A
:100510009B001A50090A80239B009C466144890075
:100520000A507047F0B5002325E001249C400C429E
:1005300020D0002809D1114C9D002E590327BE431D
:100540002E512E5916432E5114E0012809D10C4C7E
:100550009D002E590327BE432E512E5916432E516E
:1005600008E0084C9D002E590327BE432E512E59FA
:1005700016432E5101330F2BD7DDF0BD0020004173
:100580004020004180200041F0B583B004000D0000
:1005900017001E006846FFF797FF00956B461F7116
:1005A00069462000FFF728FF8423DB059C4205D124
:1005B000320029000020FFF7B5FF0EE08623DB059F
:1005C0009C4205D1320029000120FFF7ABFF04E077
:1005D000320029000220FFF7A5FF03B0F0BDC0469E
:1005E00010B50400094B1B6B022B03D0074B1B6B90
:1005F000032B02D1FFF762FE01E0FFF759FE210055
:1006000003F0E4F9024B186110BDC0460010004130
:100610000060004010B5FFF7E3FF04498A68032338
:100620009A4313438B60002010BDC0460060004019
:10063000034B5B68DB07FBD4014B18607047C04677
:1006400000600040014B186880B2704700600040B5
:1006500010B5040080B2FFF7EBFF200010BDC046CC
:1006600010B5044B5B689B07FBD5FFF7EBFFC0B2EF
:1006700010BDC046006000400078C0B27047C04660
:100680000170704730B5002507E06C182404240C75
:100690002418247854550135ADB29D42F5D330BDB0
:1006A00070B5002507E06C182404240C2418565D4E
:1006B00026700135ADB29D42F5D370BD70B5151EE3
:1006C00011D08004084BC61834682404240CE0239D
:1006D0005B031840054B184313000A002100FFF785
:1006E000DFFF2C19346070BD0C0201460000024689
:1006F00070B5151E11D08004084BC6183468240448
:10070000240CE0235B031840054B184313000A0038
:100710002100FFF7B7FF2C19346070BD2802014695
:100720000000034610B500290FD08004074BC41801
:1007300023681B041B0CE02252031040044A1043A0
:10074000C9180904090C4118216010BD280201468E
:1007500000000346F8B50600150020239B1A9940B7
:100760000C001DE0002C05DA0F4B19883000FFF754
:10077000BDFE04E00C4B19883000FFF7C5FE0120D8
:1007800003F06CF8094F39883000FFF7AFFE012005
:1007900003F064F839883000FFF7B6FE6400013DCD
:1007A000002DDFD1F8BDC0460E0000200C00002057
:1007B000F8B506000020002516E044000C4F3988EB
:1007C0003000FFF793FE012003F048F8398830002D
:1007D000FFF79AFE012003F041F8064B198830001C
:1007E000FFF77CFE204301350F2DE6D9F8BDC0464A
:1007F0000C0000200E00002070B504000A4B1B887E
:100800004361012003F02AF8084D29882000FFF7F2
:100810006DFE012003F022F829882000FFF774FE06
:10082000012003F01BF870BD0E0000200C0000201A
:1008300070B50400084B1B880361084D2988FFF739
:1008400055FE012003F00AF829882000FFF75CFE1E
:10085000012003F003F870BD0E0000200C00002002
:10086000F8B5002700252FE08624E4052022012189
:1008700049422000FFF76EFF042206212000FFF707
:1008800069FF052229002000FFF764FF05220121EE
:100890002000FFF75FFF2000FFF7AEFF2000FFF70B
:1008A00087FF06002000FFF7C3FF002E02D0084B91
:1008B0009E420BD1013500E00025082DD4DD013723
:1008C000FFB2044803F0BCF9012FF5D92800F8BDA8
:1008D000FFFF00009C50000070B582B006000D00C4
:1008E00014006846FFF7F0FD2B002343009301231B
:1008F0006A46137169463000FFF77EFD0122210030
:100900000120FFF70FFE012229000120FFF70AFE58
:10091000044B1D80044B1C80FFF7A2FF034B1860A3
:1009200002B070BD0C0000200E0000200C0700205B
:10093000024A1368013313607047C046B4010020B7
:1009400070B50600082825D88404144BE51810213A
:100950002800FFF795FE2800FFF78EFE0028FAD149
:100960001F210F4BE018FFF78BFE0122B2400D490B
:100970000B8893430B80720000210B4BD1520B4B21
:1009800000229A550A4BE018FFF776FE0028F9D1AD
:10099000013001E00120404270BDC0461000014618
:1009A00028000146BA010020C4010020BC0100203B
:1009B00030000146F0B5474680B407000D00904670
:1009C0001E0008285ED800295FD0022901D9042919
:1009D0005BD1062333425BD1002E0DD0012D02D016
:1009E000022D04D008E02123334205D153E0B306A1
:1009F00002D573B2002B51DA3800FFF7A1FFBC0417
:100A0000294BE0180F23310099432943FFF738FEA3
:100A10004346002B0BD1254A1388984601339BB2DD
:100A20001380234A934202D1224A204B1A80224B40
:100A3000E31842461A60214BE51801212800FFF710
:100A40001FFE2800FFF718FE0028FAD101231E40E0
:100A5000BE401B4B1A8816431E800122BA4019491A
:100A60000B8893430B807B000021174A9952174B48
:100A70000022DA55164BE018FFF7FEFD0028F9D0EA
:100A800078B20DE0012040420AE00520404207E034
:100A90000620404204E00620404201E00620404299
:100AA00004BC9046F0BDC046000001461000002086
:100AB000F0FF000000C0FFFF1401014610000146D6
:100AC000B8010020BA010020C4010020BC010020B0
:100AD0003000014670B50600082829D88404194B57
:100AE000E018FFF7C9FD0F231840012823D1164B4A
:100AF000E5182800FFF7C0FD13281FD1134B9C46B3
:100B0000644402212000FFF7BBFD2000FFF7B4FD85
:100B10000028FAD105E03000FFF712FF0420404220
:100B20000EE02800FFF7A8FD1428F4D1133807E0E1
:100B30000120404204E00520404201E00320404201
:100B400070BDC0460000014630000146100001465D
:100B500070B50600082834D884041E4BE018FFF74F
:100B60008BFD0F23184001282ED11B4BE5180821BF
:100B70002800FFF785FD2800FFF77EFD0028FAD149
:100B800001221000B04015490B8883430B80144BA1
:100B90001B8833411A420CD019E0124BE018FFF7C2
:100BA0006BFD030705D53000FFF7CAFE0D2040425C
:100BB0000EE00D4BE018FFF75FFD0028EDD101308E
:100BC00006E00120404203E00520404200E0002012
:100BD00070BDC0460000014610000146BA01002069
:100BE000B80100202000014630000146F0B547461C
:100BF00080B482B0804601911400082874D80600A1
:100C00008504434BE818FFF737FD0F2318400128F0
:100C10006DD1002C6ED03F4B9C46AC446346009394
:100C20006046FFF729FD172801D01C2865D13A4BF3
:100C30001B8842461341DB071AD5384BE818FFF7EB
:100C40001BFDC3060CD51021354BE818FFF718FD26
:100C5000012243469A4030490B8893430B8007E0BA
:100C600003074DD54046FFF76BFE0D2040424AE09A
:100C70002C4BE818FFF700FD800287B2BC4200D879
:100C80002700294BEB181C68A4B20098FFF7F4FC6E
:100C9000172807D01C2805D04046FFF751FE072033
:100CA000404230E0214B1B883341DB0701D5A7428E
:100CB00028D8A742E5D83A0001994046FFF7FEFC44
:100CC0001B4BEC1820212000FFF7DAFC2000FFF777
:100CD000D3FC0028FAD10123424693400E4A1188E2
:100CE0000B43138038000EE0012040420BE005204A
:100CF000404208E00E20404205E00720404202E06A
:100D0000002000E0002002B004BC9046F0BDC046C8
:100D10000000014630000146BA01002020000146D3
:100D2000280001460002014604020146B8010020E5
:100D300010000146F0B54F464646C0B483B0814628
:100D40000191140008285AD807008604334BF01884
:100D5000FFF792FC0F231840012853D1002C54D0E8
:100D60002F4BF018FFF788FC800283B298469C4214
:100D700000D8A0462B4BF3181C68A4B22A4BF018DD
:100D8000FFF77AFC17281BD01C2813D1002C20D188
:100D9000264BF3181B681B041D0C254BF018FFF79E
:100DA0006BFC800285420BD14846FFF7C9FD072046
:100DB00040422EE04846FFF7C3FD0720404228E0AE
:100DC0001C4B1B883B41DB0701D5002C20D0002C9D
:100DD000D0D0A04500D84446220001994846FFF7EC
:100DE00087FC154B9C46664440213000FFF748FCC9
:100DF0003000FFF741FC0028FAD1200009E0012073
:100E0000404206E00520404203E00E20404200E060
:100E1000002003B00CBC90469946F0BD000001468E
:100E20002002014624020146300001460402014628
:100E300000020146B801002010000146F0B55F46EF
:100E40004646C0B483B08046019193461C000AAB6D
:100E50001F88082800D981E0050086044D4BF01852
:100E6000FFF70AFC0F231840022801D0042878D18C
:100E70005B46002B78D023781B0262789B181B02FC
:100E8000A2789B181B02E2789B18002B6FD0002FD2
:100E900070D0414B9C46B444634600936046FFF7D4
:100EA000EBFB422801D0222867D121783B4BF01878
:100EB000FFF7E6FB61783A4BF018FFF7E1FBA1780A
:100EC000384BF018FFF7DCFBE178374BF018FFF7F1
:100ED000D7FB364BF3181F60354BF018FFF7CCFBF0
:100EE000800287B2BB4500D85F46324BF3181C68BE
:100EF000A4B20098FFF7C0FB002841D02E4B1B88FE
:100F00002B41DB0701D5A7423DD8A742EDD83A00D7
:100F100001994046FFF7D2FB284BF418202120000E
:100F2000FFF7AEFB2000FFF7A7FB0028FAD1244B08
:100F3000F018FFF7A1FBC30606D5224BF0181021CD
:100F4000FFF79EFB38001FE00307F0D51D4BF0189C
:100F50000821FFF795FB0D20404215E0012040429B
:100F600012E0052040420FE00E2040420CE00C2031
:100F7000404209E00B20404206E00720404203E0E7
:100F80000420404200E0002003B00CBC90469B4689
:100F9000F0BDC04600000146300001462701014671
:100FA0002601014625010146240101462001014692
:100FB0000002014604020146B8010020100001466B
:100FC0002000014628000146F0B55F464646C0B401
:100FD00085B00600009190460193082800D9D2E020
:100FE00007008504714BE818FFF746FB83460F2383
:100FF0000340022B02D0042B00D0C7E04346002B55
:1010000000D1C6E073006A4A9B5A002B15D1694B88
:10101000EB181C68A4B2684BE818FFF72DFB0028FA
:1010200000D1B9E0654B1B883B41DB0702D5002CA2
:1010300000D1B4E0002CEAD000E000240022604B94
:101040009A5507235A461340022B02D0042B42D054
:1010500077E07300564A9B5A002B30D1082202A930
:101060003000FFF745FB574BEC1840212000FFF7FD
:1010700007FB2000FFF700FB0028FAD102AB1B782A
:10108000019A137002AB5B78537002AB9B7893703C
:1010900002ABDB78D37002AB1B7902AA52791B0238
:1010A0009B180C9A138002AB9A79730002A9C97934
:1010B000120252183E495A528022414B9A557300EF
:1010C0003B4A9C5AA04500D2444622000099300079
:1010D000FFF70EFB3CE07300354A9B5A002B24D1EE
:1010E000022202A93000FFF703FB364BEC18402127
:1010F0002000FFF7C5FA2000FFF7BEFA0028FAD15A
:1011000002AB1B78710002AA52781B029B189BB29B
:10111000274A8B522C4A934204D93000FFF710FC27
:101120002A483DE08022264B9A557300204A9C5A5B
:10113000A04500D24446220000993000FFF7D8FABB
:1011400006E021003000FFF7EDFA7300184A9C52C8
:101150001C4B9C46654440212800FFF791FA28006B
:10116000FFF78AFA0028FAD1114A71008B5A1B1B2B
:101170009BB28B52002B04D0114A915D01230B438B
:10118000935520000CE00120404209E00520404238
:1011900006E00E20404203E00420404200E0002030
:1011A00005B00CBC90469B46F0BDC0460000014611
:1011B000C40100202402014630000146B80100208D
:1011C000BC01002010000146EA05000017FCFFFFEB
:1011D000F0B593B04E48FFF74FFA00904D48FFF737
:1011E0004BFA01904C48FFF747FA02904B48FFF743
:1011F00043FA03904A48FFF73FFA04904948FFF743
:101200003BFA05904848FFF737FA06904748FFF742
:1012100033FA07904648FFF72FFA08904548FFF742
:101220002BFA09904448FFF727FA0A904348FFF742
:1012300023FA0B904248FFF71FFA0C904148FFF742
:101240001BFA0D904048FFF717FA0E903F4E300002
:10125000FFF712FA0F903E4D2800FFF70DFA10909D
:101260003C4C2000FFF708FA11903B4F80213800DA
:10127000FFF706FA3800FFF7FFF900992448FFF757
:10128000FFF901992348FFF7FBF902992248FFF77C
:10129000F7F903992148FFF7F3F904992048FFF77C
:1012A000EFF905991F48FFF7EBF906991E48FFF77C
:1012B000E7F907991D48FFF7E3F908991C48FFF77C
:1012C000DFF909991B48FFF7DBF90A991A48FFF77C
:1012D000D7F90B991948FFF7D3F90C991848FFF77C
:1012E000CFF90D991748FFF7CBF90E991648FFF77C
:1012F000C7F90F993000FFF7C3F910992800FFF7DD
:10130000BFF911992000FFF7BBF913B0F0BDC0463B
:10131000036000460260004601600046006000462F
:1013200007600046066000460B6000460A60004603
:1013300009600046086000460F6000460E600046E7
:101340000D6000460C6000461360004612600046C7
:1013500011600046106000460023004610B50400EE
:1013600001782A48FFF78CF961782948FFF788F956
:10137000A1782848FFF784F9E1782748FFF780F93A
:1013800021792648FFF77CF961792548FFF778F93C
:10139000A17B2448FFF774F9E17B2348FFF770F93C
:1013A000217C2248FFF76CF9617C2148FFF768F93E
:1013B000A17A2048FFF764F9E17A1F48FFF760F946
:1013C000217B1E48FFF75CF9617B1D48FFF758F948
:1013D000A1791C48FFF754F9E1791B48FFF750F950
:1013E000217A1A48FFF74CF9617A1948FFF748F952
:1013F000A27C184B1A70E27C5A70227D9A70627D32
:10140000DA70A27D144B1A7010BDC046036000460E
:10141000026000460160004600600046076000462A
:10142000066000460B6000460A6000460960004600
:10143000086000460F6000460E6000460D600046E2
:101440000C600046136000461260004611600046C2
:1014500010600046D8010020D401002010B504001F
:101460002A48FFF709F920702948FFF705F960704D
:101470002848FFF701F9A0702748FFF7FDF8E07052
:101480002648FFF7F9F820712548FFF7F5F8607155
:101490002448FFF7F1F8A0732348FFF7EDF8E07355
:1014A0002248FFF7E9F820742148FFF7E5F8607457
:1014B0002048FFF7E1F8A0721F48FFF7DDF8E0725F
:1014C0001E48FFF7D9F820731D48FFF7D5F8607361
:1014D0001C48FFF7D1F8A0711B48FFF7CDF8E07169
:1014E0001A48FFF7C9F820721948FFF7C5F860726B
:1014F000184B1A78A2745A78E2749A782275DB78BD
:101500006375154B1B78A37510BDC046036000467C
:101510000260004601600046006000460760004629
:10152000066000460B6000460A60004609600046FF
:10153000086000460F6000460E6000460D600046E1
:101540000C600046136000461260004611600046C1
:1015500010600046D8010020D401002070B50500BD
:10156000382302009A430AD1064C2000FFF784F882
:101570002843C1B22000FFF783F8002001E00120DA
:10158000404270BD0023004610B50248FFF774F8D2
:1015900010BDC0460023004610B5040001780029A4
:1015A00002D00348FFF76CF86288024B1A6010BD46
:1015B000446000464060004610B504000348FFF751
:1015C0005BF82070024B1B68638010BD44600046CE
:1015D0004060004610B50C00052820D88000114B53
:1015E0001B589F460800FFF7B9FE002019E00800CD
:1015F000FFF734FF002014E00878FFF7AFFF10E09A
:10160000FFF7C2FF207000200BE00800FFF7C4FFC7
:10161000002006E00800FFF7CFFF002001E00120D6
:10162000404210BDB850000010B500F099FB00F02A
:10163000D7FC10BD10B50948FFF71EF8172801D0D8
:101640001C2803D10220FFF783FA02E00220FFF7F3
:1016500077F90120FFF774F910BDC0463000094644
:1016600010B5FFF7E7FFBFF34F8F034A034BDA6074
:10167000BFF34F8FFEE7C0460400FA0500ED00E01F
:10168000F0B5474680B484B00400019100F064FBDB
:101690000500002203AB1A802600A7044C4BF81863
:1016A000FEF7EAFF172808D002D8002874D083E09C
:1016B000182871D01C286AD07EE0464BF818FEF737
:1016C000DBFFC3070AD50122434B1A70022000F04A
:1016D00079FA0121414BF818FEF7D2FF404B1B78F5
:1016E000012B04D12000FFF733FA00206BE03D4BC3
:1016F000FB18186882B2002A60D080231B019A422E
:1017000000D91A00384B1F68D31998462800A83012
:10171000C67803791B023343190043791B040B433A
:10172000807900061843804501D9C01B82B2019917
:101730002000FFF7FFFA86B22B4F03041B0C3A6818
:10174000944663443B60330A03A90B70487002223D
:101750002000FFF74BFA0022244B1A80A835E878C6
:101760002A79120202436B791B0413431A00AB79E6
:101770001B0613433A68934222D800221C4B1A805E
:10178000154B1A702000FFF7E3F930001BE0200032
:10179000FFF7DEF9002016E02023164A0121200081
:1017A000FFF708F986420DD100220F4B1A60200086
:1017B000FFF790F9002006E0002004E0100002E0AE
:1017C000300000E0002004B004BC9046F0BDC046EC
:1017D0003000014620000146DC01002028000146BF
:1017E000ED01002024020146E0010020E401002078
:1017F000DE01002052C300001F4B1B78012B1AD1C1
:101800001E4B1B889BB21E4A934205D01B4A13886D
:1018100001339BB2138002E00022184B1A80174B51
:101820001B889BB2174A934205D90122164B1A70A6
:101830000022124B1A80154B1B78012B1AD1144B26
:101840001B889BB20E4A934205D0114A138801337C
:101850009BB2138002E000220D4B1A800C4B1B88B8
:101860009BB2084A934205D901220A4B1A70002202
:10187000074B1A807047C046DD010020DE010020C2
:10188000FFFF000087130000EC010020DC010020B6
:10189000E4010020ED0100200023074A1370074AED
:1018A0001370002206490B8006490B80064B1A7004
:1018B000064B1A707047C046DD010020DC01002095
:1018C000DE010020E4010020EC010020ED010020F9
:1018D000F8B5060000F040FA050000F03DFA0400FB
:1018E000A823EB5C002B00D1A4E02F00A837F878E8
:1018F0003B791B0203431A00797909040B00134357
:10190000B979090619434A1E4C4B9A420BD9453402
:10191000237A012B00D08FE0C8225202484802F0FF
:1019200013F9402089E0022E59D1230045331B7A58
:10193000012B02D1434802F007F90022424B1A6002
:101940000132424B1A7042490420FFF799FE0028E9
:1019500014D03D4E3368E022D2019446634419000E
:1019600003003B4A022000F059F90004000C3368E0
:101970009C46604430600022364B1A80364B1B7800
:10198000012B09D1230045331B7A012B2ED133487B
:1019900002F056F940262EE0314B1B78012B09D17D
:1019A000230045331B7A012B22D12E4802F048F93F
:1019B000402620E000F0B8F92E00A836F078327901
:1019C0001202024373791B0413431A00B3791B06F6
:1019D00013431D4A12689342B5D820260BE0042E0B
:1019E00008D1214802F02CF9402026E0402602E0F0
:1019F000402600E04026A835E8782B791B020343F7
:101A000019006A79120413000B43AA7912061A43CB
:101A10000D4B19688A4209D14534237A012B04D130
:101A2000124802F091F8802600E08026FFF734FF8C
:101A3000300002E0402000E04020F8BDFF8F0100B0
:101A4000D050000038510000E8010020DD010020E6
:101A5000140F0020DE010020EC0100207451000072
:101A6000ED010020AC510000E45100002C520000B8
:101A700010B5002302E01C5CCC5401339342FAD32E
:101A8000180010BDF8B5054D802464002E590127BB
:101A90007F422F51024FB8472E51F8BD00E100E0C0
:101AA0000110FF1F10B5C303DB0B984210D00F4B82
:101AB000984203D90E4B034098420BD00C4B9842EE
:101AC00012D983039B0B98420ED10020112403E00E
:101AD000122401E00020102472B60023002201002D
:101AE0002000FFF7CFFF62B610BDC046FFFD030028
:101AF000FFFE030010B5C303DB0B984207D172B69B
:101B00000023002201001320FFF7BCFF62B610BDC6
:101B100010B51400124B984207D983039B0B9842CF
:101B200003D180235B009A4214D8002C03D10319FF
:101B30000C4A934210D80C4A0C4BC31893420DD94F
:101B400072B623000A0001002220FFF79BFF62B655
:101B5000200004E0002002E0002000E0002010BD92
:101B6000FFFD0300FFFF0300FFFD01000000FEFF7B
:101B700070B50D00110001280CD0002804D00228F7
:101B80000ED0032812D016E006220C48FFF770FF93
:101B9000040010E01A000A48FFF76AFF04000AE098
:101BA0001A002800FFF764FF040004E01A00280070
:101BB000FFF75EFF0400200070BDC04600FE03007A
:101BC00000FF030070B5040001280AD0002804D0EB
:101BD00002280DD0032808D00CE00E48FFF762FF62
:101BE00008E00D48FFF75EFF04E08025AD0201E04C
:101BF000E025ED01023CE4B2012C0AD806E0200306
:101C00004019FFF777FF0134A4B200E00024182C3C
:101C1000F5D970BD00FE030000FF0300F8B50F000A
:101C200015001E00012810D0002804D0022816D06C
:101C300003281BD020E00020FFF7C4FF0622290064
:101C40000E48FFF765FF040016E00120FFF7BAFF1A
:101C5000320029000A48FFF75BFF04000CE01A007D
:101C600029003800FFF754FF040005E01A0029009E
:101C70003800FFF74DFF04002000F8BD00FE030010
:101C800000FF03000022014B1A607047FC01002096
:101C900010B51F4A138801339BB2138001F092FAEA
:101CA000FFF7AAFD1B4B1B78002B0CD01A4A138898
:101CB00001339BB21380632B05D90122174B1A7095
:101CC0000022154B1A80124B188880B2FA21890025
:101CD00001F002FF89B2002909D100220C4B1A80C1
:101CE0000F4A138801339BB21380FEF721FE0C4B81
:101CF000188880B23C2101F0EFFE89B2002906D19C
:101D00000022074B1A80074A13680133136010BD85
:101D1000EE010020FD060020F0010020FA01002065
:101D2000F8010020F401002010B5064A1368591C80
:101D30001160222B04D9FFF7ABFF0022014B1A6080
:101D400010BDC046FC0100207047C04610B5E12020
:101D50004002FEF75FFC10BD004870470002002003
:101D6000F0B557464E464546E0B47C4CF9232380F7
:101D70000025A5700126E6702571671D0F22002140
:101D8000380001F0D9FE09227549380001F0CBFE78
:101D9000267502216175A175C0226277A823984635
:101DA000A3770B23E377202021541F3162540131A4
:101DB000404660540131635401316654DB312520C3
:101DC00021540130215401302154D7396554013157
:101DD000665401316654013189466254943A414651
:101DE000A1540132A3542A3A2333E25421002F3163
:101DF000A63B0B70132214384870210031310B7050
:101E00004A702100333100200870487021003531BC
:101E1000483808700B2048702100373100200870C6
:101E200048703921655401316554013165540131DF
:101E300065540131655401316554013165540131F6
:101E40006654583001316054210041313D384870AA
:101E500043216354230043335A704523E554393BEF
:101E60009A463A335246E2540133E6540133E5547C
:101E70000133E5540133E5540133E5540133E554AE
:101E80000133E654200058300A22002101F054FEAC
:101E900020004E300A22002101F04EFE6223E5545C
:101EA0000133E5540133E55408270133E754013386
:101EB000E7540133E7540133E754200069303222FC
:101EC000002101F039FE9A23E7540133E65401332F
:101ED000E55401334A46E2540133E2540133E254FB
:101EE00001330F22E2520233E65202335246E252EB
:101EF0000233E55200234246A354563AA923E25442
:101F00002300A9338F3A5A700022AB23E2542300F6
:101F1000AB335A709A70DA705032B023E252023307
:101F20000122E2542500B3351E220021280001F0D1
:101F300003FE13220B49280001F0F5FDD1342822BD
:101F40000021200001F0F8FD20220749200001F0C7
:101F5000EAFD1CBC90469946A246F0BD0002002056
:101F600074520000805200009452000010B501F03D
:101F7000AFFA194CF923220000210120FFF7F8FDE8
:101F800022001732062300210020FFF7F1FD2388ED
:101F9000013B9BB2114A934207D9FFF7E1FEF923B7
:101FA0000D4A00210120FFF739FE0B4B01221A7563
:101FB00001325A759A7548329B5C033BDBB2012BA8
:101FC00004D801214523044AD15404E001F08AFADF
:101FD0004523014AD05410BD00020020FDFF00003F
:101FE00070B5C0B000240026154DF9232A00002149
:101FF0000120FFF713FEF92301AA00210120FFF7BA
:10200000B7FDF92201A9280001F07EFD00280BD0C0
:102010000134E4B24D230A4AD35C002B05D02100E1
:10202000084801F091FD00E00126FA20800001F04F
:1020300015FC042C01D8012ED6D140B070BDC0468D
:1020400000020020B452000010B501F06CFD10BD7C
:10205000F0B58BB0FFF780FE050004AC2100012035
:10206000FFF7B8FA21786278A378E0782679677963
:10207000029701960090384801F066FDA179E27957
:10208000237A677A2F202E5C0130285C00023043CF
:1020900001900097314801F057FDA17BE27B237C42
:1020A000607C00902E4801F04FFDA17AE27A237BFC
:1020B000607B00902B4801F047FDA17CE27C237DF2
:1020C000607D0090284801F03FFD2923EB5C012B47
:1020D0003DD06423EB5C012B0BD1290069313033F7
:1020E000EB5C3222AA5C12021A43204801F02CFD5C
:1020F0002DE02B23E95C0133EA5C0133EB5C2E20FD
:102100002E5C03302C5C0130285C000220430190DF
:102110000096174801F018FD2923EB5C032B16D11C
:102120002833EB5C002B0FD12C33EB5C002B0BD155
:102130002D33EB5C002B07D12E33EB5C002B03D14E
:102140000C4801F07DFD02E00B4801F079FD0B48E1
:1021500001F076FD0BB0F0BDDC520000045300002E
:1021600028530000405300005853000070530000F3
:1021700098530000C4530000D85300007C5800005E
:1021800010B586B0FFF7E8FD040001001731062204
:102190006846FFF759FF21001D3104226B46981D48
:1021A000FFF752FF2100213104220E206844FFF77F
:1021B0004BFF2100253104220A206844FFF744FF29
:1021C00021006531042212206844FFF73DFF63239C
:1021D000E35C002B03D002236A46937502E00123DF
:1021E0006A46937569460020FFF7F4F906B010BD02
:1021F000F8B506000F0000230B70254D0AE0200003
:1022000001F06AFD02002100300001F06CFD0028A1
:1022100003D004352C68002CF1D1002C30D01C4B9D
:10222000ED1AAD10EDB22B2D0CD1337A0D2B29D137
:10223000737A0A2B28D1B11C0622380001F073FCF6
:10224000280024E02C2D15D103E0FA540133DBB231
:1022500000E000239A1CB25C0D2AF6D1F618F27841
:102260000A2A13D1F91800220A700133FF183A70B4
:1022700028000CE0B11C380001F026FD280006E023
:10228000FF2004E0FF2002E0FF2000E0FF20F8BD77
:102290001C000020F0B557464E464546E0B496B0C7
:1022A00004008A46FFF758FD8046002257236B44FE
:1022B0001A7004320021504601F03EFCE44920002F
:1022C00001F024FD002600F030FE04A9FFF790FF86
:1022D0000400FF2801D100F021FE04AF380001F016
:1022E000FBFC83B299463878002800D0B4E2A30002
:1022F000D84A99580222504601F015FC0223534453
:102300009946392C00D986E2A400D34B1B599F462D
:102310004346DA7D1B7E4146497E4046807E4446E8
:10232000E47E45462D7F0395029401900091CB49B0
:10233000484601F08FFC7AE243461A7D5B7D4146B8
:10234000897D0091C649484601F084FC6FE243460E
:10235000591D484601F0B8FC69E263234246D25C4D
:10236000C049484601F076FC61E229234246D25C2E
:10237000BC49484601F06EFC59E20022B949484682
:1023800001F068FC53E20022B649484601F062FCC5
:102390004DE262234246D25CB249484601F05AFC03
:1023A00045E24D234246D25CAE49484601F052FC1C
:1023B0003DE240234246D25CAA49484601F04AFC2D
:1023C00035E241234246D35C422241468A5C1202F6
:1023D0001A43A449484601F03DFC28E24323424603
:1023E000D35C442241468A5C12021A439D49484606
:1023F00001F030FC1BE235234246D35C36224146D5
:102400008A5C12021A439749484601F023FC0EE207
:1024100043465A7F9B7F4146C97F20204446205C2B
:10242000019000919049484601F014FCFFE12523FA
:102430004246D25C01334146CB5C27214046415C99
:1024400028204446205C019000918749484601F0CD
:1024500001FCECE121234246D25C01334146CB5CD6
:1024600023214046415C24204446205C0190009199
:102470007D49484601F0EEFBD9E165234246D25C36
:1024800001334146CB5C67214046415C68204446AD
:10249000205C019000917449484601F0DBFBC6E1E5
:1024A00020227249484601F0D5FBC0E120226F4945
:1024B000484601F0CFFBBAE100226A49484601F0E4
:1024C000C9FBB4E16A4A6749484601F0C3FBAEE183
:1024D00020226649484601F0BDFBA8E1202263495D
:1024E000484601F0B7FBA2E143465B79002B05D1DA
:1024F00020225E49484601F0ADFB98E143465A1D53
:102500009B7E4146C97E4046007F0190009159491B
:10251000484601F09FFB8AE12F234246D35C3022DC
:1025200041468A5C12021A434E49484601F092FB2A
:102530007DE131234246D35C322241468A5C12025D
:102540001A434849484601F085FB70E1642342463E
:10255000D35C002B11D12B33D25C01334146CB5CD1
:102560002D214046415C2E204446205C0190009184
:102570003D49484601F06EFB59E169234246D35676
:10258000002B05D120223949484601F063FB4EE17A
:1025900041466931484601F097FB48E146234246EF
:1025A000D25C3049484601F055FB40E147234246A2
:1025B000D25C2C49484601F04DFB38E148234246A5
:1025C000D25C2849484601F045FB30E149234246A8
:1025D000D25C2449484601F03DFB28E14A234246AB
:1025E000D25C2049484601F035FB20E133234246C6
:1025F000D35C342241468A5C12021A431949484688
:1026000001F028FB13E137234246D35C38224146D0
:102610008A5C12021A431349484601F01BFB06E18B
:1026200039234246D25C0F49484601F013FBFEE0D5
:102630003A234246D25C1049484601F00BFBF6E0D3
:102640009B234246D25C0749484601F003FBEEE07B
:10265000945300001C000020EC530000BC55000007
:10266000DC550000E8550000EC550000F85500006E
:10267000D60B0000FC550000145600009D23424676
:10268000D25C01334146CB5C9F214046415C0091C6
:10269000C449484601F0DEFAC9E04E234246D3560B
:1026A000002B05D12022C049484601F0D3FABEE0F4
:1026B00041464E31484601F007FBB8E058234246F8
:1026C000D356002B05D12022B749484601F0C2FA63
:1026D000ADE041465831484601F0F6FAA7E0B34B69
:1026E0001E43B6B2A3E0B24B1E43B6B29FE0B14B5D
:1026F0001B787722934303D010231E43B6B296E093
:10270000AD4B1E43B6B292E0AA4B1B78772293439F
:1027100003D020231E43B6B289E0A74B1E43B6B2B6
:1027200085E0A44B1B787722934303D080231E437C
:10273000B6B27CE0A04B1E43B6B278E045234246D9
:10274000D35C9B009D4A9958484601F0BDFA6EE063
:1027500045234246D25C9A49484601F07BFA66E03E
:102760002A234246D35C9B00964A9958484601F07A
:10277000ABFA5CE08F4B1B787722934311D02F2369
:102780004246D25C01334146CB5C1B021343012B12
:1027900003D184235B011E4349E088231E43B6B264
:1027A00045E0854B1E43B6B241E09C234246D25CD5
:1027B0008349484601F04EFA39E084235B011E4309
:1027C00035E000227E49484601F044FA2FE0794B7B
:1027D0001B787722934307D0763A2A234146CA547E
:1027E00090231E43B6B222E0734B1E43B6B21EE0E6
:1027F0004B234246D25C01334146CB5C724948468A
:1028000001F028FA13E09A234246D25C6C4948460C
:1028100001F020FA0BE06D4B1E43B6B22A2342466C
:10282000D35C9B00674A9958484601F04DFA684BC3
:102830001E4203D000235246137072E3484601F053
:102840004BFA48440322634901F06DF9484601F010
:1028500043FA4844824664E3564B1B7877229343FD
:1028600000D157E3392C00D950E3A4005A4B1B592F
:102870009F464346DB7D002B0BD143461B7E082B36
:1028800007D143465B7EDC2B03D1544B1E43B6B2CB
:1028900047E342461732524904A800F08DFD002854
:1028A00000D03EE34F4B1E43B6B23AE34B4B1E43C0
:1028B000B6B236E300F00AFD57236B4418704B465E
:1028C000012B01D1012803D9464B1E43B6B228E3A0
:1028D00063234246D05424E300F0F8FC57236B44B2
:1028E00018704B46012B01D1032803D93D4B1E43E1
:1028F000B6B216E329234246D05412E300F0E6FCB8
:1029000057236B4418704B46012B02D1012800D885
:1029100007E3344B1E43B6B203E300F0D7FC572362
:102920006B4418704B46012B02D1012800D8F8E205
:102930002C4B1E43B6B2F4E200F0C8FC57236B44A4
:1029400018704B46012B01D1012803D9254B1E439A
:10295000B6B2E6E262234246D054E2E200F0B6FCB0
:1029600057236B4418704B46012B01D1012803D922
:102970001C4B1E43B6B2D4E24D234246D054D0E2A3
:1029800000F0A4FC57236B4418704B46012B01D177
:10299000012803D9134B1E43B6B2C2E2402342467C
:1029A000D054BEE20C560000F85500000081FFFF35
:1029B0000082FFFFF90200200086FFFF14000020C4
:1029C000E8550000080100201C5600000084FFFFAD
:1029D000B080FFFF94530000D45400000083FFFF39
:1029E000245600000085FFFF04A801F081F8C94BC0
:1029F000984203D9C84B1E43B6B292E280B241233B
:102A00004246D054000A43464133587089E204A834
:102A100001F06EF8BF4B984203D9BF4B1E43B6B2CC
:102A20007FE280B243234246D054000A43464333F8
:102A3000587076E204A801F05BF8B64B984203D9CF
:102A4000B54B1E43B6B26CE280B2434635331870C4
:102A5000000A587065E214A904A800F0B5FB00282C
:102A60000BD014AB1A7841464A775A788A779A780D
:102A7000CA77DA782023CA5453E2A74B1E43B6B272
:102A80004FE214A904A800F09FFB00280ED014AB5D
:102A90001978252240468154597801328154997819
:102AA00001328154DA782823C2543AE29A4B1E4309
:102AB000B6B236E214A904A800F086FB00280ED0B6
:102AC00014AB19782122404681545978013281543F
:102AD000997801328154DA782423C25421E28E4B52
:102AE0001E43B6B21DE214A904A800F06DFB002835
:102AF0000ED014AB197865224046815459780132C2
:102B00008154997801328154DA786823C25408E2FA
:102B1000814B1E43B6B204E24B460E2B03D97E4BCB
:102B20001E43B6B2FDE1202803D100234246537173
:102B3000F7E14346581D04A901F0C6F8F1E104A8E5
:102B400000F0D6FF734B984203D9734B1E43B6B2C5
:102B5000E7E180B243462F331870000A5870E0E175
:102B600004A800F0C5FF6B4B984203D96A4B1E4383
:102B7000B6B2D6E180B2434631331870000A5870BD
:102B8000CFE114A904A800F01FFB002812D00022F6
:102B900064234146CA5414AB19782B324046815401
:102BA000597801328154997801328154DA782E2390
:102BB000C254B6E1012264234146CA5404AB1B78D7
:102BC000202B03D100224933CA54AAE104A940466C
:102BD000693001F079F8A4E104A800F083FF83B222
:102BE0004A46022A01D80E2B03D94B4B1E43B6B2DC
:102BF00097E146234246D05493E100F067FB572308
:102C00006B4418704B46012B01D1012803D9424B6C
:102C10001E43B6B285E147234246D05481E100F01D
:102C200055FB57236B4418704B46012B01D10228EA
:102C300003D9394B1E43B6B273E148234246D05400
:102C40006FE100F043FB57236B4418704B46012B98
:102C500001D1012803D9304B1E43B6B261E14923AB
:102C60004246D0545DE100F031FB57236B441870AD
:102C70004B46012B01D1042803D9274B1E43B6B282
:102C80004FE145234246D35C012B0CD1C31EDBB27E
:102C9000012B04D900224A234146CA5441E14A2368
:102CA0004246D0543DE14A234246D05439E104A87B
:102CB00000F01EFF174B984203D9174B1E43B6B2C4
:102CC0002FE180B2434633331870000A587028E170
:102CD00004A800F00DFF0F4B984203D90E4B1E4382
:102CE000B6B21EE180B2434637331870000A5870FE
:102CF00017E104A800F0F6FE83B24A46032A01D881
:102D0000FF2B03D9044B1E43B6B20AE139234246D6
:102D1000D05406E1FFFF00000085FFFF4B46022B69
:102D200004D104A800F0B8FA002803D1844B1E4354
:102D3000B6B2F6E057246C44210004A800F0E2FA91
:102D400023783A2241468B54002B03D100223E3394
:102D5000CA54E6E001223E234146CA54E1E000F0B5
:102D6000B5FA57236B4418704B46012B01D101284B
:102D700003D9734B1E43B6B2D3E09B234246D054D3
:102D8000CFE04B46062B0CD104A800F085FA0028B2
:102D900007D041469D3104A800F0B4FA002800D0C5
:102DA000BFE0674B1E43B6B2BBE04B46092B03D9CD
:102DB000634B1E43B6B2B4E0202804D100224E2358
:102DC0004146CA54ADE004A940464E3000F07CFFB5
:102DD000A7E04B46092B03D9594B1E43B6B2A0E0DE
:102DE000202804D1002258234146CA5499E0404685
:102DF000583004A900F068FF93E004A800F078FEC2
:102E0000C8235B0298420CD90022AB234146CA5426
:102E10004346AB335A709A70DA70494B1E43B6B2D0
:102E20007FE0AB234246D054020A4346AB335A708C
:102E3000020C9A70000ED8700122A8234146CA5491
:102E400040231E43B6B24A7F8B7FC97F2020444671
:102E5000205C3C4C0294019000913B49504600F0AC
:102E6000F9FE5EE000F032FA57236B4418704B46CF
:102E7000012B01D1012803D9314B1E43B6B250E0DA
:102E80009C234246D0544CE000F020FA57236B4478
:102E900018704B46012B01D1012842D9284B1E4303
:102EA000B6B23EE057246C44210004A800F02AFA90
:102EB00023781A0990B20F210B402370494602294A
:102EC00003D8012B01D8012803D91D4B1E43B6B2EC
:102ED00027E04B21404642544C22835421E004A871
:102EE00000F000FE83B24A46032A03D8002B01D02B
:102EF000FF2B03D9124B1E43B6B212E09A2342466F
:102F0000D0540EE0114B1E43B6B20AE0104B1E43E4
:102F1000B6B206E00F4B1E43B6B202E00C4B1E43A6
:102F2000B6B20D49002000F0F1FE002801D0FFF7F5
:102F3000CCF9300016B01CBC90469946A246F0BDB4
:102F40000085FFFF52C30000285600000081FFFFEC
:102F50000084FFFF0086FFFF94530000F0B5574642
:102F60004E464546E0B498B004000E00FEF7F4FE6D
:102F7000050000225C4B1A705C48FDF77DFB0028C1
:102F800000D196E0222800D09BE0594B1A6892B2FB
:102F9000002A00D197E05A236B44009317AB21001D
:102FA0002138FEF711F80004000C01382018002326
:102FB000037006A92000FFF71BF92B2800D084E03E
:102FC00006224C4906A800F09FFD002806D1464A7B
:102FD0001378802149420B4313700DE0062229002B
:102FE000173106A800F090FD002870D13E4A1378F2
:102FF000782149420B4313703B4B1B785BB2002B8B
:1030000067DAEB7D9A46297E687EAF7EEA7E94463B
:103010002A7F9046AC22384B9A5843460493634625
:10302000039302970190009153463449300000F019
:1030300011FE0A3437000A3706A92000FFF7D8F836
:103040002C2848D106AB1B78202B03D13833EB5604
:10305000002B06D02900583106A800F02BFE0028CE
:103060003BD106A800F038FE021D2100380000F018
:103070005AFD06A800F030FE043024183F1839002D
:103080002000FFF707F9040006A800F025FE050060
:10309000380000F021FE2A180E3292B25A236B44F7
:1030A0001B880093164B31000120FDF7C7FE20005E
:1030B00014E00023134A02210120FDF77BFC0020CD
:1030C0000CE000200AE0002008E0002006E00020DC
:1030D00004E0002002E0002000E0002018B01CBC4A
:1030E00090469946A246F0BDF90200203000054600
:1030F000240205463C5600001C00002044560000F7
:103100005856000051C3000070B5FEF725FE0500BB
:1031100029492A48FFF722FF040002044BD4002863
:1031200049D0030702D5FEF77FFA0FE0C30602D5A8
:10313000FEF756FF0AE0C30408D5214800F080FDE1
:103140000020FEF73FFD0120FEF73CFD63062ED573
:103150000220FEF7BDFB802819D10022A823EA54E3
:103160000333EA542B00AB335A709A70DA70013291
:103170002A23EA54FEF734FFE020C00100F042FBAE
:10318000FA20400000F06AFBFEF76AFA13E0002222
:10319000A823EA540333EA54AB3500236B70AB70B9
:1031A000EB70FEF71DFF0420FDF7CAFB03E02306CA
:1031B00001D5FEF755FA70BDFC020020FC0400208A
:1031C0007C5800007047C046F0B557464E4645460D
:1031D000E0B482B08246884600F07EFDC6B203228B
:1031E000002101A800F0A8FCF31FDBB2082B3FD898
:1031F000002000230025002431E05246115D254ABD
:1032000012685218527852070FD59A009B185A002C
:10321000521893B2303B9BB2FF2B2BD8421CD2B238
:1032200001AF3954032A17D926E02E2926D1FF2BC6
:1032300026D80135EDB2042D24D86B1E434499469F
:1032400001A800F04FFC4B4618700322002101A892
:1032500000F072FC002200230134E4B21000B442FA
:10326000CBD3454401A800F03DFC287001200AE0C2
:10327000002008E0002006E0002004E0002002E03A
:10328000002000E0002002B01CBC90469946A246F7
:10329000F0BDC0463401002070B50500002409E0EF
:1032A0002B5D094A1268D3185B7844221A4208D071
:1032B0000134E4B2280000F00FFD8442F0D3012075
:1032C00000E0002070BDC04634010020102815D950
:1032D0000B4B1B681B185B785B0702D53038C0B2FC
:1032E0000DE00300283BDBB23E2B02D85138C0B2C0
:1032F00005E0472803D93138C0B200E0FF2070470D
:1033000034010020F0B557464E464546E0B482B041
:1033100004008A4600F0E0FCC3B29946C30740D4DB
:103320004B46102B3FD8207800283DD000200021AC
:1033300033E00B00625C1F4F3F68BD186D78AC46F0
:103340000325A846654646463540022D00D1203A61
:10335000D2B20133E35CFF187F7803252F40022FA0
:1033600000D1203BDBB2392A02D9373AD7B201E08B
:10337000303AD7B2392B02D9373BDAB201E0303BD1
:10338000DAB2431C9C463B011343524613540231AC
:10339000C9B263466A46D371D0794945C9D3012081
:1033A00002E0002000E0002002B01CBC90469946DC
:1033B000A246F0BD34010020F0B587B006000091B0
:1033C000019200F089FCC3B2307800282ED0112B76
:1033D00029D100241EE0270061000919711803ADEE
:1033E0000322280000F09FFBA978002904D0009850
:1033F00000F052FC002818D003A800238370FFF7C8
:103400004BFF002812D004ABD91903A8FFF77AFFAD
:103410000134E4B2052CDED9062204A9019800F09B
:1034200082FB012002E0002000E0002007B0F0BD98
:1034300010B50120FEF788FC6123084A1360084A92
:103440001360802212028021C9018620C005FDF789
:1034500043FA0020FEF778FC10BDC04670300041F2
:10346000543000410223024A1360024A136070473D
:10347000701100410820004110B501230022802175
:1034800089008420C005FDF77FF810BD10B58424A5
:10349000E4050123002202212000FDF775F8022334
:1034A000636110BD10B500240BE002218420C0052B
:1034B000FDF714F8002808D1053000F0CFF90134E9
:1034C000E4B2042CF1D9002000E0012010BDC04678
:1034D00010B50123002240218820C005FDF754F8D3
:1034E00010BDC04610B540218820C005FCF7F6FF8E
:1034F00010BDC04670B58025ED018824E405012388
:10350000002229002000FDF73FF8656170BDC0462C
:1035100010B58021C9018820C005FCF7DFFF10BD70
:10352000F0B583B00400012817D842000C4BD55ADF
:10353000009501236A4613710A4E87006946B859FF
:10354000FCF75AFF084B1A5D084B185D2900FCF781
:10355000E9FFB8592900FCF7C9FF03B0F0BDC04628
:10356000CC5700002C01002028010020240100205D
:1035700010B5FFF75DFFFFF789FFFFF793FF4342A9
:103580004341064A1370FFF777FFFFF7B3FF0020B0
:10359000FFF7C6FF0120FFF7C3FF10BDFC060020A8
:1035A00010B5012807D84200034BD15A8000034BC5
:1035B000C058FCF7A9FF10BDCC5700002C0100201B
:1035C000012808D88200044BD258536840000349B0
:1035D000415A4B40536070472C010020CC570000EB
:1035E0007047C0467047C0467047C0467047C046E7
:1035F0007047C0467047C0467047C0467047C046D7
:103600007047C0467047C0467047C0467047C046C6
:103610007047C0467047C0467047C0467047C046B6
:103620007047C0467047C0467047C0467047C046A6
:103630007047C0467047C0467047C0467047C04696
:103640007047C0467047C0467047C0467047C04686
:103650007047C0467047C04610B5FFF703FF0549E5
:103660000A000020FCF7B4FEFEF70CFBFEF76EFB31
:1036700010BDC04600127A0010B5FDF7A9FDFCF799
:1036800017FE034900F0A2F9024B186010BDC046B6
:10369000102700000020004610B54368026882F33E
:1036A0000888984710BDC04670B582B0FEF754FB3D
:1036B00004000E4800F0C4FA0D4E0E4D31002800F3
:1036C00000F042FA0C4800F0BBFA0C4800F0B8FADF
:1036D000217D627DA37D0A4800900A4800F034FAFB
:1036E0003100280000F030FA02B070BD7C580000B4
:1036F000D05700005C58000004580000105800002B
:10370000645800003858000030B58FB0FEF724FB35
:103710000400062200210CA800F00EFA1622002157
:1037200006A800F009FA16220021684600F004FA03
:10373000E37DFF2B58D1237EFF2B57D1637EFF2BD8
:1037400056D10CAD00232A0000210020FEF710FA0C
:103750002B78FF2B3AD10CAA5278FF2A36D10CAA2B
:103760009278FF2A32D1773A234B1A70234800F01F
:1037700067FA002505E0FCF773FF06AB58550135E5
:10378000EDB2142DF7D9694606A8FEF783FD00288F
:103790000ED1FEF717FA2200173200231900180085
:1037A000FEF73CFAFEF7DCFAFEF71AFC012020E0F7
:1037B0004D23E35C002B03D06946114800F0C4F9A7
:1037C0001622002106A800F0B7F9CFE7E3750CAB8D
:1037D0005A7822769A786276DA78A2761A79E27640
:1037E0005B792377002004E0012002E0012000E063
:1037F00001200FB030BDC046F90200206C58000017
:103800005C58000000B5C1B0002303E01A78694697
:10381000CA540133072BF9D9082304E01A18127887
:103820006946CA540133A72BF8D9A82303E01A78B4
:103830006946CA540133FF2BF9D972B6002300221E
:1038400000211220FEF71EF980235B006A4600214A
:103850002220FEF717F962B641B000BD00B585B071
:103860000190FCF725FD074900F0B0F8019B584393
:10387000039002E0039B013B0393039B002BF9D1D0
:1038800005B000BD1027000070B5FEF765FA040012
:10389000FFF7E2FEFFF7F0FEFFF76AFEFEF766FBBA
:1038A000FFF732FF002807D0E020C001FFF7AAFF92
:1038B000FA204000FFF7D2FFA823E35C012B1CD1C4
:1038C0000220FEF705F805000022A823E254033386
:1038D000E2542300AB335A709A70DA7001322A2313
:1038E000E254FEF77DFB802D07D1E020C001FFF7F9
:1038F00089FFFA204000FFF7B1FFE023DB011B68DE
:10390000013301D1002500E00125012D0FD12A232B
:10391000E35C002B06D101222A33E254FEF760FB60
:10392000002504E0FFF7F4FD002800D10025012D5B
:1039300003D1E020C001FFF7AFFE00222A23E254AA
:103940002333E35C002B01D0FFF7AEFEFEF718FC3B
:103950004D23E35C002B01D0FEF77AFB8624E405BF
:103960000123002220212000FCF70EFE012300226B
:1039700040212000FCF708FE01220B4B1A700020AA
:10398000FFF70EFEFFF7C0FB084B1B78002B08D09B
:103990000020FFF715FE0120FFF712FE0022034B67
:1039A0001A70FEF7C1F9EDE7FD060020FA010020CC
:1039B00070B50E001500002403E0305DFCF748FEF2
:1039C0000134AC42F9D3280070BDC0460022430840
:1039D0008B4274D303098B425FD3030A8B4244D3D7
:1039E000030B8B4228D3030C8B420DD3FF22090219
:1039F00012BA030C8B4202D31212090265D0030BD8
:103A00008B4219D300E0090AC30B8B4201D3CB03CD
:103A1000C01A5241830B8B4201D38B03C01A52410F
:103A2000430B8B4201D34B03C01A5241030B8B4211
:103A300001D30B03C01A5241C30A8B4201D3CB02FC
:103A4000C01A5241830A8B4201D38B02C01A5241E1
:103A5000430A8B4201D34B02C01A5241030A8B42E4
:103A600001D30B02C01A5241CDD2C3098B4201D3FC
:103A7000CB01C01A524183098B4201D38B01C01A7A
:103A8000524143098B4201D34B01C01A52410309F1
:103A90008B4201D30B01C01A5241C3088B4201D3A0
:103AA000CB00C01A524183088B4201D38B00C01A4D
:103AB000524143088B4201D34B00C01A5241411A74
:103AC00000D20146524110467047FFE701B5002081
:103AD00000F006F802BDC0460029F7D076E770472F
:103AE0007047C04610B50A22002100F003FA10BD4D
:103AF00010B50A22002100F0FDF910BD014B186835
:103B00007047C0469801002030B50024A24208D07A
:103B1000035D651C0C5DA34201D0181B02E02C0064
:103B2000F4E7002030BD002310B59A4203D0CC5CEE
:103B3000C4540133F9E710BD03008218934202D048
:103B400019700133FAE770470FB40B4B13B51C68BB
:103B5000002C05D0A369002B02D1200000F098FBB7
:103B600005AB049AA1682000019300F0C7FE16BCC3
:103B700008BC04B01847C0469801002070B5050085
:103B80000E00002804D08369002B01D100F080FBD7
:103B9000AB69AC68002B02D1280000F079FB254B03
:103BA0009C4201D16C6808E0234B9C4201D1AC6877
:103BB00003E0224B9C4200D1EC68A3891B0702D58D
:103BC0002369002B11D12100280000F0F7F900280B
:103BD0000BD0012040422BE0013B0136A360002BBB
:103BE00008DB23685A1C226019703178A368002909
:103BF000F2D10BE0A269934201DB0A29F1D1220044
:103C0000280000F083F9431CEFD1E2E7013BA360F9
:103C1000002B08DA22000A31280000F077F9431C53
:103C2000D7D00A2004E00A2023685A1C22601870AA
:103C300070BDC04688590000A8590000C85900004E
:103C400010B5034B01001868FFF798FF10BDC04680
:103C5000980100200EB410B59DB002A90290086131
:103C60000B48822488604861012040421FABC88114
:103C7000084804CBA400006801938C8100F018FD73
:103C80000023029A13701DB010BC08BC03B0184783
:103C9000FFFFFF7F980100200200C9B21378002BBC
:103CA00003D0994204D00132F8E71800002900D16E
:103CB0001000704702780B78002A03D001300131E0
:103CC0009A42F7D0D01A7047031C0A7801311A7053
:103CD0000133002AF9D170470023C25C0133002A66
:103CE000FBD1581E7047002330B59A420BD0013AE1
:103CF000C45CCD5CAC4205D19A4202D00133002CA9
:103D0000F6D12500631B180030BD0000F8B5174B35
:103D100006001D680F00AC6D002C1FD1502000F074
:103D2000AFFBA8658460AB6D046044601C61DC601F
:103D3000AB6D9C615C61AB6DDC629C62AB6D5C6386
:103D40001C63AB6DDC639C63AB6D5C641C64AB6D2E
:103D5000DC649C64AB6D1C77AB6D5C62AA6D390052
:103D60003000012300F004F8F8BDC046980100209F
:103D7000F0B5041E0CD11468201E09D126E0377856
:103D8000002F0CD00136B842F9D1002B04D02C0002
:103D9000651C20780E00F2E71560237015E00028FE
:103DA00008D1106012E00778BE4207D00130002F22
:103DB000F9D11D006B1C2E780800F4E7002E02D00C
:103DC0000021297000E0330013602000F0BD0000E6
:103DD000F0B51E00454B87B01B6801920293082284
:103DE0000B00059003911C7802995D1C0919487815
:103DF000104001D02B00F6E72D2C04D19D1C5C78DF
:103E00000123009304E000902B2C01D15C789D1CD1
:103E1000002E02D0102E0AD162E0302C5ED120227A
:103E20002B789343582B54D110266C780235009F81
:103E300031007B1E9F412E4BFF183800FFF74CFED0
:103E4000380004913100FFF7C1FD00230322070071
:103E500094461800029A121951780422114201D096
:103E6000303C07E06246114017D03722012900D0CC
:103E70002032A41AA64210DD5A1C0BD0B84207D833
:103E800002D1049B9C4203DC70430123201801E013
:103E900001235B422C780135DCE75A1C0BD10098DA
:103EA000059A431E9841124BC01822231360019BB0
:103EB000002B0AD117E0009A002A00D04042019A54
:103EC000002A10D0039A002B00D06A1E019B1A60B2
:103ED00009E03024002EAAD10826A8E70A26A6E782
:103EE000302C9CD0A3E707B0F0BDC04634010020C1
:103EF000FFFFFF7F10B513000A00010002480068B1
:103F0000FFF766FF10BDC04698010020F8B5050018
:103F10000F001400002804D08369002B01D100F0A9
:103F2000B7F9234B9C4201D16C6808E0214B9C42BD
:103F300001D1AC6803E0204B9C4200D1EC68A3693E
:103F4000A360A3891B070AD52369002B07D0236828
:103F50002269FEB2981A636998420FDB08E02100DB
:103F6000280000F02BF80028F1D0012040421DE08D
:103F70002100280000F01EF90028F6D1A3680130C6
:103F8000013BA36023685A1C22601F70636998423A
:103F900005D0A3893000DB0708D50A2E06D1210001
:103FA000280000F007F90028DFD13000F8BDC04636
:103FB00088590000A8590000C8590000364B70B558
:103FC0001D6806000C00002D05D0AB69002B02D146
:103FD000280000F05DF9314B9C4201D16C6808E08B
:103FE0002F4B9C4201D1AC6803E02E4B9C4200D188
:103FF000EC680C22A35E9AB2110723D4D10607D431
:1040000009220120326037321343A381404242E04B
:10401000530713D5616B002908D02300443399421C
:1040200002D0300000F036FA002363632422A38913
:104030009343A38100236360236923600822A3893B
:104040001343A3812369002B0BD1A0238022A189D4
:104050009B0092000B40934203D02100300000F0FF
:10406000D1F90123A289134005D00023A36063691D
:104070005B42A36103E0920700D46369A360002060
:104080002369834207D10C22A35E1A0603D540227E
:104090001343A381013870BD9801002088590000A6
:1040A000A8590000C8590000F7B58A8905000C001E
:1040B00013075AD44B68002B02DC0B6C002B19DD64
:1040C000E76A002F16D000232E682B6080235B0147
:1040D0001A4001D0606D14E00123216A2800B8471E
:1040E000431C0ED12B68002B0BD01D2B01D0162B9F
:1040F00002D12E6000205AE04022A3891343A381FD
:1041000055E0A3895B0706D56368C01A636B002B73
:1041100001D0236CC01A00230200216A2800E76A3C
:10412000B847A389421C06D129681D293AD8204ADC
:10413000CA40D20736D50022626022692260DB04C1
:1041400005D5431C02D12B68002B00D16065616B43
:104150002E600029CED023004433994202D028009B
:1041600000F098F90020606321E00F69002FC1D0B2
:104170000B680F60DB1B01930023920700D14B6992
:10418000A36003E0019B3F181B1A0193019B002BC6
:10419000B0DD019B3A00216A2800A66AB0470028DA
:1041A000F0DCA389402201201343A3814042FEBDDD
:1041B000010040200B6970B505000C00002B01D1F7
:1041C00000201CE0002804D08369002B01D100F0FE
:1041D0005FF80B4B9C4201D16C6808E0094B9C4294
:1041E00001D1AC6803E0084B9C4200D1EC680C2282
:1041F000A35E002BE4D021002800FFF755FF70BD1F
:1042000088590000A8590000C859000010B502499B
:1042100000F0B0F810BDC046B5410000002310B555
:10422000040003604360836081814366C28103614F
:1042300043618361190008225C30FFF77DFC054B68
:1042400024626362044BA362044BE362044B236366
:1042500010BDC046794E0000A14E0000D94E0000AE
:10426000054F000070B568254B1E5D430E00290008
:10427000743100F05BF9041E08D000212A000160AF
:1042800046600C30A0606832FFF756FC200070BD1D
:10429000836913B50400002B28D18364C3640365CC
:1042A000134B144A1B6882620193984201D1012387
:1042B0008361200000F020F86060200000F01CF80E
:1042C000A060200000F018F80022E060042160687F
:1042D000FFF7A4FF01220921A068FFF79FFF022238
:1042E0001221E068FFF79AFF0123A36113BDC046C6
:1042F000845900000D420000F8B51D4B06001D68F2
:10430000AB69002B02D12800FFF7C2FF4835AC682B
:104310006B68013B05D40C22A75E002F10D06834D7
:10432000F7E72B68002B01D02D68F0E7042130005F
:10433000FFF798FF28600028F6D10C23336016E0C1
:10434000012320005B42E3810233A381676627607B
:10435000A760676027616761A7615C300822390048
:10436000FFF7EAFB20006763A763A764E764F8BD73
:1043700084590000F7B50400070000260191483475
:10438000002C16D06368A5680093009B013B009346
:104390000DD4AB89012B08D90E22AB5E013304D0BA
:1043A00029003800019B984706436835EDE72468EB
:1043B000E6E73000FEBD000070B50E001D000E23C4
:1043C000C95E90B01400002906DA00232B60B3897F
:1043D0001B060FD540230FE001AA00F0BFFD002807
:1043E000F3DBF023029A1B021340054A9B185A4242
:1043F00053412B608023DB000020236010B070BD90
:1044000000E0FFFFF7B502268B8905000C00334260
:1044100010D101AB6A46FFF7CFFF009907002800D3
:1044200000F084F800280CD10C22A35E9A0523D456
:104430003343A38123004733236023610123636156
:104440001AE080220D4BAB62A38920601343A38145
:10445000009B20616361019B002B0AD00E23E15E6B
:10446000280000F08DFD002803D00122A38913430A
:10447000A381A3891F43A781F7BDC0460D42000059
:1044800010B5034B0100186800F050F810BDC0468D
:104490009801002070B50500002944D00C1F236846
:1044A000002B00DAE418280000F0B0FD1E4A136863
:1044B0001100002B02D16360146031E0A3420DD9DA
:1044C0002268A018834203D118685B6882182260B2
:1044D00063600C6024E0A24203D813005A68002AEB
:1044E000F9D11E689819A0420BD12168711858188B
:1044F0001960824214D110685268411819605A60DC
:104500000EE0A04202D90C232B6009E0216860185C
:10451000824203D1106852684118216062605C6079
:10452000280000F074FD70BD04070020032370B55F
:10453000CD1C9D43083506000C2D01D20C2501E051
:10454000002D01DBA94202D90C23336048E0300082
:1045500000F05CFD234B1C681A002100002913D0D9
:104560000B685B1B0DD40B2B02D90B60CC181EE023
:104570008C4202D1636813601AE04B6863600C00E0
:1045800016E00C004968E9E7174C2368002B03D1BB
:10459000300000F05FFC20602900300000F05AFC81
:1045A000431C18D00323C41C9C43A0420DD125609A
:1045B000300000F02CFD200007220B30231D90431B
:1045C000C31A0ED05A42E2500BE0211A300000F01C
:1045D00041FC431CEBD10C233000336000F017FD8D
:1045E000002070BD0407002000070020F0B58E6891
:1045F00085B007000C00039201939E4243D890239C
:104600008A89DB001A423ED0032509692368019894
:104610005B1A029363695D43EB0F5D19029B6D109A
:1046200001331B18AB4200D91D00530510D52900DA
:104630003800FFF77BFF061E14D0029A2169FFF7AE
:1046400072FAA289194B134080221343A38112E00E
:104650002A00380000F0DCFC061E0CD1216938006D
:10466000FFF718FF0C23402201203B60A389404242
:104670001343A38117E0029B2661F618266065614B
:10468000019EED1AA560019BB34200D21E003200CC
:104690000399206800F0A5FC0020A3689B1BA36081
:1046A00023689E19266005B0F0BDC0467FFBFFFF62
:1046B000F0B59FB0029005938B890F0016001B0682
:1046C00010D50B69002B0DD14021FFF72FFF38606B
:1046D0003861002804D10C23029A01381360D8E015
:1046E00040237B61002306AD6B6120336B76103372
:1046F000AB7634002378002B03D1A31B049312D094
:1047000003E0252BF9D00134F4E7A31B3200390074
:104710000298FFF76BFF431C00D1B4E06A69049B69
:10472000944663446B612378002B00D1ABE00122F7
:10473000002352426A6002A95432521801342B609D
:10474000EB60AB601370AB65534E217805223000EF
:1047500000F03CFC002807D00123801B83402A681E
:10476000013413432B60EFE72B68DA0604D553229C
:10477000202102A8121811701A0704D553222B21E8
:1047800002A81218117022782A2A03D0099B00204F
:104790000A210EE0059A111D12680591002A01DB1D
:1047A000099204E05242EA60022213432B60013472
:1047B0000BE02278303A092A04D84B4301349B1885
:1047C0000120F6E7002800D0099323782E2B1ED174
:1047D00063782A2B0AD1059B02341A1D1B680592A7
:1047E000002B01DA01235B42079310E000230A202B
:1047F0001A0001346B6021783039092904D842430A
:10480000013452180123F6E7002B00D00792234E03
:1048100021780322300000F0D9FB002806D0402385
:10482000801B83402A68013413432B6021780622C1
:104830001B48661C297600F0C9FB002812D0194BD2
:10484000002B06D10722059B0733934308330593BA
:1048500014E005AB00933A00134B2900029800E0E6
:1048600000BF07E005AB00933A000F4B2900029808
:1048700000F0CEF90390039B013304D06B69039AD7
:104880009B186B6135E7BB890B985B0601D501204E
:1048900040421FB0F0BDC046E8590000EE5900008C
:1048A000F259000000000000ED450000936810B5CB
:1048B000013B9360002B05DA9469A34208DBCBB27D
:1048C0000A2B05D01368581C10601970C8B201E09B
:1048D000FFF71CFB10BDF8B506000F001400D5183B
:1048E000AC4208D021783A003000FFF7DFFF0134F6
:1048F000431CF5D100E00020F8BD0000F0B59FB0EA
:1049000006000F0002920593002804D08369002B53
:1049100001D1FFF7BDFC7F4B9F4201D1776808E0D2
:104920007D4B9F4201D1B76803E07C4B9F4200D191
:10493000F768BB891B070AD53B69002B07D000230A
:1049400006AD6B6120336B761033AB763DE03900FA
:104950003000FFF733FB0028F1D001204042D6E0C1
:10496000059A111D12680591002A00DA7FE009926C
:10497000013423782E2B00D18DE021780322684862
:1049800000F024FB002807D0654B2A68C01A40239A
:10499000834013432B6001342178631C0622614855
:1049A0000293297600F012FB002800D19DE05E4BB7
:1049B000002B00D090E00722059B07339343083378
:1049C00005936B69039A9B186B61029C2378002BFB
:1049D00004D1029BE31A049312D003E0252BF8D0F4
:1049E0000134F3E7049B029A39003000FFF773FFAC
:1049F000431C00D186E06A69049B944663446B6162
:104A00002378002B7ED00122002352426A6002A943
:104A10005432521801342B60EB60AB601370AB65FD
:104A200021780522414800F0D1FA002808D03F4BF8
:104A30002A68C01A0123834013432B600134EFE737
:104A40002B68DA0604D55322202102A8121811700F
:104A50001A0704D553222B2102A8121811702278AC
:104A60002A2A00D17CE7099B00200A2105E0524256
:104A7000EA60022213432B607AE72278303A092A4F
:104A800004D84B4301349B180120F6E7002800D1DD
:104A90006FE709936DE763782A2B0AD1059B0234EF
:104AA0001A1D1B680592002B01DA01235B42079354
:104AB00063E700230A201A0001346B602178303943
:104AC000092904D84243013452180123F6E7002B88
:104AD00000D152E7079250E705AB00933A00144B20
:104AE0002900300000E000BF07E005AB00933A006A
:104AF0000F4B2900300000F08BF80390039B01332B
:104B000000D05EE7BB895B0600D526E70B981FB097
:104B1000F0BDC04688590000A8590000C8590000DF
:104B2000EE590000F259000000000000E8590000B2
:104B3000D7480000F7B5170001938A680B69009009
:104B40000C00934200DA130022003B6043321278DB
:104B5000002A01D001333B6023689B0602D53B68E5
:104B600002333B60062523681D401ED023004333DB
:104B70001B785A1E9341226892061CD53020E118FA
:104B80004331087021005A1C45310978A21843327C
:104B9000023311700FE022000123193201990098AD
:104BA000089EB047431C0ED00135E3683A689B1A53
:104BB0009D42F0DBDAE72200019943320098089D1C
:104BC000A847431C02D10120404220E00623206870
:104BD000E1683A6803400025042B03D18D1AEB43AA
:104BE000DB171D40A3682269934201DD9B1AED1873
:104BF0000027BD420AD0220001231A3201990098F1
:104C0000089EB047431CDED00137F2E70020FEBD0E
:104C1000F0B58BB006920A004332079305900492D8
:104C20000A7E0C00109B6E2A00D1ABE011D8632ADB
:104C300022D009D8002A00D1B5E0582A00D0C5E01A
:104C400045310A70814A4FE0642A1DD0692A1BD081
:104C5000BCE0732A00D1AAE009D86F2A29D0702AB3
:104C600000D0B3E0202209680A43226037E0752AA9
:104C70001FD0782A33D0A9E00E001A684236111DE1
:104C8000196013683370A4E021681A68080606D416
:104C9000490604D5111D19600023D55E02E0111DDF
:104CA00019601568002D3BDA2D23049A6D421370AC
:104CB00036E021681A68080606D4490604D5156846
:104CC000111D1960ADB202E0111D196015685F4B2E
:104CD000227E039308276F2A1DD00A271BE022009B
:104CE0007821453211705A4A19680392081D2268CA
:104CF00018600D68100602D4500600D5ADB2D30777
:104D000002D520231A4322601027002D03D120232F
:104D100022689A4322602300002243331A7002E083
:104D20000A274A4B03936368A360002B09DB042224
:104D3000216891432160002D05D1049E002B11D0E4
:104D40007BE0002D79D0049E28003900FEF7C4FED8
:104D5000039B013E5B5C280033703900FEF736FE92
:104D6000051EF1D1082F09D12368DB0706D563683A
:104D70002269934202DC3023013E3370049B9B1B6B
:104D800023612BE009681A68080607D4490605D58F
:104D9000111D19601368A28A1A8004E0111D1960A0
:104DA000136862691A600023049E236116E01A6882
:104DB000111D1960166800216268300000F006F9C4
:104DC000002801D0801B6060636803E02600423643
:104DD0003270012323610023049A1370079B09AAF0
:104DE00000932100069B0598FFF7A4FE431C02D107
:104DF0000120404227E02369320006990598079D6B
:104E0000A847431CF4D0236800259B070FD4099BB7
:104E1000E068984217DA180015E0220001231932E1
:104E200006990598079EB047431CE1D00135E36819
:104E3000099A9B1A9D42F0DBE9E72600039B423664
:104E40001B7833708EE70BB0F0BDC046F9590000F7
:104E50000A5A0000002370B5064C050008002360C4
:104E6000FBF7D0F9431C03D12368002B00D02B6043
:104E700070BDC0460807002070B50C000E25495FC4
:104E800000F0ECF8002803DB636D1B18636503E09A
:104E9000A289024B1340A38170BDC046FFEFFFFF04
:104EA000F8B51F008B8905000C001600DB0505D541
:104EB0000E23C95E0022022300F074F8A289054B7C
:104EC00028001340A38132000E23E15E3B0000F076
:104ED0001FF8F8BDFFEFFFFF70B50C000E25495F0E
:104EE00000F060F8A389421C03D1054A1340A38156
:104EF00004E0802252011343A381606570BDC04667
:104F0000FFEFFFFF10B50E23C95E00F015F810BDCE
:104F100070B50500080011000022064C22601A003E
:104F2000FEF746FD431C03D12368002B00D02B6005
:104F300070BDC04608070020002370B5064C050070
:104F400008002360FBF788F9431C03D12368002B7A
:104F500000D02B6070BDC04608070020002370B54C
:104F6000064C0500080011002360FBF77DF9431C87
:104F700003D12368002B00D02B6070BD08070020F0
:104F8000002370B5064C050008002360FBF774F998
:104F9000431C03D12368002B00D02B6070BDC0469A
:104FA0000807002070B50500080011000022064C1B
:104FB00022601A00FBF768F9431C03D12368002B19
:104FC00000D02B6070BDC04608070020C9B282180F
:104FD000904204D003788B4202D00130F8E70020E1
:104FE000704710B5884202D98B18984201D300232C
:104FF00005E09B1A013A08D3995C8154FAE7934281
:1050000003D0CC5CC4540133F9E710BD704770473E
:10501000F8B506000C001500002904D11100FFF7B7
:1050200085FA040018E0002A03D1FFF733FA2C00B8
:1050300012E000F027F885420ED929003000FFF772
:1050400075FA071E07D021002A00FEF76CFD21002B
:105050003000FFF71FFA3C002000F8BD70B50500D6
:10506000080011000022064C22601A00FBF714F918
:10507000431C03D12368002B00D02B6070BDC046B9
:10508000080700200B1F1A68101F002A04DA89186D
:1050900004390B68D0180438704700000D0A706896
:1050A0007920696420646574656374206572726F29
:1050B0007221210D00000000E4150000EE15000033
:1050C000F8150000001600000A1600001416000073
:1050D000203E2053454743503A46575F5550444180
:1050E00054453A4641494C4544202D20496E76614D
:1050F0006C6964206669726D776172652073697A84
:10510000653A2025642062797465732028466972A7
:105110006D776172652073697A65206D757374208F
:1051200062652077697468696E20256420627974ED
:105130006573290D0A000000203E20534547435067
:105140003A46575F5550444154453A4E4554574F9F
:10515000524B202D204669726D776172652073690C
:105160007A653A205B25645D2062797465730D0A67
:1051700000000000203E2053454743503A46575F09
:105180005550444154453A4641494C4544202D2010
:105190004669726D7761726520757064617465200F
:1051A00074696D656F75740D00000000203E20531A
:1051B000454743503A46575F5550444154453A4657
:1051C00041494C4544202D204E6574776F726B2009
:1051D000646F776E6C6F61642074696D656F757450
:1051E0000D000000203E2053454743503A46575F8C
:1051F0005550444154453A4641494C4544202D20A0
:10520000506C656173652074727920746F20465705
:105210002055706461746520617420415050424F84
:105220004F54206D6F64650D00000000203E205338
:10523000454743503A46575F5550444154453A53C9
:10524000554343455353202D202564202F202564AA
:105250002062797465730D0A0000000052532D32EC
:1052600033322F54544C000052532D3432322F34E9
:105270003835000057495A37353053520000000086
:105280006465766963652E77697A77696B692E6ED6
:10529000657400002F77697A37353073722F66771F
:1052A0002F5737353030785F5332455F4170702E5D
:1052B00062696E00203E20446576436F6E666967C2
:1052C00020757064617465206661696C65642C206A
:1052D00052657472793A2025640D0A002023204D0E
:1052E00041433A20253032583A253032583A253059
:1052F00032583A253032583A253032583A25303231
:10530000580D0A002023204950203A2025642E25DC
:10531000642E25642E2564202F20506F72743A204D
:1053200025640D0A000000002023204757203A2062
:1053300025642E25642E25642E25640D0A000000A8
:10534000202320534E203A2025642E25642E2564E8
:105350002E25640D0A000000202320444E533A20DD
:1053600025642E25642E25642E25640D0A00000078
:1053700020232044657374696E6174696F6E2044E4
:105380006F6D61696E3A202573202F20506F727403
:105390003A2025640D0A00002023204465737469B7
:1053A0006E6174696F6E2049503A2025642E256421
:1053B0002E25642E2564202F20506F72743A2025EC
:1053C000640D0A002023232055445020313A4E20FA
:1053D0004D6F64650D0000002023232055445020AC
:1053E000313A31204D6F64650D000000102300003C
:1053F000382300004E2300005A2300006A230000D7
:105400007A2300009223000086230000A2230000DC
:10541000B2230000C2230000DC230000F6230000BA
:10542000102400002E240000542400007A240000E0
:10543000A0240000AC240000B8240000C424000014
:10544000D0240000DC240000E8240000182500001F
:10545000322500004C2500009C250000AC250000F2
:10546000BC250000CC250000DC250000EC25000058
:1054700006260000202600003026000040260000FE
:105480007C2600009A260000BC260000DE260000D4
:10549000DE260000E6260000DE260000DE260000F4
:1054A000EE26000008270000222700003C2700000D
:1054B0006027000074270000AA270000BA27000018
:1054C000C227000050270000CE270000F027000070
:1054D0000628000072280000AC280000AC2800005C
:1054E000B4280000D8280000FC280000382900005B
:1054F0001A2900005C29000080290000E82900002A
:105500000E2A0000342A0000562A0000822A0000D9
:10551000B42A0000E62A0000222F0000222F0000FB
:10552000222F0000222F0000222F0000222F000037
:10553000182B00003E2B0000602B0000822B000087
:10554000D82B0000FA2B00001E2C0000422C00007B
:10555000662C0000AE2C0000D02C0000F22C0000C5
:105560001C2D00005E2D0000822D0000AA2D0000E1
:10557000D22D0000042F0000042F0000FA2D00009F
:10558000042F0000042F0000042F0000042F00004F
:10559000042F0000042F0000042F0000042F00003F
:1055A000642E00000C2F0000882E0000042F000045
:1055B000042F0000A42E0000DE2E000025303258FB
:1055C0003A253032583A253032583A253032583A56
:1055D000253032583A2530325800000025642E25F7
:1055E000642E2564000000002564000025642E253B
:1055F000642E25642E2564002563000025732D2567
:1056000030327825303278253032780025303258E3
:1056100025303258253032580000000025642564BA
:10562000000000002E3A2D00465725642E25642EDA
:1056300025642E25643A25640D0A0000FFFFFFFF54
:10564000FFFF00002573256325632563256325631C
:1056500025630D0A00000000FFFFFFFF00000000AF
:1056600045524E554C4C000045524E4F5441564108
:10567000494C000045524E4F504152414D000000F0
:10568000455249474E4F52454400000045524E4F47
:10569000434F4D4D414E44004552494E56414C49B1
:1056A00044504152414D000045524E4F50524956D0
:1056B000494C4547450000004D430000565200004C
:1056C0004D4E0000494D00004F5000004444000082
:1056D00043500000504F0000444700004B41000081
:1056E0004B4900004B450000524900004C49000066
:1056F000534D00004757000044530000504900003C
:10570000505000004458000044500000444900003C
:1057100044570000444800004C5000005250000024
:105720005248000042520000444200005052000023
:1057300053420000464C0000495400005054000001
:1057400050530000504400005445000053530000E3
:105750004E500000535000004C47000045520000DE
:10576000465700004D4100005057000053560000BE
:105770004558000052540000554E0000535400009C
:1057800046520000454300004B21000055450000F3
:1057900055490000414200005343000054520000AC
:1057A000424F4F54000000004F50454E0000000093
:1057B000434F4E4E454354005550475241444500D7
:1057C00041544D4F4445000055445000040008002A
:1057D0003D3D3D3D3D3D3D3D3D3D3D3D3D3D3D3DF9
:1057E0003D3D3D3D3D3D3D3D3D3D3D3D3D3D3D3DE9
:1057F0003D3D3D3D3D3D3D3D3D3D3D3D3D3D3D3DD9
:105800003D3D00002057495A3735305352200D0096
:10581000203E3E2057495A6E657420536572696177
:105820006C20746F2045746865726E6574204465E1
:10583000766963650D000000203E3E204669726D6A
:10584000776172652076657273696F6E3A20426F78
:105850006F742025642E25642E25642025730D0A7F
:1058600000000000537461626C650000494E5055A1
:1058700054204649525354204D41433F0D000000EF
:105880000020202020202020202028282828282010
:105890002020202020202020202020202020202008
:1058A0002088101010101010101010101010101070
:1058B0001004040404040404040404101010101060
:1058C000101041414141414101010101010101012A
:1058D000010101010101010101010101101010107C
:1058E00010104242424242420202020202020202FC
:1058F0000202020202020202020202021010101050
:105900002000000000000000000000000000000077
:105910000000000000000000000000000000000087
:105920000000000000000000000000000000000077
:105930000000000000000000000000000000000067
:105940000000000000000000000000000000000057
:105950000000000000000000000000000000000047
:105960000000000000000000000000000000000037
:105970000000000000000000000000000000000027
:10598000004300003801002000000000000000007B
:105990000000000000000000000000000000000007
:1059A00000000000000000000000000000000000F7
:1059B00000000000000000000000000000000000E7
:1059C00000000000000000000000000000000000D7
:1059D00000000000000000000000000000000000C7
:1059E0000000000000000000232D302B2000686C18
:1059F0004C006566674546470030313233343536F2
:105A0000373839414243444546003031323334352A
:0B5A1000363738396162636465660058
:105A1C0078563412A80100200000000000400080DD
:105A2C0000C0FFFF5C52000068520000B856000036
:105A3C00BC560000C0560000C4560000C8560000FA
:105A4C00CC560000D0560000D4560000D8560000AA
:105A5C00DC560000E0560000E4560000E85600005A
:105A6C00EC560000F0560000F4560000F85600000A
:105A7C00FC560000005700000457000008570000B7
:105A8C000C57000010570000145700001857000066
:105A9C001C57000020570000245700002857000016
:105AAC002C570000305700003457000038570000C6
:105ABC003C57000040570000445700004857000076
:105ACC004C57000050570000545700005857000026
