:1000000000400020C1010000BD430000C1430000CA
:1000100000000000000000000000000000000000E0
:10002000000000000000000000000000C5430000C8
:100030000000000000000000C9430000CD430000A4
:10004000D1430000D5430000D9430000DD43000048
:10005000E1430000E5430000E9430000ED430000F8
:10006000F1430000F5430000F9430000FD430000A8
:100070000144000005440000094400000D44000054
:100080001144000015440000194400001D44000004
:100090002144000025440000110200002944000012
:1000A0002D4400003144000030B583B000F066F903
:1000B000314B324A1360324A1360324B324A03E00A
:1000C000116819600433043230498B42F8D32B4B4A
:1000D0001A682F4B9A4204D1294B1A682D4B9A4229
:1000E00000D0FEE7244B2C4A13602C4A13602C4BA3
:1000F00002E000221A6004332A4A9342F9D3264BC5
:100100001B68002B03D1254B1B68002B00D0FEE79A
:1001100000F038F901A8694600F0B4F8224B234DED
:10012000ED1AAD10002404E0A2001F4BD3589847ED
:100130000134A542F8DC1E4B1E4DED1AAD10002413
:1001400004E0A2001A4BD35898470134A542F8DCCA
:100150000198009904F0C8FA051C174B174CE41AD3
:10016000A41004E0013CA200134BD3589847002C84
:10017000F8DC281C00F062F8BABADECA00000020E1
:10018000C80100200000002080710000CC01002088
:100190007856341232547698CC010020FC17002097
:1001A000CC010020001800203C0200003C020000AE
:1001B0003C0200003C0200003C0200003C02000047
:1001C00008B5FFF771FFC04600BEFEE70420714688
:1001D000084202D0EFF3098001E0EFF30880714696
:1001E0000A4A104738B5051C0C1C044800F07AF880
:1001F000281C211C00F0CAF800BEFEE7446700007E
:1002000000BEFEE700BEFEE770470000E50100000B
:04021000FEE7C046FF
:100214008071000000000020CC01002080710000EB
:100224000000001000000010CC0100200018002085
:080234000000001000000010A2
:10023C00FEE7C04608B50D4B1B68002B02D10C4ADB
:10024C000A4B1A60094B1B680330032290431818A1
:10025C00084A904206D904F045FB0C2303600120A8
:10026C00404202E0014A1060181C08BDD001002079
:10027C0000180020003C002001230360014B0B60A0
:10028C007047C0460400002008B504F02BFB58232F
:10029C0003600120404208BD08B504F023FB58233D
:1002AC0003600120404208BD08B504F01BFB582335
:1002BC000360002008BDC04608B504F013FB5823AA
:1002CC0003600120404208BD08B504F00BFB582325
:1002DC0003600120404208BD0FB400B583B004ABED
:1002EC0004CB01930748802105F0FCFC011E03DDC3
:1002FC00044800F039F8011C081C03B008BC04B019
:10030C001847C046D8010020F0B54F464646C0B449
:10031C0085B0041C8946435C0E1C002B1CD10425A3
:10032C00281C211CABBE041C18E0351E102D00D956
:10033C001025002304E022786946CA5401330134A5
:10034C00AB42F8D36F460022FA5404229046404642
:10035C00391CABBE071C761B002EE6D1484605B0F7
:10036C000CBC90469946F0BD08B5FFF7CDFF08BD13
:10037C0008B500F055F808BD08B500F051F808BDF7
:10038C0038B5041C0D1C1548FFF7A6FF144821684E
:10039C00FFF7A2FF13486168FFF79EFF1248A168A0
:1003AC00FFF79AFF1148E168FFF796FF10482169A3
:1003BC00FFF792FF0F486169FFF78EFF0E48A169A6
:1003CC00FFF78AFFE1690D48FFF786FF0C48FFF73E
:1003DC0083FF0C48291CFFF77FFF38BD9466000093
:1003EC00A4660000B4660000C4660000D466000079
:1003FC00E4660000F4660000046700001467000067
:10040C00246700002C670000014B18687047C04639
:10041C0058020020014B18687047C0465C0200204F
:10042C0010B5134B1A68134B1A60134B1A68134B05
:10043C001A60134B00221A625C6901221440A2401C
:10044C0059698907C90F141C8C405969090A3F2244
:10045C0011405869000C02400A48504304F0ECF972
:10046C00FF21214004F0E8F9074B186010BDC0468D
:10047C00B8FD030010120041BCFD03000410004144
:10048C000010004100127A005802002038B50C1CF4
:10049C00012803D101211F4B196203E000211D4BE0
:1004AC0019621D4C101C211C04F0C6F9C3B2012B9F
:1004BC0008D8184B0122DA61184A5A61012501212A
:1004CC0001221AE0134B0022DA613F221040000493
:1004DC0080225200104358615D6901221540AA40E8
:1004EC0059698907C90F151C8D40EDB25969090A64
:1004FC003F2211405869000C0240094B1C60101C33
:10050C00604304F099F9291C04F096F9054B186026
:10051C0038BDC0460010004100127A0000010200F4
:10052C005C0200205802002010B5054B1C68054BDE
:10053C001C60054B1C68054B1C60FFF7A7FF10BD2A
:10054C00B8FD030010120041BCFD03000410004173
:10055C0070B58423DB05984205D08623DB059842D1
:10056C0003D12C4C02E02C4C00E02C4C00234EE030
:10057C0001229A400D681540954247D10D79012D05
:10058C0003D105692A43026100E042614A7995076B
:10059C0009D59A0015590326B5431551165902254C
:1005AC003543155108E09A0015590326B5431551EA
:1005BC0016590125354315514A79550705D59A0029
:1005CC00165904253543155104E09A001559042693
:1005DC00B54315514A79950605D59A00165920252B
:1005EC003543155104E09A0015592026B543155191
:1005FC004A79550605D59A001659402535431551AB
:10060C0004E09A0015594026B543155101330F2BC0
:10061C00AED970BD40300041003000418030004107
:10062C00034B036000230371622343717047C04680
:10063C00FFFF00000368081C1840431E98417047D8
:10064C00CBB20133FF339B0019500B0A802292006E
:10065C009B189B0019507047CAB2CB430132FF3232
:10066C0092001350090A80229200891889000B50BD
:10067C007047C046F0B5002325E001249C400C4295
:10068C0020D0002809D1114C9D002E590327BE43C0
:10069C002E512E5916432E5114E0012809D10C4C21
:1006AC009D002E590327BE432E512E5916432E5111
:1006BC0008E0084C9D002E590327BE432E512E599D
:1006CC0016432E5101330F2BD7DDF0BD0020004116
:1006DC004020004180200041F0B583B0041C0D1C6B
:1006EC00161C1F1C6846FFF79BFF00956B461E717E
:1006FC00201C6946FFF72CFF8421C9058C4205D1CB
:10070C000020291C3A1CFFF7B5FF0EE08623DB0501
:10071C009C4205D10120291C3A1CFFF7ABFF04E0D9
:10072C000220291C3A1CFFF7A5FF03B0F0BDC04600
:10073C0010B5041C094B1B6B022B03D0074B1B6B16
:10074C00032B02D1FFF766FE01E0FFF75DFE211CD3
:10075C0004F072F8024B186110BDC0460010004145
:10076C000060004008B5FFF7E3FF034B99680322D4
:10077C000A439A60002008BD00600040014B1868D5
:10078C0080B270470060004008B5044B5B689A0764
:10079C00FBD5FFF7F3FFC0B208BDC04600600040B8
:1007AC000078C0B27047C0460170704730B5002465
:1007BC0007E065182D042D0C2D182D7815550134D6
:1007CC00A4B29C42F5D330BD70B5002407E0651887
:1007DC002D042D0C2D18165D2E700134A4B29C42E4
:1007EC00F5D370BD70B50B1C141E11D08504094ACD
:1007FC00AD182E683604360C072210408004064AC9
:10080C001043311C1A1C231CFFF7DEFFA4192C60AB
:10081C0070BDC0460C0201460000024670B50B1CB0
:10082C00141E11D08504094AAD182E683604360CF6
:10083C00072210408004064A1043311C1A1C231C4A
:10084C00FFF7B4FFA4192C6070BDC0462802014606
:10085C000000034610B500290FD08304074A9B18EB
:10086C001A681204120C072420408004044C204304
:10087C0089180904090C0818186010BD28020146D3
:10088C0000000346F8B5061C141C2025AD1AA9401F
:10089C000D1C1DE0002D05DA0F4B1988301CFFF7DD
:1008AC00CFFE04E00C4B1988301CFFF7D5FE01205D
:1008BC0003F0ACFF094F3988301CFFF7C1FE012053
:1008CC0003F0A4FF3988301CFFF7C6FE6D00013C15
:1008DC00002CDFD1F8BDC0460E0000200C0000201B
:1008EC00F8B5051C0020002416E047000C4E31889A
:1008FC00281CFFF7A5FE012003F088FF3188281C77
:10090C00FFF7AAFE012003F081FF064B1988281C73
:10091C00FFF790FE384301340F2CE6D9F8BDC046E2
:10092C000C0000200E00002038B5041C0A4B1B885C
:10093C004361012003F06AFF084D2988201CFFF752
:10094C007FFE012003F062FF2988201CFFF784FE44
:10095C00012003F05BFF38BD0E0000200C000020CE
:10096C0038B5041C084B1B880361084D2988FFF718
:10097C0067FE012003F04AFF2988201CFFF76CFE5C
:10098C00012003F043FF38BD0E0000200C000020B6
:10099C0070B5002526E08624E405201C012149427F
:1009AC002022FFF76FFF201C06210422FFF76AFFAD
:1009BC00201C291C0522FFF765FF201C01210522A4
:1009CC00FFF760FF201CFFF7AFFF201CFFF788FF2D
:1009DC00061C201CFFF7C4FF002E02D0064B9E42C3
:1009EC0007D10135082DD6DD044804F01DF800258B
:1009FC00F8E7281C70BDC046FFFF000054670000DC
:100A0C0070B582B0061C0D1C141C6846FFF708FE5E
:100A1C002B1C2343009301236A461371301C694637
:100A2C00FFF796FD0120211C0122FFF723FE012078
:100A3C00291C0122FFF71EFE044B1D80044B1C8059
:100A4C00FFF7A6FF034B186002B070BD0C0000202E
:100A5C000E000020E407002010B51A4C21781A482B
:100A6C00FFF7A2FE61781948FFF79EFEA17818489F
:100A7C00FFF79AFEE1781748FFF796FE164C21789F
:100A8C001648FFF791FE61781548FFF78DFEA178A7
:100A9C001448FFF789FEE1781348FFF785FE134CE5
:100AAC0021781348FFF780FE61781248FFF77CFE2F
:100ABC00A1781148FFF778FEE1781048FFF774FE33
:100ACC0010BDC04674020020136000461260004640
:100ADC001160004610600046640200200F60004662
:100AEC000E6000460D6000460C600046700200204F
:100AFC000B6000460A60004609600046086000462C
:100B0C0010B5124C201C8021FFF74EFE201CFFF765
:100B1C0047FEFFF7A1FF0E4C21780E48FFF744FE6D
:100B2C0061780D48FFF740FEA1780C48FFF73CFEBA
:100B3C00E1780B48FFF738FE21790A48FFF734FEBD
:100B4C0061790948FFF730FE10BDC046002300460E
:100B5C0078020020036000460260004601600046F7
:100B6C0000600046076000460660004610B5114C58
:100B7C00201C8021FFF718FE201CFFF711FE0E4CE5
:100B8C0021780E48FFF710FE61780D48FFF70CFE38
:100B9C00A1780C48FFF708FEE1780B48FFF704FE3C
:100BAC0021790A48FFF700FE61790948FFF7FCFD3F
:100BBC0010BDC046002300467802002003600046AA
:100BCC000260004601600046006000460760004677
:100BDC000660004610B50B4C0B4B1C600B4C0C4BC1
:100BEC001C600C4C0C4B1C60002801D0064B186090
:100BFC00002901D0064B1960002A01D0064B1A605F
:100C0C0010BDC046650A0000180000200D0B000046
:100C1C0014000020790B00001C00002010B5324A93
:100C2C0001231068037011684B70062310688370E1
:100C3C00002100231068C17010682C4A1268140E31
:100C4C000471140C4471140A8471C27101818022E4
:100C5C0082720022C272037343738373C37303746F
:100C6C0043748374C374037543758375C3750376BA
:100C7C0043768376C3761E4B1A7802775A7842777E
:100C8C009A788277DA78C2771979202281545A7946
:100C9C002123C254062304E0C2180021117701332A
:100CAC00DBB20F2BF8D9002305E0C2182832002143
:100CBC0011710133DBB23F2BF7D9002305E0C218C9
:100CCC006832002111710133DBB25AB2002AF6DA14
:100CDC006323EC2283548221ED2281545321EE2292
:100CEC008154EF22835410BDF4070020EC07002040
:100CFC0078020020F0B585B0FFF790FF504B1968D3
:100D0C003522F023CA540123F1228B54F2228B5446
:100D1C003D20F32288540720F4228854F5228B546A
:100D2C00484B1878F62288545878F72288549878CB
:100D3C00F8228854DF78F9228F541E79FA228E54C7
:100D4C005D79FB23CD540C22FC23CA540022FD23D5
:100D5C00CA541222002308E0501C3B4CE45C8A1855
:100D6C00E832147101339BB282B23748C05C002860
:100D7C00F2D1501C80B284468A18E83217710130C7
:100D8C0080B26746CA19E8321671421C92B2081832
:100D9C00E8300571D41A0C19E43403332371531C55
:100DAC009BB28A18E83237201071581C80B2CB18CD
:100DBC00E83306221A71431C9BB20818E830012450
:100DCC000471581C80B2CB18E83303241C71431CEB
:100DDC009BB20818E83002715A1C92B2CB18E83357
:100DEC000F201871531C9BB28A18E8323A201071EC
:100DFC005A1C92B2CB18E8333B201871531C9BB28F
:100E0C008A18E832FF20107105E0CA18E832002079
:100E1C00107101339BB23822FF329342F5D903ABE8
:100E2C00FF221A705A709A70DA70084A10784322AE
:100E3C0000928922920000F053FF05B0F0BDC0462D
:100E4C00F40700207802002024000020F80700207E
:100E5C00F0B585B0FFF7E2FE7E4B1B78033B012B10
:100E6C0018D87D4B1B6800229A72DA727B4A117873
:100E7C0019735178597391789973D278DA73784AD7
:100E8C00117803AB19705178597091789970D278A8
:100E9C00DA7005E003ABFF221A705A709A70DA70A0
:100EAC006D4B19683522F023CA540123F1228B545F
:100EBC000320F22288543D20F32288540720F42288
:100ECC008854F5228B54674B1878F622885458783E
:100EDC00F72288549878F8228854DF78F9228F54B6
:100EEC001E79FA228E545D79FB23CD5403ABDA784C
:100EFC001023FF2A2DD13222FC23CA540422FD23B5
:100F0C00CA54564B1C78FE200C545C78FF200C54B1
:100F1C009C78802040000C54D8780223FF33C854AE
:100F2C00362081235B00C8540423FF33CA544C4B36
:100F3C00187882225200885458780622FF3288543E
:100F4C009878832252008854DA780823FF33CA54E5
:100F5C001C23CA18E8320C2010719A1CCB18E933E8
:100F6C0000201871002305E0541C8A18E832107117
:100F7C000133A2B23C48C05C0028F5D1541CA4B289
:100F8C008A18E8321771601C80B20C19E83426718B
:100F9C00421C92B20818E8300571D01A0818E430D7
:100FAC0003330371531C9BB28A18E832372010713B
:100FBC005A1C92B2CB18E83308201871531C9BB200
:100FCC008A18E832012010715A1C92B2CB18E833FF
:100FDC0003201871531C9BB28A18E832062010713A
:100FEC005A1C92B2CB18E8330F201871531C9BB2C9
:100FFC008A18E8323A2010715A1C92B2CB18E83396
:10100C003B201871531C9BB28A18E8321F201071B8
:10101C005A1C92B2CB18E83321201871531C8A1831
:10102C00E832FF2010719BB204E0CA18E8320020AD
:10103C00107101333822FF329342F6DD0B4B1878D6
:10104C00432300938922920003AB00F049FE05B0C4
:10105C00F0BDC04660020020F4070020740200209E
:10106C00F00700207802002024000020F807002060
:10107C0030B585B0FFF7D2FD394B196800238B7260
:10108C00CB723522F023CA540123F1228B54042253
:10109C00F2200A543D24F3200C540724F4200C5461
:1010AC00F5200B542F4B1C78F6200C545C78F72051
:1010BC000C549C78F8200C54DC78F9200C541C79D6
:1010CC00FA200C545879FB23C8543220FC23C85402
:1010DC00FD23CA54244B1C78FE200C545C78FF2052
:1010EC000C549D78802464000D55DC780223FF336A
:1010FC00CC54362481235B00CC540423FF33CA54D4
:10110C001A4B1C78822252008C545C780622FF32D7
:10111C008C549C78832252008C54DA780823FF3349
:10112C00CA5484235B00C8541D2304E0CA18E83257
:10113C000020107101333822FF329342F6DD03ABED
:10114C00FF221A705A709A70DA70094A107843228A
:10115C0000928922920000F0C3FD05B030BDC0465C
:10116C00F40700207802002074020020F007002011
:10117C00F807002030B587B0554B18788304554AD2
:10118C009B181A6892B20023002A00D19DE0524BA2
:10119C0019686D460E35009504AB00F067FE2B8880
:1011AC00432B00D090E04C4B1A68147F4B4B1978B2
:1011BC0000238C4200D088E0547F484B59780023A0
:1011CC008C4200D081E0947F444B997800238C4270
:1011DC007BD1D47F414BD97800238C4275D120230D
:1011EC00D45C3E4B197900238C426ED12123D45C04
:1011FC003A4B597900238C4267D180B2111CF031E3
:10120C0012181C1C5EE00B78062B2FD006D8012B75
:10121C0014D0002B0DD0032B1BD04EE0352B0AD055
:10122C0002D8332B2FD048E0362B3BD0FF2B48D0A5
:10123C0043E0013146E08C78033143E08878284B59
:10124C001870C8785870087998704879D870063139
:10125C0038E048788D78234B1D70CD785D700D7912
:10126C009D704D79DD70091802312BE048788D782E
:10127C001D4B1D70CD785D700D799D704D79DD70B5
:10128C00091802311EE08878184B18600002CD78DE
:10129C0045192D0208792D182D0248792818186047
:1012AC0006310FE08878124B1870C878587008799E
:1012BC0098704879D870063104E08B1C497859181D
:1012CC0000E0111C91429ED3E3B258B207B030BD7E
:1012DC00F807002024020146F407002078020020C1
:1012EC0064020020700200208002002020000020F8
:1012FC00F007002008B5044B187800F07FFA06229E
:10130C00024B1A7008BDC046F8070020600200208E
:10131C0070B582B0134C201CFFF742FA061C201C3F
:10132C000321FFF741FA104B1878104B009310492A
:10133C001122104B00F0D4FC051C201C311CFFF7B3
:10134C0033FA01230D3509D0FFF792FE0A4B1A68C8
:10135C00094B1B689B1A012BFAD9002358B202B017
:10136C0070BDC04644600046F8070020881300009A
:10137C008467000074020020680200200023044AE5
:10138C0013600521034A1160034A13707047C0466D
:10139C0068020020100000208402002010B5214BB0
:1013AC001B785BB2012B23DC1F4B1A681F4B1B688D
:1013BC0001249A4233D21E4B1B78022B06D0042BED
:1013CC0007D0012B07D1FFF795FC04E0FFF740FD98
:1013DC0001E0FFF73DFD154B00221A601A6805323B
:1013EC00114B1A600F4B1A7801321A70012416E057
:1013FC000F4B1B78022B09D0042B07D00124012B97
:10140C000BD100220A4B1A70002406E0FFF772FC85
:10141C000122074B1A700124FFE7FFF7AFFF201CD6
:10142C0010BDC0468402002010000020680200207D
:10143C006002002010B5654B1B785BB20520062BB3
:10144C0000D1C1E0624B18788004624A8018FFF723
:10145C00A7F9222806D05E4B1878022144220023DB
:10146C0000F006FAFFF786FEC0B2584B1A78042A31
:10147C0000D9A5E09300584AD3589F46574B0022F9
:10148C001A705A709A70DA70FFF734FC01224F4BC5
:10149C001A70012497E0022811D1514B1A68117C63
:1014AC004E4B1970517C5970917C9970D27CDA70CA
:1014BC00FFF7CEFC0222454B1A70012483E0FFF7A4
:1014CC006DFF041C7FE0052817D1FFF721FF0028D2
:1014DC0009D0444B1B689847FFF750FF03223B4B46
:1014EC001A7001246FE0FFF749FF3F4B1B689847C8
:1014FC000022364B1A70012465E0062806D1FFF74E
:10150C003DFF0122314B1A7001245CE0FFF746FFCE
:10151C00041C58E0354B1B685A1C53D05B08344AEA
:10152C001268042493424ED22C4A1178314B197014
:10153C005178597091789970D278DA702E4B1A686C
:10154C0001321A60FFF784FCFFF718FF04221F4BCF
:10155C001A7038E0052826D10022284B1A70254B2A
:10156C001A781E4B1B789A4211D1224B5A781B4B7E
:10157C005B789A420BD11F4B9A78184B9B789A4206
:10158C0005D11C4BDA78154BDB789A4204D01C4BF6
:10159C001B689847032400E00424FFF7EFFE0322A6
:1015AC000A4B1A700FE0062806D1FFF7E7FE01225E
:1015BC00064B1A70042406E0FFF7F0FE041C02E050
:1015CC00012400E00424201C10BDC0466002002051
:1015DC00F8070020300001467067000074020020FC
:1015EC00F4070020180000201C0000202000002020
:1015FC00680200206C020020EC070020840200200E
:10160C0014000020F8B5061C0D1C4948FFF7C8F85B
:10161C00484C20704848FFF7C3F860704748FFF704
:10162C00BFF8A0704648FFF7BBF8E0704548FFF7DD
:10163C00B7F820714448FFF7B3F8031C60712278A7
:10164C0094466278A778E0782179644622433A433D
:10165C0002430A43134320D1364C23700822627094
:10166C00DC22A270E3702371637131480021FFF713
:10167C009BF861783048FFF797F8A1782F48FFF76F
:10168C0093F8E1782E48FFF78FF821792D48FFF772
:10169C008BF861792C48FFF787F82C4B1E702C4B7C
:1016AC001D60244BD9782B4A88181A7980185B79DD
:1016BC00C0184A405340C31827480360274F381CB2
:1016CC000021FFF771F8264E301C0021FFF76CF853
:1016DC00244D281C0021FFF767F8234C201C002107
:1016EC00FFF762F8381C0021FFF75EF8301C002170
:1016FC00FFF75AF8281C0021FFF756F8201C002190
:10170C00FFF752F819480021FFF74EF8184800214E
:10171C00FFF74AF817480021FFF746F81648002152
:10172C00FFF742F8FFF72AFE0022144B1A70F8BD9F
:10173C00036000467802002002600046016000460B
:10174C00006000460760004606600046F80700206F
:10175C00F407002078563412EC0700201360004682
:10176C001260004611600046106000460B60004697
:10177C000A600046096000460860004660020020CE
:10178C00024B1A6801321A607047C046680200208A
:10179C00044B1A7802705A7842709A788270DB780F
:1017AC00C370704774020020044B1A7802705A7888
:1017BC0042709A788270DB78C37070477002002098
:1017CC00044B1A7802705A7842709A788270DB78DF
:1017DC00C370704764020020044B1A7802705A7868
:1017EC0042709A788270DB78C37070478002002058
:1017FC00014B18687047C0462000002070B5061ECB
:10180C00082E25D88404144BE518281C1021FEF74B
:10181C00CBFF281CFEF7C4FF0028FAD10F4BE018B1
:10182C001F21FEF7C1FF0121B1400D4B1A888A43DD
:10183C001A80720000210B4BD1520B4B00229A558F
:10184C000A4BE018FEF7ACFF0028F9D1012000E0AC
:10185C00FF2040B270BDC046100001462800014672
:10186C0088020020940200208C02002030000146E7
:10187C00F0B5474680B4061C0D1C90461F1C08286A
:10188C005ED800295ED0022901D904295AD1062339
:10189C003B4259D1002F0DD0012D02D0022D04D086
:1018AC0008E021233B4205D150E0BA0602D57BB2B9
:1018BC00002B4DDA301CFFF7A1FFB404274BE018C6
:1018CC000F23391C99432943FEF76EFF4246002A29
:1018DC000BD1234A1388984601339BB21380214ABB
:1018EC00934202D1204A1E4B1A80204AA31842462A
:1018FC001A601F4BE518281C0121FEF755FF281C08
:10190C00FEF74EFF0028FAD101231F40B740194BB8
:10191C001A8817431F800121B140174B1A888A433C
:10192C001A8073000021154A9952154B00229A55C2
:10193C00144AA018FEF734FF0028F9D0F0B208E0E2
:10194C00FF2006E0FB2004E0FA2002E0FA2000E091
:10195C00FA2040B204BC9046F0BDC04600000146DF
:10196C002C000020F0FF000000C0FFFF1401014616
:10197C0010000146860200208802002094020020FC
:10198C008C0200203000014670B5051E082D27D8AA
:10199C008404174BE018FEF703FF0F2318400128AF
:1019AC0020D1144BE618301CFEF7FAFE13281BD17D
:1019BC00114BE418201C0221FEF7F6FE201CFEF74A
:1019CC00EFFE0028FAD104E0281CFFF717FFFC20DB
:1019DC000BE0301CFEF7E4FE1428F5D1012004E0E6
:1019EC00FF2002E0FB2000E0FD2040B270BDC046AD
:1019FC0000000146300001461000014670B5061E7D
:101A0C00082E34D884041C4BE018FEF7C9FE0F23B3
:101A1C00184001282DD1194BE518281C0821FEF778
:101A2C00C3FE281CFEF7BCFE0028FAD10123181CAB
:101A3C00B040134A118881431180124A12883241F6
:101A4C00002013420BD015E00F4BE018FEF7A8FE58
:101A5C00030704D5301CFFF7D1FEF3200AE00B4B33
:101A6C00E018FEF79DFE0028EED1012002E0FF20D9
:101A7C0000E0FB2040B270BD0000014610000146A2
:101A8C00880200208602002020000146300001461A
:101A9C00F0B557464E464546E0B481468A46141C7E
:101AAC00082874D8C8468604424AB018FEF778FE57
:101ABC000F23184001286DD1002C6ED03E4BF71827
:101ACC00381CFEF76DFE172801D01C2868D13B4B43
:101ADC001B884A461341DA071CD5394BF018FEF720
:101AEC005FFE031CC2060CD5364BF0181021FEF716
:101AFC005BFE01214A469140304B1A888A431A807A
:101B0C0008E000201A074FD54846FFF777FE0D2056
:101B1C00404249E02C4BF018FEF742FE8502ADB274
:101B2C00AC4200D8251C294AB3181C68A4B2381C36
:101B3C00FEF736FE172807D01C2805D04846FFF7BD
:101B4C005DFE072040422FE0214B1B88424613418B
:101B5C00DA0701D5A54226D8A542E4D84846514615
:101B6C002A1CFEF73FFE1B4BF618301C2021FEF7FB
:101B7C001BFE301CFEF714FE0028FAD101214A4648
:101B8C0091400E4B1A880A431A80281C0CE0012045
:101B9C00404209E00520404206E00E20404203E0AE
:101BAC000720404200E000201CBC90469946A2460B
:101BBC00F0BDC046000001463000014688020020FE
:101BCC00200001462800014600020146040201469D
:101BDC008602002010000146F0B557464E46454699
:101BEC00E0B482468946151C082859D85646B404D8
:101BFC00334AA018FEF7D4FD0F231840012852D108
:101C0C00002D53D02F4BE018FEF7CAFD800280B296
:101C1C008046A84200D3A8462B4AA3181D68ADB233
:101C2C002A4BE018FEF7BCFD17281BD01C2813D13B
:101C3C00002D20D1264AA3181B681B041F0C254B12
:101C4C00E018FEF7ADFD800287420BD15046FFF73E
:101C5C00D5FD072040422DE05046FFF7CFFD072071
:101C6C00404227E01C4B1B883341DA0701D5002D7D
:101C7C001FD0002DD0D0A84500D845465046494627
:101C8C002A1CFEF7CBFD154BE418201C4021FEF757
:101C9C008BFD201CFEF784FD0028FAD1281C09E0DE
:101CAC000120404206E00520404203E00E20404265
:101CBC0000E000201CBC90469946A246F0BDC046F0
:101CCC000000014620020146240201463000014674
:101CDC000402014600020146860200201000014663
:101CEC00F8B55F4656464D464446F0B481468A46A2
:101CFC0093461C1C0AAB1E88082800D97FE0C846F6
:101D0C0085044D4AA818FEF74BFD0F2318400228F6
:101D1C0001D0042876D15B46002B76D023781B02A9
:101D2C0062789B181B02A2789B181B02E2789B1806
:101D3C00002B6DD0002E6ED0404AAF18381CFEF729
:101D4C002FFD422801D0222868D121783C4BE8187D
:101D5C00FEF72AFD61783B4AA818FEF725FDA1780D
:101D6C00394BE818FEF720FDE178384AA818FEF741
:101D7C001BFD374AAB181E60364BE818FEF710FDFA
:101D8C008602B6B2B34500D85E46334AAB181C681F
:101D9C00A4B2381CFEF704FD002842D02F4B1B8840
:101DAC0042461341DA0701D5B4423DD3B442ECD3D9
:101DBC0048465146321CFEF715FD294BEC18201CE9
:101DCC002021FEF7F1FC201CFEF7EAFC0028FAD1DA
:101DDC00244AA818FEF7E4FCC30606D5224AA81824
:101DEC001021FEF7E1FC301C1FE00307F0D51E4A62
:101DFC00A8180821FEF7D8FC0D20404215E0012060
:101E0C00404212E0052040420FE00E2040420CE020
:101E1C000C20404209E00B20404206E007204042E3
:101E2C0003E00420404200E000203CBC9046994670
:101E3C00A246AB46F8BDC046000001463000014644
:101E4C0027010146260101462501014624010146D0
:101E5C0020010146000201460402014686020020D0
:101E6C00100001462000014628000146F0B55F46EF
:101E7C0056464D464446F0B483B0061C8A469046FE
:101E8C009B46082800D9CCE0071C85046F496818CC
:101E9C00FEF786FC81460F230340022B02D0042B55
:101EAC0000D0C1E04246002A00D1C0E07300684A6D
:101EBC009B5A002B15D167482B181C68A4B2664995
:101ECC006818FEF76DFC002800D1B3E0634B1B884B
:101EDC003B41DA0702D5002C00D1AEE0002CEAD051
:101EEC0000E0002400225E4B9A550723484603402D
:101EFC00022B02D0042B3DD072E07300544A9B5A43
:101F0C00002B2BD1301C69460822FEF787FC554963
:101F1C006C18201C4021FEF747FC201CFEF740FCEF
:101F2C000028FAD16A4613785846037053784370E8
:101F3C0093788370D378C370137952791B02D318BA
:101F4C000C990B806B469A7973006846C179120222
:101F5C0089183F4A99528022414B9A5573003C4A4A
:101F6C009C5A444500D94446301C5146221CFEF76D
:101F7C0055FC3CE07300364A9B5A002B24D1301C94
:101F8C0069460222FEF74AFC36496C18201C402197
:101F9C00FEF70AFC201CFEF703FC0028FAD16A4667
:101FAC0013787200684641781B02CB189BB2284903
:101FBC0053522D4A934204D9301CFFF71FFC2B4877
:101FCC003CE08022264B9A557300214A9C5A44458A
:101FDC0000D94446301C5146221CFEF71FFC06E07B
:101FEC00301C211CFEF736FC7300194A9C521D490B
:101FFC006D18281C4021FEF7D7FB281CFEF7D0FBE0
:10200C000028FAD1124A71008B5A1B1B9BB28B52BF
:10201C00002B04D0124B995D01220A439A55201CC7
:10202C000CE00120404209E00520404206E00E2071
:10203C00404203E00420404200E0002003B03CBCDE
:10204C0090469946A246AB46F0BDC04600000146FC
:10205C009402002024020146300001468602002032
:10206C008C02002010000146EA05000017FCFFFF5F
:10207C0010B5041C01782A48FEF796FB61782948B4
:10208C00FEF792FBA1782848FEF78EFBE1782748F3
:10209C00FEF78AFB21792648FEF786FB61792548F5
:1020AC00FEF782FBA17B2448FEF77EFBE17B2348F5
:1020BC00FEF77AFB217C2248FEF776FB617C2148F7
:1020CC00FEF772FBA17A2048FEF76EFBE17A1F48FF
:1020DC00FEF76AFB217B1E48FEF766FB617B1D4801
:1020EC00FEF762FBA1791C48FEF75EFBE1791B4809
:1020FC00FEF75AFB217A1A48FEF756FB617A19480B
:10210C00FEF752FBA27C184B1A70E27C5A70227DAF
:10211C009A70627DDA70A27D144B1A7010BDC046A5
:10212C000360004602600046016000460060004605
:10213C0007600046066000460B6000460A600046D9
:10214C0009600046086000460F6000460E600046BD
:10215C000D6000460C60004613600046126000469D
:10216C001160004610600046A8020020A402002066
:10217C0010B5041C2A48FEF713FB20702948FEF703
:10218C000FFB60702848FEF70BFBA0702748FEF78A
:10219C0007FBE0702648FEF703FB20712548FEF78D
:1021AC00FFFA60712448FEF7FBFAA0732348FEF790
:1021BC00F7FAE0732248FEF7F3FA20742148FEF791
:1021CC00EFFA60742048FEF7EBFAA0721F48FEF796
:1021DC00E7FAE0721E48FEF7E3FA20731D48FEF79B
:1021EC00DFFA60731C48FEF7DBFAA0711B48FEF7A0
:1021FC00D7FAE0711A48FEF7D3FA20721948FEF7A5
:10220C00CFFA6072184B1A78A2745A78E2749A78E2
:10221C002275DB786375154B1B78A37510BDC04612
:10222C000360004602600046016000460060004604
:10223C0007600046066000460B6000460A600046D8
:10224C0009600046086000460F6000460E600046BC
:10225C000D6000460C60004613600046126000469C
:10226C001160004610600046A8020020A402002065
:10227C0038B5041C3823021C9A430AD1064D281C7D
:10228C00FEF78EFA0443E1B2281CFEF78DFA00200B
:10229C0000E0FF2040B238BD0023004608B50248DC
:1022AC00FEF77EFA08BDC0460023004610B5041C9C
:1022BC0001780348FEF778FA6288024B1A6010BD69
:1022CC00446000464060004610B5041C0348FEF70D
:1022DC0067FA2070024B1B68638010BD4460004697
:1022EC004060004610B50C1C052820D88000114B0E
:1022FC001B589F46081CFFF7BBFE002018E0081C6B
:10230C00FFF736FF002013E00878FFF7B1FF0FE06E
:10231C00FFF7C4FF207000200AE0081CFFF7C6FF7F
:10232C00002005E0081CFFF7CFFF002000E0FF2095
:10233C0040B210BD9867000008B501F009FD01F02E
:10234C0045FE08BD08B50948FEF72AFA172801D042
:10235C001C2803D10220FFF751FB02E00220FFF7FB
:10236C004DFA0120FFF74AFA08BDC0463000094675
:10237C0008B5FFF7E7FFBFF34F8F034A034BDA6053
:10238C00BFF34F8FC046FDE70400FA0500ED00E0F7
:10239C00F0B5474680B482B0041C884601F0D4FCEA
:1023AC00071C002201AB1A80261CA504464AA8185B
:1023BC00FEF7F6F9172808D002D800286DD07CE07B
:1023CC0018286AD01C2863D077E0404BE818FEF739
:1023DC00E7F9C20707D501223D4B1A703D4BE818AF
:1023EC000121FEF7E1F93C4B1B78012B04D1201C99
:1023FC00FFF704FB002062E0384AAD182D68ADB23F
:10240C00002D5BD080231B019D4200D91D1C344B39
:10241C001A68A9183B1CA833DE78187900023043DF
:10242C005E79360430439B791B060343994201D9EC
:10243C009D1AADB2201C41462A1CFFF7CDFB85B27C
:10244C00274E03041B0C32689B1833602B0A01A91E
:10245C000B704870201C0222FFF71AFB0022214B44
:10246C001A80A837FB783A7912021A437B791B043D
:10247C001A43BB791B061A4333689A421ED80022B2
:10248C00194B1A80124B1A70201CFFF7B7FA15E083
:10249C00201CFFF7B3FA002510E0201C0121134A81
:1024AC002023FFF7E5F90025864207D100220C4BCB
:1024BC001A60201CFFF768FA00E00025281C02B007
:1024CC0004BC9046F0BDC0463000014620000146D9
:1024DC00AC02002028000146BD0200202402014667
:1024EC00B0020020B4020020AE02002052C3000053
:1024FC001F4B1B78012B1AD11E4B1A8892B21E4B04
:10250C009A4205D01B4B1A88013292B21A8002E013
:10251C000022184B1A80174B1A8892B2174B9A420A
:10252C0005D90122164B1A700022124B1A80154B3A
:10253C001B78012B1AD1144B1A8892B20E4B9A426B
:10254C0005D0114B1A88013292B21A8002E0002297
:10255C000D4B1A800C4B1A8892B2084B9A4205D933
:10256C0001220A4B1A700022074B1A807047C04692
:10257C00AD020020AE020020FFFF00003F1F000054
:10258C00BC020020AC020020B4020020BD020020DE
:10259C000023074A1370074A1370002206490B8068
:1025AC0006490B80064B1A70064B1A707047C046D2
:1025BC00AD020020AC020020AE020020B4020020CC
:1025CC00BC020020BD020020F0B55F4656464D46C9
:1025DC004446F0B483B0051C01F0B6FB041C01F0BA
:1025EC00B3FB061CA823E25C4020002A00D10BE1BF
:1025FC00231CA833DA781979090211435A79120489
:10260C0011439B791B0619434A1E834B9A420BD9E3
:10261C004536327A012A00D0F6E08048C8221202F0
:10262C0002F086F94020EFE0042D57D1331C4533DE
:10263C001B7A012B02D17A4802F07AF90022794BED
:10264C001A60032000F0AEF90122774B1A700420B7
:10265C007649FFF79DFE031E10D0724D28689C2210
:10266C00520281180320714A00F0D4F90004000CC6
:10267C002B68C018286000226D4B1A806D4B1B789C
:10268C00012B0AD1331C45331B7A4027012B00D078
:10269C00A0E0694802F0C8F99CE0684B1B78012B5C
:1026AC000AD1331C45331B7A4027012B00D091E013
:1026BC00634802F0B9F98DE0231CA833D9781A7954
:1026CC0012020A43597909040A439B791B061A43DF
:1026DC00544B1B689A42BAD820277BE0AB1E40278C
:1026EC00012B77D8022D08D1E023DB019A469C23DD
:1026FC005B0299460327B84607E09C235B029A4687
:10270C00E023DB01994602208046331C45331B7ABB
:10271C00012B02D14B4802F00BF90022414B1A60FD
:10272C00281C00F03FF901223F4B1A7080273F0113
:10273C000197404B1B78012B09D1331C45331B7A75
:10274C004027012B46D13C4802F06EF942E0354B54
:10275C00196880231B01CA18231CA833D8781F7949
:10276C003F0238435F793F0438439B791B06034390
:10277C009A4202D95F1ABFB20197494440462B4A8C
:10278C00019B00F0E3F883B2002B10D02548071C06
:10279C000268111C5144281C244A00F03BF9030424
:1027AC001B0C38681B183B600022214B1A8000F070
:1027BC00B7F9221CA832D17813791B020B4351793B
:1027CC0009040B43927912061A43164B1B689A4262
:1027DC00AFD82027A834E378227912021A43637900
:1027EC001B041A43A3791B061A430E4B19688A4221
:1027FC0007D14536337A8027012B02D1124802F0DB
:10280C0097F8FFF7C5FE381C03B03CBC90469946C0
:10281C00A246AB46F0BDC046FFC70000B067000043
:10282C0018680000B8020020AD020020FC0F002048
:10283C00AE020020BC02002054680000BD02002043
:10284C008C680000C46800000469000030B5051CE9
:10285C00002302E05C5DCC540133181E9042F9D386
:10286C0030BDC046F8B5054D802464002E590127B3
:10287C007F422F51024FB8472E51F8BD00E100E0C6
:10288C000110FF1F08B5011CC303DB0B834210D0E2
:10289C000D4B984203D90D4B034083420BD00B4B8D
:1028AC00994210D98B039B0B8B420CD10021112028
:1028BC0003E0122001E00021102072B60022002358
:1028CC00FFF7D0FF62B608BDFFFD0300FFFE03005B
:1028DC0008B5011CC303DB0B834206D172B613206F
:1028EC0000220023FFF7BEFF62B608BDF8B5041C3A
:1028FC000F1C151C114B984208D983039B0B834268
:10290C0004D1002080235B009A4215D8002D04D1FD
:10291C00631900200A4A93420ED80020094B0A4A38
:10292C00A6189E4208D972B62220211C3A1C2B1CD8
:10293C00FFF798FF62B6281CF8BDC046FFFD0300E8
:10294C00FFFF0300FFFD01000000FEFF20B5012882
:10295C000DD0002804D0022810D0032815D01AE07E
:10296C000E48111C0622FFF771FF051C13E00C48E2
:10297C00111C1A1CFFF76AFF051C0CE0081C111C2B
:10298C001A1CFFF763FF051C05E0081C111C1A1C20
:10299C00FFF75CFF051C281C20BDC04600FE030091
:1029AC0000FF030038B5041E012C0AD0002804D007
:1029BC0002280DD0032808D00CE01448FFF762FF62
:1029CC0008E01348FFF75EFF04E09C256D0201E070
:1029DC00E025ED01023C012C17D806E02003281855
:1029EC00FFF776FF0134A4B200E000240B2CF5D9DC
:1029FC00C0231B02ED18002405E020024019FFF74C
:102A0C0041FF0134A4B2072CF7D938BD00FE0300F6
:102A1C0000FF0300E0B5151C1F1C012810D0002876
:102A2C0004D0022816D003281BD020E00020FFF78A
:102A3C00B9FF1048291C0622FFF758FF061C16E0A8
:102A4C000120FFF7AFFF0C48291C3A1CFFF74EFF83
:102A5C00061C0CE0081C111C1A1CFFF747FF061C77
:102A6C0005E0081C111C1A1CFFF740FF061C301C4B
:102A7C00E0BDC04600FE030000FF03000022014B36
:102A8C001A607047CC02002008B51F4B1A8801321F
:102A9C0092B21A8000F0D8FFFFF72AFD1B4B1B786F
:102AAC00002B0CD01A4A138801339BB21380632B72
:102ABC0005D90122174B1A700022154B1A80124BA4
:102ACC00188880B2FA21890001F0FAFE89B2002937
:102ADC0009D100220C4B1A800F4B1A88013292B28A
:102AEC001A80FEF74DFE0C4B188880B23C2101F089
:102AFC00E7FE89B2002906D10022074B1A80074B4A
:102B0C001A6801321A6008BDBE020020D5070020E9
:102B1C00C0020020CA020020C8020020C40200200B
:102B2C0008B5064A1368591C1160222B04D9FFF70B
:102B3C00ABFF0022014B1A6008BDC046CC0200203E
:102B4C007047C04608B5E1204002FDF70BFE08BDFA
:102B5C00F8B5061C0F1C00230B70224D0AE0201C3C
:102B6C0002F022F8021C301C211C02F024F8002870
:102B7C0003D004352C68002CF1D1002C30D0194B2B
:102B8C00ED1AAD10EDB22B2D0CD1337AFF200D2B9D
:102B9C0027D1737A0A2B24D1B11C381C062201F0E0
:102BAC00B6FE1BE02C2D15D103E0FA540133DBB239
:102BBC0000E000239A1CB25C0D2AF6D1F618F278CC
:102BCC00FF200A2A0DD1F91800220A700133FF18D0
:102BDC003A7003E0B11C381C01F0DEFF281C00E049
:102BEC00FF20F8BD54000020F0B55F4656464D4618
:102BFC004446F0B499B0041C894601F0A5F882460D
:102C0C0000236A465E3213801693002248460270F7
:102C1C0043708370C370201CE54901F0E3FF041C72
:102C2C00002500F0D9FD201C05A9FFF791FF061C1B
:102C3C00071EFF2F01D100F0B0FD05A98846081C26
:102C4C0001F0B2FF80B2834642461078002800D0D3
:102C5C0084E2B300D74A99584846022201F057FE45
:102C6C0002239846C844362E00D956E2B600D24B01
:102C7C009B599F465646F27D337E707E8446B67EC7
:102C8C005146C87E097F8B466146009101960290A1
:102C9C005E4603964046C94901F0D0FE49E25046D3
:102CAC00027D437D817D00914046C54901F0C6FE01
:102CBC003FE251460531404601F06EFF39E2632395
:102CCC005146CA5C4046BF4901F0B8FE31E22923A7
:102CDC005646F25C4046BB4901F0B0FE29E2404644
:102CEC00B849002201F0AAFE23E24046B549002271
:102CFC0001F0A4FE1DE262235046C25C4046B1497D
:102D0C0001F09CFE15E24D235146CA5C4046AD498C
:102D1C0001F094FE0DE240235646F25C4046A94970
:102D2C0001F08CFE05E241235046C35C4222825CDA
:102D3C0012021A434046A34901F080FEF9E14323F5
:102D4C005146CB5C44228A5C12021A4340469D4990
:102D5C0001F074FEEDE135235246D35C3622564623
:102D6C00B25C12021A434046964901F067FEE0E15C
:102D7C005046427F837FC07F20215646715C009075
:102D8C0001914046904901F059FED2E1252350466D
:102D9C00C25C2623C35C2721405C28215646715C0B
:102DAC00009001914046884901F048FEC1E1212381
:102DBC005046C25C2223C35C2321405C242156462E
:102DCC00715C0090019140467F4901F037FEB0E103
:102DDC0065235046C25C6623C35C6721405C682156
:102DEC005646715C009001914046774901F026FEF1
:102DFC009FE140467549202201F020FE99E14046B2
:102E0C007249202201F01AFE93E140466D490022DE
:102E1C0001F014FE8DE140466A496D4A01F00EFE48
:102E2C0087E140466949202201F008FE81E14046D5
:102E3C006649202201F002FE7BE150464379002BCB
:102E4C0005D140466149202201F0F8FD71E152465E
:102E5C0005325146837EC07E097F00900191404629
:102E6C005C4901F0EBFD64E12F235246D35C302228
:102E7C005646B25C12021A434046524901F0DEFD3E
:102E8C0057E131235046C35C3222825C12021A4352
:102E9C0040464C4901F0D2FD4BE164235146CB5CDA
:102EAC00002B0FD12B23CA5C2C23CB5C2D21564637
:102EBC00705C2E21715C009001914046424901F0FA
:102ECC00BDFD36E16923CB5C002B05D140463F4963
:102EDC00202201F0B3FD2CE140465146693101F04E
:102EEC005BFE26E146235146CA5C4046354901F05B
:102EFC00A5FD1EE147235646F25C4046314901F0E0
:102F0C009DFD16E148235046C25C40462D4901F018
:102F1C0095FD0EE149235146CA5C4046294901F012
:102F2C008DFD06E14A235646F25C4046254901F0E8
:102F3C0085FDFEE033235046C35C3422825C1202D2
:102F4C001A4340461F4901F079FDF2E03723514600
:102F5C00CB5C38228A5C12021A434046194901F0B4
:102F6C006DFDE6E039235646F25C4046154901F00A
:102F7C0065FDDEE03A235046C25C4046164901F03E
:102F8C005DFDD6E09B235146CA5C40460D4901F0DD
:102F9C0055FDCEE09D235646F25C9E23F35C9F21AB
:102FAC00715C009140460D4901F048FDC1E0C046FE
:102FBC00786E0000540000204C690000046B000087
:102FCC00246B0000306B0000346B0000406B000081
:102FDC00D60B0000446B00005C6B0000546B0000CF
:102FEC004E235046C35C002B05D14046C2492022DB
:102FFC0001F024FD9DE0404651464E3101F0CCFDE0
:10300C0097E058235146CB5C002B05D14046BA497A
:10301C00202201F013FD8CE051465831404601F05E
:10302C00BBFD86E081231B021D4382E082231B0231
:10303C001D437EE0B14B1B787722934302D01023C3
:10304C001D4376E086231B021D4372E0AB4B1B78BD
:10305C007722934302D020231D436AE086231B0270
:10306C001D4366E0A54B1B787722934302D0802347
:10307C001D435EE086231B021D435AE04523564642
:10308C00F25C92009E4BD158404601F085FD50E019
:10309C002A235046C25C92009A4BD158404601F00C
:1030AC007BFD46E0954B1B78772293430FD02F2363
:1030BC005146CA5C3023CB5C1B021343012B03D15A
:1030CC0084235B011D4334E088231D4331E08623B8
:1030DC001B021D432DE09C235646F25C40468A4958
:1030EC0001F0ACFC25E084235B011D4321E040464C
:1030FC008549002201F0A2FC1BE0804B1B78772253
:10310C00934306D001222A235046C25490231D43D8
:10311C000FE086231B021D430BE084231B021D437F
:10312C002A235146CA5C9200764BD158404601F096
:10313C0033FD764B1D4203D000234A4613702FE318
:10314C00404601F031FD40447149032201F0DFFBA0
:10315C00404601F029FD8146C14421E3674B1B78B1
:10316C007722934300D114E3362E00D90DE3B60039
:10317C00684B9B599F465646F37D002B09D1337EF5
:10318C00082B06D1737EDC2B03D183231B021D433A
:10319C0006E305A860495246173200F049FD0028A5
:1031AC0000D0FDE285231B021D43F9E283231B02A1
:1031BC001D43F5E200F0EEFC5946012901D101282E
:1031CC0003D985231B021D43EAE263235246D054E4
:1031DC00E6E200F0DFFC5E46012E01D1032803D9A4
:1031EC0085231B021D43DBE229235146C854D7E239
:1031FC0000F0D0FC5A46012A02D1012800D8CFE2B7
:10320C0085231B021D43CBE200F0C4FC5B46012B63
:10321C0002D1012800D8C3E285231B021D43BFE263
:10322C0000F0B8FC5E46012E01D1012803D985239C
:10323C001B021D43B4E262235146C854B0E200F0B5
:10324C00A9FC5A46012A01D1012803D985231B0266
:10325C001D43A5E24D235646F054A1E200F09AFC22
:10326C005946012901D1012803D985231B021D438D
:10327C0096E240235246D05492E205A8274916AA5A
:10328C0001F0FEFB169B264A934203D985231B02B1
:10329C001D4385E29BB241225646B3541B0A42227F
:1032AC00B3547DE205A81D4916AA01F0E9FB169B53
:1032BC001B4A934203D985231B021D4370E29BB228
:1032CC004322504683541B0A4422835468E205A8C7
:1032DC00124916AA01F0D4FB169B114A934203D94A
:1032EC0085231B021D435BE29BB2352251468B5456
:1032FC001B0A36228B5453E2406B0000D102002093
:10330C003000002034010020306B0000B080FFFF43
:10331C00786E0000286A0000646B0000686B000087
:10332C00FFFF000005A815A900F0B8FB00280BD082
:10333C0015AB1A78564672775A78B2779A78F27734
:10334C00DA782023F2542BE285231B021D4327E25B
:10335C0005A815A900F0A2FB00280ED015AB197812
:10336C002522504681545978262281549978272257
:10337C008154DA782823C25412E285231B021D43A0
:10338C000EE205A815A900F089FB00280ED015AB9C
:10339C00197821225646B15459782222B154997881
:1033AC002322B154DA782423F254F9E185231B0249
:1033BC001D43F5E105A815A900F070FB00280ED0FF
:1033CC0015AB197865225046815459786622815480
:1033DC00997867228154DA786823C254E0E1852316
:1033EC001B021D43DCE159460E2903D985231B0220
:1033FC001D43D5E1202803D1002352465371CFE160
:10340C005246053205A8BD4901F03AFBC8E105A8B2
:10341C00BB4916AA01F034FB169BBA4A934203D956
:10342C0085231B021D43BBE19BB22F225646B3548E
:10343C001B0A3022B354B3E105A8B14916AA01F016
:10344C001FFB169BAF4A934203D985231B021D43D6
:10345C00A6E19BB23122504683541B0A322283547C
:10346C009EE105A815A900F019FB002812D0002236
:10347C0064235146CA5415AB19782B225646B154C5
:10348C0059782C22B15499782D22B154DA782E2304
:10349C00F25485E1012264235046C25405AB1B78DB
:1034AC00202B03D100226923C25479E150466930A4
:1034BC0005A901F071FB73E105A893496A465E32D8
:1034CC0001F0DEFA5946022904D86B465E331B889C
:1034DC000D2B03D985231B021D4361E14622564661
:1034EC00B3545DE100F056FB5946012901D1012886
:1034FC0003D985231B021D4352E147235246D05466
:10350C004EE100F047FB5E46012E01D1022803D9A3
:10351C0085231B021D4343E148235146C8543FE118
:10352C0000F038FB5A46012A01D1012803D9852322
:10353C001B021D4334E149235646F05430E100F0A0
:10354C0029FB5946012901D1022803D985231B02E5
:10355C001D4325E145235246D35C012B04D10022A7
:10356C004A235646F2541BE14A23D05418E105A8CD
:10357C00634916AA01F084FA169B624A934203D956
:10358C0085231B021D430BE19BB233225646B354D9
:10359C001B0A3422B35403E105A8594916AA01F0B9
:1035AC006FFA169B574A934203D985231B021D437E
:1035BC00F6E09BB23722504683541B0A38228354C0
:1035CC00EEE005A850496A465E3201F059FA5946B8
:1035DC00032904D86B465E331B88FF2B03D9852344
:1035EC001B021D43DCE039225646B354D8E0584642
:1035FC00022804D105A800F0B3FA002803D18523D2
:10360C001B021D43CCE06E465E3605A83F49321CBA
:10361C0001F036FA33783A2251468B54002B03D101
:10362C0000223E23CA54BBE001223E23CA54B7E019
:10363C0000F0B0FA5946012901D1012803D985239C
:10364C001B021D43ACE09B235246D054A8E05B46C2
:10365C00062B0CD105A800F083FA002807D005A88A
:10366C0051469D3100F0B2FA002800D098E0852335
:10367C001B021D4394E05E46092E03D985231B02D1
:10368C001D438DE0202804D100224E235046C25405
:10369C0086E005A8194952464E3201F0F1F97FE057
:1036AC005946092903D985231B021D4378E020289C
:1036BC0004D1002258235646F25471E05246583237
:1036CC0005A80E4901F0DCF96AE005A80C4916AA18
:1036DC0001F0D6F9169BC8221202934218D9002287
:1036EC00AB235046C254AC23C254AD23C254AE23B8
:1036FC00C25485231B021D4352E0C0466C6B000074
:10370C00686B0000FFFF0000306B0000706B000066
:10371C00AB2251468B541B0AAC228B540022AD2396
:10372C00CA54AE23CA540122A823CA5440231D43B1
:10373C004A7F8B7FC87F20215646715C0090019197
:10374C002B49029148462B4901F078F928E000F00A
:10375C0021FA5946012901D1012803D985231B02DD
:10376C001D431DE09C235246D05419E000F012FA80
:10377C005B46012B01D1012812D985231B021D4365
:10378C000EE081231B021D430AE084231B021D4310
:10379C0006E086231B021D4302E084231B021D430B
:1037AC002BB2002B13DA0023A370134EAA1912129A
:1037BC009200124BD258FF2F03D0BF00104BFB5876
:1037CC0000E0231C48460F4901F038F908E00020BE
:1037DC000D4901F007FA041C002C01D0FFF723FA65
:1037EC00281C19B03CBC90469946A246AB46F0BD8D
:1037FC0052C30000746B00000080FFFF38000020F3
:10380C00540000208C6B0000786E0000F0B55F4611
:10381C0056464D464446F0B499B0041C0E1C00F0BC
:10382C0093FA051C00225C4B1A705C48FCF7B8FF3D
:10383C00002800D19DE0222800D0A2E0584B1A6845
:10384C0092B20027002A00D19EE06B465A330093B7
:10385C000120211C17ABFEF709FB03041B0C013BD9
:10386C00E31800221A70201C06A9FFF771F9031C3B
:10387C0000202B2B00D088E006A84A49062201F034
:10388C0037F8002806D1444B1978802252420A435B
:10389C001A700DE006A8291C1731062201F028F831
:1038AC00002870D13C4B1978782252420A431A7086
:1038BC00394B00229A560020002A66DAEB7D297ECD
:1038CC0088466A7E9446AF7EE87E297F8A46AC2283
:1038DC009346354959440A68414600916146019125
:1038EC000297039051460491301C304901F0A6F820
:1038FC000A340A2292199046201C06A9FFF728F9CF
:10390C0000272C2840D106AB1B78202B03D1582341
:10391C00EB5CBB4207D0291C583106A801F032F9E8
:10392C000027002830D106A801F03EF9021D4046C0
:10393C00211C00F0ECFF06A801F036F9051D6019FA
:10394C004544291CFFF750F9071C06A801F02CF977
:10395C00041C281C01F028F922180E3292B26B4676
:10396C005A331B8800930120311C114BFEF7B8F918
:10397C000AE0012002210F4A0023FDF779FF0027FE
:10398C0002E0002700E00027381C19B03CBC904630
:10399C009946A246AB46F0BDD10200203000054648
:1039AC0024020546946B0000540000209C6B000020
:1039BC00B06B000051C3000038B500F0C5F9051C10
:1039CC001D481E49FFF722FF041C020408D54D2395
:1039DC00EB5C012B2ED11A48211C00F0A9FF29E029
:1039EC00002827D0030702D5FEF7A6FC0FE0C2067D
:1039FC0002D500F0EBFA0AE0C30408D5114801F037
:103A0C0013F80020FEF7CEFF0120FEF7CBFF620675
:103A1C000CD50420FEF7D8FD80280BD101222A23D7
:103A2C00EA5400F0D3FAFEF7A3FC03E0230601D519
:103A3C00FEF79EFC38BDC046D4040020D402002002
:103A4C00B86B0000B86F00000F4B1B78002B1AD01E
:103A5C000E4B1A8892B20E4B9A4205D00B4B1A8819
:103A6C00013292B21A8002E00022084B1A80074BF6
:103A7C001A8892B2074B9A4205D90122064B1A704A
:103A8C000022024B1A807047D6060020D406002074
:103A9C00FFFF0000973A0000D0020020F0B5574617
:103AAC004E464546E0B482B08046894601F07CF82B
:103ABC00C7B201AB00221A809A70FB1F0020082BA2
:103ACC0045D80022002500242FE041460B5D2349F8
:103ADC000968C91849784E070ED591005218520042
:103AEC009A18303A92B2FF2A28D8411CC9B201AEBA
:103AFC003354032916D923E02E2B23D1FF2A23D8A4
:103B0C000135EDB2042D21D86B1E9A46CA4401AE84
:103B1C00301C00F0E1FE5246107000233380B3706D
:103B2C00002100220134E4B2081CBC42CDD34D4428
:103B3C0001A800F0D1FE2870012008E0002006E06A
:103B4C00002004E0002002E0002000E0002002B091
:103B5C001CBC90469946A246F0BDC04660010020B0
:103B6C0038B5051C002409E02B5D094A1268D318EE
:103B7C005B7844221A4208D00134E4B2281C01F0CC
:103B8C0013F88442F0D3012000E0002038BDC04679
:103B9C0060010020FF23102814D90B4B1B681B1845
:103BAC005B785A0702D53038C0B20AE0031C283BB8
:103BBC003E2B02D85138C0B203E0472801D9313826
:103BCC00C0B2031C181C704760010020F8B5041C1F
:103BDC000E1C00F0E9FFC2B294460023C20724D4A5
:103BEC006246102A21D82378002B1ED000220023F5
:103BFC0018E0191CE05C392802D93738C7B201E04B
:103C0C003038C7B261184878392802D93738C1B270
:103C1C0001E03038C1B2551C38010843B0540233AE
:103C2C00DBB2EAB26345E4D30123181CF8BDC046ED
:103C3C00F0B54F464646C0B485B0051C8846914643
:103C4C0000F0B2FFC0B22B78002B2DD00023002443
:103C5C0011281FD028E0271C61000919691801AE32
:103C6C00301C032200F053FEB178002904D04046EA
:103C7C0000F07CFF002816D001A800238370FFF70A
:103C8C006FFF031E10D002ABD91901A8FFF79EFFDE
:103C9C000134E4B2052CDED9484602A9062200F014
:103CAC0036FE012300E00023181C05B00CBC904626
:103CBC009946F0BD10B586B000F046F8041C684675
:103CCC000630FDF765FD68460E30FDF76DFD684664
:103CDC000A30FDF775FD68461230FDF77DFD211C9D
:103CEC0017316846062200F0B1F9201C1D306946D8
:103CFC000631042200F0AEF9201C213069460E3149
:103D0C00042200F0A7F9201C253069460A31042250
:103D1C0000F0A0F9201C653069461231042200F035
:103D2C0099F96323E35C002B03D002236A46937555
:103D3C0002E001236A46937500206946FEF7D2FA29
:103D4C0006B010BD7047C04600487047D80600202A
:103D5C00F0B557464E464546E0B47B4CF9232380DC
:103D6C000025A5700126E6702571671D381C002101
:103D7C000F2200F0D5FD381C7449092200F0C7FD54
:103D8C00267566750221A175C0226277A82080462F
:103D9C00A0770B23E3772020215421216254222188
:103DAC00404660542321635424216654FF2125206E
:103DBC0021542620215427202154282165542921BF
:103DCC0066542A2166542B21894662542C22414682
:103DDC00A1542D22A35403222E23E25478235B42B8
:103DEC002F22A35413221320302160543121635409
:103DFC003221625400203321605434216054482015
:103E0C0040423521605436210B206054002037216C
:103E1C00605438216054392165543A2165543B2152
:103E2C0065543C2165543D2165543E2165543F2128
:103E3C006554402166545820412160541B20422176
:103E4C006054432163544423E2544523E5540C222B
:103E5C0092464623E2544723E6544823E55449232B
:103E6C00E5544A23E5544B23E5544C23E5544D23A8
:103E7C00E654231CA565E565583300271D81231CDA
:103E8C004E331D805D809D80DD801D816223E75453
:103E9C006323E7546423E75408236522A354662262
:103EAC00A3546722A3546822A354201C6930002118
:103EBC00322200F035FD9B23E6549C23E7549D23CE
:103ECC004946E1549E23E1549F23E154A0230F2241
:103EDC00E252A223E652A4235246E252A623E55212
:103EEC004346E7545222A923E2543D225242AA23CC
:103EFC00E2540022AB23E254AC23E058020E12062B
:103F0C00E2505022B023E252B2230122E254251C8B
:103F1C00B335281C00211E2200F002FD281C0C4980
:103F2C00132200F0F4FCD134201C0021282200F0D4
:103F3C00F7FC201C0749202200F0E9FC1CBC904631
:103F4C009946A246F0BDC046D8060020306D000050
:103F5C003C6D0000506D000010B500F09FF9194C3D
:103F6C0001200021221CF923FEF7F0FC221C173241
:103F7C00002000210623FEF7E9FC2288013A92B2C8
:103F8C00114B9A4207D9FFF7E3FE012000210D4A9D
:103F9C00F923FEF73FFD0B4B01221A755A750222CD
:103FAC009A754A229B5C033B012B04D801214523C3
:103FBC00044AD15404E000F07BF94523014AD05463
:103FCC0010BDC046D8060020FDFF000070B5C0B083
:103FDC00002400261A4D012000212A1CF923FEF78B
:103FEC0019FD0120002101AAF923FEF7AFFC281CC2
:103FFC0001A9F92200F07CFC002809D14D23104ABC
:10400C00D35C002B10D00F4800F00EFD01260CE005
:10401C000134E4B24D230A4AD35C002B05D00A4884
:10402C00211C00F085FC00E00126FA20800000F045
:10403C00EDFB042C01D8012ECCD140B070BDC04694
:10404C00D8060020706D0000986D000008B500F0D7
:10405C005EFC08BD08B500F05AFC08BDF0B58BB08D
:10406C00FFF772FE051C04AC0120211CFEF73AF987
:10407C0021786278A378E7782679607900970196A1
:10408C000290384800F054FCA179E279237A667AE0
:10409C002F202F5C3020285C0002384300960190C2
:1040AC00314800F045FCA17BE27B237C607C0090D6
:1040BC002E4800F03DFCA17AE27A237B607B0090D5
:1040CC002B4800F035FCA17CE27C237D607D0090C8
:1040DC00284800F02DFC2923EB5C012B3DD06423F8
:1040EC00EB5C012B0BD1291C69313123EB5C3222A7
:1040FC00AA5C12021A43204800F01AFC2DE02B2374
:10410C00E95C2C23EA5C2D23EB5C2E202C5C31200B
:10411C002E5C3220285C000230430094019017483A
:10412C0000F006FC2923EB5C032B16D12B23EB5C54
:10413C00002B0FD12C23EB5C002B0BD12D23EB5C34
:10414C00002B07D12E23EB5C002B03D10C4800F085
:10415C006BFC02E00B4800F067FC0B4800F064FCC1
:10416C000BB0F0BDC06D0000E86D00000C6E0000DF
:10417C00246E00003C6E0000546E00007C6E00004B
:10418C00A86E0000BC6E0000B86F000010B586B0C1
:10419C00FFF7DAFD041C011C173168460622FFF7F5
:1041AC0055FF211C1D31684606300422FFF74EFFD7
:1041BC00211C213168460E300422FFF747FF211CD9
:1041CC00253168460A300422FFF740FF211C653177
:1041DC00684612300422FFF739FF6323E35C002B9F
:1041EC0003D002236A46937502E001236A46937555
:1041FC0000206946FEF776F806B010BD08B5012020
:10420C00FEF79EFC6123084A1360084A136086205F
:10421C00C0058021C90180221202FCF7F1FB0020AD
:10422C00FEF78EFC08BDC046703000415430004192
:10423C000223024A1360024A136070477011004156
:10424C000820004108B58420C00580218900002287
:10425C000123FCF741FA08BD10B58424E405201CA9
:10426C00022100220123FCF737FA0223636110BDFF
:10427C0010B500240BE08420C0050221FCF7DAF90C
:10428C00002808D1052000F0C1FA0134E4B2042C56
:10429C00F1D9002000E0012010BDC04608B58820EF
:1042AC00C005402100220123FCF716FA08BDC046C8
:1042BC0008B58820C0054021FCF7BCF908BDC046F4
:1042CC0038B58824E4058025ED01201C291C00222A
:1042DC000123FCF701FA656138BDC04608B588209A
:1042EC00C0058021C901FCF7A5F908BDF0B583B064
:1042FC00041E012C17D842000C4BD55A00950123F3
:10430C006A4613710A4E8700B8596946FCF720F9C2
:10431C00084B185D084B1A5D291CFCF7ABF9B85912
:10432C00291CFCF78DF903B0F0BDC046D06E00001F
:10433C0058010020500100205401002008B5FFF75F
:10434C005DFFFFF789FFFFF793FF42424241064BA7
:10435C001A70FFF777FFFFF7B3FF0020FFF7C6FFD8
:10436C000120FFF7C3FF08BDD407002008B50128C2
:10437C0008D88200044BD3584000044A815A181CB8
:10438C00FCF76AF908BDC04658010020D06E000049
:10439C00012808D88200044BD35859684000034ABE
:1043AC00825A4A405A60704758010020D06E000073
:1043BC007047C0467047C0467047C0467047C046FD
:1043CC007047C0467047C0467047C0467047C046ED
:1043DC007047C0467047C0467047C0467047C046DD
:1043EC007047C0467047C0467047C0467047C046CD
:1043FC007047C0467047C0467047C0467047C046BD
:10440C007047C0467047C0467047C0467047C046AC
:10441C007047C0467047C0467047C0467047C0469C
:10442C007047C0467047C04608B5431E012B04D8E0
:10443C00081C111CFBF798FF05E000F053FA5823F9
:10444C0003600120404208BD08B5FFF7F1FE054AA4
:10445C000020111CFCF768F8FEF710FBFEF772FB4E
:10446C0008BDC04600127A0008B5FBF7CDFF06491F
:10447C0000F0E2F9054B1860002008230370044B90
:10448C004380FDF713FF08BD1027000000200046F5
:10449C00C409000008B54368026882F3088898478D
:1044AC0008BDC04638B503200E49FDF7ABF80E49E0
:1044BC00081C0E4AFCF78EFB0025FCF7BBFF041E04
:1044CC00042C0DD0002801D10135EDB2032D02D9F9
:1044DC00FCF710FF04E0FFF76FFAFEF721FBECE7A7
:1044EC0060B238BDFC070020C13C0000513D00000B
:1044FC0070B582B0FFF728FC041C0E4800F094FA4B
:10450C000D4E0E4D301C291C00F012FA0C4800F018
:10451C008BFA0C4800F088FA217D627DA37D0A4855
:10452C0000900A4800F004FA301C291C00F000FA34
:10453C0002B070BDB86F0000606F0000D46E000058
:10454C00086F0000146F0000686F00003C6F0000E3
:10455C0008B5FFF7F9FB6323C35C002B0DD0074BA9
:10456C001B78012B06D1FDF743F9011C044800F020
:10457C00DFF902E0034800F057FA08BDD607002027
:10458C00706F0000986F000030B58FB0FFF7DCFB48
:10459C00041C00230C930CAA938006A90693079382
:1045AC00089309930A938B820093019302930393CC
:1045BC0004936A469382C37D0120FF2B5AD1237E3C
:1045CC00FF2B57D1637EFF2B54D10CAD0020002163
:1045DC002A1C0023FEF7BAF92B78FF2B3DD10CAA2D
:1045EC005278FF2A39D10CAA9278FF2A35D1882229
:1045FC00214B1A70214800F017FA002505E0FCF752
:10460C00C3F806AB58550135EDB2142DF7D906A8F1
:10461C006946FEF7E9FA00280ED1FEF7C3F9221C11
:10462C0017320020011C031CFEF7F4F9FFF790FB76
:10463C00FFF7CCFC01201DE04D23E35C002B03D0E5
:10464C000F48694600F074F906AA002306930793F5
:10465C00089309930A939382CCE7E3750CAB5A78D1
:10466C0022769A786276DA78A2761A79E2765B7993
:10467C00237700200FB030BDD1020020A86F0000BE
:10468C00606F000000B5C1B0002303E01A786946E2
:10469C00CA540133072BF9D9082304E0C218127845
:1046AC006946CA540133A72BF8D9A82303E01A781A
:1046BC006946CA540133FF2BF9D972B61220002176
:1046CC0000220023FEF7CEF8222000216A46802328
:1046DC005B00FEF7C7F862B641B000BD38B5FFF716
:1046EC0033FB041CFFF7B0FEFFF7BEFEFFF726FE00
:1046FC00FFF732FCFFF748FF002803D0E020C00191
:10470C00FFF7C0FFA823E35C012B18D10220FDF7B3
:10471C005BFF802813D10022A823E254AB23E25480
:10472C00AC23E254AD23E254AE23E25401222A23FB
:10473C00E254FFF74BFCE020C001FFF7A3FFE0239E
:10474C00DB011D6801356B1E9D41012D11D12A2302
:10475C00E35C002B06D101222A23E254FFF736FC3E
:10476C00002506E0FFF7BAFD031C581E83415B428F
:10477C001D40012D03D1E020C001FFF78BFE00226C
:10478C002A23E2544D23E35C002B01D0FFF7B0FE4B
:10479C006323E35C002B0AD0FFF784FE042803D1CB
:1047AC000122174B1A7004E0FFF7F0FC01E0FFF751
:1047BC00EDFC4D23E35C002B03D0FFF74FFCFFF720
:1047CC00C7FE01220F4B1A700020FFF7CFFDFFF739
:1047DC00F3F86323E35C002B01D0FCF72BFE0A4BB0
:1047EC001B78002B08D00020FFF7D2FD0120FFF72B
:1047FC00CFFD0022044B1A70FEF792F9E7E7C04692
:10480C00D6070020D5070020CA02002000B585B0CD
:10481C000190FBF7F9FD074900F00EF8019B584396
:10482C00039002E0039B013B0393039B002BF9D104
:10483C0005B000BD10270000002934D00123002250
:10484C0010B488422CD301242407A14204D2814203
:10485C0002D209011B01F8E7E400A14204D2814213
:10486C0002D249005B00F8E7884201D3401A1A4390
:10487C004C08A04202D3001B5C0822438C08A042C7
:10488C0002D3001B9C082243CC08A04202D3001B7D
:10489C00DC082243002803D01B0901D00909E3E7F7
:1048AC00101C10BC7047002801D00020C04307B476
:1048BC00024802A14018029003BDC0461900000036
:1048CC000029F0D003B5FFF7B9FF0EBC4243891A9B
:1048DC001847C0467047C04608B500210A2200F0B0
:1048EC006BFA08BD014B18687047C046C401002024
:1048FC0030B50023934208D0C55C0133CC18013C81
:10490C002478A542F6D0281B00E0002030BD10B55D
:10491C000023934203D0CC5CC4540133F9E710BD9F
:10492C00031C8218934202D019700133FAE77047C6
:10493C000FB40B4B13B51C68002C05D0A369002BCE
:10494C0002D1201C01F0D8FB05ABA168201C049AF5
:10495C00019300F0A9FD16BC08BC04B01847C04672
:10496C00C401002070B5051C0E1C002804D08269FF
:10497C00002A01D101F0C0FBAC68A3891A0702D54B
:10498C002369002B19D1281C211C01F027FA0028BF
:10499C0013D00120404245E03178002B1BDAA2698C
:1049AC00934211DA281C221C01F0ACF9013043426D
:1049BC005841C0B20028ECD10136A3683278013BD3
:1049CC00A360002AE8D10CE02368197023681978D9
:1049DC000A2903D1E6E722681170236801332360AA
:1049EC00EAE7002B17DAA269934208DB22680A2354
:1049FC001370236819780A2911D1281C01E0281C8E
:104A0C000A21221C01F07EF9013043425841C0B208
:104A1C00002806D0BDE722680A23137023680133EF
:104A2C0023600A2070BD000008B5034B011C1868F8
:104A3C00FFF798FF08BDC046C40100200EB400B5B6
:104A4C009CB01DAB04CB822202A992008A810A4A37
:104A5C0002908A604A6101225242CA81074A086167
:104A6C0010681D9A019300F015FA029A0023137036
:104A7C001CB008BC03B01847FFFFFF7FC401002027
:104A8C000EB430B59CB01FAD08CD812302AC9B0099
:104A9C00A3810290069000F087F80B4B6060636274
:104AAC0000236363A36401235B42E381074B6061D2
:104ABC00211C18681F9A2B1C019500F037FB1CB0A9
:104ACC0030BC08BC03B01847054B0000C4010020E3
:104ADC0038B50C1C0E25495F01F0D2FC002803DB15
:104AEC00626D1318636503E0A289024B1340A38126
:104AFC0038BDC046FFEFFFFF00207047F8B51E1C05
:104B0C008B89051C0C1C171CDA0505D50E23C95EF8
:104B1C000022022301F060FBA289054B281C1340E4
:104B2C00A3810E22A15E331C3A1C01F043F9F8BD9F
:104B3C00FFEFFFFF38B50C1C0E25495F01F04CFB55
:104B4C00A389421C03D1054A1340A38104E08022AF
:104B5C0052011343A381606538BDC046FFEFFFFFD0
:104B6C0008B50E23C95E01F0ABF908BDC9B20378D4
:104B7C00002B03D08B4204D00130F8E7002900D081
:104B8C00181C704702780B7801300131002A01D0D3
:104B9C009A42F7D0D01A7047031C0A7801311A7068
:104BAC000133002AF9D170470023C25C0133002A7B
:104BBC00FBD1581E7047031C002010B582420FD049
:104BCC001C780878A04201D1012A03D118780B78FF
:104BDC00C01A05E0013A0028F8D001330131EFE7A3
:104BEC0010BD0000F8B5174B071C1D680E1CAC6DF2
:104BFC00002C1FD1502001F053FBA8658460AB6DD5
:104C0C00046044601C61DC60AB6D9C615C61AB6DED
:104C1C00DC629C62AB6D5C631C63AB6DDC639C63A0
:104C2C00AB6D5C641C64AB6DDC649C64AB6D1C771D
:104C3C00AB6D5C62AA6D381C311C012300F004F8CA
:104C4C00F8BDC046C4010020F0B5002802D11068A0
:104C5C00002826D00578441C0E1C3778002F09D06C
:104C6C000136BD42F9D1002B01D0201CF2E71460B3
:104C7C00037016E0002D09D11560281C11E02F7867
:104C8C00B74207D00135002FF9D11C1C631C2678C4
:104C9C000D1CF4E7002E02D00021217000E0331C23
:104CAC001360F0BDF0B51D1C424B87B01B6805901E
:104CBC000293039101920B1C1C78029F5E1C3A1903
:104CCC00517808220A4001D0331CF5E72D2C04D171
:104CDC0001279E1C5C78009704E000922B2C01D1DC
:104CEC005C789E1C10232A1C9A4311D1302C08D1BD
:104CFC00327820218A43582A07D174781D1C023639
:104D0C0006E0002D04D10A2502E0002D00D1082573
:104D1C00009F291C7B427B4180273F06FF1A381CD1
:104D2C00FFF7CEFD381C0491291CFFF785FD0023ED
:104D3C00021C181C029F391949784F0701D5303CC9
:104D4C0007E003270F4017D05721012F00D137213F
:104D5C00641AAC4210DA591C0BD0904207D802D11D
:104D6C00049FBC4203DC68430123201801E00123AB
:104D7C005B4234780136DDE7009F591C0BD1802053
:104D8C007B427B410006059FC01A22233B60019F9A
:104D9C00002F09D10BE0002F00D04042019F002FC3
:104DAC0005D0039A002B00D0721E019F3A6007B009
:104DBC00F0BDC0466001002038B5131C044A051C28
:104DCC000C1C1068291C221CFFF76CFF38BDC04658
:104DDC00C4010020F0B58D6885B0071C0C1C039233
:104DEC000193AB4245D390228B89D20013423DD024
:104DFC0062690326564309692068F20F401A961916
:104E0C000290021C0198013212187610964200D2C0
:104E1C00161C381C5A050FD5311C01F0B7FA051EAB
:104E2C0013D0029A2169FFF772FDA289184B134027
:104E3C0080221343A38111E0321C01F0FBFA051E02
:104E4C000CD1381C216901F059FA0C233B60A38961
:104E5C00402213430120A381404217E0029B2561AD
:104E6C00ED1825606661019DF61AA6600198A842AE
:104E7C0000D2019D2A1C2068039901F026FAA26831
:104E8C000020531BA36023685D19256005B0F0BD9D
:104E9C007FFBFFFFF0B59FB0039005938B890E1C31
:104EAC00171C19060FD53269002A0CD1402101F0CC
:104EBC006DFA30603061002803D103990C230B602C
:104ECC00C9E04023736106AD00236B6120236B7630
:104EDC003023AB763C1C2378002B03D1E21B0292CF
:104EEC0011D003E0252BF9D00134F4E70398311CE1
:104EFC003A1C029BFFF76EFF013000D1A6E06969F6
:104F0C00029A8B186B612378002B00D19EE0012252
:104F1C0052426A606A4600235B3201342B60EB60BC
:104F2C00AB601370AB654E4F2178381C052201F035
:104F3C00C1F9002807D0C71B2B680120B8401843C3
:104F4C0028600134EFE72B68D90603D56A46202187
:104F5C005B3211701A0703D56A462B215B32117034
:104F6C0022782A2A01D0099B0EE0059A111D12689D
:104F7C000591002A01DB099204E05242EA60022208
:104F8C0013432B60013409E02278303A092A04D803
:104F9C000A214B4301349B18F6E7099323782E2BF7
:104FAC0018D163782A2B09D1059B02341A1D1B6872
:104FBC000592002B0DDA01235B420AE00134002339
:104FCC002278303A092A04D80A214B4301349B1821
:104FDC00F6E70793234F2178381C032201F06AF976
:104FEC00002806D0C71B2B684020B8401843286007
:104FFC00013421781C480622671C297601F05AF9E5
:10500C00002812D0194B002B06D1059B0722073321
:10501C0093430833059314E005AB00930398291CC4
:10502C00321C134B00E000BF07E005AB0093039864
:10503C00291C321C0E4B00F0B3FB04900499013177
:10504C0004D06A69049953186B6143E7B3895A0613
:10505C0001D40B9801E0012040421FB0F0BDC046C6
:10506C00C4700000CA700000CE7000000000000088
:10507C00E14D000038B5141C4B1C02D101204042FC
:10508C0034E0938920229343A381636BCDB2626891
:10509C00002B0FD0A36B9A4206DA2368013B2360E6
:1050AC001D70636801331FE0211C00F097F9002884
:1050BC00F3D0E3E721692368002909D08B4207D993
:1050CC00591E0878A84203D10132216062600DE0BC
:1050DC00E363231C443363630323A363231C46331E
:1050EC0022641D70236001236360281C38BD10B539
:1050FC000C1C496B00290ED0231C4433994201D05F
:10510C0001F0FCF8236C002060636360834202D0E2
:10511C00E36B236009E02369202223600023636092
:10512C00A38901201343A381404210BDF0B5A54CC7
:10513C00071CA5440193002300924693A24A47936F
:10514C00BE235B000C1C43A9CA50A04AC02303A871
:10515C005B004890CA50009A1578002D00D128E1C8
:10516C009B4E306843195A78082313401FD061684E
:10517C0000290FDD236830681A78821852781107DD
:10518C0011D5479A01330132479262682360013A84
:10519C006260ECE7C0235B0043AAD358381C211C87
:1051AC0098470028E6D0009E01360096D3E7009E73
:1051BC000136252D4CD100984593439343782A2BE7
:1051CC0003D11023061C43930236351C29780B1C83
:1051DC00303B092B07D8459A0A235343303B5918C7
:1051EC0045910135F2E77B4E0322301C01F062F849
:1051FC00002806D0861B439B0120B04018434390E7
:10520C0001356E1C2D78672D0FD8652D77D25B2D4F
:10521C0051D005D8002D00D1CDE0252D18D070E04F
:10522C00632D54D0642D3DD06BE0702D2FD007D85A
:10523C006E2D52D038D8692D63D10023449338E0B9
:10524C00752D2FD0782D26D0732D5AD102233CE00A
:10525C00606800280DDD23681A78AA4200D0A8E007
:10526C00013362682360479B013A013362604793C4
:10527C009BE7C02343A95B00CB58381C211C9847E3
:10528C000028E8D04698002800D08EE093E0439A9E
:10529C00202313434393439880239B00034343935E
:1052AC00102302E00A2300E00823449304236E2D0C
:1052BC000BDC032309E0311C03A801F007F9439927
:1052CC0040230B434393061C012349931DE0439A4F
:1052DC004023134343930023F7E74399CB0600D5B0
:1052EC0063E7019B479AC80704D5191D01911B68F8
:1052FC001A805AE7191D01911B681A6055E705239E
:10530C00E3E7032349930A2344936168002903DDEF
:10531C00439A520614D51BE0C02343A85B00C35824
:10532C00211C381C98470028F2D0ABE7479A013271
:10533C0047926268013A6260002A13DD01332360F0
:10534C00236823491A7809688A1852781007EDD413
:10535C00499B022B10DC381C43A9221C01AB00F02A
:10536C0035FB1CE0C02343A95B00CB58381C211C27
:10537C0098470028E4D085E7042B06DC381C43A9A9
:10538C00221C01AB00F086FB09E0134B002B00D173
:10539C000BE7381C43A9221C01AB00E000BF01281D
:1053AC0007D0022800D000E76CE7A389590604D582
:1053BC0001E0469801E001204042A5239B009D445A
:1053CC00F0BDC0466CFDFFFF81500000FB5000009B
:1053DC0060010020CA70000000000000F7B50B1C33
:1053EC004D6B44330C1C9D421BD18026F600311CA6
:1053FC0000F0CCFF002802D10120404225E0231C04
:10540C006063A66346331A78104BC254231C453391
:10541C001A780F4BC2542A780E4BC254C018206015
:10542C0012E08E6B291C73001A1C019301F002F818
:10543C00051EE1D08719381C291C321CFFF767FAAE
:10544C00019B27606563A3630020FEBDFF03000082
:10545C00FE030000FD030000936810B5013B936050
:10546C00002B05DA9469A34208DBCBB20A2B05D0DA
:10547C001368581C10601970C8B201E000F042FCAF
:10548C0010BDF8B5061C0F1C141CD518AC4208D066
:10549C002178301C3A1CFFF7DFFF0134431CF5D197
:1054AC0000E00020F8BD0000F0B59FB0061C0F1CFA
:1054BC0003920593002804D08169002901D100F0E2
:1054CC001BFE754B9F4201D1776808E0734B9F42DE
:1054DC0001D1B76803E0724B9F4200D1F768BB89DA
:1054EC001A070AD53B69002B07D006AD00236B6168
:1054FC0020236B763023AB763BE0301C391C00F05C
:10550C006DFC0028F1D001204042C2E0059A111D2B
:10551C0012680591002A76DB0992013423782E2B30
:10552C0000D181E021785F48032200F0C3FE0028FF
:10553C0007D05C492A68431A4020984010432860E1
:10554C0001342178631C584806220393297600F015
:10555C00B1FE002800D18AE0544B002B7ED1059B74
:10556C00072207339343083305936A690499531848
:10557C006B61039C2378002B04D10399611A02916F
:10558C0010D003E0252BF8D00134F3E7301C391C84
:10559C00039A029BFFF775FF013075D06A69029977
:1055AC0053186B612378002B6ED0012252426A6033
:1055BC006A4600235B3201342B60EB60AB601370E6
:1055CC00AB6521783A48052200F074FE002808D01B
:1055DC00374A0134831A012098402B6818432860FD
:1055EC00EFE72B68D90603D56A4620215B32117090
:1055FC001A0703D56A462B215B32117022782A2AAE
:10560C0084D0099B05E05242EA60022213432B60CE
:10561C0083E72278303A092A04D80A214B43013413
:10562C009B18F6E7099379E763782A2B09D1059B38
:10563C0002341A1D1B680592002B0DDA01235B4204
:10564C000AE0013400232278303A092A04D80A21CE
:10565C004B4301349B18F6E7079363E705AB0093C4
:10566C00301C291C3A1C134B00E000BF07E005ABB3
:10567C000093301C291C3A1C0E4B00F091F804903E
:10568C000499013100D070E7BB895A0600D53AE77E
:10569C000B981FB0F0BDC046207100004071000097
:1056AC0060710000CA700000CE70000000000000A5
:1056BC00C47000008F540000F7B5151C01930A69E3
:1056CC008B68061C0C1C934200DA131C221C2B60EA
:1056DC0043321278002A01D001332B6020688006F7
:1056EC0002D52B6802332B60216806270F401FD090
:1056FC00231C43331B785A1E9341226892061FD5F4
:10570C00E11840313020C870211C5A1C45310978F1
:10571C00A21840320233D17012E0221C301C0199C5
:10572C0019320123089FB847013011D0009F01376F
:10573C000097E0682968009F431A9F42EDDBD7E78A
:10574C00221C301C01994332089FB847013002D10A
:10575C000120404223E0206806212B68E2680140CA
:10576C000025042903D1D51AEB43DB171D40A26891
:10577C0023699A4201DDD31AED1800270097009F88
:10578C00AF420BDA221C301C01991A320123089FFC
:10579C00B8470130DCD0009F0137EFE70020FEBD99
:1057AC00F0B50D1C8BB0433506920590079304950C
:1057BC000B7E0C1C109A6E2B00D1A7E011D8632B1A
:1057CC0022D009D8002B00D1B0E0582B00D0C0E07B
:1057DC0045310B707B4D4EE0642B1CD0692B1AD0DD
:1057EC00B7E0732B00D1A5E009D86F2B29D0702B13
:1057FC0000D0AEE00E68202333430B6036E0752BEF
:10580C001FD0782B32D0A4E013680D1C191D423523
:10581C0011601B689FE0216813680E0603D5191DE3
:10582C0011601E6805E04806F9D5191D11600021AC
:10583C005E5E644B002E3BDA049D2D2276422A706C
:10584C0036E0216813680E0603D5191D11601E6819
:10585C0004E04806F9D5191D1E881160594B227EAB
:10586C00039308276F2A1ED00A271CE0231C7821DB
:10587C004533554D197011682368081D0395106048
:10588C001E0601D50E6802E05806FBD50E88D90716
:10589C0002D52022134323601027002E03D1226847
:1058AC0020239A432260231C002243331A7001E008
:1058BC0003930A276368A360002B03DB256804228B
:1058CC0095432560002E02D1049D002B0ED0049D23
:1058DC00301C391CFEF7F4FF0398013D435C301C6F
:1058EC002B70391CFEF7A8FF061EF1D1082F09D129
:1058FC002168C90706D5626823699A4202DC013D1A
:10590C0030232B70049E731B23612AE008681368F4
:10591C004969050604D5181D10601B68196005E05F
:10592C004606F8D5181D10601B68198000232361EA
:10593C00049D16E01368191D11601D68281CFFF7E3
:10594C0033F963682061984200D923612069606053
:10595C0004E0251C42352B7001232361049E002397
:10596C003370079E05980096211C09AA069BFFF729
:10597C00A3FE013002D10120404221E02A1C0598EF
:10598C0006992369079DA8470130F4D02668B6070D
:10599C0005D4099BE068984212DA181C10E0002527
:1059AC00E0680999431A9D42F3DA221C059806997E
:1059BC0019320123079EB0470130DCD00135EFE7E7
:1059CC000BB0F0BDD5700000E6700000F7B5151CEB
:1059DC008A6801900C1C002A06D18A69511E8A41E2
:1059EC00524201210A43A2602268D20603D41A68EB
:1059FC00111D196017680026A06900281DD12368A5
:105A0C000136DB0603D42A6813783B7001372A6809
:105A1C006B6801322A60A268013B013A6B60A2609C
:105A2C00002A25D0002BE7DCC0235B00E35801984B
:105A3C00291C98470028DFD01AE0012808D12A68D1
:105A4C0013786269D35C002BD9D1002E1FD00FE0E4
:105A5C00022802D0002E09D00AE02A6813780C4ADA
:105A6C001268D3185B781A07C9D5F3E701280ED052
:105A7C0022681023134006D1E2680132E260A26969
:105A8C00002A00D03B70236900209E192661FEBDC0
:105A9C0060010020F0B5151C8BB0774A049002937E
:105AAC0007ABC1CAC1C388690C1C032802D1734E51
:105ABC00059601E0724F0597A3680026AE22591E89
:105ACC0003965200914205D95E3BFF3B03935E2344
